{
	"Halal.sol": {
		"HalalSupplyChain": {
			"abi": [
				{
					"inputs": [],
					"stateMutability": "nonpayable",
					"type": "constructor"
				},
				{
					"anonymous": false,
					"inputs": [
						{
							"indexed": true,
							"internalType": "string",
							"name": "batchId",
							"type": "string"
						},
						{
							"indexed": false,
							"internalType": "string",
							"name": "productName",
							"type": "string"
						},
						{
							"indexed": true,
							"internalType": "address",
							"name": "producer",
							"type": "address"
						},
						{
							"indexed": false,
							"internalType": "uint256",
							"name": "timestamp",
							"type": "uint256"
						}
					],
					"name": "BatchCreated",
					"type": "event"
				},
				{
					"anonymous": false,
					"inputs": [
						{
							"indexed": true,
							"internalType": "string",
							"name": "batchId",
							"type": "string"
						},
						{
							"indexed": true,
							"internalType": "address",
							"name": "from",
							"type": "address"
						},
						{
							"indexed": true,
							"internalType": "address",
							"name": "to",
							"type": "address"
						},
						{
							"indexed": false,
							"internalType": "uint256",
							"name": "timestamp",
							"type": "uint256"
						}
					],
					"name": "BatchTransferred",
					"type": "event"
				},
				{
					"anonymous": false,
					"inputs": [
						{
							"indexed": true,
							"internalType": "string",
							"name": "batchId",
							"type": "string"
						},
						{
							"indexed": false,
							"internalType": "string",
							"name": "certHash",
							"type": "string"
						},
						{
							"indexed": true,
							"internalType": "address",
							"name": "authority",
							"type": "address"
						},
						{
							"indexed": false,
							"internalType": "uint256",
							"name": "timestamp",
							"type": "uint256"
						}
					],
					"name": "HalalCertified",
					"type": "event"
				},
				{
					"anonymous": false,
					"inputs": [
						{
							"indexed": true,
							"internalType": "address",
							"name": "account",
							"type": "address"
						},
						{
							"indexed": false,
							"internalType": "string",
							"name": "role",
							"type": "string"
						}
					],
					"name": "RoleAssigned",
					"type": "event"
				},
				{
					"anonymous": false,
					"inputs": [
						{
							"indexed": true,
							"internalType": "address",
							"name": "account",
							"type": "address"
						},
						{
							"indexed": false,
							"internalType": "string",
							"name": "role",
							"type": "string"
						}
					],
					"name": "RoleRevoked",
					"type": "event"
				},
				{
					"anonymous": false,
					"inputs": [
						{
							"indexed": true,
							"internalType": "string",
							"name": "batchId",
							"type": "string"
						},
						{
							"indexed": false,
							"internalType": "string",
							"name": "newStatus",
							"type": "string"
						},
						{
							"indexed": true,
							"internalType": "address",
							"name": "updatedBy",
							"type": "address"
						},
						{
							"indexed": false,
							"internalType": "uint256",
							"name": "timestamp",
							"type": "uint256"
						}
					],
					"name": "StatusUpdated",
					"type": "event"
				},
				{
					"inputs": [],
					"name": "admin",
					"outputs": [
						{
							"internalType": "address",
							"name": "",
							"type": "address"
						}
					],
					"stateMutability": "view",
					"type": "function"
				},
				{
					"inputs": [
						{
							"internalType": "address",
							"name": "_account",
							"type": "address"
						}
					],
					"name": "assignDistributor",
					"outputs": [],
					"stateMutability": "nonpayable",
					"type": "function"
				},
				{
					"inputs": [
						{
							"internalType": "address",
							"name": "_account",
							"type": "address"
						}
					],
					"name": "assignHalalAuthority",
					"outputs": [],
					"stateMutability": "nonpayable",
					"type": "function"
				},
				{
					"inputs": [
						{
							"internalType": "address",
							"name": "_account",
							"type": "address"
						}
					],
					"name": "assignProducer",
					"outputs": [],
					"stateMutability": "nonpayable",
					"type": "function"
				},
				{
					"inputs": [
						{
							"internalType": "address",
							"name": "_account",
							"type": "address"
						}
					],
					"name": "assignRetailer",
					"outputs": [],
					"stateMutability": "nonpayable",
					"type": "function"
				},
				{
					"inputs": [
						{
							"internalType": "string",
							"name": "",
							"type": "string"
						},
						{
							"internalType": "uint256",
							"name": "",
							"type": "uint256"
						}
					],
					"name": "batchHistory",
					"outputs": [
						{
							"internalType": "string",
							"name": "status",
							"type": "string"
						},
						{
							"internalType": "uint256",
							"name": "timestamp",
							"type": "uint256"
						},
						{
							"internalType": "address",
							"name": "updatedBy",
							"type": "address"
						}
					],
					"stateMutability": "view",
					"type": "function"
				},
				{
					"inputs": [
						{
							"internalType": "uint256",
							"name": "",
							"type": "uint256"
						}
					],
					"name": "batchIds",
					"outputs": [
						{
							"internalType": "string",
							"name": "",
							"type": "string"
						}
					],
					"stateMutability": "view",
					"type": "function"
				},
				{
					"inputs": [
						{
							"internalType": "string",
							"name": "",
							"type": "string"
						}
					],
					"name": "batches",
					"outputs": [
						{
							"internalType": "string",
							"name": "productName",
							"type": "string"
						},
						{
							"internalType": "string",
							"name": "batchId",
							"type": "string"
						},
						{
							"internalType": "address",
							"name": "producer",
							"type": "address"
						},
						{
							"internalType": "address",
							"name": "currentOwner",
							"type": "address"
						},
						{
							"internalType": "string",
							"name": "status",
							"type": "string"
						},
						{
							"internalType": "string",
							"name": "halalCertHash",
							"type": "string"
						},
						{
							"internalType": "uint256",
							"name": "createdAt",
							"type": "uint256"
						},
						{
							"internalType": "bool",
							"name": "exists",
							"type": "bool"
						}
					],
					"stateMutability": "view",
					"type": "function"
				},
				{
					"inputs": [
						{
							"internalType": "string",
							"name": "_batchId",
							"type": "string"
						},
						{
							"internalType": "string",
							"name": "_productName",
							"type": "string"
						}
					],
					"name": "createBatch",
					"outputs": [],
					"stateMutability": "nonpayable",
					"type": "function"
				},
				{
					"inputs": [
						{
							"internalType": "address",
							"name": "",
							"type": "address"
						}
					],
					"name": "distributors",
					"outputs": [
						{
							"internalType": "bool",
							"name": "",
							"type": "bool"
						}
					],
					"stateMutability": "view",
					"type": "function"
				},
				{
					"inputs": [],
					"name": "getAllBatchIds",
					"outputs": [
						{
							"internalType": "string[]",
							"name": "",
							"type": "string[]"
						}
					],
					"stateMutability": "view",
					"type": "function"
				},
				{
					"inputs": [
						{
							"internalType": "string",
							"name": "_batchId",
							"type": "string"
						}
					],
					"name": "getBatch",
					"outputs": [
						{
							"internalType": "string",
							"name": "productName",
							"type": "string"
						},
						{
							"internalType": "string",
							"name": "batchId",
							"type": "string"
						},
						{
							"internalType": "address",
							"name": "producer",
							"type": "address"
						},
						{
							"internalType": "address",
							"name": "currentOwner",
							"type": "address"
						},
						{
							"internalType": "string",
							"name": "status",
							"type": "string"
						},
						{
							"internalType": "string",
							"name": "halalCertHash",
							"type": "string"
						},
						{
							"internalType": "uint256",
							"name": "createdAt",
							"type": "uint256"
						}
					],
					"stateMutability": "view",
					"type": "function"
				},
				{
					"inputs": [
						{
							"internalType": "string",
							"name": "_batchId",
							"type": "string"
						}
					],
					"name": "getBatchHistory",
					"outputs": [
						{
							"components": [
								{
									"internalType": "string",
									"name": "status",
									"type": "string"
								},
								{
									"internalType": "uint256",
									"name": "timestamp",
									"type": "uint256"
								},
								{
									"internalType": "address",
									"name": "updatedBy",
									"type": "address"
								}
							],
							"internalType": "struct HalalSupplyChain.StatusHistory[]",
							"name": "",
							"type": "tuple[]"
						}
					],
					"stateMutability": "view",
					"type": "function"
				},
				{
					"inputs": [],
					"name": "getTotalBatches",
					"outputs": [
						{
							"internalType": "uint256",
							"name": "",
							"type": "uint256"
						}
					],
					"stateMutability": "view",
					"type": "function"
				},
				{
					"inputs": [
						{
							"internalType": "address",
							"name": "",
							"type": "address"
						}
					],
					"name": "halalAuthorities",
					"outputs": [
						{
							"internalType": "bool",
							"name": "",
							"type": "bool"
						}
					],
					"stateMutability": "view",
					"type": "function"
				},
				{
					"inputs": [
						{
							"internalType": "address",
							"name": "_account",
							"type": "address"
						},
						{
							"internalType": "string",
							"name": "_role",
							"type": "string"
						}
					],
					"name": "hasRole",
					"outputs": [
						{
							"internalType": "bool",
							"name": "",
							"type": "bool"
						}
					],
					"stateMutability": "view",
					"type": "function"
				},
				{
					"inputs": [
						{
							"internalType": "address",
							"name": "",
							"type": "address"
						}
					],
					"name": "producers",
					"outputs": [
						{
							"internalType": "bool",
							"name": "",
							"type": "bool"
						}
					],
					"stateMutability": "view",
					"type": "function"
				},
				{
					"inputs": [
						{
							"internalType": "address",
							"name": "",
							"type": "address"
						}
					],
					"name": "retailers",
					"outputs": [
						{
							"internalType": "bool",
							"name": "",
							"type": "bool"
						}
					],
					"stateMutability": "view",
					"type": "function"
				},
				{
					"inputs": [
						{
							"internalType": "address",
							"name": "_account",
							"type": "address"
						}
					],
					"name": "revokeDistributor",
					"outputs": [],
					"stateMutability": "nonpayable",
					"type": "function"
				},
				{
					"inputs": [
						{
							"internalType": "address",
							"name": "_account",
							"type": "address"
						}
					],
					"name": "revokeHalalAuthority",
					"outputs": [],
					"stateMutability": "nonpayable",
					"type": "function"
				},
				{
					"inputs": [
						{
							"internalType": "address",
							"name": "_account",
							"type": "address"
						}
					],
					"name": "revokeProducer",
					"outputs": [],
					"stateMutability": "nonpayable",
					"type": "function"
				},
				{
					"inputs": [
						{
							"internalType": "address",
							"name": "_account",
							"type": "address"
						}
					],
					"name": "revokeRetailer",
					"outputs": [],
					"stateMutability": "nonpayable",
					"type": "function"
				},
				{
					"inputs": [
						{
							"internalType": "string",
							"name": "_batchId",
							"type": "string"
						},
						{
							"internalType": "string",
							"name": "_certHash",
							"type": "string"
						}
					],
					"name": "setHalalCertificate",
					"outputs": [],
					"stateMutability": "nonpayable",
					"type": "function"
				},
				{
					"inputs": [
						{
							"internalType": "string",
							"name": "_batchId",
							"type": "string"
						},
						{
							"internalType": "address",
							"name": "_to",
							"type": "address"
						}
					],
					"name": "transferBatch",
					"outputs": [],
					"stateMutability": "nonpayable",
					"type": "function"
				},
				{
					"inputs": [
						{
							"internalType": "string",
							"name": "_batchId",
							"type": "string"
						},
						{
							"internalType": "string",
							"name": "_newStatus",
							"type": "string"
						}
					],
					"name": "updateStatus",
					"outputs": [],
					"stateMutability": "nonpayable",
					"type": "function"
				}
			],
			"devdoc": {
				"details": "Smart contract for tracking halal products through the supply chain",
				"kind": "dev",
				"methods": {
					"createBatch(string,string)": {
						"details": "Create a new batch (only producer)"
					},
					"getAllBatchIds()": {
						"details": "Get all batch IDs"
					},
					"getBatch(string)": {
						"details": "Get batch details"
					},
					"getBatchHistory(string)": {
						"details": "Get batch history"
					},
					"getTotalBatches()": {
						"details": "Get total number of batches"
					},
					"hasRole(address,string)": {
						"details": "Check if an address has a specific role"
					},
					"setHalalCertificate(string,string)": {
						"details": "Set halal certificate (only halal authority)"
					},
					"transferBatch(string,address)": {
						"details": "Transfer batch to next party in supply chain"
					},
					"updateStatus(string,string)": {
						"details": "Update batch status (only current owner or authorized roles)"
					}
				},
				"title": "HalalSupplyChain",
				"version": 1
			},
			"evm": {
				"assembly": "    /* \"Halal.sol\":175:10956  contract HalalSupplyChain {... */\n  mstore(0x40, 0x80)\n    /* \"Halal.sol\":2959:3010  constructor() {... */\n  callvalue\n  dup1\n  iszero\n  tag_1\n  jumpi\n  revert(0x00, 0x00)\ntag_1:\n  pop\n    /* \"Halal.sol\":2992:3002  msg.sender */\n  caller\n    /* \"Halal.sol\":2984:2989  admin */\n  0x00\n  0x00\n    /* \"Halal.sol\":2984:3002  admin = msg.sender */\n  0x0100\n  exp\n  dup2\n  sload\n  dup2\n  0xffffffffffffffffffffffffffffffffffffffff\n  mul\n  not\n  and\n  swap1\n  dup4\n  0xffffffffffffffffffffffffffffffffffffffff\n  and\n  mul\n  or\n  swap1\n  sstore\n  pop\n    /* \"Halal.sol\":175:10956  contract HalalSupplyChain {... */\n  dataSize(sub_0)\n  dup1\n  dataOffset(sub_0)\n  0x00\n  codecopy\n  0x00\n  return\nstop\n\nsub_0: assembly {\n        /* \"Halal.sol\":175:10956  contract HalalSupplyChain {... */\n      mstore(0x40, 0x80)\n      callvalue\n      dup1\n      iszero\n      tag_1\n      jumpi\n      revert(0x00, 0x00)\n    tag_1:\n      pop\n      jumpi(tag_2, lt(calldatasize, 0x04))\n      shr(0xe0, calldataload(0x00))\n      dup1\n      0x9b4bc927\n      gt\n      tag_28\n      jumpi\n      dup1\n      0xc989ea25\n      gt\n      tag_29\n      jumpi\n      dup1\n      0xe561dddc\n      gt\n      tag_30\n      jumpi\n      dup1\n      0xe561dddc\n      eq\n      tag_24\n      jumpi\n      dup1\n      0xf851a440\n      eq\n      tag_25\n      jumpi\n      dup1\n      0xf9ca4274\n      eq\n      tag_26\n      jumpi\n      dup1\n      0xf9f8904a\n      eq\n      tag_27\n      jumpi\n      jump(tag_2)\n    tag_30:\n      dup1\n      0xc989ea25\n      eq\n      tag_21\n      jumpi\n      dup1\n      0xcc642784\n      eq\n      tag_22\n      jumpi\n      dup1\n      0xdcdcbe4e\n      eq\n      tag_23\n      jumpi\n      jump(tag_2)\n    tag_29:\n      dup1\n      0x9b4bc927\n      eq\n      tag_15\n      jumpi\n      dup1\n      0xa252d8a7\n      eq\n      tag_16\n      jumpi\n      dup1\n      0xb3d346b9\n      eq\n      tag_17\n      jumpi\n      dup1\n      0xb401563b\n      eq\n      tag_18\n      jumpi\n      dup1\n      0xbbb65699\n      eq\n      tag_19\n      jumpi\n      dup1\n      0xbce06947\n      eq\n      tag_20\n      jumpi\n      jump(tag_2)\n    tag_28:\n      dup1\n      0x347047cc\n      gt\n      tag_31\n      jumpi\n      dup1\n      0x347047cc\n      eq\n      tag_9\n      jumpi\n      dup1\n      0x65de2305\n      eq\n      tag_10\n      jumpi\n      dup1\n      0x782eb934\n      eq\n      tag_11\n      jumpi\n      dup1\n      0x7ef1446a\n      eq\n      tag_12\n      jumpi\n      dup1\n      0x92b8f021\n      eq\n      tag_13\n      jumpi\n      dup1\n      0x9a268f35\n      eq\n      tag_14\n      jumpi\n      jump(tag_2)\n    tag_31:\n      dup1\n      0x91a91c\n      eq\n      tag_3\n      jumpi\n      dup1\n      0x0c1b1178\n      eq\n      tag_4\n      jumpi\n      dup1\n      0x120b93d3\n      eq\n      tag_5\n      jumpi\n      dup1\n      0x217fe6c6\n      eq\n      tag_6\n      jumpi\n      dup1\n      0x2561f718\n      eq\n      tag_7\n      jumpi\n      dup1\n      0x26324eff\n      eq\n      tag_8\n      jumpi\n    tag_2:\n      revert(0x00, 0x00)\n        /* \"Halal.sol\":3084:3238  function assignProducer(address _account) public onlyAdmin {... */\n    tag_3:\n      tag_32\n      0x04\n      dup1\n      calldatasize\n      sub\n      dup2\n      add\n      swap1\n      tag_33\n      swap2\n      swap1\n      tag_34\n      jump\t// in\n    tag_33:\n      tag_35\n      jump\t// in\n    tag_32:\n      stop\n        /* \"Halal.sol\":3435:3598  function assignDistributor(address _account) public onlyAdmin {... */\n    tag_4:\n      tag_36\n      0x04\n      dup1\n      calldatasize\n      sub\n      dup2\n      add\n      swap1\n      tag_37\n      swap2\n      swap1\n      tag_34\n      jump\t// in\n    tag_37:\n      tag_38\n      jump\t// in\n    tag_36:\n      stop\n        /* \"Halal.sol\":4127:4290  function revokeDistributor(address _account) public onlyAdmin {... */\n    tag_5:\n      tag_39\n      0x04\n      dup1\n      calldatasize\n      sub\n      dup2\n      add\n      swap1\n      tag_40\n      swap2\n      swap1\n      tag_34\n      jump\t// in\n    tag_40:\n      tag_41\n      jump\t// in\n    tag_39:\n      stop\n        /* \"Halal.sol\":10157:10953  function hasRole(address _account, string memory _role) public view returns (bool) {... */\n    tag_6:\n      tag_42\n      0x04\n      dup1\n      calldatasize\n      sub\n      dup2\n      add\n      swap1\n      tag_43\n      swap2\n      swap1\n      tag_44\n      jump\t// in\n    tag_43:\n      tag_45\n      jump\t// in\n    tag_42:\n      mload(0x40)\n      tag_46\n      swap2\n      swap1\n      tag_47\n      jump\t// in\n    tag_46:\n      mload(0x40)\n      dup1\n      swap2\n      sub\n      swap1\n      return\n        /* \"Halal.sol\":3610:3764  function assignRetailer(address _account) public onlyAdmin {... */\n    tag_7:\n      tag_48\n      0x04\n      dup1\n      calldatasize\n      sub\n      dup2\n      add\n      swap1\n      tag_49\n      swap2\n      swap1\n      tag_34\n      jump\t// in\n    tag_49:\n      tag_50\n      jump\t// in\n    tag_48:\n      stop\n        /* \"Halal.sol\":315:356  mapping(address => bool) public producers */\n    tag_8:\n      tag_51\n      0x04\n      dup1\n      calldatasize\n      sub\n      dup2\n      add\n      swap1\n      tag_52\n      swap2\n      swap1\n      tag_34\n      jump\t// in\n    tag_52:\n      tag_53\n      jump\t// in\n    tag_51:\n      mload(0x40)\n      tag_54\n      swap2\n      swap1\n      tag_47\n      jump\t// in\n    tag_54:\n      mload(0x40)\n      dup1\n      swap2\n      sub\n      swap1\n      return\n        /* \"Halal.sol\":6530:7282  function updateStatus(string memory _batchId, string memory _newStatus) ... */\n    tag_9:\n      tag_55\n      0x04\n      dup1\n      calldatasize\n      sub\n      dup2\n      add\n      swap1\n      tag_56\n      swap2\n      swap1\n      tag_57\n      jump\t// in\n    tag_56:\n      tag_58\n      jump\t// in\n    tag_55:\n      stop\n        /* \"Halal.sol\":3250:3423  function assignHalalAuthority(address _account) public onlyAdmin {... */\n    tag_10:\n      tag_59\n      0x04\n      dup1\n      calldatasize\n      sub\n      dup2\n      add\n      swap1\n      tag_60\n      swap2\n      swap1\n      tag_34\n      jump\t// in\n    tag_60:\n      tag_61\n      jump\t// in\n    tag_59:\n      stop\n        /* \"Halal.sol\":4302:4456  function revokeRetailer(address _account) public onlyAdmin {... */\n    tag_11:\n      tag_62\n      0x04\n      dup1\n      calldatasize\n      sub\n      dup2\n      add\n      swap1\n      tag_63\n      swap2\n      swap1\n      tag_34\n      jump\t// in\n    tag_63:\n      tag_64\n      jump\t// in\n    tag_62:\n      stop\n        /* \"Halal.sol\":1061:1100  mapping(string => Batch) public batches */\n    tag_12:\n      tag_65\n      0x04\n      dup1\n      calldatasize\n      sub\n      dup2\n      add\n      swap1\n      tag_66\n      swap2\n      swap1\n      tag_67\n      jump\t// in\n    tag_66:\n      tag_68\n      jump\t// in\n    tag_65:\n      mload(0x40)\n      tag_69\n      swap9\n      swap8\n      swap7\n      swap6\n      swap5\n      swap4\n      swap3\n      swap2\n      swap1\n      tag_70\n      jump\t// in\n    tag_69:\n      mload(0x40)\n      dup1\n      swap2\n      sub\n      swap1\n      return\n        /* \"Halal.sol\":4598:5656  function createBatch(string memory _batchId, string memory _productName) public onlyProducer {... */\n    tag_13:\n      tag_71\n      0x04\n      dup1\n      calldatasize\n      sub\n      dup2\n      add\n      swap1\n      tag_72\n      swap2\n      swap1\n      tag_57\n      jump\t// in\n    tag_72:\n      tag_73\n      jump\t// in\n    tag_71:\n      stop\n        /* \"Halal.sol\":469:510  mapping(address => bool) public retailers */\n    tag_14:\n      tag_74\n      0x04\n      dup1\n      calldatasize\n      sub\n      dup2\n      add\n      swap1\n      tag_75\n      swap2\n      swap1\n      tag_34\n      jump\t// in\n    tag_75:\n      tag_76\n      jump\t// in\n    tag_74:\n      mload(0x40)\n      tag_77\n      swap2\n      swap1\n      tag_47\n      jump\t// in\n    tag_77:\n      mload(0x40)\n      dup1\n      swap2\n      sub\n      swap1\n      return\n        /* \"Halal.sol\":1107:1161  mapping(string => StatusHistory[]) public batchHistory */\n    tag_15:\n      tag_78\n      0x04\n      dup1\n      calldatasize\n      sub\n      dup2\n      add\n      swap1\n      tag_79\n      swap2\n      swap1\n      tag_80\n      jump\t// in\n    tag_79:\n      tag_81\n      jump\t// in\n    tag_78:\n      mload(0x40)\n      tag_82\n      swap4\n      swap3\n      swap2\n      swap1\n      tag_83\n      jump\t// in\n    tag_82:\n      mload(0x40)\n      dup1\n      swap2\n      sub\n      swap1\n      return\n        /* \"Halal.sol\":9536:9746  function getBatchHistory(string memory _batchId) ... */\n    tag_16:\n      tag_84\n      0x04\n      dup1\n      calldatasize\n      sub\n      dup2\n      add\n      swap1\n      tag_85\n      swap2\n      swap1\n      tag_67\n      jump\t// in\n    tag_85:\n      tag_86\n      jump\t// in\n    tag_84:\n      mload(0x40)\n      tag_87\n      swap2\n      swap1\n      tag_88\n      jump\t// in\n    tag_87:\n      mload(0x40)\n      dup1\n      swap2\n      sub\n      swap1\n      return\n        /* \"Halal.sol\":1168:1192  string[] public batchIds */\n    tag_17:\n      tag_89\n      0x04\n      dup1\n      calldatasize\n      sub\n      dup2\n      add\n      swap1\n      tag_90\n      swap2\n      swap1\n      tag_91\n      jump\t// in\n    tag_90:\n      tag_92\n      jump\t// in\n    tag_89:\n      mload(0x40)\n      tag_93\n      swap2\n      swap1\n      tag_94\n      jump\t// in\n    tag_93:\n      mload(0x40)\n      dup1\n      swap2\n      sub\n      swap1\n      return\n        /* \"Halal.sol\":7370:8670  function transferBatch(string memory _batchId, address _to) ... */\n    tag_18:\n      tag_95\n      0x04\n      dup1\n      calldatasize\n      sub\n      dup2\n      add\n      swap1\n      tag_96\n      swap2\n      swap1\n      tag_97\n      jump\t// in\n    tag_96:\n      tag_98\n      jump\t// in\n    tag_95:\n      stop\n        /* \"Halal.sol\":5744:6426  function setHalalCertificate(string memory _batchId, string memory _certHash) ... */\n    tag_19:\n      tag_99\n      0x04\n      dup1\n      calldatasize\n      sub\n      dup2\n      add\n      swap1\n      tag_100\n      swap2\n      swap1\n      tag_57\n      jump\t// in\n    tag_100:\n      tag_101\n      jump\t// in\n    tag_99:\n      stop\n        /* \"Halal.sol\":9807:9905  function getAllBatchIds() public view returns (string[] memory) {... */\n    tag_20:\n      tag_102\n      tag_103\n      jump\t// in\n    tag_102:\n      mload(0x40)\n      tag_104\n      swap2\n      swap1\n      tag_105\n      jump\t// in\n    tag_104:\n      mload(0x40)\n      dup1\n      swap2\n      sub\n      swap1\n      return\n        /* \"Halal.sol\":363:411  mapping(address => bool) public halalAuthorities */\n    tag_21:\n      tag_106\n      0x04\n      dup1\n      calldatasize\n      sub\n      dup2\n      add\n      swap1\n      tag_107\n      swap2\n      swap1\n      tag_34\n      jump\t// in\n    tag_107:\n      tag_108\n      jump\t// in\n    tag_106:\n      mload(0x40)\n      tag_109\n      swap2\n      swap1\n      tag_47\n      jump\t// in\n    tag_109:\n      mload(0x40)\n      dup1\n      swap2\n      sub\n      swap1\n      return\n        /* \"Halal.sol\":418:462  mapping(address => bool) public distributors */\n    tag_22:\n      tag_110\n      0x04\n      dup1\n      calldatasize\n      sub\n      dup2\n      add\n      swap1\n      tag_111\n      swap2\n      swap1\n      tag_34\n      jump\t// in\n    tag_111:\n      tag_112\n      jump\t// in\n    tag_110:\n      mload(0x40)\n      tag_113\n      swap2\n      swap1\n      tag_47\n      jump\t// in\n    tag_113:\n      mload(0x40)\n      dup1\n      swap2\n      sub\n      swap1\n      return\n        /* \"Halal.sol\":3942:4115  function revokeHalalAuthority(address _account) public onlyAdmin {... */\n    tag_23:\n      tag_114\n      0x04\n      dup1\n      calldatasize\n      sub\n      dup2\n      add\n      swap1\n      tag_115\n      swap2\n      swap1\n      tag_34\n      jump\t// in\n    tag_115:\n      tag_116\n      jump\t// in\n    tag_114:\n      stop\n        /* \"Halal.sol\":9976:10074  function getTotalBatches() public view returns (uint256) {... */\n    tag_24:\n      tag_117\n      tag_118\n      jump\t// in\n    tag_117:\n      mload(0x40)\n      tag_119\n      swap2\n      swap1\n      tag_120\n      jump\t// in\n    tag_119:\n      mload(0x40)\n      dup1\n      swap2\n      sub\n      swap1\n      return\n        /* \"Halal.sol\":260:280  address public admin */\n    tag_25:\n      tag_121\n      tag_122\n      jump\t// in\n    tag_121:\n      mload(0x40)\n      tag_123\n      swap2\n      swap1\n      tag_124\n      jump\t// in\n    tag_123:\n      mload(0x40)\n      dup1\n      swap2\n      sub\n      swap1\n      return\n        /* \"Halal.sol\":8783:9475  function getBatch(string memory _batchId) ... */\n    tag_26:\n      tag_125\n      0x04\n      dup1\n      calldatasize\n      sub\n      dup2\n      add\n      swap1\n      tag_126\n      swap2\n      swap1\n      tag_67\n      jump\t// in\n    tag_126:\n      tag_127\n      jump\t// in\n    tag_125:\n      mload(0x40)\n      tag_128\n      swap8\n      swap7\n      swap6\n      swap5\n      swap4\n      swap3\n      swap2\n      swap1\n      tag_129\n      jump\t// in\n    tag_128:\n      mload(0x40)\n      dup1\n      swap2\n      sub\n      swap1\n      return\n        /* \"Halal.sol\":3776:3930  function revokeProducer(address _account) public onlyAdmin {... */\n    tag_27:\n      tag_130\n      0x04\n      dup1\n      calldatasize\n      sub\n      dup2\n      add\n      swap1\n      tag_131\n      swap2\n      swap1\n      tag_34\n      jump\t// in\n    tag_131:\n      tag_132\n      jump\t// in\n    tag_130:\n      stop\n        /* \"Halal.sol\":3084:3238  function assignProducer(address _account) public onlyAdmin {... */\n    tag_35:\n        /* \"Halal.sol\":1923:1928  admin */\n      0x00\n      0x00\n      swap1\n      sload\n      swap1\n      0x0100\n      exp\n      swap1\n      div\n      0xffffffffffffffffffffffffffffffffffffffff\n      and\n        /* \"Halal.sol\":1909:1928  msg.sender == admin */\n      0xffffffffffffffffffffffffffffffffffffffff\n      and\n        /* \"Halal.sol\":1909:1919  msg.sender */\n      caller\n        /* \"Halal.sol\":1909:1928  msg.sender == admin */\n      0xffffffffffffffffffffffffffffffffffffffff\n      and\n      eq\n        /* \"Halal.sol\":1901:1967  require(msg.sender == admin, \"Only admin can perform this action\") */\n      tag_134\n      jumpi\n      mload(0x40)\n      0x08c379a000000000000000000000000000000000000000000000000000000000\n      dup2\n      mstore\n      0x04\n      add\n      tag_135\n      swap1\n      tag_136\n      jump\t// in\n    tag_135:\n      mload(0x40)\n      dup1\n      swap2\n      sub\n      swap1\n      revert\n    tag_134:\n        /* \"Halal.sol\":3176:3180  true */\n      0x01\n        /* \"Halal.sol\":3154:3163  producers */\n      dup1\n        /* \"Halal.sol\":3154:3173  producers[_account] */\n      0x00\n        /* \"Halal.sol\":3164:3172  _account */\n      dup4\n        /* \"Halal.sol\":3154:3173  producers[_account] */\n      0xffffffffffffffffffffffffffffffffffffffff\n      and\n      0xffffffffffffffffffffffffffffffffffffffff\n      and\n      dup2\n      mstore\n      0x20\n      add\n      swap1\n      dup2\n      mstore\n      0x20\n      add\n      0x00\n      keccak256\n      0x00\n        /* \"Halal.sol\":3154:3180  producers[_account] = true */\n      0x0100\n      exp\n      dup2\n      sload\n      dup2\n      0xff\n      mul\n      not\n      and\n      swap1\n      dup4\n      iszero\n      iszero\n      mul\n      or\n      swap1\n      sstore\n      pop\n        /* \"Halal.sol\":3209:3217  _account */\n      dup1\n        /* \"Halal.sol\":3196:3230  RoleAssigned(_account, \"Producer\") */\n      0xffffffffffffffffffffffffffffffffffffffff\n      and\n      0x3565795c2fb8842c21347d277937778bbcfe788b5b4f790fc5e408786cbe9c90\n      mload(0x40)\n      tag_138\n      swap1\n      tag_139\n      jump\t// in\n    tag_138:\n      mload(0x40)\n      dup1\n      swap2\n      sub\n      swap1\n      log2\n        /* \"Halal.sol\":3084:3238  function assignProducer(address _account) public onlyAdmin {... */\n      pop\n      jump\t// out\n        /* \"Halal.sol\":3435:3598  function assignDistributor(address _account) public onlyAdmin {... */\n    tag_38:\n        /* \"Halal.sol\":1923:1928  admin */\n      0x00\n      0x00\n      swap1\n      sload\n      swap1\n      0x0100\n      exp\n      swap1\n      div\n      0xffffffffffffffffffffffffffffffffffffffff\n      and\n        /* \"Halal.sol\":1909:1928  msg.sender == admin */\n      0xffffffffffffffffffffffffffffffffffffffff\n      and\n        /* \"Halal.sol\":1909:1919  msg.sender */\n      caller\n        /* \"Halal.sol\":1909:1928  msg.sender == admin */\n      0xffffffffffffffffffffffffffffffffffffffff\n      and\n      eq\n        /* \"Halal.sol\":1901:1967  require(msg.sender == admin, \"Only admin can perform this action\") */\n      tag_141\n      jumpi\n      mload(0x40)\n      0x08c379a000000000000000000000000000000000000000000000000000000000\n      dup2\n      mstore\n      0x04\n      add\n      tag_142\n      swap1\n      tag_136\n      jump\t// in\n    tag_142:\n      mload(0x40)\n      dup1\n      swap2\n      sub\n      swap1\n      revert\n    tag_141:\n        /* \"Halal.sol\":3533:3537  true */\n      0x01\n        /* \"Halal.sol\":3508:3520  distributors */\n      0x03\n        /* \"Halal.sol\":3508:3530  distributors[_account] */\n      0x00\n        /* \"Halal.sol\":3521:3529  _account */\n      dup4\n        /* \"Halal.sol\":3508:3530  distributors[_account] */\n      0xffffffffffffffffffffffffffffffffffffffff\n      and\n      0xffffffffffffffffffffffffffffffffffffffff\n      and\n      dup2\n      mstore\n      0x20\n      add\n      swap1\n      dup2\n      mstore\n      0x20\n      add\n      0x00\n      keccak256\n      0x00\n        /* \"Halal.sol\":3508:3537  distributors[_account] = true */\n      0x0100\n      exp\n      dup2\n      sload\n      dup2\n      0xff\n      mul\n      not\n      and\n      swap1\n      dup4\n      iszero\n      iszero\n      mul\n      or\n      swap1\n      sstore\n      pop\n        /* \"Halal.sol\":3566:3574  _account */\n      dup1\n        /* \"Halal.sol\":3553:3590  RoleAssigned(_account, \"Distributor\") */\n      0xffffffffffffffffffffffffffffffffffffffff\n      and\n      0x3565795c2fb8842c21347d277937778bbcfe788b5b4f790fc5e408786cbe9c90\n      mload(0x40)\n      tag_144\n      swap1\n      tag_145\n      jump\t// in\n    tag_144:\n      mload(0x40)\n      dup1\n      swap2\n      sub\n      swap1\n      log2\n        /* \"Halal.sol\":3435:3598  function assignDistributor(address _account) public onlyAdmin {... */\n      pop\n      jump\t// out\n        /* \"Halal.sol\":4127:4290  function revokeDistributor(address _account) public onlyAdmin {... */\n    tag_41:\n        /* \"Halal.sol\":1923:1928  admin */\n      0x00\n      0x00\n      swap1\n      sload\n      swap1\n      0x0100\n      exp\n      swap1\n      div\n      0xffffffffffffffffffffffffffffffffffffffff\n      and\n        /* \"Halal.sol\":1909:1928  msg.sender == admin */\n      0xffffffffffffffffffffffffffffffffffffffff\n      and\n        /* \"Halal.sol\":1909:1919  msg.sender */\n      caller\n        /* \"Halal.sol\":1909:1928  msg.sender == admin */\n      0xffffffffffffffffffffffffffffffffffffffff\n      and\n      eq\n        /* \"Halal.sol\":1901:1967  require(msg.sender == admin, \"Only admin can perform this action\") */\n      tag_147\n      jumpi\n      mload(0x40)\n      0x08c379a000000000000000000000000000000000000000000000000000000000\n      dup2\n      mstore\n      0x04\n      add\n      tag_148\n      swap1\n      tag_136\n      jump\t// in\n    tag_148:\n      mload(0x40)\n      dup1\n      swap2\n      sub\n      swap1\n      revert\n    tag_147:\n        /* \"Halal.sol\":4225:4230  false */\n      0x00\n        /* \"Halal.sol\":4200:4212  distributors */\n      0x03\n        /* \"Halal.sol\":4200:4222  distributors[_account] */\n      0x00\n        /* \"Halal.sol\":4213:4221  _account */\n      dup4\n        /* \"Halal.sol\":4200:4222  distributors[_account] */\n      0xffffffffffffffffffffffffffffffffffffffff\n      and\n      0xffffffffffffffffffffffffffffffffffffffff\n      and\n      dup2\n      mstore\n      0x20\n      add\n      swap1\n      dup2\n      mstore\n      0x20\n      add\n      0x00\n      keccak256\n      0x00\n        /* \"Halal.sol\":4200:4230  distributors[_account] = false */\n      0x0100\n      exp\n      dup2\n      sload\n      dup2\n      0xff\n      mul\n      not\n      and\n      swap1\n      dup4\n      iszero\n      iszero\n      mul\n      or\n      swap1\n      sstore\n      pop\n        /* \"Halal.sol\":4258:4266  _account */\n      dup1\n        /* \"Halal.sol\":4246:4282  RoleRevoked(_account, \"Distributor\") */\n      0xffffffffffffffffffffffffffffffffffffffff\n      and\n      0x9f43a01c0d4ff5aff09b3b9b472df707ceefd3f948f8942f10fa1562a8921304\n      mload(0x40)\n      tag_150\n      swap1\n      tag_145\n      jump\t// in\n    tag_150:\n      mload(0x40)\n      dup1\n      swap2\n      sub\n      swap1\n      log2\n        /* \"Halal.sol\":4127:4290  function revokeDistributor(address _account) public onlyAdmin {... */\n      pop\n      jump\t// out\n        /* \"Halal.sol\":10157:10953  function hasRole(address _account, string memory _role) public view returns (bool) {... */\n    tag_45:\n        /* \"Halal.sol\":10234:10238  bool */\n      0x00\n        /* \"Halal.sol\":10251:10267  bytes32 roleHash */\n      0x00\n        /* \"Halal.sol\":10297:10302  _role */\n      dup3\n        /* \"Halal.sol\":10280:10303  abi.encodePacked(_role) */\n      add(0x20, mload(0x40))\n      tag_152\n      swap2\n      swap1\n      tag_153\n      jump\t// in\n    tag_152:\n      mload(0x40)\n      0x20\n      dup2\n      dup4\n      sub\n      sub\n      dup2\n      mstore\n      swap1\n      0x40\n      mstore\n        /* \"Halal.sol\":10270:10304  keccak256(abi.encodePacked(_role)) */\n      dup1\n      mload\n      swap1\n      0x20\n      add\n      keccak256\n        /* \"Halal.sol\":10251:10304  bytes32 roleHash = keccak256(abi.encodePacked(_role)) */\n      swap1\n      pop\n        /* \"Halal.sol\":10351:10379  abi.encodePacked(\"Producer\") */\n      add(0x20, mload(0x40))\n      tag_154\n      swap1\n      tag_155\n      jump\t// in\n    tag_154:\n      mload(0x40)\n      0x20\n      dup2\n      dup4\n      sub\n      sub\n      dup2\n      mstore\n      swap1\n      0x40\n      mstore\n        /* \"Halal.sol\":10341:10380  keccak256(abi.encodePacked(\"Producer\")) */\n      dup1\n      mload\n      swap1\n      0x20\n      add\n      keccak256\n        /* \"Halal.sol\":10329:10337  roleHash */\n      dup2\n        /* \"Halal.sol\":10329:10380  roleHash == keccak256(abi.encodePacked(\"Producer\")) */\n      sub\n        /* \"Halal.sol\":10325:10913  if (roleHash == keccak256(abi.encodePacked(\"Producer\"))) {... */\n      tag_156\n      jumpi\n        /* \"Halal.sol\":10404:10413  producers */\n      0x01\n        /* \"Halal.sol\":10404:10423  producers[_account] */\n      0x00\n        /* \"Halal.sol\":10414:10422  _account */\n      dup6\n        /* \"Halal.sol\":10404:10423  producers[_account] */\n      0xffffffffffffffffffffffffffffffffffffffff\n      and\n      0xffffffffffffffffffffffffffffffffffffffff\n      and\n      dup2\n      mstore\n      0x20\n      add\n      swap1\n      dup2\n      mstore\n      0x20\n      add\n      0x00\n      keccak256\n      0x00\n      swap1\n      sload\n      swap1\n      0x0100\n      exp\n      swap1\n      div\n      0xff\n      and\n        /* \"Halal.sol\":10397:10423  return producers[_account] */\n      swap2\n      pop\n      pop\n      jump(tag_151)\n        /* \"Halal.sol\":10325:10913  if (roleHash == keccak256(abi.encodePacked(\"Producer\"))) {... */\n    tag_156:\n        /* \"Halal.sol\":10467:10501  abi.encodePacked(\"HalalAuthority\") */\n      add(0x20, mload(0x40))\n      tag_158\n      swap1\n      tag_159\n      jump\t// in\n    tag_158:\n      mload(0x40)\n      0x20\n      dup2\n      dup4\n      sub\n      sub\n      dup2\n      mstore\n      swap1\n      0x40\n      mstore\n        /* \"Halal.sol\":10457:10502  keccak256(abi.encodePacked(\"HalalAuthority\")) */\n      dup1\n      mload\n      swap1\n      0x20\n      add\n      keccak256\n        /* \"Halal.sol\":10445:10453  roleHash */\n      dup2\n        /* \"Halal.sol\":10445:10502  roleHash == keccak256(abi.encodePacked(\"HalalAuthority\")) */\n      sub\n        /* \"Halal.sol\":10441:10913  if (roleHash == keccak256(abi.encodePacked(\"HalalAuthority\"))) {... */\n      tag_160\n      jumpi\n        /* \"Halal.sol\":10526:10542  halalAuthorities */\n      0x02\n        /* \"Halal.sol\":10526:10552  halalAuthorities[_account] */\n      0x00\n        /* \"Halal.sol\":10543:10551  _account */\n      dup6\n        /* \"Halal.sol\":10526:10552  halalAuthorities[_account] */\n      0xffffffffffffffffffffffffffffffffffffffff\n      and\n      0xffffffffffffffffffffffffffffffffffffffff\n      and\n      dup2\n      mstore\n      0x20\n      add\n      swap1\n      dup2\n      mstore\n      0x20\n      add\n      0x00\n      keccak256\n      0x00\n      swap1\n      sload\n      swap1\n      0x0100\n      exp\n      swap1\n      div\n      0xff\n      and\n        /* \"Halal.sol\":10519:10552  return halalAuthorities[_account] */\n      swap2\n      pop\n      pop\n      jump(tag_151)\n        /* \"Halal.sol\":10441:10913  if (roleHash == keccak256(abi.encodePacked(\"HalalAuthority\"))) {... */\n    tag_160:\n        /* \"Halal.sol\":10596:10627  abi.encodePacked(\"Distributor\") */\n      add(0x20, mload(0x40))\n      tag_162\n      swap1\n      tag_163\n      jump\t// in\n    tag_162:\n      mload(0x40)\n      0x20\n      dup2\n      dup4\n      sub\n      sub\n      dup2\n      mstore\n      swap1\n      0x40\n      mstore\n        /* \"Halal.sol\":10586:10628  keccak256(abi.encodePacked(\"Distributor\")) */\n      dup1\n      mload\n      swap1\n      0x20\n      add\n      keccak256\n        /* \"Halal.sol\":10574:10582  roleHash */\n      dup2\n        /* \"Halal.sol\":10574:10628  roleHash == keccak256(abi.encodePacked(\"Distributor\")) */\n      sub\n        /* \"Halal.sol\":10570:10913  if (roleHash == keccak256(abi.encodePacked(\"Distributor\"))) {... */\n      tag_164\n      jumpi\n        /* \"Halal.sol\":10652:10664  distributors */\n      0x03\n        /* \"Halal.sol\":10652:10674  distributors[_account] */\n      0x00\n        /* \"Halal.sol\":10665:10673  _account */\n      dup6\n        /* \"Halal.sol\":10652:10674  distributors[_account] */\n      0xffffffffffffffffffffffffffffffffffffffff\n      and\n      0xffffffffffffffffffffffffffffffffffffffff\n      and\n      dup2\n      mstore\n      0x20\n      add\n      swap1\n      dup2\n      mstore\n      0x20\n      add\n      0x00\n      keccak256\n      0x00\n      swap1\n      sload\n      swap1\n      0x0100\n      exp\n      swap1\n      div\n      0xff\n      and\n        /* \"Halal.sol\":10645:10674  return distributors[_account] */\n      swap2\n      pop\n      pop\n      jump(tag_151)\n        /* \"Halal.sol\":10570:10913  if (roleHash == keccak256(abi.encodePacked(\"Distributor\"))) {... */\n    tag_164:\n        /* \"Halal.sol\":10718:10746  abi.encodePacked(\"Retailer\") */\n      add(0x20, mload(0x40))\n      tag_166\n      swap1\n      tag_167\n      jump\t// in\n    tag_166:\n      mload(0x40)\n      0x20\n      dup2\n      dup4\n      sub\n      sub\n      dup2\n      mstore\n      swap1\n      0x40\n      mstore\n        /* \"Halal.sol\":10708:10747  keccak256(abi.encodePacked(\"Retailer\")) */\n      dup1\n      mload\n      swap1\n      0x20\n      add\n      keccak256\n        /* \"Halal.sol\":10696:10704  roleHash */\n      dup2\n        /* \"Halal.sol\":10696:10747  roleHash == keccak256(abi.encodePacked(\"Retailer\")) */\n      sub\n        /* \"Halal.sol\":10692:10913  if (roleHash == keccak256(abi.encodePacked(\"Retailer\"))) {... */\n      tag_168\n      jumpi\n        /* \"Halal.sol\":10771:10780  retailers */\n      0x04\n        /* \"Halal.sol\":10771:10790  retailers[_account] */\n      0x00\n        /* \"Halal.sol\":10781:10789  _account */\n      dup6\n        /* \"Halal.sol\":10771:10790  retailers[_account] */\n      0xffffffffffffffffffffffffffffffffffffffff\n      and\n      0xffffffffffffffffffffffffffffffffffffffff\n      and\n      dup2\n      mstore\n      0x20\n      add\n      swap1\n      dup2\n      mstore\n      0x20\n      add\n      0x00\n      keccak256\n      0x00\n      swap1\n      sload\n      swap1\n      0x0100\n      exp\n      swap1\n      div\n      0xff\n      and\n        /* \"Halal.sol\":10764:10790  return retailers[_account] */\n      swap2\n      pop\n      pop\n      jump(tag_151)\n        /* \"Halal.sol\":10692:10913  if (roleHash == keccak256(abi.encodePacked(\"Retailer\"))) {... */\n    tag_168:\n        /* \"Halal.sol\":10834:10859  abi.encodePacked(\"Admin\") */\n      add(0x20, mload(0x40))\n      tag_170\n      swap1\n      tag_171\n      jump\t// in\n    tag_170:\n      mload(0x40)\n      0x20\n      dup2\n      dup4\n      sub\n      sub\n      dup2\n      mstore\n      swap1\n      0x40\n      mstore\n        /* \"Halal.sol\":10824:10860  keccak256(abi.encodePacked(\"Admin\")) */\n      dup1\n      mload\n      swap1\n      0x20\n      add\n      keccak256\n        /* \"Halal.sol\":10812:10820  roleHash */\n      dup2\n        /* \"Halal.sol\":10812:10860  roleHash == keccak256(abi.encodePacked(\"Admin\")) */\n      sub\n        /* \"Halal.sol\":10808:10913  if (roleHash == keccak256(abi.encodePacked(\"Admin\"))) {... */\n      tag_172\n      jumpi\n        /* \"Halal.sol\":10896:10901  admin */\n      0x00\n      0x00\n      swap1\n      sload\n      swap1\n      0x0100\n      exp\n      swap1\n      div\n      0xffffffffffffffffffffffffffffffffffffffff\n      and\n        /* \"Halal.sol\":10884:10901  _account == admin */\n      0xffffffffffffffffffffffffffffffffffffffff\n      and\n        /* \"Halal.sol\":10884:10892  _account */\n      dup5\n        /* \"Halal.sol\":10884:10901  _account == admin */\n      0xffffffffffffffffffffffffffffffffffffffff\n      and\n      eq\n        /* \"Halal.sol\":10877:10901  return _account == admin */\n      swap2\n      pop\n      pop\n      jump(tag_151)\n        /* \"Halal.sol\":10808:10913  if (roleHash == keccak256(abi.encodePacked(\"Admin\"))) {... */\n    tag_172:\n        /* \"Halal.sol\":10940:10945  false */\n      0x00\n        /* \"Halal.sol\":10933:10945  return false */\n      swap2\n      pop\n      pop\n        /* \"Halal.sol\":10157:10953  function hasRole(address _account, string memory _role) public view returns (bool) {... */\n    tag_151:\n      swap3\n      swap2\n      pop\n      pop\n      jump\t// out\n        /* \"Halal.sol\":3610:3764  function assignRetailer(address _account) public onlyAdmin {... */\n    tag_50:\n        /* \"Halal.sol\":1923:1928  admin */\n      0x00\n      0x00\n      swap1\n      sload\n      swap1\n      0x0100\n      exp\n      swap1\n      div\n      0xffffffffffffffffffffffffffffffffffffffff\n      and\n        /* \"Halal.sol\":1909:1928  msg.sender == admin */\n      0xffffffffffffffffffffffffffffffffffffffff\n      and\n        /* \"Halal.sol\":1909:1919  msg.sender */\n      caller\n        /* \"Halal.sol\":1909:1928  msg.sender == admin */\n      0xffffffffffffffffffffffffffffffffffffffff\n      and\n      eq\n        /* \"Halal.sol\":1901:1967  require(msg.sender == admin, \"Only admin can perform this action\") */\n      tag_174\n      jumpi\n      mload(0x40)\n      0x08c379a000000000000000000000000000000000000000000000000000000000\n      dup2\n      mstore\n      0x04\n      add\n      tag_175\n      swap1\n      tag_136\n      jump\t// in\n    tag_175:\n      mload(0x40)\n      dup1\n      swap2\n      sub\n      swap1\n      revert\n    tag_174:\n        /* \"Halal.sol\":3702:3706  true */\n      0x01\n        /* \"Halal.sol\":3680:3689  retailers */\n      0x04\n        /* \"Halal.sol\":3680:3699  retailers[_account] */\n      0x00\n        /* \"Halal.sol\":3690:3698  _account */\n      dup4\n        /* \"Halal.sol\":3680:3699  retailers[_account] */\n      0xffffffffffffffffffffffffffffffffffffffff\n      and\n      0xffffffffffffffffffffffffffffffffffffffff\n      and\n      dup2\n      mstore\n      0x20\n      add\n      swap1\n      dup2\n      mstore\n      0x20\n      add\n      0x00\n      keccak256\n      0x00\n        /* \"Halal.sol\":3680:3706  retailers[_account] = true */\n      0x0100\n      exp\n      dup2\n      sload\n      dup2\n      0xff\n      mul\n      not\n      and\n      swap1\n      dup4\n      iszero\n      iszero\n      mul\n      or\n      swap1\n      sstore\n      pop\n        /* \"Halal.sol\":3735:3743  _account */\n      dup1\n        /* \"Halal.sol\":3722:3756  RoleAssigned(_account, \"Retailer\") */\n      0xffffffffffffffffffffffffffffffffffffffff\n      and\n      0x3565795c2fb8842c21347d277937778bbcfe788b5b4f790fc5e408786cbe9c90\n      mload(0x40)\n      tag_177\n      swap1\n      tag_178\n      jump\t// in\n    tag_177:\n      mload(0x40)\n      dup1\n      swap2\n      sub\n      swap1\n      log2\n        /* \"Halal.sol\":3610:3764  function assignRetailer(address _account) public onlyAdmin {... */\n      pop\n      jump\t// out\n        /* \"Halal.sol\":315:356  mapping(address => bool) public producers */\n    tag_53:\n      mstore(0x20, 0x01)\n      dup1\n      0x00\n      mstore\n      keccak256(0x00, 0x40)\n      0x00\n      swap2\n      pop\n      sload\n      swap1\n      0x0100\n      exp\n      swap1\n      div\n      0xff\n      and\n      dup2\n      jump\t// out\n        /* \"Halal.sol\":6530:7282  function updateStatus(string memory _batchId, string memory _newStatus) ... */\n    tag_58:\n        /* \"Halal.sol\":6641:6649  _batchId */\n      dup2\n        /* \"Halal.sol\":2644:2651  batches */\n      0x05\n        /* \"Halal.sol\":2652:2660  _batchId */\n      dup2\n        /* \"Halal.sol\":2644:2661  batches[_batchId] */\n      mload(0x40)\n      tag_180\n      swap2\n      swap1\n      tag_153\n      jump\t// in\n    tag_180:\n      swap1\n      dup2\n      mstore\n      0x20\n      add\n      mload(0x40)\n      dup1\n      swap2\n      sub\n      swap1\n      keccak256\n        /* \"Halal.sol\":2644:2668  batches[_batchId].exists */\n      0x07\n      add\n      0x00\n      swap1\n      sload\n      swap1\n      0x0100\n      exp\n      swap1\n      div\n      0xff\n      and\n        /* \"Halal.sol\":2636:2693  require(batches[_batchId].exists, \"Batch does not exist\") */\n      tag_181\n      jumpi\n      mload(0x40)\n      0x08c379a000000000000000000000000000000000000000000000000000000000\n      dup2\n      mstore\n      0x04\n      add\n      tag_182\n      swap1\n      tag_183\n      jump\t// in\n    tag_182:\n      mload(0x40)\n      dup1\n      swap2\n      sub\n      swap1\n      revert\n    tag_181:\n        /* \"Halal.sol\":6724:6734  msg.sender */\n      caller\n        /* \"Halal.sol\":6690:6734  batches[_batchId].currentOwner == msg.sender */\n      0xffffffffffffffffffffffffffffffffffffffff\n      and\n        /* \"Halal.sol\":6690:6697  batches */\n      0x05\n        /* \"Halal.sol\":6698:6706  _batchId */\n      dup5\n        /* \"Halal.sol\":6690:6707  batches[_batchId] */\n      mload(0x40)\n      tag_185\n      swap2\n      swap1\n      tag_153\n      jump\t// in\n    tag_185:\n      swap1\n      dup2\n      mstore\n      0x20\n      add\n      mload(0x40)\n      dup1\n      swap2\n      sub\n      swap1\n      keccak256\n        /* \"Halal.sol\":6690:6720  batches[_batchId].currentOwner */\n      0x03\n      add\n      0x00\n      swap1\n      sload\n      swap1\n      0x0100\n      exp\n      swap1\n      div\n      0xffffffffffffffffffffffffffffffffffffffff\n      and\n        /* \"Halal.sol\":6690:6734  batches[_batchId].currentOwner == msg.sender */\n      0xffffffffffffffffffffffffffffffffffffffff\n      and\n      eq\n        /* \"Halal.sol\":6690:6780  batches[_batchId].currentOwner == msg.sender || ... */\n      dup1\n      tag_186\n      jumpi\n      pop\n        /* \"Halal.sol\":6752:6768  halalAuthorities */\n      0x02\n        /* \"Halal.sol\":6752:6780  halalAuthorities[msg.sender] */\n      0x00\n        /* \"Halal.sol\":6769:6779  msg.sender */\n      caller\n        /* \"Halal.sol\":6752:6780  halalAuthorities[msg.sender] */\n      0xffffffffffffffffffffffffffffffffffffffff\n      and\n      0xffffffffffffffffffffffffffffffffffffffff\n      and\n      dup2\n      mstore\n      0x20\n      add\n      swap1\n      dup2\n      mstore\n      0x20\n      add\n      0x00\n      keccak256\n      0x00\n      swap1\n      sload\n      swap1\n      0x0100\n      exp\n      swap1\n      div\n      0xff\n      and\n        /* \"Halal.sol\":6690:6780  batches[_batchId].currentOwner == msg.sender || ... */\n    tag_186:\n        /* \"Halal.sol\":6668:6839  require(... */\n      tag_187\n      jumpi\n      mload(0x40)\n      0x08c379a000000000000000000000000000000000000000000000000000000000\n      dup2\n      mstore\n      0x04\n      add\n      tag_188\n      swap1\n      tag_189\n      jump\t// in\n    tag_188:\n      mload(0x40)\n      dup1\n      swap2\n      sub\n      swap1\n      revert\n    tag_187:\n        /* \"Halal.sol\":6885:6886  0 */\n      0x00\n        /* \"Halal.sol\":6864:6874  _newStatus */\n      dup3\n        /* \"Halal.sol\":6858:6882  bytes(_newStatus).length */\n      mload\n        /* \"Halal.sol\":6858:6886  bytes(_newStatus).length > 0 */\n      gt\n        /* \"Halal.sol\":6850:6913  require(bytes(_newStatus).length > 0, \"Status cannot be empty\") */\n      tag_190\n      jumpi\n      mload(0x40)\n      0x08c379a000000000000000000000000000000000000000000000000000000000\n      dup2\n      mstore\n      0x04\n      add\n      tag_191\n      swap1\n      tag_192\n      jump\t// in\n    tag_191:\n      mload(0x40)\n      dup1\n      swap2\n      sub\n      swap1\n      revert\n    tag_190:\n        /* \"Halal.sol\":6961:6971  _newStatus */\n      dup2\n        /* \"Halal.sol\":6934:6941  batches */\n      0x05\n        /* \"Halal.sol\":6942:6950  _batchId */\n      dup5\n        /* \"Halal.sol\":6934:6951  batches[_batchId] */\n      mload(0x40)\n      tag_193\n      swap2\n      swap1\n      tag_153\n      jump\t// in\n    tag_193:\n      swap1\n      dup2\n      mstore\n      0x20\n      add\n      mload(0x40)\n      dup1\n      swap2\n      sub\n      swap1\n      keccak256\n        /* \"Halal.sol\":6934:6958  batches[_batchId].status */\n      0x04\n      add\n        /* \"Halal.sol\":6934:6971  batches[_batchId].status = _newStatus */\n      swap1\n      dup2\n      tag_194\n      swap2\n      swap1\n      tag_195\n      jump\t// in\n    tag_194:\n      pop\n        /* \"Halal.sol\":7019:7031  batchHistory */\n      0x06\n        /* \"Halal.sol\":7032:7040  _batchId */\n      dup4\n        /* \"Halal.sol\":7019:7041  batchHistory[_batchId] */\n      mload(0x40)\n      tag_196\n      swap2\n      swap1\n      tag_153\n      jump\t// in\n    tag_196:\n      swap1\n      dup2\n      mstore\n      0x20\n      add\n      mload(0x40)\n      dup1\n      swap2\n      sub\n      swap1\n      keccak256\n        /* \"Halal.sol\":7047:7183  StatusHistory({... */\n      mload(0x40)\n      dup1\n      0x60\n      add\n      0x40\n      mstore\n      dup1\n        /* \"Halal.sol\":7084:7094  _newStatus */\n      dup5\n        /* \"Halal.sol\":7047:7183  StatusHistory({... */\n      dup2\n      mstore\n      0x20\n      add\n        /* \"Halal.sol\":7120:7135  block.timestamp */\n      timestamp\n        /* \"Halal.sol\":7047:7183  StatusHistory({... */\n      dup2\n      mstore\n      0x20\n      add\n        /* \"Halal.sol\":7161:7171  msg.sender */\n      caller\n        /* \"Halal.sol\":7047:7183  StatusHistory({... */\n      0xffffffffffffffffffffffffffffffffffffffff\n      and\n      dup2\n      mstore\n      pop\n        /* \"Halal.sol\":7019:7184  batchHistory[_batchId].push(StatusHistory({... */\n      swap1\n      dup1\n      0x01\n      dup2\n      sload\n      add\n      dup1\n      dup3\n      sstore\n      dup1\n      swap2\n      pop\n      pop\n      0x01\n      swap1\n      sub\n      swap1\n      0x00\n      mstore\n      keccak256(0x00, 0x20)\n      swap1\n      0x03\n      mul\n      add\n      0x00\n      swap1\n      swap2\n      swap1\n      swap2\n      swap1\n      swap2\n      pop\n      0x00\n      dup3\n      add\n      mload\n      dup2\n      0x00\n      add\n      swap1\n      dup2\n      tag_198\n      swap2\n      swap1\n      tag_195\n      jump\t// in\n    tag_198:\n      pop\n      0x20\n      dup3\n      add\n      mload\n      dup2\n      0x01\n      add\n      sstore\n      0x40\n      dup3\n      add\n      mload\n      dup2\n      0x02\n      add\n      exp(0x0100, 0x00)\n      dup2\n      sload\n      dup2\n      0xffffffffffffffffffffffffffffffffffffffff\n      mul\n      not\n      and\n      swap1\n      dup4\n      0xffffffffffffffffffffffffffffffffffffffff\n      and\n      mul\n      or\n      swap1\n      sstore\n      pop\n      pop\n      pop\n        /* \"Halal.sol\":7246:7256  msg.sender */\n      caller\n        /* \"Halal.sol\":7210:7274  StatusUpdated(_batchId, _newStatus, msg.sender, block.timestamp) */\n      0xffffffffffffffffffffffffffffffffffffffff\n      and\n        /* \"Halal.sol\":7224:7232  _batchId */\n      dup4\n        /* \"Halal.sol\":7210:7274  StatusUpdated(_batchId, _newStatus, msg.sender, block.timestamp) */\n      mload(0x40)\n      tag_199\n      swap2\n      swap1\n      tag_153\n      jump\t// in\n    tag_199:\n      mload(0x40)\n      dup1\n      swap2\n      sub\n      swap1\n      keccak256\n      0x169643a8db74f57c6a9dea08efd64e687751e292a4b80bfe9307a8f5474ad9b9\n        /* \"Halal.sol\":7234:7244  _newStatus */\n      dup5\n        /* \"Halal.sol\":7258:7273  block.timestamp */\n      timestamp\n        /* \"Halal.sol\":7210:7274  StatusUpdated(_batchId, _newStatus, msg.sender, block.timestamp) */\n      mload(0x40)\n      tag_200\n      swap3\n      swap2\n      swap1\n      tag_201\n      jump\t// in\n    tag_200:\n      mload(0x40)\n      dup1\n      swap2\n      sub\n      swap1\n      log3\n        /* \"Halal.sol\":6530:7282  function updateStatus(string memory _batchId, string memory _newStatus) ... */\n      pop\n      pop\n      pop\n      jump\t// out\n        /* \"Halal.sol\":3250:3423  function assignHalalAuthority(address _account) public onlyAdmin {... */\n    tag_61:\n        /* \"Halal.sol\":1923:1928  admin */\n      0x00\n      0x00\n      swap1\n      sload\n      swap1\n      0x0100\n      exp\n      swap1\n      div\n      0xffffffffffffffffffffffffffffffffffffffff\n      and\n        /* \"Halal.sol\":1909:1928  msg.sender == admin */\n      0xffffffffffffffffffffffffffffffffffffffff\n      and\n        /* \"Halal.sol\":1909:1919  msg.sender */\n      caller\n        /* \"Halal.sol\":1909:1928  msg.sender == admin */\n      0xffffffffffffffffffffffffffffffffffffffff\n      and\n      eq\n        /* \"Halal.sol\":1901:1967  require(msg.sender == admin, \"Only admin can perform this action\") */\n      tag_203\n      jumpi\n      mload(0x40)\n      0x08c379a000000000000000000000000000000000000000000000000000000000\n      dup2\n      mstore\n      0x04\n      add\n      tag_204\n      swap1\n      tag_136\n      jump\t// in\n    tag_204:\n      mload(0x40)\n      dup1\n      swap2\n      sub\n      swap1\n      revert\n    tag_203:\n        /* \"Halal.sol\":3355:3359  true */\n      0x01\n        /* \"Halal.sol\":3326:3342  halalAuthorities */\n      0x02\n        /* \"Halal.sol\":3326:3352  halalAuthorities[_account] */\n      0x00\n        /* \"Halal.sol\":3343:3351  _account */\n      dup4\n        /* \"Halal.sol\":3326:3352  halalAuthorities[_account] */\n      0xffffffffffffffffffffffffffffffffffffffff\n      and\n      0xffffffffffffffffffffffffffffffffffffffff\n      and\n      dup2\n      mstore\n      0x20\n      add\n      swap1\n      dup2\n      mstore\n      0x20\n      add\n      0x00\n      keccak256\n      0x00\n        /* \"Halal.sol\":3326:3359  halalAuthorities[_account] = true */\n      0x0100\n      exp\n      dup2\n      sload\n      dup2\n      0xff\n      mul\n      not\n      and\n      swap1\n      dup4\n      iszero\n      iszero\n      mul\n      or\n      swap1\n      sstore\n      pop\n        /* \"Halal.sol\":3388:3396  _account */\n      dup1\n        /* \"Halal.sol\":3375:3415  RoleAssigned(_account, \"HalalAuthority\") */\n      0xffffffffffffffffffffffffffffffffffffffff\n      and\n      0x3565795c2fb8842c21347d277937778bbcfe788b5b4f790fc5e408786cbe9c90\n      mload(0x40)\n      tag_206\n      swap1\n      tag_207\n      jump\t// in\n    tag_206:\n      mload(0x40)\n      dup1\n      swap2\n      sub\n      swap1\n      log2\n        /* \"Halal.sol\":3250:3423  function assignHalalAuthority(address _account) public onlyAdmin {... */\n      pop\n      jump\t// out\n        /* \"Halal.sol\":4302:4456  function revokeRetailer(address _account) public onlyAdmin {... */\n    tag_64:\n        /* \"Halal.sol\":1923:1928  admin */\n      0x00\n      0x00\n      swap1\n      sload\n      swap1\n      0x0100\n      exp\n      swap1\n      div\n      0xffffffffffffffffffffffffffffffffffffffff\n      and\n        /* \"Halal.sol\":1909:1928  msg.sender == admin */\n      0xffffffffffffffffffffffffffffffffffffffff\n      and\n        /* \"Halal.sol\":1909:1919  msg.sender */\n      caller\n        /* \"Halal.sol\":1909:1928  msg.sender == admin */\n      0xffffffffffffffffffffffffffffffffffffffff\n      and\n      eq\n        /* \"Halal.sol\":1901:1967  require(msg.sender == admin, \"Only admin can perform this action\") */\n      tag_209\n      jumpi\n      mload(0x40)\n      0x08c379a000000000000000000000000000000000000000000000000000000000\n      dup2\n      mstore\n      0x04\n      add\n      tag_210\n      swap1\n      tag_136\n      jump\t// in\n    tag_210:\n      mload(0x40)\n      dup1\n      swap2\n      sub\n      swap1\n      revert\n    tag_209:\n        /* \"Halal.sol\":4394:4399  false */\n      0x00\n        /* \"Halal.sol\":4372:4381  retailers */\n      0x04\n        /* \"Halal.sol\":4372:4391  retailers[_account] */\n      0x00\n        /* \"Halal.sol\":4382:4390  _account */\n      dup4\n        /* \"Halal.sol\":4372:4391  retailers[_account] */\n      0xffffffffffffffffffffffffffffffffffffffff\n      and\n      0xffffffffffffffffffffffffffffffffffffffff\n      and\n      dup2\n      mstore\n      0x20\n      add\n      swap1\n      dup2\n      mstore\n      0x20\n      add\n      0x00\n      keccak256\n      0x00\n        /* \"Halal.sol\":4372:4399  retailers[_account] = false */\n      0x0100\n      exp\n      dup2\n      sload\n      dup2\n      0xff\n      mul\n      not\n      and\n      swap1\n      dup4\n      iszero\n      iszero\n      mul\n      or\n      swap1\n      sstore\n      pop\n        /* \"Halal.sol\":4427:4435  _account */\n      dup1\n        /* \"Halal.sol\":4415:4448  RoleRevoked(_account, \"Retailer\") */\n      0xffffffffffffffffffffffffffffffffffffffff\n      and\n      0x9f43a01c0d4ff5aff09b3b9b472df707ceefd3f948f8942f10fa1562a8921304\n      mload(0x40)\n      tag_212\n      swap1\n      tag_178\n      jump\t// in\n    tag_212:\n      mload(0x40)\n      dup1\n      swap2\n      sub\n      swap1\n      log2\n        /* \"Halal.sol\":4302:4456  function revokeRetailer(address _account) public onlyAdmin {... */\n      pop\n      jump\t// out\n        /* \"Halal.sol\":1061:1100  mapping(string => Batch) public batches */\n    tag_68:\n      0x05\n      dup2\n      dup1\n      mload\n      0x20\n      dup2\n      add\n      dup3\n      add\n      dup1\n      mload\n      dup5\n      dup3\n      mstore\n      0x20\n      dup4\n      add\n      0x20\n      dup6\n      add\n      keccak256\n      dup2\n      dup4\n      mstore\n      dup1\n      swap6\n      pop\n      pop\n      pop\n      pop\n      pop\n      pop\n      0x00\n      swap2\n      pop\n      swap1\n      pop\n      dup1\n      0x00\n      add\n      dup1\n      sload\n      tag_213\n      swap1\n      tag_214\n      jump\t// in\n    tag_213:\n      dup1\n      0x1f\n      add\n      0x20\n      dup1\n      swap2\n      div\n      mul\n      0x20\n      add\n      mload(0x40)\n      swap1\n      dup2\n      add\n      0x40\n      mstore\n      dup1\n      swap3\n      swap2\n      swap1\n      dup2\n      dup2\n      mstore\n      0x20\n      add\n      dup3\n      dup1\n      sload\n      tag_215\n      swap1\n      tag_214\n      jump\t// in\n    tag_215:\n      dup1\n      iszero\n      tag_216\n      jumpi\n      dup1\n      0x1f\n      lt\n      tag_217\n      jumpi\n      0x0100\n      dup1\n      dup4\n      sload\n      div\n      mul\n      dup4\n      mstore\n      swap2\n      0x20\n      add\n      swap2\n      jump(tag_216)\n    tag_217:\n      dup3\n      add\n      swap2\n      swap1\n      0x00\n      mstore\n      keccak256(0x00, 0x20)\n      swap1\n    tag_218:\n      dup2\n      sload\n      dup2\n      mstore\n      swap1\n      0x01\n      add\n      swap1\n      0x20\n      add\n      dup1\n      dup4\n      gt\n      tag_218\n      jumpi\n      dup3\n      swap1\n      sub\n      0x1f\n      and\n      dup3\n      add\n      swap2\n    tag_216:\n      pop\n      pop\n      pop\n      pop\n      pop\n      swap1\n      dup1\n      0x01\n      add\n      dup1\n      sload\n      tag_219\n      swap1\n      tag_214\n      jump\t// in\n    tag_219:\n      dup1\n      0x1f\n      add\n      0x20\n      dup1\n      swap2\n      div\n      mul\n      0x20\n      add\n      mload(0x40)\n      swap1\n      dup2\n      add\n      0x40\n      mstore\n      dup1\n      swap3\n      swap2\n      swap1\n      dup2\n      dup2\n      mstore\n      0x20\n      add\n      dup3\n      dup1\n      sload\n      tag_220\n      swap1\n      tag_214\n      jump\t// in\n    tag_220:\n      dup1\n      iszero\n      tag_221\n      jumpi\n      dup1\n      0x1f\n      lt\n      tag_222\n      jumpi\n      0x0100\n      dup1\n      dup4\n      sload\n      div\n      mul\n      dup4\n      mstore\n      swap2\n      0x20\n      add\n      swap2\n      jump(tag_221)\n    tag_222:\n      dup3\n      add\n      swap2\n      swap1\n      0x00\n      mstore\n      keccak256(0x00, 0x20)\n      swap1\n    tag_223:\n      dup2\n      sload\n      dup2\n      mstore\n      swap1\n      0x01\n      add\n      swap1\n      0x20\n      add\n      dup1\n      dup4\n      gt\n      tag_223\n      jumpi\n      dup3\n      swap1\n      sub\n      0x1f\n      and\n      dup3\n      add\n      swap2\n    tag_221:\n      pop\n      pop\n      pop\n      pop\n      pop\n      swap1\n      dup1\n      0x02\n      add\n      0x00\n      swap1\n      sload\n      swap1\n      0x0100\n      exp\n      swap1\n      div\n      0xffffffffffffffffffffffffffffffffffffffff\n      and\n      swap1\n      dup1\n      0x03\n      add\n      0x00\n      swap1\n      sload\n      swap1\n      0x0100\n      exp\n      swap1\n      div\n      0xffffffffffffffffffffffffffffffffffffffff\n      and\n      swap1\n      dup1\n      0x04\n      add\n      dup1\n      sload\n      tag_224\n      swap1\n      tag_214\n      jump\t// in\n    tag_224:\n      dup1\n      0x1f\n      add\n      0x20\n      dup1\n      swap2\n      div\n      mul\n      0x20\n      add\n      mload(0x40)\n      swap1\n      dup2\n      add\n      0x40\n      mstore\n      dup1\n      swap3\n      swap2\n      swap1\n      dup2\n      dup2\n      mstore\n      0x20\n      add\n      dup3\n      dup1\n      sload\n      tag_225\n      swap1\n      tag_214\n      jump\t// in\n    tag_225:\n      dup1\n      iszero\n      tag_226\n      jumpi\n      dup1\n      0x1f\n      lt\n      tag_227\n      jumpi\n      0x0100\n      dup1\n      dup4\n      sload\n      div\n      mul\n      dup4\n      mstore\n      swap2\n      0x20\n      add\n      swap2\n      jump(tag_226)\n    tag_227:\n      dup3\n      add\n      swap2\n      swap1\n      0x00\n      mstore\n      keccak256(0x00, 0x20)\n      swap1\n    tag_228:\n      dup2\n      sload\n      dup2\n      mstore\n      swap1\n      0x01\n      add\n      swap1\n      0x20\n      add\n      dup1\n      dup4\n      gt\n      tag_228\n      jumpi\n      dup3\n      swap1\n      sub\n      0x1f\n      and\n      dup3\n      add\n      swap2\n    tag_226:\n      pop\n      pop\n      pop\n      pop\n      pop\n      swap1\n      dup1\n      0x05\n      add\n      dup1\n      sload\n      tag_229\n      swap1\n      tag_214\n      jump\t// in\n    tag_229:\n      dup1\n      0x1f\n      add\n      0x20\n      dup1\n      swap2\n      div\n      mul\n      0x20\n      add\n      mload(0x40)\n      swap1\n      dup2\n      add\n      0x40\n      mstore\n      dup1\n      swap3\n      swap2\n      swap1\n      dup2\n      dup2\n      mstore\n      0x20\n      add\n      dup3\n      dup1\n      sload\n      tag_230\n      swap1\n      tag_214\n      jump\t// in\n    tag_230:\n      dup1\n      iszero\n      tag_231\n      jumpi\n      dup1\n      0x1f\n      lt\n      tag_232\n      jumpi\n      0x0100\n      dup1\n      dup4\n      sload\n      div\n      mul\n      dup4\n      mstore\n      swap2\n      0x20\n      add\n      swap2\n      jump(tag_231)\n    tag_232:\n      dup3\n      add\n      swap2\n      swap1\n      0x00\n      mstore\n      keccak256(0x00, 0x20)\n      swap1\n    tag_233:\n      dup2\n      sload\n      dup2\n      mstore\n      swap1\n      0x01\n      add\n      swap1\n      0x20\n      add\n      dup1\n      dup4\n      gt\n      tag_233\n      jumpi\n      dup3\n      swap1\n      sub\n      0x1f\n      and\n      dup3\n      add\n      swap2\n    tag_231:\n      pop\n      pop\n      pop\n      pop\n      pop\n      swap1\n      dup1\n      0x06\n      add\n      sload\n      swap1\n      dup1\n      0x07\n      add\n      0x00\n      swap1\n      sload\n      swap1\n      0x0100\n      exp\n      swap1\n      div\n      0xff\n      and\n      swap1\n      pop\n      dup9\n      jump\t// out\n        /* \"Halal.sol\":4598:5656  function createBatch(string memory _batchId, string memory _productName) public onlyProducer {... */\n    tag_73:\n        /* \"Halal.sol\":2042:2051  producers */\n      0x01\n        /* \"Halal.sol\":2042:2063  producers[msg.sender] */\n      0x00\n        /* \"Halal.sol\":2052:2062  msg.sender */\n      caller\n        /* \"Halal.sol\":2042:2063  producers[msg.sender] */\n      0xffffffffffffffffffffffffffffffffffffffff\n      and\n      0xffffffffffffffffffffffffffffffffffffffff\n      and\n      dup2\n      mstore\n      0x20\n      add\n      swap1\n      dup2\n      mstore\n      0x20\n      add\n      0x00\n      keccak256\n      0x00\n      swap1\n      sload\n      swap1\n      0x0100\n      exp\n      swap1\n      div\n      0xff\n      and\n        /* \"Halal.sol\":2034:2105  require(producers[msg.sender], \"Only producer can perform this action\") */\n      tag_235\n      jumpi\n      mload(0x40)\n      0x08c379a000000000000000000000000000000000000000000000000000000000\n      dup2\n      mstore\n      0x04\n      add\n      tag_236\n      swap1\n      tag_237\n      jump\t// in\n    tag_236:\n      mload(0x40)\n      dup1\n      swap2\n      sub\n      swap1\n      revert\n    tag_235:\n        /* \"Halal.sol\":4711:4718  batches */\n      0x05\n        /* \"Halal.sol\":4719:4727  _batchId */\n      dup3\n        /* \"Halal.sol\":4711:4728  batches[_batchId] */\n      mload(0x40)\n      tag_239\n      swap2\n      swap1\n      tag_153\n      jump\t// in\n    tag_239:\n      swap1\n      dup2\n      mstore\n      0x20\n      add\n      mload(0x40)\n      dup1\n      swap2\n      sub\n      swap1\n      keccak256\n        /* \"Halal.sol\":4711:4735  batches[_batchId].exists */\n      0x07\n      add\n      0x00\n      swap1\n      sload\n      swap1\n      0x0100\n      exp\n      swap1\n      div\n      0xff\n      and\n        /* \"Halal.sol\":4710:4735  !batches[_batchId].exists */\n      iszero\n        /* \"Halal.sol\":4702:4763  require(!batches[_batchId].exists, \"Batch ID already exists\") */\n      tag_240\n      jumpi\n      mload(0x40)\n      0x08c379a000000000000000000000000000000000000000000000000000000000\n      dup2\n      mstore\n      0x04\n      add\n      tag_241\n      swap1\n      tag_242\n      jump\t// in\n    tag_241:\n      mload(0x40)\n      dup1\n      swap2\n      sub\n      swap1\n      revert\n    tag_240:\n        /* \"Halal.sol\":4807:4808  0 */\n      0x00\n        /* \"Halal.sol\":4788:4796  _batchId */\n      dup3\n        /* \"Halal.sol\":4782:4804  bytes(_batchId).length */\n      mload\n        /* \"Halal.sol\":4782:4808  bytes(_batchId).length > 0 */\n      gt\n        /* \"Halal.sol\":4774:4837  require(bytes(_batchId).length > 0, \"Batch ID cannot be empty\") */\n      tag_243\n      jumpi\n      mload(0x40)\n      0x08c379a000000000000000000000000000000000000000000000000000000000\n      dup2\n      mstore\n      0x04\n      add\n      tag_244\n      swap1\n      tag_245\n      jump\t// in\n    tag_244:\n      mload(0x40)\n      dup1\n      swap2\n      sub\n      swap1\n      revert\n    tag_243:\n        /* \"Halal.sol\":4885:4886  0 */\n      0x00\n        /* \"Halal.sol\":4862:4874  _productName */\n      dup2\n        /* \"Halal.sol\":4856:4882  bytes(_productName).length */\n      mload\n        /* \"Halal.sol\":4856:4886  bytes(_productName).length > 0 */\n      gt\n        /* \"Halal.sol\":4848:4919  require(bytes(_productName).length > 0, \"Product name cannot be empty\") */\n      tag_246\n      jumpi\n      mload(0x40)\n      0x08c379a000000000000000000000000000000000000000000000000000000000\n      dup2\n      mstore\n      0x04\n      add\n      tag_247\n      swap1\n      tag_248\n      jump\t// in\n    tag_247:\n      mload(0x40)\n      dup1\n      swap2\n      sub\n      swap1\n      revert\n    tag_246:\n        /* \"Halal.sol\":4940:4961  Batch memory newBatch */\n      0x00\n        /* \"Halal.sol\":4964:5261  Batch({... */\n      mload(0x40)\n      dup1\n      0x0100\n      add\n      0x40\n      mstore\n      dup1\n        /* \"Halal.sol\":4998:5010  _productName */\n      dup4\n        /* \"Halal.sol\":4964:5261  Batch({... */\n      dup2\n      mstore\n      0x20\n      add\n        /* \"Halal.sol\":5034:5042  _batchId */\n      dup5\n        /* \"Halal.sol\":4964:5261  Batch({... */\n      dup2\n      mstore\n      0x20\n      add\n        /* \"Halal.sol\":5067:5077  msg.sender */\n      caller\n        /* \"Halal.sol\":4964:5261  Batch({... */\n      0xffffffffffffffffffffffffffffffffffffffff\n      and\n      dup2\n      mstore\n      0x20\n      add\n        /* \"Halal.sol\":5106:5116  msg.sender */\n      caller\n        /* \"Halal.sol\":4964:5261  Batch({... */\n      0xffffffffffffffffffffffffffffffffffffffff\n      and\n      dup2\n      mstore\n      0x20\n      add\n      mload(0x40)\n      dup1\n      0x40\n      add\n      0x40\n      mstore\n      dup1\n      0x08\n      dup2\n      mstore\n      0x20\n      add\n      0x50726f6475636564000000000000000000000000000000000000000000000000\n      dup2\n      mstore\n      pop\n      dup2\n      mstore\n      0x20\n      add\n      mload(0x40)\n      dup1\n      0x20\n      add\n      0x40\n      mstore\n      dup1\n      0x00\n      dup2\n      mstore\n      pop\n      dup2\n      mstore\n      0x20\n      add\n        /* \"Halal.sol\":5207:5222  block.timestamp */\n      timestamp\n        /* \"Halal.sol\":4964:5261  Batch({... */\n      dup2\n      mstore\n      0x20\n      add\n        /* \"Halal.sol\":5245:5249  true */\n      0x01\n        /* \"Halal.sol\":4964:5261  Batch({... */\n      iszero\n      iszero\n      dup2\n      mstore\n      pop\n        /* \"Halal.sol\":4940:5261  Batch memory newBatch = Batch({... */\n      swap1\n      pop\n        /* \"Halal.sol\":5302:5310  newBatch */\n      dup1\n        /* \"Halal.sol\":5282:5289  batches */\n      0x05\n        /* \"Halal.sol\":5290:5298  _batchId */\n      dup5\n        /* \"Halal.sol\":5282:5299  batches[_batchId] */\n      mload(0x40)\n      tag_249\n      swap2\n      swap1\n      tag_153\n      jump\t// in\n    tag_249:\n      swap1\n      dup2\n      mstore\n      0x20\n      add\n      mload(0x40)\n      dup1\n      swap2\n      sub\n      swap1\n      keccak256\n        /* \"Halal.sol\":5282:5310  batches[_batchId] = newBatch */\n      0x00\n      dup3\n      add\n      mload\n      dup2\n      0x00\n      add\n      swap1\n      dup2\n      tag_250\n      swap2\n      swap1\n      tag_195\n      jump\t// in\n    tag_250:\n      pop\n      0x20\n      dup3\n      add\n      mload\n      dup2\n      0x01\n      add\n      swap1\n      dup2\n      tag_251\n      swap2\n      swap1\n      tag_195\n      jump\t// in\n    tag_251:\n      pop\n      0x40\n      dup3\n      add\n      mload\n      dup2\n      0x02\n      add\n      exp(0x0100, 0x00)\n      dup2\n      sload\n      dup2\n      0xffffffffffffffffffffffffffffffffffffffff\n      mul\n      not\n      and\n      swap1\n      dup4\n      0xffffffffffffffffffffffffffffffffffffffff\n      and\n      mul\n      or\n      swap1\n      sstore\n      pop\n      0x60\n      dup3\n      add\n      mload\n      dup2\n      0x03\n      add\n      exp(0x0100, 0x00)\n      dup2\n      sload\n      dup2\n      0xffffffffffffffffffffffffffffffffffffffff\n      mul\n      not\n      and\n      swap1\n      dup4\n      0xffffffffffffffffffffffffffffffffffffffff\n      and\n      mul\n      or\n      swap1\n      sstore\n      pop\n      0x80\n      dup3\n      add\n      mload\n      dup2\n      0x04\n      add\n      swap1\n      dup2\n      tag_252\n      swap2\n      swap1\n      tag_195\n      jump\t// in\n    tag_252:\n      pop\n      0xa0\n      dup3\n      add\n      mload\n      dup2\n      0x05\n      add\n      swap1\n      dup2\n      tag_253\n      swap2\n      swap1\n      tag_195\n      jump\t// in\n    tag_253:\n      pop\n      0xc0\n      dup3\n      add\n      mload\n      dup2\n      0x06\n      add\n      sstore\n      0xe0\n      dup3\n      add\n      mload\n      dup2\n      0x07\n      add\n      exp(0x0100, 0x00)\n      dup2\n      sload\n      dup2\n      0xff\n      mul\n      not\n      and\n      swap1\n      dup4\n      iszero\n      iszero\n      mul\n      or\n      swap1\n      sstore\n      pop\n      swap1\n      pop\n      pop\n        /* \"Halal.sol\":5321:5329  batchIds */\n      0x07\n        /* \"Halal.sol\":5335:5343  _batchId */\n      dup4\n        /* \"Halal.sol\":5321:5344  batchIds.push(_batchId) */\n      swap1\n      dup1\n      0x01\n      dup2\n      sload\n      add\n      dup1\n      dup3\n      sstore\n      dup1\n      swap2\n      pop\n      pop\n      0x01\n      swap1\n      sub\n      swap1\n      0x00\n      mstore\n      keccak256(0x00, 0x20)\n      add\n      0x00\n      swap1\n      swap2\n      swap1\n      swap2\n      swap1\n      swap2\n      pop\n      swap1\n      dup2\n      tag_255\n      swap2\n      swap1\n      tag_195\n      jump\t// in\n    tag_255:\n      pop\n        /* \"Halal.sol\":5392:5404  batchHistory */\n      0x06\n        /* \"Halal.sol\":5405:5413  _batchId */\n      dup4\n        /* \"Halal.sol\":5392:5414  batchHistory[_batchId] */\n      mload(0x40)\n      tag_256\n      swap2\n      swap1\n      tag_153\n      jump\t// in\n    tag_256:\n      swap1\n      dup2\n      mstore\n      0x20\n      add\n      mload(0x40)\n      dup1\n      swap2\n      sub\n      swap1\n      keccak256\n        /* \"Halal.sol\":5420:5556  StatusHistory({... */\n      mload(0x40)\n      dup1\n      0x60\n      add\n      0x40\n      mstore\n      dup1\n      mload(0x40)\n      dup1\n      0x40\n      add\n      0x40\n      mstore\n      dup1\n      0x08\n      dup2\n      mstore\n      0x20\n      add\n      0x50726f6475636564000000000000000000000000000000000000000000000000\n      dup2\n      mstore\n      pop\n      dup2\n      mstore\n      0x20\n      add\n        /* \"Halal.sol\":5493:5508  block.timestamp */\n      timestamp\n        /* \"Halal.sol\":5420:5556  StatusHistory({... */\n      dup2\n      mstore\n      0x20\n      add\n        /* \"Halal.sol\":5534:5544  msg.sender */\n      caller\n        /* \"Halal.sol\":5420:5556  StatusHistory({... */\n      0xffffffffffffffffffffffffffffffffffffffff\n      and\n      dup2\n      mstore\n      pop\n        /* \"Halal.sol\":5392:5557  batchHistory[_batchId].push(StatusHistory({... */\n      swap1\n      dup1\n      0x01\n      dup2\n      sload\n      add\n      dup1\n      dup3\n      sstore\n      dup1\n      swap2\n      pop\n      pop\n      0x01\n      swap1\n      sub\n      swap1\n      0x00\n      mstore\n      keccak256(0x00, 0x20)\n      swap1\n      0x03\n      mul\n      add\n      0x00\n      swap1\n      swap2\n      swap1\n      swap2\n      swap1\n      swap2\n      pop\n      0x00\n      dup3\n      add\n      mload\n      dup2\n      0x00\n      add\n      swap1\n      dup2\n      tag_258\n      swap2\n      swap1\n      tag_195\n      jump\t// in\n    tag_258:\n      pop\n      0x20\n      dup3\n      add\n      mload\n      dup2\n      0x01\n      add\n      sstore\n      0x40\n      dup3\n      add\n      mload\n      dup2\n      0x02\n      add\n      exp(0x0100, 0x00)\n      dup2\n      sload\n      dup2\n      0xffffffffffffffffffffffffffffffffffffffff\n      mul\n      not\n      and\n      swap1\n      dup4\n      0xffffffffffffffffffffffffffffffffffffffff\n      and\n      mul\n      or\n      swap1\n      sstore\n      pop\n      pop\n      pop\n        /* \"Halal.sol\":5620:5630  msg.sender */\n      caller\n        /* \"Halal.sol\":5583:5648  BatchCreated(_batchId, _productName, msg.sender, block.timestamp) */\n      0xffffffffffffffffffffffffffffffffffffffff\n      and\n        /* \"Halal.sol\":5596:5604  _batchId */\n      dup4\n        /* \"Halal.sol\":5583:5648  BatchCreated(_batchId, _productName, msg.sender, block.timestamp) */\n      mload(0x40)\n      tag_259\n      swap2\n      swap1\n      tag_153\n      jump\t// in\n    tag_259:\n      mload(0x40)\n      dup1\n      swap2\n      sub\n      swap1\n      keccak256\n      0xd8045a119a7c2df6cea5c487e90f857abb1b84a5a356331229d0020ce9debc62\n        /* \"Halal.sol\":5606:5618  _productName */\n      dup5\n        /* \"Halal.sol\":5632:5647  block.timestamp */\n      timestamp\n        /* \"Halal.sol\":5583:5648  BatchCreated(_batchId, _productName, msg.sender, block.timestamp) */\n      mload(0x40)\n      tag_260\n      swap3\n      swap2\n      swap1\n      tag_201\n      jump\t// in\n    tag_260:\n      mload(0x40)\n      dup1\n      swap2\n      sub\n      swap1\n      log3\n        /* \"Halal.sol\":4691:5656  {... */\n      pop\n        /* \"Halal.sol\":4598:5656  function createBatch(string memory _batchId, string memory _productName) public onlyProducer {... */\n      pop\n      pop\n      jump\t// out\n        /* \"Halal.sol\":469:510  mapping(address => bool) public retailers */\n    tag_76:\n      mstore(0x20, 0x04)\n      dup1\n      0x00\n      mstore\n      keccak256(0x00, 0x40)\n      0x00\n      swap2\n      pop\n      sload\n      swap1\n      0x0100\n      exp\n      swap1\n      div\n      0xff\n      and\n      dup2\n      jump\t// out\n        /* \"Halal.sol\":1107:1161  mapping(string => StatusHistory[]) public batchHistory */\n    tag_81:\n      0x06\n      dup3\n      dup1\n      mload\n      0x20\n      dup2\n      add\n      dup3\n      add\n      dup1\n      mload\n      dup5\n      dup3\n      mstore\n      0x20\n      dup4\n      add\n      0x20\n      dup6\n      add\n      keccak256\n      dup2\n      dup4\n      mstore\n      dup1\n      swap6\n      pop\n      pop\n      pop\n      pop\n      pop\n      pop\n      dup2\n      dup2\n      sload\n      dup2\n      lt\n      tag_261\n      jumpi\n      0x00\n      dup1\n      revert\n    tag_261:\n      swap1\n      0x00\n      mstore\n      keccak256(0x00, 0x20)\n      swap1\n      0x03\n      mul\n      add\n      0x00\n      swap2\n      pop\n      swap2\n      pop\n      pop\n      dup1\n      0x00\n      add\n      dup1\n      sload\n      tag_263\n      swap1\n      tag_214\n      jump\t// in\n    tag_263:\n      dup1\n      0x1f\n      add\n      0x20\n      dup1\n      swap2\n      div\n      mul\n      0x20\n      add\n      mload(0x40)\n      swap1\n      dup2\n      add\n      0x40\n      mstore\n      dup1\n      swap3\n      swap2\n      swap1\n      dup2\n      dup2\n      mstore\n      0x20\n      add\n      dup3\n      dup1\n      sload\n      tag_264\n      swap1\n      tag_214\n      jump\t// in\n    tag_264:\n      dup1\n      iszero\n      tag_265\n      jumpi\n      dup1\n      0x1f\n      lt\n      tag_266\n      jumpi\n      0x0100\n      dup1\n      dup4\n      sload\n      div\n      mul\n      dup4\n      mstore\n      swap2\n      0x20\n      add\n      swap2\n      jump(tag_265)\n    tag_266:\n      dup3\n      add\n      swap2\n      swap1\n      0x00\n      mstore\n      keccak256(0x00, 0x20)\n      swap1\n    tag_267:\n      dup2\n      sload\n      dup2\n      mstore\n      swap1\n      0x01\n      add\n      swap1\n      0x20\n      add\n      dup1\n      dup4\n      gt\n      tag_267\n      jumpi\n      dup3\n      swap1\n      sub\n      0x1f\n      and\n      dup3\n      add\n      swap2\n    tag_265:\n      pop\n      pop\n      pop\n      pop\n      pop\n      swap1\n      dup1\n      0x01\n      add\n      sload\n      swap1\n      dup1\n      0x02\n      add\n      0x00\n      swap1\n      sload\n      swap1\n      0x0100\n      exp\n      swap1\n      div\n      0xffffffffffffffffffffffffffffffffffffffff\n      and\n      swap1\n      pop\n      dup4\n      jump\t// out\n        /* \"Halal.sol\":9536:9746  function getBatchHistory(string memory _batchId) ... */\n    tag_86:\n        /* \"Halal.sol\":9668:9690  StatusHistory[] memory */\n      0x60\n        /* \"Halal.sol\":9639:9647  _batchId */\n      dup2\n        /* \"Halal.sol\":2644:2651  batches */\n      0x05\n        /* \"Halal.sol\":2652:2660  _batchId */\n      dup2\n        /* \"Halal.sol\":2644:2661  batches[_batchId] */\n      mload(0x40)\n      tag_269\n      swap2\n      swap1\n      tag_153\n      jump\t// in\n    tag_269:\n      swap1\n      dup2\n      mstore\n      0x20\n      add\n      mload(0x40)\n      dup1\n      swap2\n      sub\n      swap1\n      keccak256\n        /* \"Halal.sol\":2644:2668  batches[_batchId].exists */\n      0x07\n      add\n      0x00\n      swap1\n      sload\n      swap1\n      0x0100\n      exp\n      swap1\n      div\n      0xff\n      and\n        /* \"Halal.sol\":2636:2693  require(batches[_batchId].exists, \"Batch does not exist\") */\n      tag_270\n      jumpi\n      mload(0x40)\n      0x08c379a000000000000000000000000000000000000000000000000000000000\n      dup2\n      mstore\n      0x04\n      add\n      tag_271\n      swap1\n      tag_183\n      jump\t// in\n    tag_271:\n      mload(0x40)\n      dup1\n      swap2\n      sub\n      swap1\n      revert\n    tag_270:\n        /* \"Halal.sol\":9716:9728  batchHistory */\n      0x06\n        /* \"Halal.sol\":9729:9737  _batchId */\n      dup4\n        /* \"Halal.sol\":9716:9738  batchHistory[_batchId] */\n      mload(0x40)\n      tag_273\n      swap2\n      swap1\n      tag_153\n      jump\t// in\n    tag_273:\n      swap1\n      dup2\n      mstore\n      0x20\n      add\n      mload(0x40)\n      dup1\n      swap2\n      sub\n      swap1\n      keccak256\n        /* \"Halal.sol\":9709:9738  return batchHistory[_batchId] */\n      dup1\n      sload\n      dup1\n      0x20\n      mul\n      0x20\n      add\n      mload(0x40)\n      swap1\n      dup2\n      add\n      0x40\n      mstore\n      dup1\n      swap3\n      swap2\n      swap1\n      dup2\n      dup2\n      mstore\n      0x20\n      add\n      0x00\n      swap1\n    tag_274:\n      dup3\n      dup3\n      lt\n      iszero\n      tag_275\n      jumpi\n      dup4\n      dup3\n      swap1\n      0x00\n      mstore\n      keccak256(0x00, 0x20)\n      swap1\n      0x03\n      mul\n      add\n      mload(0x40)\n      dup1\n      0x60\n      add\n      0x40\n      mstore\n      swap1\n      dup2\n      0x00\n      dup3\n      add\n      dup1\n      sload\n      tag_277\n      swap1\n      tag_214\n      jump\t// in\n    tag_277:\n      dup1\n      0x1f\n      add\n      0x20\n      dup1\n      swap2\n      div\n      mul\n      0x20\n      add\n      mload(0x40)\n      swap1\n      dup2\n      add\n      0x40\n      mstore\n      dup1\n      swap3\n      swap2\n      swap1\n      dup2\n      dup2\n      mstore\n      0x20\n      add\n      dup3\n      dup1\n      sload\n      tag_278\n      swap1\n      tag_214\n      jump\t// in\n    tag_278:\n      dup1\n      iszero\n      tag_279\n      jumpi\n      dup1\n      0x1f\n      lt\n      tag_280\n      jumpi\n      0x0100\n      dup1\n      dup4\n      sload\n      div\n      mul\n      dup4\n      mstore\n      swap2\n      0x20\n      add\n      swap2\n      jump(tag_279)\n    tag_280:\n      dup3\n      add\n      swap2\n      swap1\n      0x00\n      mstore\n      keccak256(0x00, 0x20)\n      swap1\n    tag_281:\n      dup2\n      sload\n      dup2\n      mstore\n      swap1\n      0x01\n      add\n      swap1\n      0x20\n      add\n      dup1\n      dup4\n      gt\n      tag_281\n      jumpi\n      dup3\n      swap1\n      sub\n      0x1f\n      and\n      dup3\n      add\n      swap2\n    tag_279:\n      pop\n      pop\n      pop\n      pop\n      pop\n      dup2\n      mstore\n      0x20\n      add\n      0x01\n      dup3\n      add\n      sload\n      dup2\n      mstore\n      0x20\n      add\n      0x02\n      dup3\n      add\n      0x00\n      swap1\n      sload\n      swap1\n      0x0100\n      exp\n      swap1\n      div\n      0xffffffffffffffffffffffffffffffffffffffff\n      and\n      0xffffffffffffffffffffffffffffffffffffffff\n      and\n      0xffffffffffffffffffffffffffffffffffffffff\n      and\n      dup2\n      mstore\n      pop\n      pop\n      dup2\n      mstore\n      0x20\n      add\n      swap1\n      0x01\n      add\n      swap1\n      jump(tag_274)\n    tag_275:\n      pop\n      pop\n      pop\n      pop\n      swap2\n      pop\n        /* \"Halal.sol\":9536:9746  function getBatchHistory(string memory _batchId) ... */\n      pop\n      swap2\n      swap1\n      pop\n      jump\t// out\n        /* \"Halal.sol\":1168:1192  string[] public batchIds */\n    tag_92:\n      0x07\n      dup2\n      dup2\n      sload\n      dup2\n      lt\n      tag_282\n      jumpi\n      0x00\n      dup1\n      revert\n    tag_282:\n      swap1\n      0x00\n      mstore\n      keccak256(0x00, 0x20)\n      add\n      0x00\n      swap2\n      pop\n      swap1\n      pop\n      dup1\n      sload\n      tag_284\n      swap1\n      tag_214\n      jump\t// in\n    tag_284:\n      dup1\n      0x1f\n      add\n      0x20\n      dup1\n      swap2\n      div\n      mul\n      0x20\n      add\n      mload(0x40)\n      swap1\n      dup2\n      add\n      0x40\n      mstore\n      dup1\n      swap3\n      swap2\n      swap1\n      dup2\n      dup2\n      mstore\n      0x20\n      add\n      dup3\n      dup1\n      sload\n      tag_285\n      swap1\n      tag_214\n      jump\t// in\n    tag_285:\n      dup1\n      iszero\n      tag_286\n      jumpi\n      dup1\n      0x1f\n      lt\n      tag_287\n      jumpi\n      0x0100\n      dup1\n      dup4\n      sload\n      div\n      mul\n      dup4\n      mstore\n      swap2\n      0x20\n      add\n      swap2\n      jump(tag_286)\n    tag_287:\n      dup3\n      add\n      swap2\n      swap1\n      0x00\n      mstore\n      keccak256(0x00, 0x20)\n      swap1\n    tag_288:\n      dup2\n      sload\n      dup2\n      mstore\n      swap1\n      0x01\n      add\n      swap1\n      0x20\n      add\n      dup1\n      dup4\n      gt\n      tag_288\n      jumpi\n      dup3\n      swap1\n      sub\n      0x1f\n      and\n      dup3\n      add\n      swap2\n    tag_286:\n      pop\n      pop\n      pop\n      pop\n      pop\n      dup2\n      jump\t// out\n        /* \"Halal.sol\":7370:8670  function transferBatch(string memory _batchId, address _to) ... */\n    tag_98:\n        /* \"Halal.sol\":7469:7477  _batchId */\n      dup2\n        /* \"Halal.sol\":2644:2651  batches */\n      0x05\n        /* \"Halal.sol\":2652:2660  _batchId */\n      dup2\n        /* \"Halal.sol\":2644:2661  batches[_batchId] */\n      mload(0x40)\n      tag_290\n      swap2\n      swap1\n      tag_153\n      jump\t// in\n    tag_290:\n      swap1\n      dup2\n      mstore\n      0x20\n      add\n      mload(0x40)\n      dup1\n      swap2\n      sub\n      swap1\n      keccak256\n        /* \"Halal.sol\":2644:2668  batches[_batchId].exists */\n      0x07\n      add\n      0x00\n      swap1\n      sload\n      swap1\n      0x0100\n      exp\n      swap1\n      div\n      0xff\n      and\n        /* \"Halal.sol\":2636:2693  require(batches[_batchId].exists, \"Batch does not exist\") */\n      tag_291\n      jumpi\n      mload(0x40)\n      0x08c379a000000000000000000000000000000000000000000000000000000000\n      dup2\n      mstore\n      0x04\n      add\n      tag_292\n      swap1\n      tag_183\n      jump\t// in\n    tag_292:\n      mload(0x40)\n      dup1\n      swap2\n      sub\n      swap1\n      revert\n    tag_291:\n        /* \"Halal.sol\":7506:7514  _batchId */\n      dup3\n        /* \"Halal.sol\":2828:2838  msg.sender */\n      caller\n        /* \"Halal.sol\":2794:2838  batches[_batchId].currentOwner == msg.sender */\n      0xffffffffffffffffffffffffffffffffffffffff\n      and\n        /* \"Halal.sol\":2794:2801  batches */\n      0x05\n        /* \"Halal.sol\":2802:2810  _batchId */\n      dup3\n        /* \"Halal.sol\":2794:2811  batches[_batchId] */\n      mload(0x40)\n      tag_294\n      swap2\n      swap1\n      tag_153\n      jump\t// in\n    tag_294:\n      swap1\n      dup2\n      mstore\n      0x20\n      add\n      mload(0x40)\n      dup1\n      swap2\n      sub\n      swap1\n      keccak256\n        /* \"Halal.sol\":2794:2824  batches[_batchId].currentOwner */\n      0x03\n      add\n      0x00\n      swap1\n      sload\n      swap1\n      0x0100\n      exp\n      swap1\n      div\n      0xffffffffffffffffffffffffffffffffffffffff\n      and\n        /* \"Halal.sol\":2794:2838  batches[_batchId].currentOwner == msg.sender */\n      0xffffffffffffffffffffffffffffffffffffffff\n      and\n      eq\n        /* \"Halal.sol\":2786:2885  require(batches[_batchId].currentOwner == msg.sender, \"Only current owner can perform this action\") */\n      tag_295\n      jumpi\n      mload(0x40)\n      0x08c379a000000000000000000000000000000000000000000000000000000000\n      dup2\n      mstore\n      0x04\n      add\n      tag_296\n      swap1\n      tag_297\n      jump\t// in\n    tag_296:\n      mload(0x40)\n      dup1\n      swap2\n      sub\n      swap1\n      revert\n    tag_295:\n        /* \"Halal.sol\":7556:7557  0 */\n      0x00\n        /* \"Halal.sol\":7541:7558  _to != address(0) */\n      0xffffffffffffffffffffffffffffffffffffffff\n      and\n        /* \"Halal.sol\":7541:7544  _to */\n      dup4\n        /* \"Halal.sol\":7541:7558  _to != address(0) */\n      0xffffffffffffffffffffffffffffffffffffffff\n      and\n      sub\n        /* \"Halal.sol\":7533:7588  require(_to != address(0), \"Invalid recipient address\") */\n      tag_299\n      jumpi\n      mload(0x40)\n      0x08c379a000000000000000000000000000000000000000000000000000000000\n      dup2\n      mstore\n      0x04\n      add\n      tag_300\n      swap1\n      tag_301\n      jump\t// in\n    tag_300:\n      mload(0x40)\n      dup1\n      swap2\n      sub\n      swap1\n      revert\n    tag_299:\n        /* \"Halal.sol\":7614:7624  msg.sender */\n      caller\n        /* \"Halal.sol\":7607:7624  _to != msg.sender */\n      0xffffffffffffffffffffffffffffffffffffffff\n      and\n        /* \"Halal.sol\":7607:7610  _to */\n      dup4\n        /* \"Halal.sol\":7607:7624  _to != msg.sender */\n      0xffffffffffffffffffffffffffffffffffffffff\n      and\n      sub\n        /* \"Halal.sol\":7599:7656  require(_to != msg.sender, \"Cannot transfer to yourself\") */\n      tag_302\n      jumpi\n      mload(0x40)\n      0x08c379a000000000000000000000000000000000000000000000000000000000\n      dup2\n      mstore\n      0x04\n      add\n      tag_303\n      swap1\n      tag_304\n      jump\t// in\n    tag_303:\n      mload(0x40)\n      dup1\n      swap2\n      sub\n      swap1\n      revert\n    tag_302:\n        /* \"Halal.sol\":7689:7698  producers */\n      0x01\n        /* \"Halal.sol\":7689:7703  producers[_to] */\n      0x00\n        /* \"Halal.sol\":7699:7702  _to */\n      dup5\n        /* \"Halal.sol\":7689:7703  producers[_to] */\n      0xffffffffffffffffffffffffffffffffffffffff\n      and\n      0xffffffffffffffffffffffffffffffffffffffff\n      and\n      dup2\n      mstore\n      0x20\n      add\n      swap1\n      dup2\n      mstore\n      0x20\n      add\n      0x00\n      keccak256\n      0x00\n      swap1\n      sload\n      swap1\n      0x0100\n      exp\n      swap1\n      div\n      0xff\n      and\n        /* \"Halal.sol\":7689:7724  producers[_to] || distributors[_to] */\n      dup1\n      tag_305\n      jumpi\n      pop\n        /* \"Halal.sol\":7707:7719  distributors */\n      0x03\n        /* \"Halal.sol\":7707:7724  distributors[_to] */\n      0x00\n        /* \"Halal.sol\":7720:7723  _to */\n      dup5\n        /* \"Halal.sol\":7707:7724  distributors[_to] */\n      0xffffffffffffffffffffffffffffffffffffffff\n      and\n      0xffffffffffffffffffffffffffffffffffffffff\n      and\n      dup2\n      mstore\n      0x20\n      add\n      swap1\n      dup2\n      mstore\n      0x20\n      add\n      0x00\n      keccak256\n      0x00\n      swap1\n      sload\n      swap1\n      0x0100\n      exp\n      swap1\n      div\n      0xff\n      and\n        /* \"Halal.sol\":7689:7724  producers[_to] || distributors[_to] */\n    tag_305:\n        /* \"Halal.sol\":7689:7742  producers[_to] || distributors[_to] || retailers[_to] */\n      dup1\n      tag_306\n      jumpi\n      pop\n        /* \"Halal.sol\":7728:7737  retailers */\n      0x04\n        /* \"Halal.sol\":7728:7742  retailers[_to] */\n      0x00\n        /* \"Halal.sol\":7738:7741  _to */\n      dup5\n        /* \"Halal.sol\":7728:7742  retailers[_to] */\n      0xffffffffffffffffffffffffffffffffffffffff\n      and\n      0xffffffffffffffffffffffffffffffffffffffff\n      and\n      dup2\n      mstore\n      0x20\n      add\n      swap1\n      dup2\n      mstore\n      0x20\n      add\n      0x00\n      keccak256\n      0x00\n      swap1\n      sload\n      swap1\n      0x0100\n      exp\n      swap1\n      div\n      0xff\n      and\n        /* \"Halal.sol\":7689:7742  producers[_to] || distributors[_to] || retailers[_to] */\n    tag_306:\n        /* \"Halal.sol\":7667:7802  require(... */\n      tag_307\n      jumpi\n      mload(0x40)\n      0x08c379a000000000000000000000000000000000000000000000000000000000\n      dup2\n      mstore\n      0x04\n      add\n      tag_308\n      swap1\n      tag_309\n      jump\t// in\n    tag_308:\n      mload(0x40)\n      dup1\n      swap2\n      sub\n      swap1\n      revert\n    tag_307:\n        /* \"Halal.sol\":7823:7844  address previousOwner */\n      0x00\n        /* \"Halal.sol\":7847:7854  batches */\n      0x05\n        /* \"Halal.sol\":7855:7863  _batchId */\n      dup6\n        /* \"Halal.sol\":7847:7864  batches[_batchId] */\n      mload(0x40)\n      tag_310\n      swap2\n      swap1\n      tag_153\n      jump\t// in\n    tag_310:\n      swap1\n      dup2\n      mstore\n      0x20\n      add\n      mload(0x40)\n      dup1\n      swap2\n      sub\n      swap1\n      keccak256\n        /* \"Halal.sol\":7847:7877  batches[_batchId].currentOwner */\n      0x03\n      add\n      0x00\n      swap1\n      sload\n      swap1\n      0x0100\n      exp\n      swap1\n      div\n      0xffffffffffffffffffffffffffffffffffffffff\n      and\n        /* \"Halal.sol\":7823:7877  address previousOwner = batches[_batchId].currentOwner */\n      swap1\n      pop\n        /* \"Halal.sol\":7921:7924  _to */\n      dup4\n        /* \"Halal.sol\":7888:7895  batches */\n      0x05\n        /* \"Halal.sol\":7896:7904  _batchId */\n      dup7\n        /* \"Halal.sol\":7888:7905  batches[_batchId] */\n      mload(0x40)\n      tag_311\n      swap2\n      swap1\n      tag_153\n      jump\t// in\n    tag_311:\n      swap1\n      dup2\n      mstore\n      0x20\n      add\n      mload(0x40)\n      dup1\n      swap2\n      sub\n      swap1\n      keccak256\n        /* \"Halal.sol\":7888:7918  batches[_batchId].currentOwner */\n      0x03\n      add\n      0x00\n        /* \"Halal.sol\":7888:7924  batches[_batchId].currentOwner = _to */\n      0x0100\n      exp\n      dup2\n      sload\n      dup2\n      0xffffffffffffffffffffffffffffffffffffffff\n      mul\n      not\n      and\n      swap1\n      dup4\n      0xffffffffffffffffffffffffffffffffffffffff\n      and\n      mul\n      or\n      swap1\n      sstore\n      pop\n        /* \"Halal.sol\":7999:8011  distributors */\n      0x03\n        /* \"Halal.sol\":7999:8016  distributors[_to] */\n      0x00\n        /* \"Halal.sol\":8012:8015  _to */\n      dup6\n        /* \"Halal.sol\":7999:8016  distributors[_to] */\n      0xffffffffffffffffffffffffffffffffffffffff\n      and\n      0xffffffffffffffffffffffffffffffffffffffff\n      and\n      dup2\n      mstore\n      0x20\n      add\n      swap1\n      dup2\n      mstore\n      0x20\n      add\n      0x00\n      keccak256\n      0x00\n      swap1\n      sload\n      swap1\n      0x0100\n      exp\n      swap1\n      div\n      0xff\n      and\n        /* \"Halal.sol\":7995:8574  if (distributors[_to]) {... */\n      iszero\n      tag_312\n      jumpi\n        /* \"Halal.sol\":8033:8072  batches[_batchId].status = \"In Transit\" */\n      mload(0x40)\n      dup1\n      0x40\n      add\n      0x40\n      mstore\n      dup1\n      0x0a\n      dup2\n      mstore\n      0x20\n      add\n      0x496e205472616e73697400000000000000000000000000000000000000000000\n      dup2\n      mstore\n      pop\n        /* \"Halal.sol\":8033:8040  batches */\n      0x05\n        /* \"Halal.sol\":8041:8049  _batchId */\n      dup7\n        /* \"Halal.sol\":8033:8050  batches[_batchId] */\n      mload(0x40)\n      tag_313\n      swap2\n      swap1\n      tag_153\n      jump\t// in\n    tag_313:\n      swap1\n      dup2\n      mstore\n      0x20\n      add\n      mload(0x40)\n      dup1\n      swap2\n      sub\n      swap1\n      keccak256\n        /* \"Halal.sol\":8033:8057  batches[_batchId].status */\n      0x04\n      add\n        /* \"Halal.sol\":8033:8072  batches[_batchId].status = \"In Transit\" */\n      swap1\n      dup2\n      tag_314\n      swap2\n      swap1\n      tag_195\n      jump\t// in\n    tag_314:\n      pop\n        /* \"Halal.sol\":8087:8099  batchHistory */\n      0x06\n        /* \"Halal.sol\":8100:8108  _batchId */\n      dup6\n        /* \"Halal.sol\":8087:8109  batchHistory[_batchId] */\n      mload(0x40)\n      tag_315\n      swap2\n      swap1\n      tag_153\n      jump\t// in\n    tag_315:\n      swap1\n      dup2\n      mstore\n      0x20\n      add\n      mload(0x40)\n      dup1\n      swap2\n      sub\n      swap1\n      keccak256\n        /* \"Halal.sol\":8115:8269  StatusHistory({... */\n      mload(0x40)\n      dup1\n      0x60\n      add\n      0x40\n      mstore\n      dup1\n      mload(0x40)\n      dup1\n      0x40\n      add\n      0x40\n      mstore\n      dup1\n      0x0a\n      dup2\n      mstore\n      0x20\n      add\n      0x496e205472616e73697400000000000000000000000000000000000000000000\n      dup2\n      mstore\n      pop\n      dup2\n      mstore\n      0x20\n      add\n        /* \"Halal.sol\":8198:8213  block.timestamp */\n      timestamp\n        /* \"Halal.sol\":8115:8269  StatusHistory({... */\n      dup2\n      mstore\n      0x20\n      add\n        /* \"Halal.sol\":8243:8253  msg.sender */\n      caller\n        /* \"Halal.sol\":8115:8269  StatusHistory({... */\n      0xffffffffffffffffffffffffffffffffffffffff\n      and\n      dup2\n      mstore\n      pop\n        /* \"Halal.sol\":8087:8270  batchHistory[_batchId].push(StatusHistory({... */\n      swap1\n      dup1\n      0x01\n      dup2\n      sload\n      add\n      dup1\n      dup3\n      sstore\n      dup1\n      swap2\n      pop\n      pop\n      0x01\n      swap1\n      sub\n      swap1\n      0x00\n      mstore\n      keccak256(0x00, 0x20)\n      swap1\n      0x03\n      mul\n      add\n      0x00\n      swap1\n      swap2\n      swap1\n      swap2\n      swap1\n      swap2\n      pop\n      0x00\n      dup3\n      add\n      mload\n      dup2\n      0x00\n      add\n      swap1\n      dup2\n      tag_317\n      swap2\n      swap1\n      tag_195\n      jump\t// in\n    tag_317:\n      pop\n      0x20\n      dup3\n      add\n      mload\n      dup2\n      0x01\n      add\n      sstore\n      0x40\n      dup3\n      add\n      mload\n      dup2\n      0x02\n      add\n      exp(0x0100, 0x00)\n      dup2\n      sload\n      dup2\n      0xffffffffffffffffffffffffffffffffffffffff\n      mul\n      not\n      and\n      swap1\n      dup4\n      0xffffffffffffffffffffffffffffffffffffffff\n      and\n      mul\n      or\n      swap1\n      sstore\n      pop\n      pop\n      pop\n        /* \"Halal.sol\":7995:8574  if (distributors[_to]) {... */\n      jump(tag_318)\n    tag_312:\n        /* \"Halal.sol\":8292:8301  retailers */\n      0x04\n        /* \"Halal.sol\":8292:8306  retailers[_to] */\n      0x00\n        /* \"Halal.sol\":8302:8305  _to */\n      dup6\n        /* \"Halal.sol\":8292:8306  retailers[_to] */\n      0xffffffffffffffffffffffffffffffffffffffff\n      and\n      0xffffffffffffffffffffffffffffffffffffffff\n      and\n      dup2\n      mstore\n      0x20\n      add\n      swap1\n      dup2\n      mstore\n      0x20\n      add\n      0x00\n      keccak256\n      0x00\n      swap1\n      sload\n      swap1\n      0x0100\n      exp\n      swap1\n      div\n      0xff\n      and\n        /* \"Halal.sol\":8288:8574  if (retailers[_to]) {... */\n      iszero\n      tag_319\n      jumpi\n        /* \"Halal.sol\":8323:8363  batches[_batchId].status = \"At Retailer\" */\n      mload(0x40)\n      dup1\n      0x40\n      add\n      0x40\n      mstore\n      dup1\n      0x0b\n      dup2\n      mstore\n      0x20\n      add\n      0x41742052657461696c6572000000000000000000000000000000000000000000\n      dup2\n      mstore\n      pop\n        /* \"Halal.sol\":8323:8330  batches */\n      0x05\n        /* \"Halal.sol\":8331:8339  _batchId */\n      dup7\n        /* \"Halal.sol\":8323:8340  batches[_batchId] */\n      mload(0x40)\n      tag_320\n      swap2\n      swap1\n      tag_153\n      jump\t// in\n    tag_320:\n      swap1\n      dup2\n      mstore\n      0x20\n      add\n      mload(0x40)\n      dup1\n      swap2\n      sub\n      swap1\n      keccak256\n        /* \"Halal.sol\":8323:8347  batches[_batchId].status */\n      0x04\n      add\n        /* \"Halal.sol\":8323:8363  batches[_batchId].status = \"At Retailer\" */\n      swap1\n      dup2\n      tag_321\n      swap2\n      swap1\n      tag_195\n      jump\t// in\n    tag_321:\n      pop\n        /* \"Halal.sol\":8378:8390  batchHistory */\n      0x06\n        /* \"Halal.sol\":8391:8399  _batchId */\n      dup6\n        /* \"Halal.sol\":8378:8400  batchHistory[_batchId] */\n      mload(0x40)\n      tag_322\n      swap2\n      swap1\n      tag_153\n      jump\t// in\n    tag_322:\n      swap1\n      dup2\n      mstore\n      0x20\n      add\n      mload(0x40)\n      dup1\n      swap2\n      sub\n      swap1\n      keccak256\n        /* \"Halal.sol\":8406:8561  StatusHistory({... */\n      mload(0x40)\n      dup1\n      0x60\n      add\n      0x40\n      mstore\n      dup1\n      mload(0x40)\n      dup1\n      0x40\n      add\n      0x40\n      mstore\n      dup1\n      0x0b\n      dup2\n      mstore\n      0x20\n      add\n      0x41742052657461696c6572000000000000000000000000000000000000000000\n      dup2\n      mstore\n      pop\n      dup2\n      mstore\n      0x20\n      add\n        /* \"Halal.sol\":8490:8505  block.timestamp */\n      timestamp\n        /* \"Halal.sol\":8406:8561  StatusHistory({... */\n      dup2\n      mstore\n      0x20\n      add\n        /* \"Halal.sol\":8535:8545  msg.sender */\n      caller\n        /* \"Halal.sol\":8406:8561  StatusHistory({... */\n      0xffffffffffffffffffffffffffffffffffffffff\n      and\n      dup2\n      mstore\n      pop\n        /* \"Halal.sol\":8378:8562  batchHistory[_batchId].push(StatusHistory({... */\n      swap1\n      dup1\n      0x01\n      dup2\n      sload\n      add\n      dup1\n      dup3\n      sstore\n      dup1\n      swap2\n      pop\n      pop\n      0x01\n      swap1\n      sub\n      swap1\n      0x00\n      mstore\n      keccak256(0x00, 0x20)\n      swap1\n      0x03\n      mul\n      add\n      0x00\n      swap1\n      swap2\n      swap1\n      swap2\n      swap1\n      swap2\n      pop\n      0x00\n      dup3\n      add\n      mload\n      dup2\n      0x00\n      add\n      swap1\n      dup2\n      tag_324\n      swap2\n      swap1\n      tag_195\n      jump\t// in\n    tag_324:\n      pop\n      0x20\n      dup3\n      add\n      mload\n      dup2\n      0x01\n      add\n      sstore\n      0x40\n      dup3\n      add\n      mload\n      dup2\n      0x02\n      add\n      exp(0x0100, 0x00)\n      dup2\n      sload\n      dup2\n      0xffffffffffffffffffffffffffffffffffffffff\n      mul\n      not\n      and\n      swap1\n      dup4\n      0xffffffffffffffffffffffffffffffffffffffff\n      and\n      mul\n      or\n      swap1\n      sstore\n      pop\n      pop\n      pop\n        /* \"Halal.sol\":8288:8574  if (retailers[_to]) {... */\n    tag_319:\n        /* \"Halal.sol\":7995:8574  if (distributors[_to]) {... */\n    tag_318:\n        /* \"Halal.sol\":8641:8644  _to */\n      dup4\n        /* \"Halal.sol\":8599:8662  BatchTransferred(_batchId, previousOwner, _to, block.timestamp) */\n      0xffffffffffffffffffffffffffffffffffffffff\n      and\n        /* \"Halal.sol\":8626:8639  previousOwner */\n      dup2\n        /* \"Halal.sol\":8599:8662  BatchTransferred(_batchId, previousOwner, _to, block.timestamp) */\n      0xffffffffffffffffffffffffffffffffffffffff\n      and\n        /* \"Halal.sol\":8616:8624  _batchId */\n      dup7\n        /* \"Halal.sol\":8599:8662  BatchTransferred(_batchId, previousOwner, _to, block.timestamp) */\n      mload(0x40)\n      tag_325\n      swap2\n      swap1\n      tag_153\n      jump\t// in\n    tag_325:\n      mload(0x40)\n      dup1\n      swap2\n      sub\n      swap1\n      keccak256\n      0xf098a9f0ca48e620570b4a4d165d5ae87dd8fd34ca0e9fa8c25480826e72cc94\n        /* \"Halal.sol\":8646:8661  block.timestamp */\n      timestamp\n        /* \"Halal.sol\":8599:8662  BatchTransferred(_batchId, previousOwner, _to, block.timestamp) */\n      mload(0x40)\n      tag_326\n      swap2\n      swap1\n      tag_120\n      jump\t// in\n    tag_326:\n      mload(0x40)\n      dup1\n      swap2\n      sub\n      swap1\n      log4\n        /* \"Halal.sol\":7522:8670  {... */\n      pop\n        /* \"Halal.sol\":2704:2705  _ */\n      pop\n        /* \"Halal.sol\":7370:8670  function transferBatch(string memory _batchId, address _to) ... */\n      pop\n      pop\n      pop\n      jump\t// out\n        /* \"Halal.sol\":5744:6426  function setHalalCertificate(string memory _batchId, string memory _certHash) ... */\n    tag_101:\n        /* \"Halal.sol\":2186:2202  halalAuthorities */\n      0x02\n        /* \"Halal.sol\":2186:2214  halalAuthorities[msg.sender] */\n      0x00\n        /* \"Halal.sol\":2203:2213  msg.sender */\n      caller\n        /* \"Halal.sol\":2186:2214  halalAuthorities[msg.sender] */\n      0xffffffffffffffffffffffffffffffffffffffff\n      and\n      0xffffffffffffffffffffffffffffffffffffffff\n      and\n      dup2\n      mstore\n      0x20\n      add\n      swap1\n      dup2\n      mstore\n      0x20\n      add\n      0x00\n      keccak256\n      0x00\n      swap1\n      sload\n      swap1\n      0x0100\n      exp\n      swap1\n      div\n      0xff\n      and\n        /* \"Halal.sol\":2178:2263  require(halalAuthorities[msg.sender], \"Only halal authority can perform this action\") */\n      tag_328\n      jumpi\n      mload(0x40)\n      0x08c379a000000000000000000000000000000000000000000000000000000000\n      dup2\n      mstore\n      0x04\n      add\n      tag_329\n      swap1\n      tag_330\n      jump\t// in\n    tag_329:\n      mload(0x40)\n      dup1\n      swap2\n      sub\n      swap1\n      revert\n    tag_328:\n        /* \"Halal.sol\":5890:5898  _batchId */\n      dup2\n        /* \"Halal.sol\":2644:2651  batches */\n      0x05\n        /* \"Halal.sol\":2652:2660  _batchId */\n      dup2\n        /* \"Halal.sol\":2644:2661  batches[_batchId] */\n      mload(0x40)\n      tag_332\n      swap2\n      swap1\n      tag_153\n      jump\t// in\n    tag_332:\n      swap1\n      dup2\n      mstore\n      0x20\n      add\n      mload(0x40)\n      dup1\n      swap2\n      sub\n      swap1\n      keccak256\n        /* \"Halal.sol\":2644:2668  batches[_batchId].exists */\n      0x07\n      add\n      0x00\n      swap1\n      sload\n      swap1\n      0x0100\n      exp\n      swap1\n      div\n      0xff\n      and\n        /* \"Halal.sol\":2636:2693  require(batches[_batchId].exists, \"Batch does not exist\") */\n      tag_333\n      jumpi\n      mload(0x40)\n      0x08c379a000000000000000000000000000000000000000000000000000000000\n      dup2\n      mstore\n      0x04\n      add\n      tag_334\n      swap1\n      tag_183\n      jump\t// in\n    tag_334:\n      mload(0x40)\n      dup1\n      swap2\n      sub\n      swap1\n      revert\n    tag_333:\n        /* \"Halal.sol\":5951:5952  0 */\n      0x00\n        /* \"Halal.sol\":5931:5940  _certHash */\n      dup3\n        /* \"Halal.sol\":5925:5948  bytes(_certHash).length */\n      mload\n        /* \"Halal.sol\":5925:5952  bytes(_certHash).length > 0 */\n      gt\n        /* \"Halal.sol\":5917:5989  require(bytes(_certHash).length > 0, \"Certificate hash cannot be empty\") */\n      tag_336\n      jumpi\n      mload(0x40)\n      0x08c379a000000000000000000000000000000000000000000000000000000000\n      dup2\n      mstore\n      0x04\n      add\n      tag_337\n      swap1\n      tag_338\n      jump\t// in\n    tag_337:\n      mload(0x40)\n      dup1\n      swap2\n      sub\n      swap1\n      revert\n    tag_336:\n        /* \"Halal.sol\":6044:6053  _certHash */\n      dup2\n        /* \"Halal.sol\":6010:6017  batches */\n      0x05\n        /* \"Halal.sol\":6018:6026  _batchId */\n      dup5\n        /* \"Halal.sol\":6010:6027  batches[_batchId] */\n      mload(0x40)\n      tag_339\n      swap2\n      swap1\n      tag_153\n      jump\t// in\n    tag_339:\n      swap1\n      dup2\n      mstore\n      0x20\n      add\n      mload(0x40)\n      dup1\n      swap2\n      sub\n      swap1\n      keccak256\n        /* \"Halal.sol\":6010:6041  batches[_batchId].halalCertHash */\n      0x05\n      add\n        /* \"Halal.sol\":6010:6053  batches[_batchId].halalCertHash = _certHash */\n      swap1\n      dup2\n      tag_340\n      swap2\n      swap1\n      tag_195\n      jump\t// in\n    tag_340:\n      pop\n        /* \"Halal.sol\":6064:6108  batches[_batchId].status = \"Certified Halal\" */\n      mload(0x40)\n      dup1\n      0x40\n      add\n      0x40\n      mstore\n      dup1\n      0x0f\n      dup2\n      mstore\n      0x20\n      add\n      0x4365727469666965642048616c616c0000000000000000000000000000000000\n      dup2\n      mstore\n      pop\n        /* \"Halal.sol\":6064:6071  batches */\n      0x05\n        /* \"Halal.sol\":6072:6080  _batchId */\n      dup5\n        /* \"Halal.sol\":6064:6081  batches[_batchId] */\n      mload(0x40)\n      tag_341\n      swap2\n      swap1\n      tag_153\n      jump\t// in\n    tag_341:\n      swap1\n      dup2\n      mstore\n      0x20\n      add\n      mload(0x40)\n      dup1\n      swap2\n      sub\n      swap1\n      keccak256\n        /* \"Halal.sol\":6064:6088  batches[_batchId].status */\n      0x04\n      add\n        /* \"Halal.sol\":6064:6108  batches[_batchId].status = \"Certified Halal\" */\n      swap1\n      dup2\n      tag_342\n      swap2\n      swap1\n      tag_195\n      jump\t// in\n    tag_342:\n      pop\n        /* \"Halal.sol\":6156:6168  batchHistory */\n      0x06\n        /* \"Halal.sol\":6169:6177  _batchId */\n      dup4\n        /* \"Halal.sol\":6156:6178  batchHistory[_batchId] */\n      mload(0x40)\n      tag_343\n      swap2\n      swap1\n      tag_153\n      jump\t// in\n    tag_343:\n      swap1\n      dup2\n      mstore\n      0x20\n      add\n      mload(0x40)\n      dup1\n      swap2\n      sub\n      swap1\n      keccak256\n        /* \"Halal.sol\":6184:6327  StatusHistory({... */\n      mload(0x40)\n      dup1\n      0x60\n      add\n      0x40\n      mstore\n      dup1\n      mload(0x40)\n      dup1\n      0x40\n      add\n      0x40\n      mstore\n      dup1\n      0x0f\n      dup2\n      mstore\n      0x20\n      add\n      0x4365727469666965642048616c616c0000000000000000000000000000000000\n      dup2\n      mstore\n      pop\n      dup2\n      mstore\n      0x20\n      add\n        /* \"Halal.sol\":6264:6279  block.timestamp */\n      timestamp\n        /* \"Halal.sol\":6184:6327  StatusHistory({... */\n      dup2\n      mstore\n      0x20\n      add\n        /* \"Halal.sol\":6305:6315  msg.sender */\n      caller\n        /* \"Halal.sol\":6184:6327  StatusHistory({... */\n      0xffffffffffffffffffffffffffffffffffffffff\n      and\n      dup2\n      mstore\n      pop\n        /* \"Halal.sol\":6156:6328  batchHistory[_batchId].push(StatusHistory({... */\n      swap1\n      dup1\n      0x01\n      dup2\n      sload\n      add\n      dup1\n      dup3\n      sstore\n      dup1\n      swap2\n      pop\n      pop\n      0x01\n      swap1\n      sub\n      swap1\n      0x00\n      mstore\n      keccak256(0x00, 0x20)\n      swap1\n      0x03\n      mul\n      add\n      0x00\n      swap1\n      swap2\n      swap1\n      swap2\n      swap1\n      swap2\n      pop\n      0x00\n      dup3\n      add\n      mload\n      dup2\n      0x00\n      add\n      swap1\n      dup2\n      tag_345\n      swap2\n      swap1\n      tag_195\n      jump\t// in\n    tag_345:\n      pop\n      0x20\n      dup3\n      add\n      mload\n      dup2\n      0x01\n      add\n      sstore\n      0x40\n      dup3\n      add\n      mload\n      dup2\n      0x02\n      add\n      exp(0x0100, 0x00)\n      dup2\n      sload\n      dup2\n      0xffffffffffffffffffffffffffffffffffffffff\n      mul\n      not\n      and\n      swap1\n      dup4\n      0xffffffffffffffffffffffffffffffffffffffff\n      and\n      mul\n      or\n      swap1\n      sstore\n      pop\n      pop\n      pop\n        /* \"Halal.sol\":6390:6400  msg.sender */\n      caller\n        /* \"Halal.sol\":6354:6418  HalalCertified(_batchId, _certHash, msg.sender, block.timestamp) */\n      0xffffffffffffffffffffffffffffffffffffffff\n      and\n        /* \"Halal.sol\":6369:6377  _batchId */\n      dup4\n        /* \"Halal.sol\":6354:6418  HalalCertified(_batchId, _certHash, msg.sender, block.timestamp) */\n      mload(0x40)\n      tag_346\n      swap2\n      swap1\n      tag_153\n      jump\t// in\n    tag_346:\n      mload(0x40)\n      dup1\n      swap2\n      sub\n      swap1\n      keccak256\n      0x936484363f87cae1636fef9e0727155e6ebb82d9b8c344c29ceed9b90c30caf9\n        /* \"Halal.sol\":6379:6388  _certHash */\n      dup5\n        /* \"Halal.sol\":6402:6417  block.timestamp */\n      timestamp\n        /* \"Halal.sol\":6354:6418  HalalCertified(_batchId, _certHash, msg.sender, block.timestamp) */\n      mload(0x40)\n      tag_347\n      swap3\n      swap2\n      swap1\n      tag_201\n      jump\t// in\n    tag_347:\n      mload(0x40)\n      dup1\n      swap2\n      sub\n      swap1\n      log3\n        /* \"Halal.sol\":2274:2275  _ */\n      pop\n        /* \"Halal.sol\":5744:6426  function setHalalCertificate(string memory _batchId, string memory _certHash) ... */\n      pop\n      pop\n      jump\t// out\n        /* \"Halal.sol\":9807:9905  function getAllBatchIds() public view returns (string[] memory) {... */\n    tag_103:\n        /* \"Halal.sol\":9854:9869  string[] memory */\n      0x60\n        /* \"Halal.sol\":9889:9897  batchIds */\n      0x07\n        /* \"Halal.sol\":9882:9897  return batchIds */\n      dup1\n      sload\n      dup1\n      0x20\n      mul\n      0x20\n      add\n      mload(0x40)\n      swap1\n      dup2\n      add\n      0x40\n      mstore\n      dup1\n      swap3\n      swap2\n      swap1\n      dup2\n      dup2\n      mstore\n      0x20\n      add\n      0x00\n      swap1\n    tag_349:\n      dup3\n      dup3\n      lt\n      iszero\n      tag_350\n      jumpi\n      dup4\n      dup3\n      swap1\n      0x00\n      mstore\n      keccak256(0x00, 0x20)\n      add\n      dup1\n      sload\n      tag_352\n      swap1\n      tag_214\n      jump\t// in\n    tag_352:\n      dup1\n      0x1f\n      add\n      0x20\n      dup1\n      swap2\n      div\n      mul\n      0x20\n      add\n      mload(0x40)\n      swap1\n      dup2\n      add\n      0x40\n      mstore\n      dup1\n      swap3\n      swap2\n      swap1\n      dup2\n      dup2\n      mstore\n      0x20\n      add\n      dup3\n      dup1\n      sload\n      tag_353\n      swap1\n      tag_214\n      jump\t// in\n    tag_353:\n      dup1\n      iszero\n      tag_354\n      jumpi\n      dup1\n      0x1f\n      lt\n      tag_355\n      jumpi\n      0x0100\n      dup1\n      dup4\n      sload\n      div\n      mul\n      dup4\n      mstore\n      swap2\n      0x20\n      add\n      swap2\n      jump(tag_354)\n    tag_355:\n      dup3\n      add\n      swap2\n      swap1\n      0x00\n      mstore\n      keccak256(0x00, 0x20)\n      swap1\n    tag_356:\n      dup2\n      sload\n      dup2\n      mstore\n      swap1\n      0x01\n      add\n      swap1\n      0x20\n      add\n      dup1\n      dup4\n      gt\n      tag_356\n      jumpi\n      dup3\n      swap1\n      sub\n      0x1f\n      and\n      dup3\n      add\n      swap2\n    tag_354:\n      pop\n      pop\n      pop\n      pop\n      pop\n      dup2\n      mstore\n      0x20\n      add\n      swap1\n      0x01\n      add\n      swap1\n      jump(tag_349)\n    tag_350:\n      pop\n      pop\n      pop\n      pop\n      swap1\n      pop\n        /* \"Halal.sol\":9807:9905  function getAllBatchIds() public view returns (string[] memory) {... */\n      swap1\n      jump\t// out\n        /* \"Halal.sol\":363:411  mapping(address => bool) public halalAuthorities */\n    tag_108:\n      mstore(0x20, 0x02)\n      dup1\n      0x00\n      mstore\n      keccak256(0x00, 0x40)\n      0x00\n      swap2\n      pop\n      sload\n      swap1\n      0x0100\n      exp\n      swap1\n      div\n      0xff\n      and\n      dup2\n      jump\t// out\n        /* \"Halal.sol\":418:462  mapping(address => bool) public distributors */\n    tag_112:\n      mstore(0x20, 0x03)\n      dup1\n      0x00\n      mstore\n      keccak256(0x00, 0x40)\n      0x00\n      swap2\n      pop\n      sload\n      swap1\n      0x0100\n      exp\n      swap1\n      div\n      0xff\n      and\n      dup2\n      jump\t// out\n        /* \"Halal.sol\":3942:4115  function revokeHalalAuthority(address _account) public onlyAdmin {... */\n    tag_116:\n        /* \"Halal.sol\":1923:1928  admin */\n      0x00\n      0x00\n      swap1\n      sload\n      swap1\n      0x0100\n      exp\n      swap1\n      div\n      0xffffffffffffffffffffffffffffffffffffffff\n      and\n        /* \"Halal.sol\":1909:1928  msg.sender == admin */\n      0xffffffffffffffffffffffffffffffffffffffff\n      and\n        /* \"Halal.sol\":1909:1919  msg.sender */\n      caller\n        /* \"Halal.sol\":1909:1928  msg.sender == admin */\n      0xffffffffffffffffffffffffffffffffffffffff\n      and\n      eq\n        /* \"Halal.sol\":1901:1967  require(msg.sender == admin, \"Only admin can perform this action\") */\n      tag_358\n      jumpi\n      mload(0x40)\n      0x08c379a000000000000000000000000000000000000000000000000000000000\n      dup2\n      mstore\n      0x04\n      add\n      tag_359\n      swap1\n      tag_136\n      jump\t// in\n    tag_359:\n      mload(0x40)\n      dup1\n      swap2\n      sub\n      swap1\n      revert\n    tag_358:\n        /* \"Halal.sol\":4047:4052  false */\n      0x00\n        /* \"Halal.sol\":4018:4034  halalAuthorities */\n      0x02\n        /* \"Halal.sol\":4018:4044  halalAuthorities[_account] */\n      0x00\n        /* \"Halal.sol\":4035:4043  _account */\n      dup4\n        /* \"Halal.sol\":4018:4044  halalAuthorities[_account] */\n      0xffffffffffffffffffffffffffffffffffffffff\n      and\n      0xffffffffffffffffffffffffffffffffffffffff\n      and\n      dup2\n      mstore\n      0x20\n      add\n      swap1\n      dup2\n      mstore\n      0x20\n      add\n      0x00\n      keccak256\n      0x00\n        /* \"Halal.sol\":4018:4052  halalAuthorities[_account] = false */\n      0x0100\n      exp\n      dup2\n      sload\n      dup2\n      0xff\n      mul\n      not\n      and\n      swap1\n      dup4\n      iszero\n      iszero\n      mul\n      or\n      swap1\n      sstore\n      pop\n        /* \"Halal.sol\":4080:4088  _account */\n      dup1\n        /* \"Halal.sol\":4068:4107  RoleRevoked(_account, \"HalalAuthority\") */\n      0xffffffffffffffffffffffffffffffffffffffff\n      and\n      0x9f43a01c0d4ff5aff09b3b9b472df707ceefd3f948f8942f10fa1562a8921304\n      mload(0x40)\n      tag_361\n      swap1\n      tag_207\n      jump\t// in\n    tag_361:\n      mload(0x40)\n      dup1\n      swap2\n      sub\n      swap1\n      log2\n        /* \"Halal.sol\":3942:4115  function revokeHalalAuthority(address _account) public onlyAdmin {... */\n      pop\n      jump\t// out\n        /* \"Halal.sol\":9976:10074  function getTotalBatches() public view returns (uint256) {... */\n    tag_118:\n        /* \"Halal.sol\":10024:10031  uint256 */\n      0x00\n        /* \"Halal.sol\":10051:10059  batchIds */\n      0x07\n        /* \"Halal.sol\":10051:10066  batchIds.length */\n      dup1\n      sload\n      swap1\n      pop\n        /* \"Halal.sol\":10044:10066  return batchIds.length */\n      swap1\n      pop\n        /* \"Halal.sol\":9976:10074  function getTotalBatches() public view returns (uint256) {... */\n      swap1\n      jump\t// out\n        /* \"Halal.sol\":260:280  address public admin */\n    tag_122:\n      0x00\n      0x00\n      swap1\n      sload\n      swap1\n      0x0100\n      exp\n      swap1\n      div\n      0xffffffffffffffffffffffffffffffffffffffff\n      and\n      dup2\n      jump\t// out\n        /* \"Halal.sol\":8783:9475  function getBatch(string memory _batchId) ... */\n    tag_127:\n        /* \"Halal.sol\":8922:8947  string memory productName */\n      0x60\n        /* \"Halal.sol\":8962:8983  string memory batchId */\n      dup1\n        /* \"Halal.sol\":8998:9014  address producer */\n      0x00\n        /* \"Halal.sol\":9029:9049  address currentOwner */\n      0x00\n        /* \"Halal.sol\":9064:9084  string memory status */\n      0x60\n        /* \"Halal.sol\":9099:9126  string memory halalCertHash */\n      dup1\n        /* \"Halal.sol\":9141:9158  uint256 createdAt */\n      0x00\n        /* \"Halal.sol\":8879:8887  _batchId */\n      dup8\n        /* \"Halal.sol\":2644:2651  batches */\n      0x05\n        /* \"Halal.sol\":2652:2660  _batchId */\n      dup2\n        /* \"Halal.sol\":2644:2661  batches[_batchId] */\n      mload(0x40)\n      tag_364\n      swap2\n      swap1\n      tag_153\n      jump\t// in\n    tag_364:\n      swap1\n      dup2\n      mstore\n      0x20\n      add\n      mload(0x40)\n      dup1\n      swap2\n      sub\n      swap1\n      keccak256\n        /* \"Halal.sol\":2644:2668  batches[_batchId].exists */\n      0x07\n      add\n      0x00\n      swap1\n      sload\n      swap1\n      0x0100\n      exp\n      swap1\n      div\n      0xff\n      and\n        /* \"Halal.sol\":2636:2693  require(batches[_batchId].exists, \"Batch does not exist\") */\n      tag_365\n      jumpi\n      mload(0x40)\n      0x08c379a000000000000000000000000000000000000000000000000000000000\n      dup2\n      mstore\n      0x04\n      add\n      tag_366\n      swap1\n      tag_183\n      jump\t// in\n    tag_366:\n      mload(0x40)\n      dup1\n      swap2\n      sub\n      swap1\n      revert\n    tag_365:\n        /* \"Halal.sol\":9187:9205  Batch memory batch */\n      0x00\n        /* \"Halal.sol\":9208:9215  batches */\n      0x05\n        /* \"Halal.sol\":9216:9224  _batchId */\n      dup11\n        /* \"Halal.sol\":9208:9225  batches[_batchId] */\n      mload(0x40)\n      tag_368\n      swap2\n      swap1\n      tag_153\n      jump\t// in\n    tag_368:\n      swap1\n      dup2\n      mstore\n      0x20\n      add\n      mload(0x40)\n      dup1\n      swap2\n      sub\n      swap1\n      keccak256\n        /* \"Halal.sol\":9187:9225  Batch memory batch = batches[_batchId] */\n      mload(0x40)\n      dup1\n      0x0100\n      add\n      0x40\n      mstore\n      swap1\n      dup2\n      0x00\n      dup3\n      add\n      dup1\n      sload\n      tag_369\n      swap1\n      tag_214\n      jump\t// in\n    tag_369:\n      dup1\n      0x1f\n      add\n      0x20\n      dup1\n      swap2\n      div\n      mul\n      0x20\n      add\n      mload(0x40)\n      swap1\n      dup2\n      add\n      0x40\n      mstore\n      dup1\n      swap3\n      swap2\n      swap1\n      dup2\n      dup2\n      mstore\n      0x20\n      add\n      dup3\n      dup1\n      sload\n      tag_370\n      swap1\n      tag_214\n      jump\t// in\n    tag_370:\n      dup1\n      iszero\n      tag_371\n      jumpi\n      dup1\n      0x1f\n      lt\n      tag_372\n      jumpi\n      0x0100\n      dup1\n      dup4\n      sload\n      div\n      mul\n      dup4\n      mstore\n      swap2\n      0x20\n      add\n      swap2\n      jump(tag_371)\n    tag_372:\n      dup3\n      add\n      swap2\n      swap1\n      0x00\n      mstore\n      keccak256(0x00, 0x20)\n      swap1\n    tag_373:\n      dup2\n      sload\n      dup2\n      mstore\n      swap1\n      0x01\n      add\n      swap1\n      0x20\n      add\n      dup1\n      dup4\n      gt\n      tag_373\n      jumpi\n      dup3\n      swap1\n      sub\n      0x1f\n      and\n      dup3\n      add\n      swap2\n    tag_371:\n      pop\n      pop\n      pop\n      pop\n      pop\n      dup2\n      mstore\n      0x20\n      add\n      0x01\n      dup3\n      add\n      dup1\n      sload\n      tag_374\n      swap1\n      tag_214\n      jump\t// in\n    tag_374:\n      dup1\n      0x1f\n      add\n      0x20\n      dup1\n      swap2\n      div\n      mul\n      0x20\n      add\n      mload(0x40)\n      swap1\n      dup2\n      add\n      0x40\n      mstore\n      dup1\n      swap3\n      swap2\n      swap1\n      dup2\n      dup2\n      mstore\n      0x20\n      add\n      dup3\n      dup1\n      sload\n      tag_375\n      swap1\n      tag_214\n      jump\t// in\n    tag_375:\n      dup1\n      iszero\n      tag_376\n      jumpi\n      dup1\n      0x1f\n      lt\n      tag_377\n      jumpi\n      0x0100\n      dup1\n      dup4\n      sload\n      div\n      mul\n      dup4\n      mstore\n      swap2\n      0x20\n      add\n      swap2\n      jump(tag_376)\n    tag_377:\n      dup3\n      add\n      swap2\n      swap1\n      0x00\n      mstore\n      keccak256(0x00, 0x20)\n      swap1\n    tag_378:\n      dup2\n      sload\n      dup2\n      mstore\n      swap1\n      0x01\n      add\n      swap1\n      0x20\n      add\n      dup1\n      dup4\n      gt\n      tag_378\n      jumpi\n      dup3\n      swap1\n      sub\n      0x1f\n      and\n      dup3\n      add\n      swap2\n    tag_376:\n      pop\n      pop\n      pop\n      pop\n      pop\n      dup2\n      mstore\n      0x20\n      add\n      0x02\n      dup3\n      add\n      0x00\n      swap1\n      sload\n      swap1\n      0x0100\n      exp\n      swap1\n      div\n      0xffffffffffffffffffffffffffffffffffffffff\n      and\n      0xffffffffffffffffffffffffffffffffffffffff\n      and\n      0xffffffffffffffffffffffffffffffffffffffff\n      and\n      dup2\n      mstore\n      0x20\n      add\n      0x03\n      dup3\n      add\n      0x00\n      swap1\n      sload\n      swap1\n      0x0100\n      exp\n      swap1\n      div\n      0xffffffffffffffffffffffffffffffffffffffff\n      and\n      0xffffffffffffffffffffffffffffffffffffffff\n      and\n      0xffffffffffffffffffffffffffffffffffffffff\n      and\n      dup2\n      mstore\n      0x20\n      add\n      0x04\n      dup3\n      add\n      dup1\n      sload\n      tag_379\n      swap1\n      tag_214\n      jump\t// in\n    tag_379:\n      dup1\n      0x1f\n      add\n      0x20\n      dup1\n      swap2\n      div\n      mul\n      0x20\n      add\n      mload(0x40)\n      swap1\n      dup2\n      add\n      0x40\n      mstore\n      dup1\n      swap3\n      swap2\n      swap1\n      dup2\n      dup2\n      mstore\n      0x20\n      add\n      dup3\n      dup1\n      sload\n      tag_380\n      swap1\n      tag_214\n      jump\t// in\n    tag_380:\n      dup1\n      iszero\n      tag_381\n      jumpi\n      dup1\n      0x1f\n      lt\n      tag_382\n      jumpi\n      0x0100\n      dup1\n      dup4\n      sload\n      div\n      mul\n      dup4\n      mstore\n      swap2\n      0x20\n      add\n      swap2\n      jump(tag_381)\n    tag_382:\n      dup3\n      add\n      swap2\n      swap1\n      0x00\n      mstore\n      keccak256(0x00, 0x20)\n      swap1\n    tag_383:\n      dup2\n      sload\n      dup2\n      mstore\n      swap1\n      0x01\n      add\n      swap1\n      0x20\n      add\n      dup1\n      dup4\n      gt\n      tag_383\n      jumpi\n      dup3\n      swap1\n      sub\n      0x1f\n      and\n      dup3\n      add\n      swap2\n    tag_381:\n      pop\n      pop\n      pop\n      pop\n      pop\n      dup2\n      mstore\n      0x20\n      add\n      0x05\n      dup3\n      add\n      dup1\n      sload\n      tag_384\n      swap1\n      tag_214\n      jump\t// in\n    tag_384:\n      dup1\n      0x1f\n      add\n      0x20\n      dup1\n      swap2\n      div\n      mul\n      0x20\n      add\n      mload(0x40)\n      swap1\n      dup2\n      add\n      0x40\n      mstore\n      dup1\n      swap3\n      swap2\n      swap1\n      dup2\n      dup2\n      mstore\n      0x20\n      add\n      dup3\n      dup1\n      sload\n      tag_385\n      swap1\n      tag_214\n      jump\t// in\n    tag_385:\n      dup1\n      iszero\n      tag_386\n      jumpi\n      dup1\n      0x1f\n      lt\n      tag_387\n      jumpi\n      0x0100\n      dup1\n      dup4\n      sload\n      div\n      mul\n      dup4\n      mstore\n      swap2\n      0x20\n      add\n      swap2\n      jump(tag_386)\n    tag_387:\n      dup3\n      add\n      swap2\n      swap1\n      0x00\n      mstore\n      keccak256(0x00, 0x20)\n      swap1\n    tag_388:\n      dup2\n      sload\n      dup2\n      mstore\n      swap1\n      0x01\n      add\n      swap1\n      0x20\n      add\n      dup1\n      dup4\n      gt\n      tag_388\n      jumpi\n      dup3\n      swap1\n      sub\n      0x1f\n      and\n      dup3\n      add\n      swap2\n    tag_386:\n      pop\n      pop\n      pop\n      pop\n      pop\n      dup2\n      mstore\n      0x20\n      add\n      0x06\n      dup3\n      add\n      sload\n      dup2\n      mstore\n      0x20\n      add\n      0x07\n      dup3\n      add\n      0x00\n      swap1\n      sload\n      swap1\n      0x0100\n      exp\n      swap1\n      div\n      0xff\n      and\n      iszero\n      iszero\n      iszero\n      iszero\n      dup2\n      mstore\n      pop\n      pop\n      swap1\n      pop\n        /* \"Halal.sol\":9258:9263  batch */\n      dup1\n        /* \"Halal.sol\":9258:9275  batch.productName */\n      0x00\n      add\n      mload\n        /* \"Halal.sol\":9290:9295  batch */\n      dup2\n        /* \"Halal.sol\":9290:9303  batch.batchId */\n      0x20\n      add\n      mload\n        /* \"Halal.sol\":9318:9323  batch */\n      dup3\n        /* \"Halal.sol\":9318:9332  batch.producer */\n      0x40\n      add\n      mload\n        /* \"Halal.sol\":9347:9352  batch */\n      dup4\n        /* \"Halal.sol\":9347:9365  batch.currentOwner */\n      0x60\n      add\n      mload\n        /* \"Halal.sol\":9380:9385  batch */\n      dup5\n        /* \"Halal.sol\":9380:9392  batch.status */\n      0x80\n      add\n      mload\n        /* \"Halal.sol\":9407:9412  batch */\n      dup6\n        /* \"Halal.sol\":9407:9426  batch.halalCertHash */\n      0xa0\n      add\n      mload\n        /* \"Halal.sol\":9441:9446  batch */\n      dup7\n        /* \"Halal.sol\":9441:9456  batch.createdAt */\n      0xc0\n      add\n      mload\n        /* \"Halal.sol\":9236:9467  return (... */\n      swap9\n      pop\n      swap9\n      pop\n      swap9\n      pop\n      swap9\n      pop\n      swap9\n      pop\n      swap9\n      pop\n      swap9\n      pop\n      pop\n        /* \"Halal.sol\":8783:9475  function getBatch(string memory _batchId) ... */\n      pop\n      swap2\n      swap4\n      swap6\n      swap8\n      swap1\n      swap3\n      swap5\n      swap7\n      pop\n      jump\t// out\n        /* \"Halal.sol\":3776:3930  function revokeProducer(address _account) public onlyAdmin {... */\n    tag_132:\n        /* \"Halal.sol\":1923:1928  admin */\n      0x00\n      0x00\n      swap1\n      sload\n      swap1\n      0x0100\n      exp\n      swap1\n      div\n      0xffffffffffffffffffffffffffffffffffffffff\n      and\n        /* \"Halal.sol\":1909:1928  msg.sender == admin */\n      0xffffffffffffffffffffffffffffffffffffffff\n      and\n        /* \"Halal.sol\":1909:1919  msg.sender */\n      caller\n        /* \"Halal.sol\":1909:1928  msg.sender == admin */\n      0xffffffffffffffffffffffffffffffffffffffff\n      and\n      eq\n        /* \"Halal.sol\":1901:1967  require(msg.sender == admin, \"Only admin can perform this action\") */\n      tag_390\n      jumpi\n      mload(0x40)\n      0x08c379a000000000000000000000000000000000000000000000000000000000\n      dup2\n      mstore\n      0x04\n      add\n      tag_391\n      swap1\n      tag_136\n      jump\t// in\n    tag_391:\n      mload(0x40)\n      dup1\n      swap2\n      sub\n      swap1\n      revert\n    tag_390:\n        /* \"Halal.sol\":3868:3873  false */\n      0x00\n        /* \"Halal.sol\":3846:3855  producers */\n      0x01\n        /* \"Halal.sol\":3846:3865  producers[_account] */\n      0x00\n        /* \"Halal.sol\":3856:3864  _account */\n      dup4\n        /* \"Halal.sol\":3846:3865  producers[_account] */\n      0xffffffffffffffffffffffffffffffffffffffff\n      and\n      0xffffffffffffffffffffffffffffffffffffffff\n      and\n      dup2\n      mstore\n      0x20\n      add\n      swap1\n      dup2\n      mstore\n      0x20\n      add\n      0x00\n      keccak256\n      0x00\n        /* \"Halal.sol\":3846:3873  producers[_account] = false */\n      0x0100\n      exp\n      dup2\n      sload\n      dup2\n      0xff\n      mul\n      not\n      and\n      swap1\n      dup4\n      iszero\n      iszero\n      mul\n      or\n      swap1\n      sstore\n      pop\n        /* \"Halal.sol\":3901:3909  _account */\n      dup1\n        /* \"Halal.sol\":3889:3922  RoleRevoked(_account, \"Producer\") */\n      0xffffffffffffffffffffffffffffffffffffffff\n      and\n      0x9f43a01c0d4ff5aff09b3b9b472df707ceefd3f948f8942f10fa1562a8921304\n      mload(0x40)\n      tag_393\n      swap1\n      tag_139\n      jump\t// in\n    tag_393:\n      mload(0x40)\n      dup1\n      swap2\n      sub\n      swap1\n      log2\n        /* \"Halal.sol\":3776:3930  function revokeProducer(address _account) public onlyAdmin {... */\n      pop\n      jump\t// out\n        /* \"#utility.yul\":7:82   */\n    tag_394:\n        /* \"#utility.yul\":40:46   */\n      0x00\n        /* \"#utility.yul\":73:75   */\n      0x40\n        /* \"#utility.yul\":67:76   */\n      mload\n        /* \"#utility.yul\":57:76   */\n      swap1\n      pop\n        /* \"#utility.yul\":7:82   */\n      swap1\n      jump\t// out\n        /* \"#utility.yul\":88:205   */\n    tag_395:\n        /* \"#utility.yul\":197:198   */\n      0x00\n        /* \"#utility.yul\":194:195   */\n      0x00\n        /* \"#utility.yul\":187:199   */\n      revert\n        /* \"#utility.yul\":211:328   */\n    tag_396:\n        /* \"#utility.yul\":320:321   */\n      0x00\n        /* \"#utility.yul\":317:318   */\n      0x00\n        /* \"#utility.yul\":310:322   */\n      revert\n        /* \"#utility.yul\":334:460   */\n    tag_397:\n        /* \"#utility.yul\":371:378   */\n      0x00\n        /* \"#utility.yul\":411:453   */\n      0xffffffffffffffffffffffffffffffffffffffff\n        /* \"#utility.yul\":404:409   */\n      dup3\n        /* \"#utility.yul\":400:454   */\n      and\n        /* \"#utility.yul\":389:454   */\n      swap1\n      pop\n        /* \"#utility.yul\":334:460   */\n      swap2\n      swap1\n      pop\n      jump\t// out\n        /* \"#utility.yul\":466:562   */\n    tag_398:\n        /* \"#utility.yul\":503:510   */\n      0x00\n        /* \"#utility.yul\":532:556   */\n      tag_505\n        /* \"#utility.yul\":550:555   */\n      dup3\n        /* \"#utility.yul\":532:556   */\n      tag_397\n      jump\t// in\n    tag_505:\n        /* \"#utility.yul\":521:556   */\n      swap1\n      pop\n        /* \"#utility.yul\":466:562   */\n      swap2\n      swap1\n      pop\n      jump\t// out\n        /* \"#utility.yul\":568:690   */\n    tag_399:\n        /* \"#utility.yul\":641:665   */\n      tag_507\n        /* \"#utility.yul\":659:664   */\n      dup2\n        /* \"#utility.yul\":641:665   */\n      tag_398\n      jump\t// in\n    tag_507:\n        /* \"#utility.yul\":634:639   */\n      dup2\n        /* \"#utility.yul\":631:666   */\n      eq\n        /* \"#utility.yul\":621:684   */\n      tag_508\n      jumpi\n        /* \"#utility.yul\":680:681   */\n      0x00\n        /* \"#utility.yul\":677:678   */\n      0x00\n        /* \"#utility.yul\":670:682   */\n      revert\n        /* \"#utility.yul\":621:684   */\n    tag_508:\n        /* \"#utility.yul\":568:690   */\n      pop\n      jump\t// out\n        /* \"#utility.yul\":696:835   */\n    tag_400:\n        /* \"#utility.yul\":742:747   */\n      0x00\n        /* \"#utility.yul\":780:786   */\n      dup2\n        /* \"#utility.yul\":767:787   */\n      calldataload\n        /* \"#utility.yul\":758:787   */\n      swap1\n      pop\n        /* \"#utility.yul\":796:829   */\n      tag_510\n        /* \"#utility.yul\":823:828   */\n      dup2\n        /* \"#utility.yul\":796:829   */\n      tag_399\n      jump\t// in\n    tag_510:\n        /* \"#utility.yul\":696:835   */\n      swap3\n      swap2\n      pop\n      pop\n      jump\t// out\n        /* \"#utility.yul\":841:1170   */\n    tag_34:\n        /* \"#utility.yul\":900:906   */\n      0x00\n        /* \"#utility.yul\":949:951   */\n      0x20\n        /* \"#utility.yul\":937:946   */\n      dup3\n        /* \"#utility.yul\":928:935   */\n      dup5\n        /* \"#utility.yul\":924:947   */\n      sub\n        /* \"#utility.yul\":920:952   */\n      slt\n        /* \"#utility.yul\":917:1036   */\n      iszero\n      tag_512\n      jumpi\n        /* \"#utility.yul\":955:1034   */\n      tag_513\n      tag_395\n      jump\t// in\n    tag_513:\n        /* \"#utility.yul\":917:1036   */\n    tag_512:\n        /* \"#utility.yul\":1075:1076   */\n      0x00\n        /* \"#utility.yul\":1100:1153   */\n      tag_514\n        /* \"#utility.yul\":1145:1152   */\n      dup5\n        /* \"#utility.yul\":1136:1142   */\n      dup3\n        /* \"#utility.yul\":1125:1134   */\n      dup6\n        /* \"#utility.yul\":1121:1143   */\n      add\n        /* \"#utility.yul\":1100:1153   */\n      tag_400\n      jump\t// in\n    tag_514:\n        /* \"#utility.yul\":1090:1153   */\n      swap2\n      pop\n        /* \"#utility.yul\":1046:1163   */\n      pop\n        /* \"#utility.yul\":841:1170   */\n      swap3\n      swap2\n      pop\n      pop\n      jump\t// out\n        /* \"#utility.yul\":1176:1293   */\n    tag_401:\n        /* \"#utility.yul\":1285:1286   */\n      0x00\n        /* \"#utility.yul\":1282:1283   */\n      0x00\n        /* \"#utility.yul\":1275:1287   */\n      revert\n        /* \"#utility.yul\":1299:1416   */\n    tag_402:\n        /* \"#utility.yul\":1408:1409   */\n      0x00\n        /* \"#utility.yul\":1405:1406   */\n      0x00\n        /* \"#utility.yul\":1398:1410   */\n      revert\n        /* \"#utility.yul\":1422:1524   */\n    tag_403:\n        /* \"#utility.yul\":1463:1469   */\n      0x00\n        /* \"#utility.yul\":1514:1516   */\n      0x1f\n        /* \"#utility.yul\":1510:1517   */\n      not\n        /* \"#utility.yul\":1505:1507   */\n      0x1f\n        /* \"#utility.yul\":1498:1503   */\n      dup4\n        /* \"#utility.yul\":1494:1508   */\n      add\n        /* \"#utility.yul\":1490:1518   */\n      and\n        /* \"#utility.yul\":1480:1518   */\n      swap1\n      pop\n        /* \"#utility.yul\":1422:1524   */\n      swap2\n      swap1\n      pop\n      jump\t// out\n        /* \"#utility.yul\":1530:1710   */\n    tag_404:\n        /* \"#utility.yul\":1578:1655   */\n      0x4e487b7100000000000000000000000000000000000000000000000000000000\n        /* \"#utility.yul\":1575:1576   */\n      0x00\n        /* \"#utility.yul\":1568:1656   */\n      mstore\n        /* \"#utility.yul\":1675:1679   */\n      0x41\n        /* \"#utility.yul\":1672:1673   */\n      0x04\n        /* \"#utility.yul\":1665:1680   */\n      mstore\n        /* \"#utility.yul\":1699:1703   */\n      0x24\n        /* \"#utility.yul\":1696:1697   */\n      0x00\n        /* \"#utility.yul\":1689:1704   */\n      revert\n        /* \"#utility.yul\":1716:1997   */\n    tag_405:\n        /* \"#utility.yul\":1799:1826   */\n      tag_520\n        /* \"#utility.yul\":1821:1825   */\n      dup3\n        /* \"#utility.yul\":1799:1826   */\n      tag_403\n      jump\t// in\n    tag_520:\n        /* \"#utility.yul\":1791:1797   */\n      dup2\n        /* \"#utility.yul\":1787:1827   */\n      add\n        /* \"#utility.yul\":1929:1935   */\n      dup2\n        /* \"#utility.yul\":1917:1927   */\n      dup2\n        /* \"#utility.yul\":1914:1936   */\n      lt\n        /* \"#utility.yul\":1893:1911   */\n      0xffffffffffffffff\n        /* \"#utility.yul\":1881:1891   */\n      dup3\n        /* \"#utility.yul\":1878:1912   */\n      gt\n        /* \"#utility.yul\":1875:1937   */\n      or\n        /* \"#utility.yul\":1872:1960   */\n      iszero\n      tag_521\n      jumpi\n        /* \"#utility.yul\":1940:1958   */\n      tag_522\n      tag_404\n      jump\t// in\n    tag_522:\n        /* \"#utility.yul\":1872:1960   */\n    tag_521:\n        /* \"#utility.yul\":1980:1990   */\n      dup1\n        /* \"#utility.yul\":1976:1978   */\n      0x40\n        /* \"#utility.yul\":1969:1991   */\n      mstore\n        /* \"#utility.yul\":1759:1997   */\n      pop\n        /* \"#utility.yul\":1716:1997   */\n      pop\n      pop\n      jump\t// out\n        /* \"#utility.yul\":2003:2132   */\n    tag_406:\n        /* \"#utility.yul\":2037:2043   */\n      0x00\n        /* \"#utility.yul\":2064:2084   */\n      tag_524\n      tag_394\n      jump\t// in\n    tag_524:\n        /* \"#utility.yul\":2054:2084   */\n      swap1\n      pop\n        /* \"#utility.yul\":2093:2126   */\n      tag_525\n        /* \"#utility.yul\":2121:2125   */\n      dup3\n        /* \"#utility.yul\":2113:2119   */\n      dup3\n        /* \"#utility.yul\":2093:2126   */\n      tag_405\n      jump\t// in\n    tag_525:\n        /* \"#utility.yul\":2003:2132   */\n      swap2\n      swap1\n      pop\n      jump\t// out\n        /* \"#utility.yul\":2138:2446   */\n    tag_407:\n        /* \"#utility.yul\":2200:2204   */\n      0x00\n        /* \"#utility.yul\":2290:2308   */\n      0xffffffffffffffff\n        /* \"#utility.yul\":2282:2288   */\n      dup3\n        /* \"#utility.yul\":2279:2309   */\n      gt\n        /* \"#utility.yul\":2276:2332   */\n      iszero\n      tag_527\n      jumpi\n        /* \"#utility.yul\":2312:2330   */\n      tag_528\n      tag_404\n      jump\t// in\n    tag_528:\n        /* \"#utility.yul\":2276:2332   */\n    tag_527:\n        /* \"#utility.yul\":2350:2379   */\n      tag_529\n        /* \"#utility.yul\":2372:2378   */\n      dup3\n        /* \"#utility.yul\":2350:2379   */\n      tag_403\n      jump\t// in\n    tag_529:\n        /* \"#utility.yul\":2342:2379   */\n      swap1\n      pop\n        /* \"#utility.yul\":2434:2438   */\n      0x20\n        /* \"#utility.yul\":2428:2432   */\n      dup2\n        /* \"#utility.yul\":2424:2439   */\n      add\n        /* \"#utility.yul\":2416:2439   */\n      swap1\n      pop\n        /* \"#utility.yul\":2138:2446   */\n      swap2\n      swap1\n      pop\n      jump\t// out\n        /* \"#utility.yul\":2452:2600   */\n    tag_408:\n        /* \"#utility.yul\":2550:2556   */\n      dup3\n        /* \"#utility.yul\":2545:2548   */\n      dup2\n        /* \"#utility.yul\":2540:2543   */\n      dup4\n        /* \"#utility.yul\":2527:2557   */\n      calldatacopy\n        /* \"#utility.yul\":2591:2592   */\n      0x00\n        /* \"#utility.yul\":2582:2588   */\n      dup4\n        /* \"#utility.yul\":2577:2580   */\n      dup4\n        /* \"#utility.yul\":2573:2589   */\n      add\n        /* \"#utility.yul\":2566:2593   */\n      mstore\n        /* \"#utility.yul\":2452:2600   */\n      pop\n      pop\n      pop\n      jump\t// out\n        /* \"#utility.yul\":2606:3031   */\n    tag_409:\n        /* \"#utility.yul\":2684:2689   */\n      0x00\n        /* \"#utility.yul\":2709:2775   */\n      tag_532\n        /* \"#utility.yul\":2725:2774   */\n      tag_533\n        /* \"#utility.yul\":2767:2773   */\n      dup5\n        /* \"#utility.yul\":2725:2774   */\n      tag_407\n      jump\t// in\n    tag_533:\n        /* \"#utility.yul\":2709:2775   */\n      tag_406\n      jump\t// in\n    tag_532:\n        /* \"#utility.yul\":2700:2775   */\n      swap1\n      pop\n        /* \"#utility.yul\":2798:2804   */\n      dup3\n        /* \"#utility.yul\":2791:2796   */\n      dup2\n        /* \"#utility.yul\":2784:2805   */\n      mstore\n        /* \"#utility.yul\":2836:2840   */\n      0x20\n        /* \"#utility.yul\":2829:2834   */\n      dup2\n        /* \"#utility.yul\":2825:2841   */\n      add\n        /* \"#utility.yul\":2874:2877   */\n      dup5\n        /* \"#utility.yul\":2865:2871   */\n      dup5\n        /* \"#utility.yul\":2860:2863   */\n      dup5\n        /* \"#utility.yul\":2856:2872   */\n      add\n        /* \"#utility.yul\":2853:2878   */\n      gt\n        /* \"#utility.yul\":2850:2962   */\n      iszero\n      tag_534\n      jumpi\n        /* \"#utility.yul\":2881:2960   */\n      tag_535\n      tag_402\n      jump\t// in\n    tag_535:\n        /* \"#utility.yul\":2850:2962   */\n    tag_534:\n        /* \"#utility.yul\":2971:3025   */\n      tag_536\n        /* \"#utility.yul\":3018:3024   */\n      dup5\n        /* \"#utility.yul\":3013:3016   */\n      dup3\n        /* \"#utility.yul\":3008:3011   */\n      dup6\n        /* \"#utility.yul\":2971:3025   */\n      tag_408\n      jump\t// in\n    tag_536:\n        /* \"#utility.yul\":2690:3031   */\n      pop\n        /* \"#utility.yul\":2606:3031   */\n      swap4\n      swap3\n      pop\n      pop\n      pop\n      jump\t// out\n        /* \"#utility.yul\":3051:3391   */\n    tag_410:\n        /* \"#utility.yul\":3107:3112   */\n      0x00\n        /* \"#utility.yul\":3156:3159   */\n      dup3\n        /* \"#utility.yul\":3149:3153   */\n      0x1f\n        /* \"#utility.yul\":3141:3147   */\n      dup4\n        /* \"#utility.yul\":3137:3154   */\n      add\n        /* \"#utility.yul\":3133:3160   */\n      slt\n        /* \"#utility.yul\":3123:3245   */\n      tag_538\n      jumpi\n        /* \"#utility.yul\":3164:3243   */\n      tag_539\n      tag_401\n      jump\t// in\n    tag_539:\n        /* \"#utility.yul\":3123:3245   */\n    tag_538:\n        /* \"#utility.yul\":3281:3287   */\n      dup2\n        /* \"#utility.yul\":3268:3288   */\n      calldataload\n        /* \"#utility.yul\":3306:3385   */\n      tag_540\n        /* \"#utility.yul\":3381:3384   */\n      dup5\n        /* \"#utility.yul\":3373:3379   */\n      dup3\n        /* \"#utility.yul\":3366:3370   */\n      0x20\n        /* \"#utility.yul\":3358:3364   */\n      dup7\n        /* \"#utility.yul\":3354:3371   */\n      add\n        /* \"#utility.yul\":3306:3385   */\n      tag_409\n      jump\t// in\n    tag_540:\n        /* \"#utility.yul\":3297:3385   */\n      swap2\n      pop\n        /* \"#utility.yul\":3113:3391   */\n      pop\n        /* \"#utility.yul\":3051:3391   */\n      swap3\n      swap2\n      pop\n      pop\n      jump\t// out\n        /* \"#utility.yul\":3397:4051   */\n    tag_44:\n        /* \"#utility.yul\":3475:3481   */\n      0x00\n        /* \"#utility.yul\":3483:3489   */\n      0x00\n        /* \"#utility.yul\":3532:3534   */\n      0x40\n        /* \"#utility.yul\":3520:3529   */\n      dup4\n        /* \"#utility.yul\":3511:3518   */\n      dup6\n        /* \"#utility.yul\":3507:3530   */\n      sub\n        /* \"#utility.yul\":3503:3535   */\n      slt\n        /* \"#utility.yul\":3500:3619   */\n      iszero\n      tag_542\n      jumpi\n        /* \"#utility.yul\":3538:3617   */\n      tag_543\n      tag_395\n      jump\t// in\n    tag_543:\n        /* \"#utility.yul\":3500:3619   */\n    tag_542:\n        /* \"#utility.yul\":3658:3659   */\n      0x00\n        /* \"#utility.yul\":3683:3736   */\n      tag_544\n        /* \"#utility.yul\":3728:3735   */\n      dup6\n        /* \"#utility.yul\":3719:3725   */\n      dup3\n        /* \"#utility.yul\":3708:3717   */\n      dup7\n        /* \"#utility.yul\":3704:3726   */\n      add\n        /* \"#utility.yul\":3683:3736   */\n      tag_400\n      jump\t// in\n    tag_544:\n        /* \"#utility.yul\":3673:3736   */\n      swap3\n      pop\n        /* \"#utility.yul\":3629:3746   */\n      pop\n        /* \"#utility.yul\":3813:3815   */\n      0x20\n        /* \"#utility.yul\":3802:3811   */\n      dup4\n        /* \"#utility.yul\":3798:3816   */\n      add\n        /* \"#utility.yul\":3785:3817   */\n      calldataload\n        /* \"#utility.yul\":3844:3862   */\n      0xffffffffffffffff\n        /* \"#utility.yul\":3836:3842   */\n      dup2\n        /* \"#utility.yul\":3833:3863   */\n      gt\n        /* \"#utility.yul\":3830:3947   */\n      iszero\n      tag_545\n      jumpi\n        /* \"#utility.yul\":3866:3945   */\n      tag_546\n      tag_396\n      jump\t// in\n    tag_546:\n        /* \"#utility.yul\":3830:3947   */\n    tag_545:\n        /* \"#utility.yul\":3971:4034   */\n      tag_547\n        /* \"#utility.yul\":4026:4033   */\n      dup6\n        /* \"#utility.yul\":4017:4023   */\n      dup3\n        /* \"#utility.yul\":4006:4015   */\n      dup7\n        /* \"#utility.yul\":4002:4024   */\n      add\n        /* \"#utility.yul\":3971:4034   */\n      tag_410\n      jump\t// in\n    tag_547:\n        /* \"#utility.yul\":3961:4034   */\n      swap2\n      pop\n        /* \"#utility.yul\":3756:4044   */\n      pop\n        /* \"#utility.yul\":3397:4051   */\n      swap3\n      pop\n      swap3\n      swap1\n      pop\n      jump\t// out\n        /* \"#utility.yul\":4057:4147   */\n    tag_411:\n        /* \"#utility.yul\":4091:4098   */\n      0x00\n        /* \"#utility.yul\":4134:4139   */\n      dup2\n        /* \"#utility.yul\":4127:4140   */\n      iszero\n        /* \"#utility.yul\":4120:4141   */\n      iszero\n        /* \"#utility.yul\":4109:4141   */\n      swap1\n      pop\n        /* \"#utility.yul\":4057:4147   */\n      swap2\n      swap1\n      pop\n      jump\t// out\n        /* \"#utility.yul\":4153:4262   */\n    tag_412:\n        /* \"#utility.yul\":4234:4255   */\n      tag_550\n        /* \"#utility.yul\":4249:4254   */\n      dup2\n        /* \"#utility.yul\":4234:4255   */\n      tag_411\n      jump\t// in\n    tag_550:\n        /* \"#utility.yul\":4229:4232   */\n      dup3\n        /* \"#utility.yul\":4222:4256   */\n      mstore\n        /* \"#utility.yul\":4153:4262   */\n      pop\n      pop\n      jump\t// out\n        /* \"#utility.yul\":4268:4478   */\n    tag_47:\n        /* \"#utility.yul\":4355:4359   */\n      0x00\n        /* \"#utility.yul\":4393:4395   */\n      0x20\n        /* \"#utility.yul\":4382:4391   */\n      dup3\n        /* \"#utility.yul\":4378:4396   */\n      add\n        /* \"#utility.yul\":4370:4396   */\n      swap1\n      pop\n        /* \"#utility.yul\":4406:4471   */\n      tag_552\n        /* \"#utility.yul\":4468:4469   */\n      0x00\n        /* \"#utility.yul\":4457:4466   */\n      dup4\n        /* \"#utility.yul\":4453:4470   */\n      add\n        /* \"#utility.yul\":4444:4450   */\n      dup5\n        /* \"#utility.yul\":4406:4471   */\n      tag_412\n      jump\t// in\n    tag_552:\n        /* \"#utility.yul\":4268:4478   */\n      swap3\n      swap2\n      pop\n      pop\n      jump\t// out\n        /* \"#utility.yul\":4484:5318   */\n    tag_57:\n        /* \"#utility.yul\":4572:4578   */\n      0x00\n        /* \"#utility.yul\":4580:4586   */\n      0x00\n        /* \"#utility.yul\":4629:4631   */\n      0x40\n        /* \"#utility.yul\":4617:4626   */\n      dup4\n        /* \"#utility.yul\":4608:4615   */\n      dup6\n        /* \"#utility.yul\":4604:4627   */\n      sub\n        /* \"#utility.yul\":4600:4632   */\n      slt\n        /* \"#utility.yul\":4597:4716   */\n      iszero\n      tag_554\n      jumpi\n        /* \"#utility.yul\":4635:4714   */\n      tag_555\n      tag_395\n      jump\t// in\n    tag_555:\n        /* \"#utility.yul\":4597:4716   */\n    tag_554:\n        /* \"#utility.yul\":4783:4784   */\n      0x00\n        /* \"#utility.yul\":4772:4781   */\n      dup4\n        /* \"#utility.yul\":4768:4785   */\n      add\n        /* \"#utility.yul\":4755:4786   */\n      calldataload\n        /* \"#utility.yul\":4813:4831   */\n      0xffffffffffffffff\n        /* \"#utility.yul\":4805:4811   */\n      dup2\n        /* \"#utility.yul\":4802:4832   */\n      gt\n        /* \"#utility.yul\":4799:4916   */\n      iszero\n      tag_556\n      jumpi\n        /* \"#utility.yul\":4835:4914   */\n      tag_557\n      tag_396\n      jump\t// in\n    tag_557:\n        /* \"#utility.yul\":4799:4916   */\n    tag_556:\n        /* \"#utility.yul\":4940:5003   */\n      tag_558\n        /* \"#utility.yul\":4995:5002   */\n      dup6\n        /* \"#utility.yul\":4986:4992   */\n      dup3\n        /* \"#utility.yul\":4975:4984   */\n      dup7\n        /* \"#utility.yul\":4971:4993   */\n      add\n        /* \"#utility.yul\":4940:5003   */\n      tag_410\n      jump\t// in\n    tag_558:\n        /* \"#utility.yul\":4930:5003   */\n      swap3\n      pop\n        /* \"#utility.yul\":4726:5013   */\n      pop\n        /* \"#utility.yul\":5080:5082   */\n      0x20\n        /* \"#utility.yul\":5069:5078   */\n      dup4\n        /* \"#utility.yul\":5065:5083   */\n      add\n        /* \"#utility.yul\":5052:5084   */\n      calldataload\n        /* \"#utility.yul\":5111:5129   */\n      0xffffffffffffffff\n        /* \"#utility.yul\":5103:5109   */\n      dup2\n        /* \"#utility.yul\":5100:5130   */\n      gt\n        /* \"#utility.yul\":5097:5214   */\n      iszero\n      tag_559\n      jumpi\n        /* \"#utility.yul\":5133:5212   */\n      tag_560\n      tag_396\n      jump\t// in\n    tag_560:\n        /* \"#utility.yul\":5097:5214   */\n    tag_559:\n        /* \"#utility.yul\":5238:5301   */\n      tag_561\n        /* \"#utility.yul\":5293:5300   */\n      dup6\n        /* \"#utility.yul\":5284:5290   */\n      dup3\n        /* \"#utility.yul\":5273:5282   */\n      dup7\n        /* \"#utility.yul\":5269:5291   */\n      add\n        /* \"#utility.yul\":5238:5301   */\n      tag_410\n      jump\t// in\n    tag_561:\n        /* \"#utility.yul\":5228:5301   */\n      swap2\n      pop\n        /* \"#utility.yul\":5023:5311   */\n      pop\n        /* \"#utility.yul\":4484:5318   */\n      swap3\n      pop\n      swap3\n      swap1\n      pop\n      jump\t// out\n        /* \"#utility.yul\":5324:5833   */\n    tag_67:\n        /* \"#utility.yul\":5393:5399   */\n      0x00\n        /* \"#utility.yul\":5442:5444   */\n      0x20\n        /* \"#utility.yul\":5430:5439   */\n      dup3\n        /* \"#utility.yul\":5421:5428   */\n      dup5\n        /* \"#utility.yul\":5417:5440   */\n      sub\n        /* \"#utility.yul\":5413:5445   */\n      slt\n        /* \"#utility.yul\":5410:5529   */\n      iszero\n      tag_563\n      jumpi\n        /* \"#utility.yul\":5448:5527   */\n      tag_564\n      tag_395\n      jump\t// in\n    tag_564:\n        /* \"#utility.yul\":5410:5529   */\n    tag_563:\n        /* \"#utility.yul\":5596:5597   */\n      0x00\n        /* \"#utility.yul\":5585:5594   */\n      dup3\n        /* \"#utility.yul\":5581:5598   */\n      add\n        /* \"#utility.yul\":5568:5599   */\n      calldataload\n        /* \"#utility.yul\":5626:5644   */\n      0xffffffffffffffff\n        /* \"#utility.yul\":5618:5624   */\n      dup2\n        /* \"#utility.yul\":5615:5645   */\n      gt\n        /* \"#utility.yul\":5612:5729   */\n      iszero\n      tag_565\n      jumpi\n        /* \"#utility.yul\":5648:5727   */\n      tag_566\n      tag_396\n      jump\t// in\n    tag_566:\n        /* \"#utility.yul\":5612:5729   */\n    tag_565:\n        /* \"#utility.yul\":5753:5816   */\n      tag_567\n        /* \"#utility.yul\":5808:5815   */\n      dup5\n        /* \"#utility.yul\":5799:5805   */\n      dup3\n        /* \"#utility.yul\":5788:5797   */\n      dup6\n        /* \"#utility.yul\":5784:5806   */\n      add\n        /* \"#utility.yul\":5753:5816   */\n      tag_410\n      jump\t// in\n    tag_567:\n        /* \"#utility.yul\":5743:5816   */\n      swap2\n      pop\n        /* \"#utility.yul\":5539:5826   */\n      pop\n        /* \"#utility.yul\":5324:5833   */\n      swap3\n      swap2\n      pop\n      pop\n      jump\t// out\n        /* \"#utility.yul\":5839:5938   */\n    tag_413:\n        /* \"#utility.yul\":5891:5897   */\n      0x00\n        /* \"#utility.yul\":5925:5930   */\n      dup2\n        /* \"#utility.yul\":5919:5931   */\n      mload\n        /* \"#utility.yul\":5909:5931   */\n      swap1\n      pop\n        /* \"#utility.yul\":5839:5938   */\n      swap2\n      swap1\n      pop\n      jump\t// out\n        /* \"#utility.yul\":5944:6113   */\n    tag_414:\n        /* \"#utility.yul\":6028:6039   */\n      0x00\n        /* \"#utility.yul\":6062:6068   */\n      dup3\n        /* \"#utility.yul\":6057:6060   */\n      dup3\n        /* \"#utility.yul\":6050:6069   */\n      mstore\n        /* \"#utility.yul\":6102:6106   */\n      0x20\n        /* \"#utility.yul\":6097:6100   */\n      dup3\n        /* \"#utility.yul\":6093:6107   */\n      add\n        /* \"#utility.yul\":6078:6107   */\n      swap1\n      pop\n        /* \"#utility.yul\":5944:6113   */\n      swap3\n      swap2\n      pop\n      pop\n      jump\t// out\n        /* \"#utility.yul\":6119:6258   */\n    tag_415:\n        /* \"#utility.yul\":6208:6214   */\n      dup3\n        /* \"#utility.yul\":6203:6206   */\n      dup2\n        /* \"#utility.yul\":6198:6201   */\n      dup4\n        /* \"#utility.yul\":6192:6215   */\n      mcopy\n        /* \"#utility.yul\":6249:6250   */\n      0x00\n        /* \"#utility.yul\":6240:6246   */\n      dup4\n        /* \"#utility.yul\":6235:6238   */\n      dup4\n        /* \"#utility.yul\":6231:6247   */\n      add\n        /* \"#utility.yul\":6224:6251   */\n      mstore\n        /* \"#utility.yul\":6119:6258   */\n      pop\n      pop\n      pop\n      jump\t// out\n        /* \"#utility.yul\":6264:6641   */\n    tag_416:\n        /* \"#utility.yul\":6352:6355   */\n      0x00\n        /* \"#utility.yul\":6380:6419   */\n      tag_572\n        /* \"#utility.yul\":6413:6418   */\n      dup3\n        /* \"#utility.yul\":6380:6419   */\n      tag_413\n      jump\t// in\n    tag_572:\n        /* \"#utility.yul\":6435:6506   */\n      tag_573\n        /* \"#utility.yul\":6499:6505   */\n      dup2\n        /* \"#utility.yul\":6494:6497   */\n      dup6\n        /* \"#utility.yul\":6435:6506   */\n      tag_414\n      jump\t// in\n    tag_573:\n        /* \"#utility.yul\":6428:6506   */\n      swap4\n      pop\n        /* \"#utility.yul\":6515:6580   */\n      tag_574\n        /* \"#utility.yul\":6573:6579   */\n      dup2\n        /* \"#utility.yul\":6568:6571   */\n      dup6\n        /* \"#utility.yul\":6561:6565   */\n      0x20\n        /* \"#utility.yul\":6554:6559   */\n      dup7\n        /* \"#utility.yul\":6550:6566   */\n      add\n        /* \"#utility.yul\":6515:6580   */\n      tag_415\n      jump\t// in\n    tag_574:\n        /* \"#utility.yul\":6605:6634   */\n      tag_575\n        /* \"#utility.yul\":6627:6633   */\n      dup2\n        /* \"#utility.yul\":6605:6634   */\n      tag_403\n      jump\t// in\n    tag_575:\n        /* \"#utility.yul\":6600:6603   */\n      dup5\n        /* \"#utility.yul\":6596:6635   */\n      add\n        /* \"#utility.yul\":6589:6635   */\n      swap2\n      pop\n        /* \"#utility.yul\":6356:6641   */\n      pop\n        /* \"#utility.yul\":6264:6641   */\n      swap3\n      swap2\n      pop\n      pop\n      jump\t// out\n        /* \"#utility.yul\":6647:6765   */\n    tag_417:\n        /* \"#utility.yul\":6734:6758   */\n      tag_577\n        /* \"#utility.yul\":6752:6757   */\n      dup2\n        /* \"#utility.yul\":6734:6758   */\n      tag_398\n      jump\t// in\n    tag_577:\n        /* \"#utility.yul\":6729:6732   */\n      dup3\n        /* \"#utility.yul\":6722:6759   */\n      mstore\n        /* \"#utility.yul\":6647:6765   */\n      pop\n      pop\n      jump\t// out\n        /* \"#utility.yul\":6771:6848   */\n    tag_418:\n        /* \"#utility.yul\":6808:6815   */\n      0x00\n        /* \"#utility.yul\":6837:6842   */\n      dup2\n        /* \"#utility.yul\":6826:6842   */\n      swap1\n      pop\n        /* \"#utility.yul\":6771:6848   */\n      swap2\n      swap1\n      pop\n      jump\t// out\n        /* \"#utility.yul\":6854:6972   */\n    tag_419:\n        /* \"#utility.yul\":6941:6965   */\n      tag_580\n        /* \"#utility.yul\":6959:6964   */\n      dup2\n        /* \"#utility.yul\":6941:6965   */\n      tag_418\n      jump\t// in\n    tag_580:\n        /* \"#utility.yul\":6936:6939   */\n      dup3\n        /* \"#utility.yul\":6929:6966   */\n      mstore\n        /* \"#utility.yul\":6854:6972   */\n      pop\n      pop\n      jump\t// out\n        /* \"#utility.yul\":6978:8327   */\n    tag_70:\n        /* \"#utility.yul\":7341:7345   */\n      0x00\n        /* \"#utility.yul\":7379:7382   */\n      0x0100\n        /* \"#utility.yul\":7368:7377   */\n      dup3\n        /* \"#utility.yul\":7364:7383   */\n      add\n        /* \"#utility.yul\":7356:7383   */\n      swap1\n      pop\n        /* \"#utility.yul\":7429:7438   */\n      dup2\n        /* \"#utility.yul\":7423:7427   */\n      dup2\n        /* \"#utility.yul\":7419:7439   */\n      sub\n        /* \"#utility.yul\":7415:7416   */\n      0x00\n        /* \"#utility.yul\":7404:7413   */\n      dup4\n        /* \"#utility.yul\":7400:7417   */\n      add\n        /* \"#utility.yul\":7393:7440   */\n      mstore\n        /* \"#utility.yul\":7457:7535   */\n      tag_582\n        /* \"#utility.yul\":7530:7534   */\n      dup2\n        /* \"#utility.yul\":7521:7527   */\n      dup12\n        /* \"#utility.yul\":7457:7535   */\n      tag_416\n      jump\t// in\n    tag_582:\n        /* \"#utility.yul\":7449:7535   */\n      swap1\n      pop\n        /* \"#utility.yul\":7582:7591   */\n      dup2\n        /* \"#utility.yul\":7576:7580   */\n      dup2\n        /* \"#utility.yul\":7572:7592   */\n      sub\n        /* \"#utility.yul\":7567:7569   */\n      0x20\n        /* \"#utility.yul\":7556:7565   */\n      dup4\n        /* \"#utility.yul\":7552:7570   */\n      add\n        /* \"#utility.yul\":7545:7593   */\n      mstore\n        /* \"#utility.yul\":7610:7688   */\n      tag_583\n        /* \"#utility.yul\":7683:7687   */\n      dup2\n        /* \"#utility.yul\":7674:7680   */\n      dup11\n        /* \"#utility.yul\":7610:7688   */\n      tag_416\n      jump\t// in\n    tag_583:\n        /* \"#utility.yul\":7602:7688   */\n      swap1\n      pop\n        /* \"#utility.yul\":7698:7770   */\n      tag_584\n        /* \"#utility.yul\":7766:7768   */\n      0x40\n        /* \"#utility.yul\":7755:7764   */\n      dup4\n        /* \"#utility.yul\":7751:7769   */\n      add\n        /* \"#utility.yul\":7742:7748   */\n      dup10\n        /* \"#utility.yul\":7698:7770   */\n      tag_417\n      jump\t// in\n    tag_584:\n        /* \"#utility.yul\":7780:7852   */\n      tag_585\n        /* \"#utility.yul\":7848:7850   */\n      0x60\n        /* \"#utility.yul\":7837:7846   */\n      dup4\n        /* \"#utility.yul\":7833:7851   */\n      add\n        /* \"#utility.yul\":7824:7830   */\n      dup9\n        /* \"#utility.yul\":7780:7852   */\n      tag_417\n      jump\t// in\n    tag_585:\n        /* \"#utility.yul\":7900:7909   */\n      dup2\n        /* \"#utility.yul\":7894:7898   */\n      dup2\n        /* \"#utility.yul\":7890:7910   */\n      sub\n        /* \"#utility.yul\":7884:7887   */\n      0x80\n        /* \"#utility.yul\":7873:7882   */\n      dup4\n        /* \"#utility.yul\":7869:7888   */\n      add\n        /* \"#utility.yul\":7862:7911   */\n      mstore\n        /* \"#utility.yul\":7928:8006   */\n      tag_586\n        /* \"#utility.yul\":8001:8005   */\n      dup2\n        /* \"#utility.yul\":7992:7998   */\n      dup8\n        /* \"#utility.yul\":7928:8006   */\n      tag_416\n      jump\t// in\n    tag_586:\n        /* \"#utility.yul\":7920:8006   */\n      swap1\n      pop\n        /* \"#utility.yul\":8054:8063   */\n      dup2\n        /* \"#utility.yul\":8048:8052   */\n      dup2\n        /* \"#utility.yul\":8044:8064   */\n      sub\n        /* \"#utility.yul\":8038:8041   */\n      0xa0\n        /* \"#utility.yul\":8027:8036   */\n      dup4\n        /* \"#utility.yul\":8023:8042   */\n      add\n        /* \"#utility.yul\":8016:8065   */\n      mstore\n        /* \"#utility.yul\":8082:8160   */\n      tag_587\n        /* \"#utility.yul\":8155:8159   */\n      dup2\n        /* \"#utility.yul\":8146:8152   */\n      dup7\n        /* \"#utility.yul\":8082:8160   */\n      tag_416\n      jump\t// in\n    tag_587:\n        /* \"#utility.yul\":8074:8160   */\n      swap1\n      pop\n        /* \"#utility.yul\":8170:8243   */\n      tag_588\n        /* \"#utility.yul\":8238:8241   */\n      0xc0\n        /* \"#utility.yul\":8227:8236   */\n      dup4\n        /* \"#utility.yul\":8223:8242   */\n      add\n        /* \"#utility.yul\":8214:8220   */\n      dup6\n        /* \"#utility.yul\":8170:8243   */\n      tag_419\n      jump\t// in\n    tag_588:\n        /* \"#utility.yul\":8253:8320   */\n      tag_589\n        /* \"#utility.yul\":8315:8318   */\n      0xe0\n        /* \"#utility.yul\":8304:8313   */\n      dup4\n        /* \"#utility.yul\":8300:8319   */\n      add\n        /* \"#utility.yul\":8291:8297   */\n      dup5\n        /* \"#utility.yul\":8253:8320   */\n      tag_412\n      jump\t// in\n    tag_589:\n        /* \"#utility.yul\":6978:8327   */\n      swap10\n      swap9\n      pop\n      pop\n      pop\n      pop\n      pop\n      pop\n      pop\n      pop\n      pop\n      jump\t// out\n        /* \"#utility.yul\":8333:8455   */\n    tag_420:\n        /* \"#utility.yul\":8406:8430   */\n      tag_591\n        /* \"#utility.yul\":8424:8429   */\n      dup2\n        /* \"#utility.yul\":8406:8430   */\n      tag_418\n      jump\t// in\n    tag_591:\n        /* \"#utility.yul\":8399:8404   */\n      dup2\n        /* \"#utility.yul\":8396:8431   */\n      eq\n        /* \"#utility.yul\":8386:8449   */\n      tag_592\n      jumpi\n        /* \"#utility.yul\":8445:8446   */\n      0x00\n        /* \"#utility.yul\":8442:8443   */\n      0x00\n        /* \"#utility.yul\":8435:8447   */\n      revert\n        /* \"#utility.yul\":8386:8449   */\n    tag_592:\n        /* \"#utility.yul\":8333:8455   */\n      pop\n      jump\t// out\n        /* \"#utility.yul\":8461:8600   */\n    tag_421:\n        /* \"#utility.yul\":8507:8512   */\n      0x00\n        /* \"#utility.yul\":8545:8551   */\n      dup2\n        /* \"#utility.yul\":8532:8552   */\n      calldataload\n        /* \"#utility.yul\":8523:8552   */\n      swap1\n      pop\n        /* \"#utility.yul\":8561:8594   */\n      tag_594\n        /* \"#utility.yul\":8588:8593   */\n      dup2\n        /* \"#utility.yul\":8561:8594   */\n      tag_420\n      jump\t// in\n    tag_594:\n        /* \"#utility.yul\":8461:8600   */\n      swap3\n      swap2\n      pop\n      pop\n      jump\t// out\n        /* \"#utility.yul\":8606:9260   */\n    tag_80:\n        /* \"#utility.yul\":8684:8690   */\n      0x00\n        /* \"#utility.yul\":8692:8698   */\n      0x00\n        /* \"#utility.yul\":8741:8743   */\n      0x40\n        /* \"#utility.yul\":8729:8738   */\n      dup4\n        /* \"#utility.yul\":8720:8727   */\n      dup6\n        /* \"#utility.yul\":8716:8739   */\n      sub\n        /* \"#utility.yul\":8712:8744   */\n      slt\n        /* \"#utility.yul\":8709:8828   */\n      iszero\n      tag_596\n      jumpi\n        /* \"#utility.yul\":8747:8826   */\n      tag_597\n      tag_395\n      jump\t// in\n    tag_597:\n        /* \"#utility.yul\":8709:8828   */\n    tag_596:\n        /* \"#utility.yul\":8895:8896   */\n      0x00\n        /* \"#utility.yul\":8884:8893   */\n      dup4\n        /* \"#utility.yul\":8880:8897   */\n      add\n        /* \"#utility.yul\":8867:8898   */\n      calldataload\n        /* \"#utility.yul\":8925:8943   */\n      0xffffffffffffffff\n        /* \"#utility.yul\":8917:8923   */\n      dup2\n        /* \"#utility.yul\":8914:8944   */\n      gt\n        /* \"#utility.yul\":8911:9028   */\n      iszero\n      tag_598\n      jumpi\n        /* \"#utility.yul\":8947:9026   */\n      tag_599\n      tag_396\n      jump\t// in\n    tag_599:\n        /* \"#utility.yul\":8911:9028   */\n    tag_598:\n        /* \"#utility.yul\":9052:9115   */\n      tag_600\n        /* \"#utility.yul\":9107:9114   */\n      dup6\n        /* \"#utility.yul\":9098:9104   */\n      dup3\n        /* \"#utility.yul\":9087:9096   */\n      dup7\n        /* \"#utility.yul\":9083:9105   */\n      add\n        /* \"#utility.yul\":9052:9115   */\n      tag_410\n      jump\t// in\n    tag_600:\n        /* \"#utility.yul\":9042:9115   */\n      swap3\n      pop\n        /* \"#utility.yul\":8838:9125   */\n      pop\n        /* \"#utility.yul\":9164:9166   */\n      0x20\n        /* \"#utility.yul\":9190:9243   */\n      tag_601\n        /* \"#utility.yul\":9235:9242   */\n      dup6\n        /* \"#utility.yul\":9226:9232   */\n      dup3\n        /* \"#utility.yul\":9215:9224   */\n      dup7\n        /* \"#utility.yul\":9211:9233   */\n      add\n        /* \"#utility.yul\":9190:9243   */\n      tag_421\n      jump\t// in\n    tag_601:\n        /* \"#utility.yul\":9180:9243   */\n      swap2\n      pop\n        /* \"#utility.yul\":9135:9253   */\n      pop\n        /* \"#utility.yul\":8606:9260   */\n      swap3\n      pop\n      swap3\n      swap1\n      pop\n      jump\t// out\n        /* \"#utility.yul\":9266:9799   */\n    tag_83:\n        /* \"#utility.yul\":9435:9439   */\n      0x00\n        /* \"#utility.yul\":9473:9475   */\n      0x60\n        /* \"#utility.yul\":9462:9471   */\n      dup3\n        /* \"#utility.yul\":9458:9476   */\n      add\n        /* \"#utility.yul\":9450:9476   */\n      swap1\n      pop\n        /* \"#utility.yul\":9522:9531   */\n      dup2\n        /* \"#utility.yul\":9516:9520   */\n      dup2\n        /* \"#utility.yul\":9512:9532   */\n      sub\n        /* \"#utility.yul\":9508:9509   */\n      0x00\n        /* \"#utility.yul\":9497:9506   */\n      dup4\n        /* \"#utility.yul\":9493:9510   */\n      add\n        /* \"#utility.yul\":9486:9533   */\n      mstore\n        /* \"#utility.yul\":9550:9628   */\n      tag_603\n        /* \"#utility.yul\":9623:9627   */\n      dup2\n        /* \"#utility.yul\":9614:9620   */\n      dup7\n        /* \"#utility.yul\":9550:9628   */\n      tag_416\n      jump\t// in\n    tag_603:\n        /* \"#utility.yul\":9542:9628   */\n      swap1\n      pop\n        /* \"#utility.yul\":9638:9710   */\n      tag_604\n        /* \"#utility.yul\":9706:9708   */\n      0x20\n        /* \"#utility.yul\":9695:9704   */\n      dup4\n        /* \"#utility.yul\":9691:9709   */\n      add\n        /* \"#utility.yul\":9682:9688   */\n      dup6\n        /* \"#utility.yul\":9638:9710   */\n      tag_419\n      jump\t// in\n    tag_604:\n        /* \"#utility.yul\":9720:9792   */\n      tag_605\n        /* \"#utility.yul\":9788:9790   */\n      0x40\n        /* \"#utility.yul\":9777:9786   */\n      dup4\n        /* \"#utility.yul\":9773:9791   */\n      add\n        /* \"#utility.yul\":9764:9770   */\n      dup5\n        /* \"#utility.yul\":9720:9792   */\n      tag_417\n      jump\t// in\n    tag_605:\n        /* \"#utility.yul\":9266:9799   */\n      swap5\n      swap4\n      pop\n      pop\n      pop\n      pop\n      jump\t// out\n        /* \"#utility.yul\":9805:9948   */\n    tag_422:\n        /* \"#utility.yul\":9901:9907   */\n      0x00\n        /* \"#utility.yul\":9935:9940   */\n      dup2\n        /* \"#utility.yul\":9929:9941   */\n      mload\n        /* \"#utility.yul\":9919:9941   */\n      swap1\n      pop\n        /* \"#utility.yul\":9805:9948   */\n      swap2\n      swap1\n      pop\n      jump\t// out\n        /* \"#utility.yul\":9954:10167   */\n    tag_423:\n        /* \"#utility.yul\":10082:10093   */\n      0x00\n        /* \"#utility.yul\":10116:10122   */\n      dup3\n        /* \"#utility.yul\":10111:10114   */\n      dup3\n        /* \"#utility.yul\":10104:10123   */\n      mstore\n        /* \"#utility.yul\":10156:10160   */\n      0x20\n        /* \"#utility.yul\":10151:10154   */\n      dup3\n        /* \"#utility.yul\":10147:10161   */\n      add\n        /* \"#utility.yul\":10132:10161   */\n      swap1\n      pop\n        /* \"#utility.yul\":9954:10167   */\n      swap3\n      swap2\n      pop\n      pop\n      jump\t// out\n        /* \"#utility.yul\":10173:10334   */\n    tag_424:\n        /* \"#utility.yul\":10269:10273   */\n      0x00\n        /* \"#utility.yul\":10292:10295   */\n      dup2\n        /* \"#utility.yul\":10284:10295   */\n      swap1\n      pop\n        /* \"#utility.yul\":10322:10326   */\n      0x20\n        /* \"#utility.yul\":10317:10320   */\n      dup3\n        /* \"#utility.yul\":10313:10327   */\n      add\n        /* \"#utility.yul\":10305:10327   */\n      swap1\n      pop\n        /* \"#utility.yul\":10173:10334   */\n      swap2\n      swap1\n      pop\n      jump\t// out\n        /* \"#utility.yul\":10340:10499   */\n    tag_425:\n        /* \"#utility.yul\":10414:10425   */\n      0x00\n        /* \"#utility.yul\":10448:10454   */\n      dup3\n        /* \"#utility.yul\":10443:10446   */\n      dup3\n        /* \"#utility.yul\":10436:10455   */\n      mstore\n        /* \"#utility.yul\":10488:10492   */\n      0x20\n        /* \"#utility.yul\":10483:10486   */\n      dup3\n        /* \"#utility.yul\":10479:10493   */\n      add\n        /* \"#utility.yul\":10464:10493   */\n      swap1\n      pop\n        /* \"#utility.yul\":10340:10499   */\n      swap3\n      swap2\n      pop\n      pop\n      jump\t// out\n        /* \"#utility.yul\":10505:10862   */\n    tag_426:\n        /* \"#utility.yul\":10583:10586   */\n      0x00\n        /* \"#utility.yul\":10611:10650   */\n      tag_611\n        /* \"#utility.yul\":10644:10649   */\n      dup3\n        /* \"#utility.yul\":10611:10650   */\n      tag_413\n      jump\t// in\n    tag_611:\n        /* \"#utility.yul\":10666:10727   */\n      tag_612\n        /* \"#utility.yul\":10720:10726   */\n      dup2\n        /* \"#utility.yul\":10715:10718   */\n      dup6\n        /* \"#utility.yul\":10666:10727   */\n      tag_425\n      jump\t// in\n    tag_612:\n        /* \"#utility.yul\":10659:10727   */\n      swap4\n      pop\n        /* \"#utility.yul\":10736:10801   */\n      tag_613\n        /* \"#utility.yul\":10794:10800   */\n      dup2\n        /* \"#utility.yul\":10789:10792   */\n      dup6\n        /* \"#utility.yul\":10782:10786   */\n      0x20\n        /* \"#utility.yul\":10775:10780   */\n      dup7\n        /* \"#utility.yul\":10771:10787   */\n      add\n        /* \"#utility.yul\":10736:10801   */\n      tag_415\n      jump\t// in\n    tag_613:\n        /* \"#utility.yul\":10826:10855   */\n      tag_614\n        /* \"#utility.yul\":10848:10854   */\n      dup2\n        /* \"#utility.yul\":10826:10855   */\n      tag_403\n      jump\t// in\n    tag_614:\n        /* \"#utility.yul\":10821:10824   */\n      dup5\n        /* \"#utility.yul\":10817:10856   */\n      add\n        /* \"#utility.yul\":10810:10856   */\n      swap2\n      pop\n        /* \"#utility.yul\":10587:10862   */\n      pop\n        /* \"#utility.yul\":10505:10862   */\n      swap3\n      swap2\n      pop\n      pop\n      jump\t// out\n        /* \"#utility.yul\":10868:10976   */\n    tag_427:\n        /* \"#utility.yul\":10945:10969   */\n      tag_616\n        /* \"#utility.yul\":10963:10968   */\n      dup2\n        /* \"#utility.yul\":10945:10969   */\n      tag_418\n      jump\t// in\n    tag_616:\n        /* \"#utility.yul\":10940:10943   */\n      dup3\n        /* \"#utility.yul\":10933:10970   */\n      mstore\n        /* \"#utility.yul\":10868:10976   */\n      pop\n      pop\n      jump\t// out\n        /* \"#utility.yul\":10982:11090   */\n    tag_428:\n        /* \"#utility.yul\":11059:11083   */\n      tag_618\n        /* \"#utility.yul\":11077:11082   */\n      dup2\n        /* \"#utility.yul\":11059:11083   */\n      tag_398\n      jump\t// in\n    tag_618:\n        /* \"#utility.yul\":11054:11057   */\n      dup3\n        /* \"#utility.yul\":11047:11084   */\n      mstore\n        /* \"#utility.yul\":10982:11090   */\n      pop\n      pop\n      jump\t// out\n        /* \"#utility.yul\":11182:11972   */\n    tag_429:\n        /* \"#utility.yul\":11299:11302   */\n      0x00\n        /* \"#utility.yul\":11335:11339   */\n      0x60\n        /* \"#utility.yul\":11330:11333   */\n      dup4\n        /* \"#utility.yul\":11326:11340   */\n      add\n        /* \"#utility.yul\":11424:11428   */\n      0x00\n        /* \"#utility.yul\":11417:11422   */\n      dup4\n        /* \"#utility.yul\":11413:11429   */\n      add\n        /* \"#utility.yul\":11407:11430   */\n      mload\n        /* \"#utility.yul\":11477:11480   */\n      dup5\n        /* \"#utility.yul\":11471:11475   */\n      dup3\n        /* \"#utility.yul\":11467:11481   */\n      sub\n        /* \"#utility.yul\":11460:11464   */\n      0x00\n        /* \"#utility.yul\":11455:11458   */\n      dup7\n        /* \"#utility.yul\":11451:11465   */\n      add\n        /* \"#utility.yul\":11444:11482   */\n      mstore\n        /* \"#utility.yul\":11503:11576   */\n      tag_620\n        /* \"#utility.yul\":11571:11575   */\n      dup3\n        /* \"#utility.yul\":11557:11569   */\n      dup3\n        /* \"#utility.yul\":11503:11576   */\n      tag_426\n      jump\t// in\n    tag_620:\n        /* \"#utility.yul\":11495:11576   */\n      swap2\n      pop\n        /* \"#utility.yul\":11350:11587   */\n      pop\n        /* \"#utility.yul\":11674:11678   */\n      0x20\n        /* \"#utility.yul\":11667:11672   */\n      dup4\n        /* \"#utility.yul\":11663:11679   */\n      add\n        /* \"#utility.yul\":11657:11680   */\n      mload\n        /* \"#utility.yul\":11693:11756   */\n      tag_621\n        /* \"#utility.yul\":11750:11754   */\n      0x20\n        /* \"#utility.yul\":11745:11748   */\n      dup7\n        /* \"#utility.yul\":11741:11755   */\n      add\n        /* \"#utility.yul\":11727:11739   */\n      dup3\n        /* \"#utility.yul\":11693:11756   */\n      tag_427\n      jump\t// in\n    tag_621:\n        /* \"#utility.yul\":11597:11766   */\n      pop\n        /* \"#utility.yul\":11853:11857   */\n      0x40\n        /* \"#utility.yul\":11846:11851   */\n      dup4\n        /* \"#utility.yul\":11842:11858   */\n      add\n        /* \"#utility.yul\":11836:11859   */\n      mload\n        /* \"#utility.yul\":11872:11935   */\n      tag_622\n        /* \"#utility.yul\":11929:11933   */\n      0x40\n        /* \"#utility.yul\":11924:11927   */\n      dup7\n        /* \"#utility.yul\":11920:11934   */\n      add\n        /* \"#utility.yul\":11906:11918   */\n      dup3\n        /* \"#utility.yul\":11872:11935   */\n      tag_428\n      jump\t// in\n    tag_622:\n        /* \"#utility.yul\":11776:11945   */\n      pop\n        /* \"#utility.yul\":11962:11966   */\n      dup1\n        /* \"#utility.yul\":11955:11966   */\n      swap2\n      pop\n        /* \"#utility.yul\":11304:11972   */\n      pop\n        /* \"#utility.yul\":11182:11972   */\n      swap3\n      swap2\n      pop\n      pop\n      jump\t// out\n        /* \"#utility.yul\":11978:12250   */\n    tag_430:\n        /* \"#utility.yul\":12105:12115   */\n      0x00\n        /* \"#utility.yul\":12140:12244   */\n      tag_624\n        /* \"#utility.yul\":12240:12243   */\n      dup4\n        /* \"#utility.yul\":12232:12238   */\n      dup4\n        /* \"#utility.yul\":12140:12244   */\n      tag_429\n      jump\t// in\n    tag_624:\n        /* \"#utility.yul\":12126:12244   */\n      swap1\n      pop\n        /* \"#utility.yul\":11978:12250   */\n      swap3\n      swap2\n      pop\n      pop\n      jump\t// out\n        /* \"#utility.yul\":12256:12398   */\n    tag_431:\n        /* \"#utility.yul\":12355:12359   */\n      0x00\n        /* \"#utility.yul\":12387:12391   */\n      0x20\n        /* \"#utility.yul\":12382:12385   */\n      dup3\n        /* \"#utility.yul\":12378:12392   */\n      add\n        /* \"#utility.yul\":12370:12392   */\n      swap1\n      pop\n        /* \"#utility.yul\":12256:12398   */\n      swap2\n      swap1\n      pop\n      jump\t// out\n        /* \"#utility.yul\":12494:13637   */\n    tag_432:\n        /* \"#utility.yul\":12671:12674   */\n      0x00\n        /* \"#utility.yul\":12700:12783   */\n      tag_627\n        /* \"#utility.yul\":12777:12782   */\n      dup3\n        /* \"#utility.yul\":12700:12783   */\n      tag_422\n      jump\t// in\n    tag_627:\n        /* \"#utility.yul\":12799:12914   */\n      tag_628\n        /* \"#utility.yul\":12907:12913   */\n      dup2\n        /* \"#utility.yul\":12902:12905   */\n      dup6\n        /* \"#utility.yul\":12799:12914   */\n      tag_423\n      jump\t// in\n    tag_628:\n        /* \"#utility.yul\":12792:12914   */\n      swap4\n      pop\n        /* \"#utility.yul\":12940:12943   */\n      dup4\n        /* \"#utility.yul\":12985:12989   */\n      0x20\n        /* \"#utility.yul\":12977:12983   */\n      dup3\n        /* \"#utility.yul\":12973:12990   */\n      mul\n        /* \"#utility.yul\":12968:12971   */\n      dup6\n        /* \"#utility.yul\":12964:12991   */\n      add\n        /* \"#utility.yul\":13015:13100   */\n      tag_629\n        /* \"#utility.yul\":13094:13099   */\n      dup6\n        /* \"#utility.yul\":13015:13100   */\n      tag_424\n      jump\t// in\n    tag_629:\n        /* \"#utility.yul\":13123:13130   */\n      dup1\n        /* \"#utility.yul\":13154:13155   */\n      0x00\n        /* \"#utility.yul\":13139:13592   */\n    tag_630:\n        /* \"#utility.yul\":13164:13170   */\n      dup6\n        /* \"#utility.yul\":13161:13162   */\n      dup2\n        /* \"#utility.yul\":13158:13171   */\n      lt\n        /* \"#utility.yul\":13139:13592   */\n      iszero\n      tag_632\n      jumpi\n        /* \"#utility.yul\":13235:13244   */\n      dup5\n        /* \"#utility.yul\":13229:13233   */\n      dup5\n        /* \"#utility.yul\":13225:13245   */\n      sub\n        /* \"#utility.yul\":13220:13223   */\n      dup10\n        /* \"#utility.yul\":13213:13246   */\n      mstore\n        /* \"#utility.yul\":13286:13292   */\n      dup2\n        /* \"#utility.yul\":13280:13293   */\n      mload\n        /* \"#utility.yul\":13314:13436   */\n      tag_633\n        /* \"#utility.yul\":13431:13435   */\n      dup6\n        /* \"#utility.yul\":13416:13429   */\n      dup3\n        /* \"#utility.yul\":13314:13436   */\n      tag_430\n      jump\t// in\n    tag_633:\n        /* \"#utility.yul\":13306:13436   */\n      swap5\n      pop\n        /* \"#utility.yul\":13459:13548   */\n      tag_634\n        /* \"#utility.yul\":13541:13547   */\n      dup4\n        /* \"#utility.yul\":13459:13548   */\n      tag_431\n      jump\t// in\n    tag_634:\n        /* \"#utility.yul\":13449:13548   */\n      swap3\n      pop\n        /* \"#utility.yul\":13577:13581   */\n      0x20\n        /* \"#utility.yul\":13572:13575   */\n      dup11\n        /* \"#utility.yul\":13568:13582   */\n      add\n        /* \"#utility.yul\":13561:13582   */\n      swap10\n      pop\n        /* \"#utility.yul\":13199:13592   */\n      pop\n        /* \"#utility.yul\":13186:13187   */\n      0x01\n        /* \"#utility.yul\":13183:13184   */\n      dup2\n        /* \"#utility.yul\":13179:13188   */\n      add\n        /* \"#utility.yul\":13174:13188   */\n      swap1\n      pop\n        /* \"#utility.yul\":13139:13592   */\n      jump(tag_630)\n    tag_632:\n        /* \"#utility.yul\":13143:13157   */\n      pop\n        /* \"#utility.yul\":13608:13612   */\n      dup3\n        /* \"#utility.yul\":13601:13612   */\n      swap8\n      pop\n        /* \"#utility.yul\":13628:13631   */\n      dup8\n        /* \"#utility.yul\":13621:13631   */\n      swap6\n      pop\n        /* \"#utility.yul\":12676:13637   */\n      pop\n      pop\n      pop\n      pop\n      pop\n        /* \"#utility.yul\":12494:13637   */\n      swap3\n      swap2\n      pop\n      pop\n      jump\t// out\n        /* \"#utility.yul\":13643:14132   */\n    tag_88:\n        /* \"#utility.yul\":13844:13848   */\n      0x00\n        /* \"#utility.yul\":13882:13884   */\n      0x20\n        /* \"#utility.yul\":13871:13880   */\n      dup3\n        /* \"#utility.yul\":13867:13885   */\n      add\n        /* \"#utility.yul\":13859:13885   */\n      swap1\n      pop\n        /* \"#utility.yul\":13931:13940   */\n      dup2\n        /* \"#utility.yul\":13925:13929   */\n      dup2\n        /* \"#utility.yul\":13921:13941   */\n      sub\n        /* \"#utility.yul\":13917:13918   */\n      0x00\n        /* \"#utility.yul\":13906:13915   */\n      dup4\n        /* \"#utility.yul\":13902:13919   */\n      add\n        /* \"#utility.yul\":13895:13942   */\n      mstore\n        /* \"#utility.yul\":13959:14125   */\n      tag_636\n        /* \"#utility.yul\":14120:14124   */\n      dup2\n        /* \"#utility.yul\":14111:14117   */\n      dup5\n        /* \"#utility.yul\":13959:14125   */\n      tag_432\n      jump\t// in\n    tag_636:\n        /* \"#utility.yul\":13951:14125   */\n      swap1\n      pop\n        /* \"#utility.yul\":13643:14132   */\n      swap3\n      swap2\n      pop\n      pop\n      jump\t// out\n        /* \"#utility.yul\":14138:14467   */\n    tag_91:\n        /* \"#utility.yul\":14197:14203   */\n      0x00\n        /* \"#utility.yul\":14246:14248   */\n      0x20\n        /* \"#utility.yul\":14234:14243   */\n      dup3\n        /* \"#utility.yul\":14225:14232   */\n      dup5\n        /* \"#utility.yul\":14221:14244   */\n      sub\n        /* \"#utility.yul\":14217:14249   */\n      slt\n        /* \"#utility.yul\":14214:14333   */\n      iszero\n      tag_638\n      jumpi\n        /* \"#utility.yul\":14252:14331   */\n      tag_639\n      tag_395\n      jump\t// in\n    tag_639:\n        /* \"#utility.yul\":14214:14333   */\n    tag_638:\n        /* \"#utility.yul\":14372:14373   */\n      0x00\n        /* \"#utility.yul\":14397:14450   */\n      tag_640\n        /* \"#utility.yul\":14442:14449   */\n      dup5\n        /* \"#utility.yul\":14433:14439   */\n      dup3\n        /* \"#utility.yul\":14422:14431   */\n      dup6\n        /* \"#utility.yul\":14418:14440   */\n      add\n        /* \"#utility.yul\":14397:14450   */\n      tag_421\n      jump\t// in\n    tag_640:\n        /* \"#utility.yul\":14387:14450   */\n      swap2\n      pop\n        /* \"#utility.yul\":14343:14460   */\n      pop\n        /* \"#utility.yul\":14138:14467   */\n      swap3\n      swap2\n      pop\n      pop\n      jump\t// out\n        /* \"#utility.yul\":14473:14786   */\n    tag_94:\n        /* \"#utility.yul\":14586:14590   */\n      0x00\n        /* \"#utility.yul\":14624:14626   */\n      0x20\n        /* \"#utility.yul\":14613:14622   */\n      dup3\n        /* \"#utility.yul\":14609:14627   */\n      add\n        /* \"#utility.yul\":14601:14627   */\n      swap1\n      pop\n        /* \"#utility.yul\":14673:14682   */\n      dup2\n        /* \"#utility.yul\":14667:14671   */\n      dup2\n        /* \"#utility.yul\":14663:14683   */\n      sub\n        /* \"#utility.yul\":14659:14660   */\n      0x00\n        /* \"#utility.yul\":14648:14657   */\n      dup4\n        /* \"#utility.yul\":14644:14661   */\n      add\n        /* \"#utility.yul\":14637:14684   */\n      mstore\n        /* \"#utility.yul\":14701:14779   */\n      tag_642\n        /* \"#utility.yul\":14774:14778   */\n      dup2\n        /* \"#utility.yul\":14765:14771   */\n      dup5\n        /* \"#utility.yul\":14701:14779   */\n      tag_416\n      jump\t// in\n    tag_642:\n        /* \"#utility.yul\":14693:14779   */\n      swap1\n      pop\n        /* \"#utility.yul\":14473:14786   */\n      swap3\n      swap2\n      pop\n      pop\n      jump\t// out\n        /* \"#utility.yul\":14792:15446   */\n    tag_97:\n        /* \"#utility.yul\":14870:14876   */\n      0x00\n        /* \"#utility.yul\":14878:14884   */\n      0x00\n        /* \"#utility.yul\":14927:14929   */\n      0x40\n        /* \"#utility.yul\":14915:14924   */\n      dup4\n        /* \"#utility.yul\":14906:14913   */\n      dup6\n        /* \"#utility.yul\":14902:14925   */\n      sub\n        /* \"#utility.yul\":14898:14930   */\n      slt\n        /* \"#utility.yul\":14895:15014   */\n      iszero\n      tag_644\n      jumpi\n        /* \"#utility.yul\":14933:15012   */\n      tag_645\n      tag_395\n      jump\t// in\n    tag_645:\n        /* \"#utility.yul\":14895:15014   */\n    tag_644:\n        /* \"#utility.yul\":15081:15082   */\n      0x00\n        /* \"#utility.yul\":15070:15079   */\n      dup4\n        /* \"#utility.yul\":15066:15083   */\n      add\n        /* \"#utility.yul\":15053:15084   */\n      calldataload\n        /* \"#utility.yul\":15111:15129   */\n      0xffffffffffffffff\n        /* \"#utility.yul\":15103:15109   */\n      dup2\n        /* \"#utility.yul\":15100:15130   */\n      gt\n        /* \"#utility.yul\":15097:15214   */\n      iszero\n      tag_646\n      jumpi\n        /* \"#utility.yul\":15133:15212   */\n      tag_647\n      tag_396\n      jump\t// in\n    tag_647:\n        /* \"#utility.yul\":15097:15214   */\n    tag_646:\n        /* \"#utility.yul\":15238:15301   */\n      tag_648\n        /* \"#utility.yul\":15293:15300   */\n      dup6\n        /* \"#utility.yul\":15284:15290   */\n      dup3\n        /* \"#utility.yul\":15273:15282   */\n      dup7\n        /* \"#utility.yul\":15269:15291   */\n      add\n        /* \"#utility.yul\":15238:15301   */\n      tag_410\n      jump\t// in\n    tag_648:\n        /* \"#utility.yul\":15228:15301   */\n      swap3\n      pop\n        /* \"#utility.yul\":15024:15311   */\n      pop\n        /* \"#utility.yul\":15350:15352   */\n      0x20\n        /* \"#utility.yul\":15376:15429   */\n      tag_649\n        /* \"#utility.yul\":15421:15428   */\n      dup6\n        /* \"#utility.yul\":15412:15418   */\n      dup3\n        /* \"#utility.yul\":15401:15410   */\n      dup7\n        /* \"#utility.yul\":15397:15419   */\n      add\n        /* \"#utility.yul\":15376:15429   */\n      tag_400\n      jump\t// in\n    tag_649:\n        /* \"#utility.yul\":15366:15429   */\n      swap2\n      pop\n        /* \"#utility.yul\":15321:15439   */\n      pop\n        /* \"#utility.yul\":14792:15446   */\n      swap3\n      pop\n      swap3\n      swap1\n      pop\n      jump\t// out\n        /* \"#utility.yul\":15452:15576   */\n    tag_433:\n        /* \"#utility.yul\":15529:15535   */\n      0x00\n        /* \"#utility.yul\":15563:15568   */\n      dup2\n        /* \"#utility.yul\":15557:15569   */\n      mload\n        /* \"#utility.yul\":15547:15569   */\n      swap1\n      pop\n        /* \"#utility.yul\":15452:15576   */\n      swap2\n      swap1\n      pop\n      jump\t// out\n        /* \"#utility.yul\":15582:15776   */\n    tag_434:\n        /* \"#utility.yul\":15691:15702   */\n      0x00\n        /* \"#utility.yul\":15725:15731   */\n      dup3\n        /* \"#utility.yul\":15720:15723   */\n      dup3\n        /* \"#utility.yul\":15713:15732   */\n      mstore\n        /* \"#utility.yul\":15765:15769   */\n      0x20\n        /* \"#utility.yul\":15760:15763   */\n      dup3\n        /* \"#utility.yul\":15756:15770   */\n      add\n        /* \"#utility.yul\":15741:15770   */\n      swap1\n      pop\n        /* \"#utility.yul\":15582:15776   */\n      swap3\n      swap2\n      pop\n      pop\n      jump\t// out\n        /* \"#utility.yul\":15782:15924   */\n    tag_435:\n        /* \"#utility.yul\":15859:15863   */\n      0x00\n        /* \"#utility.yul\":15882:15885   */\n      dup2\n        /* \"#utility.yul\":15874:15885   */\n      swap1\n      pop\n        /* \"#utility.yul\":15912:15916   */\n      0x20\n        /* \"#utility.yul\":15907:15910   */\n      dup3\n        /* \"#utility.yul\":15903:15917   */\n      add\n        /* \"#utility.yul\":15895:15917   */\n      swap1\n      pop\n        /* \"#utility.yul\":15782:15924   */\n      swap2\n      swap1\n      pop\n      jump\t// out\n        /* \"#utility.yul\":15930:16126   */\n    tag_436:\n        /* \"#utility.yul\":16019:16029   */\n      0x00\n        /* \"#utility.yul\":16054:16120   */\n      tag_654\n        /* \"#utility.yul\":16116:16119   */\n      dup4\n        /* \"#utility.yul\":16108:16114   */\n      dup4\n        /* \"#utility.yul\":16054:16120   */\n      tag_426\n      jump\t// in\n    tag_654:\n        /* \"#utility.yul\":16040:16120   */\n      swap1\n      pop\n        /* \"#utility.yul\":15930:16126   */\n      swap3\n      swap2\n      pop\n      pop\n      jump\t// out\n        /* \"#utility.yul\":16132:16255   */\n    tag_437:\n        /* \"#utility.yul\":16212:16216   */\n      0x00\n        /* \"#utility.yul\":16244:16248   */\n      0x20\n        /* \"#utility.yul\":16239:16242   */\n      dup3\n        /* \"#utility.yul\":16235:16249   */\n      add\n        /* \"#utility.yul\":16227:16249   */\n      swap1\n      pop\n        /* \"#utility.yul\":16132:16255   */\n      swap2\n      swap1\n      pop\n      jump\t// out\n        /* \"#utility.yul\":16289:17280   */\n    tag_438:\n        /* \"#utility.yul\":16428:16431   */\n      0x00\n        /* \"#utility.yul\":16457:16521   */\n      tag_657\n        /* \"#utility.yul\":16515:16520   */\n      dup3\n        /* \"#utility.yul\":16457:16521   */\n      tag_433\n      jump\t// in\n    tag_657:\n        /* \"#utility.yul\":16537:16633   */\n      tag_658\n        /* \"#utility.yul\":16626:16632   */\n      dup2\n        /* \"#utility.yul\":16621:16624   */\n      dup6\n        /* \"#utility.yul\":16537:16633   */\n      tag_434\n      jump\t// in\n    tag_658:\n        /* \"#utility.yul\":16530:16633   */\n      swap4\n      pop\n        /* \"#utility.yul\":16659:16662   */\n      dup4\n        /* \"#utility.yul\":16704:16708   */\n      0x20\n        /* \"#utility.yul\":16696:16702   */\n      dup3\n        /* \"#utility.yul\":16692:16709   */\n      mul\n        /* \"#utility.yul\":16687:16690   */\n      dup6\n        /* \"#utility.yul\":16683:16710   */\n      add\n        /* \"#utility.yul\":16734:16800   */\n      tag_659\n        /* \"#utility.yul\":16794:16799   */\n      dup6\n        /* \"#utility.yul\":16734:16800   */\n      tag_435\n      jump\t// in\n    tag_659:\n        /* \"#utility.yul\":16823:16830   */\n      dup1\n        /* \"#utility.yul\":16854:16855   */\n      0x00\n        /* \"#utility.yul\":16839:17235   */\n    tag_660:\n        /* \"#utility.yul\":16864:16870   */\n      dup6\n        /* \"#utility.yul\":16861:16862   */\n      dup2\n        /* \"#utility.yul\":16858:16871   */\n      lt\n        /* \"#utility.yul\":16839:17235   */\n      iszero\n      tag_662\n      jumpi\n        /* \"#utility.yul\":16935:16944   */\n      dup5\n        /* \"#utility.yul\":16929:16933   */\n      dup5\n        /* \"#utility.yul\":16925:16945   */\n      sub\n        /* \"#utility.yul\":16920:16923   */\n      dup10\n        /* \"#utility.yul\":16913:16946   */\n      mstore\n        /* \"#utility.yul\":16986:16992   */\n      dup2\n        /* \"#utility.yul\":16980:16993   */\n      mload\n        /* \"#utility.yul\":17014:17098   */\n      tag_663\n        /* \"#utility.yul\":17093:17097   */\n      dup6\n        /* \"#utility.yul\":17078:17091   */\n      dup3\n        /* \"#utility.yul\":17014:17098   */\n      tag_436\n      jump\t// in\n    tag_663:\n        /* \"#utility.yul\":17006:17098   */\n      swap5\n      pop\n        /* \"#utility.yul\":17121:17191   */\n      tag_664\n        /* \"#utility.yul\":17184:17190   */\n      dup4\n        /* \"#utility.yul\":17121:17191   */\n      tag_437\n      jump\t// in\n    tag_664:\n        /* \"#utility.yul\":17111:17191   */\n      swap3\n      pop\n        /* \"#utility.yul\":17220:17224   */\n      0x20\n        /* \"#utility.yul\":17215:17218   */\n      dup11\n        /* \"#utility.yul\":17211:17225   */\n      add\n        /* \"#utility.yul\":17204:17225   */\n      swap10\n      pop\n        /* \"#utility.yul\":16899:17235   */\n      pop\n        /* \"#utility.yul\":16886:16887   */\n      0x01\n        /* \"#utility.yul\":16883:16884   */\n      dup2\n        /* \"#utility.yul\":16879:16888   */\n      add\n        /* \"#utility.yul\":16874:16888   */\n      swap1\n      pop\n        /* \"#utility.yul\":16839:17235   */\n      jump(tag_660)\n    tag_662:\n        /* \"#utility.yul\":16843:16857   */\n      pop\n        /* \"#utility.yul\":17251:17255   */\n      dup3\n        /* \"#utility.yul\":17244:17255   */\n      swap8\n      pop\n        /* \"#utility.yul\":17271:17274   */\n      dup8\n        /* \"#utility.yul\":17264:17274   */\n      swap6\n      pop\n        /* \"#utility.yul\":16433:17280   */\n      pop\n      pop\n      pop\n      pop\n      pop\n        /* \"#utility.yul\":16289:17280   */\n      swap3\n      swap2\n      pop\n      pop\n      jump\t// out\n        /* \"#utility.yul\":17286:17699   */\n    tag_105:\n        /* \"#utility.yul\":17449:17453   */\n      0x00\n        /* \"#utility.yul\":17487:17489   */\n      0x20\n        /* \"#utility.yul\":17476:17485   */\n      dup3\n        /* \"#utility.yul\":17472:17490   */\n      add\n        /* \"#utility.yul\":17464:17490   */\n      swap1\n      pop\n        /* \"#utility.yul\":17536:17545   */\n      dup2\n        /* \"#utility.yul\":17530:17534   */\n      dup2\n        /* \"#utility.yul\":17526:17546   */\n      sub\n        /* \"#utility.yul\":17522:17523   */\n      0x00\n        /* \"#utility.yul\":17511:17520   */\n      dup4\n        /* \"#utility.yul\":17507:17524   */\n      add\n        /* \"#utility.yul\":17500:17547   */\n      mstore\n        /* \"#utility.yul\":17564:17692   */\n      tag_666\n        /* \"#utility.yul\":17687:17691   */\n      dup2\n        /* \"#utility.yul\":17678:17684   */\n      dup5\n        /* \"#utility.yul\":17564:17692   */\n      tag_438\n      jump\t// in\n    tag_666:\n        /* \"#utility.yul\":17556:17692   */\n      swap1\n      pop\n        /* \"#utility.yul\":17286:17699   */\n      swap3\n      swap2\n      pop\n      pop\n      jump\t// out\n        /* \"#utility.yul\":17705:17927   */\n    tag_120:\n        /* \"#utility.yul\":17798:17802   */\n      0x00\n        /* \"#utility.yul\":17836:17838   */\n      0x20\n        /* \"#utility.yul\":17825:17834   */\n      dup3\n        /* \"#utility.yul\":17821:17839   */\n      add\n        /* \"#utility.yul\":17813:17839   */\n      swap1\n      pop\n        /* \"#utility.yul\":17849:17920   */\n      tag_668\n        /* \"#utility.yul\":17917:17918   */\n      0x00\n        /* \"#utility.yul\":17906:17915   */\n      dup4\n        /* \"#utility.yul\":17902:17919   */\n      add\n        /* \"#utility.yul\":17893:17899   */\n      dup5\n        /* \"#utility.yul\":17849:17920   */\n      tag_419\n      jump\t// in\n    tag_668:\n        /* \"#utility.yul\":17705:17927   */\n      swap3\n      swap2\n      pop\n      pop\n      jump\t// out\n        /* \"#utility.yul\":17933:18155   */\n    tag_124:\n        /* \"#utility.yul\":18026:18030   */\n      0x00\n        /* \"#utility.yul\":18064:18066   */\n      0x20\n        /* \"#utility.yul\":18053:18062   */\n      dup3\n        /* \"#utility.yul\":18049:18067   */\n      add\n        /* \"#utility.yul\":18041:18067   */\n      swap1\n      pop\n        /* \"#utility.yul\":18077:18148   */\n      tag_670\n        /* \"#utility.yul\":18145:18146   */\n      0x00\n        /* \"#utility.yul\":18134:18143   */\n      dup4\n        /* \"#utility.yul\":18130:18147   */\n      add\n        /* \"#utility.yul\":18121:18127   */\n      dup5\n        /* \"#utility.yul\":18077:18148   */\n      tag_417\n      jump\t// in\n    tag_670:\n        /* \"#utility.yul\":17933:18155   */\n      swap3\n      swap2\n      pop\n      pop\n      jump\t// out\n        /* \"#utility.yul\":18161:19411   */\n    tag_129:\n        /* \"#utility.yul\":18502:18506   */\n      0x00\n        /* \"#utility.yul\":18540:18543   */\n      0xe0\n        /* \"#utility.yul\":18529:18538   */\n      dup3\n        /* \"#utility.yul\":18525:18544   */\n      add\n        /* \"#utility.yul\":18517:18544   */\n      swap1\n      pop\n        /* \"#utility.yul\":18590:18599   */\n      dup2\n        /* \"#utility.yul\":18584:18588   */\n      dup2\n        /* \"#utility.yul\":18580:18600   */\n      sub\n        /* \"#utility.yul\":18576:18577   */\n      0x00\n        /* \"#utility.yul\":18565:18574   */\n      dup4\n        /* \"#utility.yul\":18561:18578   */\n      add\n        /* \"#utility.yul\":18554:18601   */\n      mstore\n        /* \"#utility.yul\":18618:18696   */\n      tag_672\n        /* \"#utility.yul\":18691:18695   */\n      dup2\n        /* \"#utility.yul\":18682:18688   */\n      dup11\n        /* \"#utility.yul\":18618:18696   */\n      tag_416\n      jump\t// in\n    tag_672:\n        /* \"#utility.yul\":18610:18696   */\n      swap1\n      pop\n        /* \"#utility.yul\":18743:18752   */\n      dup2\n        /* \"#utility.yul\":18737:18741   */\n      dup2\n        /* \"#utility.yul\":18733:18753   */\n      sub\n        /* \"#utility.yul\":18728:18730   */\n      0x20\n        /* \"#utility.yul\":18717:18726   */\n      dup4\n        /* \"#utility.yul\":18713:18731   */\n      add\n        /* \"#utility.yul\":18706:18754   */\n      mstore\n        /* \"#utility.yul\":18771:18849   */\n      tag_673\n        /* \"#utility.yul\":18844:18848   */\n      dup2\n        /* \"#utility.yul\":18835:18841   */\n      dup10\n        /* \"#utility.yul\":18771:18849   */\n      tag_416\n      jump\t// in\n    tag_673:\n        /* \"#utility.yul\":18763:18849   */\n      swap1\n      pop\n        /* \"#utility.yul\":18859:18931   */\n      tag_674\n        /* \"#utility.yul\":18927:18929   */\n      0x40\n        /* \"#utility.yul\":18916:18925   */\n      dup4\n        /* \"#utility.yul\":18912:18930   */\n      add\n        /* \"#utility.yul\":18903:18909   */\n      dup9\n        /* \"#utility.yul\":18859:18931   */\n      tag_417\n      jump\t// in\n    tag_674:\n        /* \"#utility.yul\":18941:19013   */\n      tag_675\n        /* \"#utility.yul\":19009:19011   */\n      0x60\n        /* \"#utility.yul\":18998:19007   */\n      dup4\n        /* \"#utility.yul\":18994:19012   */\n      add\n        /* \"#utility.yul\":18985:18991   */\n      dup8\n        /* \"#utility.yul\":18941:19013   */\n      tag_417\n      jump\t// in\n    tag_675:\n        /* \"#utility.yul\":19061:19070   */\n      dup2\n        /* \"#utility.yul\":19055:19059   */\n      dup2\n        /* \"#utility.yul\":19051:19071   */\n      sub\n        /* \"#utility.yul\":19045:19048   */\n      0x80\n        /* \"#utility.yul\":19034:19043   */\n      dup4\n        /* \"#utility.yul\":19030:19049   */\n      add\n        /* \"#utility.yul\":19023:19072   */\n      mstore\n        /* \"#utility.yul\":19089:19167   */\n      tag_676\n        /* \"#utility.yul\":19162:19166   */\n      dup2\n        /* \"#utility.yul\":19153:19159   */\n      dup7\n        /* \"#utility.yul\":19089:19167   */\n      tag_416\n      jump\t// in\n    tag_676:\n        /* \"#utility.yul\":19081:19167   */\n      swap1\n      pop\n        /* \"#utility.yul\":19215:19224   */\n      dup2\n        /* \"#utility.yul\":19209:19213   */\n      dup2\n        /* \"#utility.yul\":19205:19225   */\n      sub\n        /* \"#utility.yul\":19199:19202   */\n      0xa0\n        /* \"#utility.yul\":19188:19197   */\n      dup4\n        /* \"#utility.yul\":19184:19203   */\n      add\n        /* \"#utility.yul\":19177:19226   */\n      mstore\n        /* \"#utility.yul\":19243:19321   */\n      tag_677\n        /* \"#utility.yul\":19316:19320   */\n      dup2\n        /* \"#utility.yul\":19307:19313   */\n      dup6\n        /* \"#utility.yul\":19243:19321   */\n      tag_416\n      jump\t// in\n    tag_677:\n        /* \"#utility.yul\":19235:19321   */\n      swap1\n      pop\n        /* \"#utility.yul\":19331:19404   */\n      tag_678\n        /* \"#utility.yul\":19399:19402   */\n      0xc0\n        /* \"#utility.yul\":19388:19397   */\n      dup4\n        /* \"#utility.yul\":19384:19403   */\n      add\n        /* \"#utility.yul\":19375:19381   */\n      dup5\n        /* \"#utility.yul\":19331:19404   */\n      tag_419\n      jump\t// in\n    tag_678:\n        /* \"#utility.yul\":18161:19411   */\n      swap9\n      swap8\n      pop\n      pop\n      pop\n      pop\n      pop\n      pop\n      pop\n      pop\n      jump\t// out\n        /* \"#utility.yul\":19417:19638   */\n    tag_439:\n        /* \"#utility.yul\":19557:19591   */\n      0x4f6e6c792061646d696e2063616e20706572666f726d20746869732061637469\n        /* \"#utility.yul\":19553:19554   */\n      0x00\n        /* \"#utility.yul\":19545:19551   */\n      dup3\n        /* \"#utility.yul\":19541:19555   */\n      add\n        /* \"#utility.yul\":19534:19592   */\n      mstore\n        /* \"#utility.yul\":19626:19630   */\n      0x6f6e000000000000000000000000000000000000000000000000000000000000\n        /* \"#utility.yul\":19621:19623   */\n      0x20\n        /* \"#utility.yul\":19613:19619   */\n      dup3\n        /* \"#utility.yul\":19609:19624   */\n      add\n        /* \"#utility.yul\":19602:19631   */\n      mstore\n        /* \"#utility.yul\":19417:19638   */\n      pop\n      jump\t// out\n        /* \"#utility.yul\":19644:20010   */\n    tag_440:\n        /* \"#utility.yul\":19786:19789   */\n      0x00\n        /* \"#utility.yul\":19807:19874   */\n      tag_681\n        /* \"#utility.yul\":19871:19873   */\n      0x22\n        /* \"#utility.yul\":19866:19869   */\n      dup4\n        /* \"#utility.yul\":19807:19874   */\n      tag_414\n      jump\t// in\n    tag_681:\n        /* \"#utility.yul\":19800:19874   */\n      swap2\n      pop\n        /* \"#utility.yul\":19883:19976   */\n      tag_682\n        /* \"#utility.yul\":19972:19975   */\n      dup3\n        /* \"#utility.yul\":19883:19976   */\n      tag_439\n      jump\t// in\n    tag_682:\n        /* \"#utility.yul\":20001:20003   */\n      0x40\n        /* \"#utility.yul\":19996:19999   */\n      dup3\n        /* \"#utility.yul\":19992:20004   */\n      add\n        /* \"#utility.yul\":19985:20004   */\n      swap1\n      pop\n        /* \"#utility.yul\":19644:20010   */\n      swap2\n      swap1\n      pop\n      jump\t// out\n        /* \"#utility.yul\":20016:20435   */\n    tag_136:\n        /* \"#utility.yul\":20182:20186   */\n      0x00\n        /* \"#utility.yul\":20220:20222   */\n      0x20\n        /* \"#utility.yul\":20209:20218   */\n      dup3\n        /* \"#utility.yul\":20205:20223   */\n      add\n        /* \"#utility.yul\":20197:20223   */\n      swap1\n      pop\n        /* \"#utility.yul\":20269:20278   */\n      dup2\n        /* \"#utility.yul\":20263:20267   */\n      dup2\n        /* \"#utility.yul\":20259:20279   */\n      sub\n        /* \"#utility.yul\":20255:20256   */\n      0x00\n        /* \"#utility.yul\":20244:20253   */\n      dup4\n        /* \"#utility.yul\":20240:20257   */\n      add\n        /* \"#utility.yul\":20233:20280   */\n      mstore\n        /* \"#utility.yul\":20297:20428   */\n      tag_684\n        /* \"#utility.yul\":20423:20427   */\n      dup2\n        /* \"#utility.yul\":20297:20428   */\n      tag_440\n      jump\t// in\n    tag_684:\n        /* \"#utility.yul\":20289:20428   */\n      swap1\n      pop\n        /* \"#utility.yul\":20016:20435   */\n      swap2\n      swap1\n      pop\n      jump\t// out\n        /* \"#utility.yul\":20441:20599   */\n    tag_441:\n        /* \"#utility.yul\":20581:20591   */\n      0x50726f6475636572000000000000000000000000000000000000000000000000\n        /* \"#utility.yul\":20577:20578   */\n      0x00\n        /* \"#utility.yul\":20569:20575   */\n      dup3\n        /* \"#utility.yul\":20565:20579   */\n      add\n        /* \"#utility.yul\":20558:20592   */\n      mstore\n        /* \"#utility.yul\":20441:20599   */\n      pop\n      jump\t// out\n        /* \"#utility.yul\":20605:20970   */\n    tag_442:\n        /* \"#utility.yul\":20747:20750   */\n      0x00\n        /* \"#utility.yul\":20768:20834   */\n      tag_687\n        /* \"#utility.yul\":20832:20833   */\n      0x08\n        /* \"#utility.yul\":20827:20830   */\n      dup4\n        /* \"#utility.yul\":20768:20834   */\n      tag_414\n      jump\t// in\n    tag_687:\n        /* \"#utility.yul\":20761:20834   */\n      swap2\n      pop\n        /* \"#utility.yul\":20843:20936   */\n      tag_688\n        /* \"#utility.yul\":20932:20935   */\n      dup3\n        /* \"#utility.yul\":20843:20936   */\n      tag_441\n      jump\t// in\n    tag_688:\n        /* \"#utility.yul\":20961:20963   */\n      0x20\n        /* \"#utility.yul\":20956:20959   */\n      dup3\n        /* \"#utility.yul\":20952:20964   */\n      add\n        /* \"#utility.yul\":20945:20964   */\n      swap1\n      pop\n        /* \"#utility.yul\":20605:20970   */\n      swap2\n      swap1\n      pop\n      jump\t// out\n        /* \"#utility.yul\":20976:21395   */\n    tag_139:\n        /* \"#utility.yul\":21142:21146   */\n      0x00\n        /* \"#utility.yul\":21180:21182   */\n      0x20\n        /* \"#utility.yul\":21169:21178   */\n      dup3\n        /* \"#utility.yul\":21165:21183   */\n      add\n        /* \"#utility.yul\":21157:21183   */\n      swap1\n      pop\n        /* \"#utility.yul\":21229:21238   */\n      dup2\n        /* \"#utility.yul\":21223:21227   */\n      dup2\n        /* \"#utility.yul\":21219:21239   */\n      sub\n        /* \"#utility.yul\":21215:21216   */\n      0x00\n        /* \"#utility.yul\":21204:21213   */\n      dup4\n        /* \"#utility.yul\":21200:21217   */\n      add\n        /* \"#utility.yul\":21193:21240   */\n      mstore\n        /* \"#utility.yul\":21257:21388   */\n      tag_690\n        /* \"#utility.yul\":21383:21387   */\n      dup2\n        /* \"#utility.yul\":21257:21388   */\n      tag_442\n      jump\t// in\n    tag_690:\n        /* \"#utility.yul\":21249:21388   */\n      swap1\n      pop\n        /* \"#utility.yul\":20976:21395   */\n      swap2\n      swap1\n      pop\n      jump\t// out\n        /* \"#utility.yul\":21401:21562   */\n    tag_443:\n        /* \"#utility.yul\":21541:21554   */\n      0x4469737472696275746f72000000000000000000000000000000000000000000\n        /* \"#utility.yul\":21537:21538   */\n      0x00\n        /* \"#utility.yul\":21529:21535   */\n      dup3\n        /* \"#utility.yul\":21525:21539   */\n      add\n        /* \"#utility.yul\":21518:21555   */\n      mstore\n        /* \"#utility.yul\":21401:21562   */\n      pop\n      jump\t// out\n        /* \"#utility.yul\":21568:21934   */\n    tag_444:\n        /* \"#utility.yul\":21710:21713   */\n      0x00\n        /* \"#utility.yul\":21731:21798   */\n      tag_693\n        /* \"#utility.yul\":21795:21797   */\n      0x0b\n        /* \"#utility.yul\":21790:21793   */\n      dup4\n        /* \"#utility.yul\":21731:21798   */\n      tag_414\n      jump\t// in\n    tag_693:\n        /* \"#utility.yul\":21724:21798   */\n      swap2\n      pop\n        /* \"#utility.yul\":21807:21900   */\n      tag_694\n        /* \"#utility.yul\":21896:21899   */\n      dup3\n        /* \"#utility.yul\":21807:21900   */\n      tag_443\n      jump\t// in\n    tag_694:\n        /* \"#utility.yul\":21925:21927   */\n      0x20\n        /* \"#utility.yul\":21920:21923   */\n      dup3\n        /* \"#utility.yul\":21916:21928   */\n      add\n        /* \"#utility.yul\":21909:21928   */\n      swap1\n      pop\n        /* \"#utility.yul\":21568:21934   */\n      swap2\n      swap1\n      pop\n      jump\t// out\n        /* \"#utility.yul\":21940:22359   */\n    tag_145:\n        /* \"#utility.yul\":22106:22110   */\n      0x00\n        /* \"#utility.yul\":22144:22146   */\n      0x20\n        /* \"#utility.yul\":22133:22142   */\n      dup3\n        /* \"#utility.yul\":22129:22147   */\n      add\n        /* \"#utility.yul\":22121:22147   */\n      swap1\n      pop\n        /* \"#utility.yul\":22193:22202   */\n      dup2\n        /* \"#utility.yul\":22187:22191   */\n      dup2\n        /* \"#utility.yul\":22183:22203   */\n      sub\n        /* \"#utility.yul\":22179:22180   */\n      0x00\n        /* \"#utility.yul\":22168:22177   */\n      dup4\n        /* \"#utility.yul\":22164:22181   */\n      add\n        /* \"#utility.yul\":22157:22204   */\n      mstore\n        /* \"#utility.yul\":22221:22352   */\n      tag_696\n        /* \"#utility.yul\":22347:22351   */\n      dup2\n        /* \"#utility.yul\":22221:22352   */\n      tag_444\n      jump\t// in\n    tag_696:\n        /* \"#utility.yul\":22213:22352   */\n      swap1\n      pop\n        /* \"#utility.yul\":21940:22359   */\n      swap2\n      swap1\n      pop\n      jump\t// out\n        /* \"#utility.yul\":22365:22513   */\n    tag_445:\n        /* \"#utility.yul\":22467:22478   */\n      0x00\n        /* \"#utility.yul\":22504:22507   */\n      dup2\n        /* \"#utility.yul\":22489:22507   */\n      swap1\n      pop\n        /* \"#utility.yul\":22365:22513   */\n      swap3\n      swap2\n      pop\n      pop\n      jump\t// out\n        /* \"#utility.yul\":22519:22909   */\n    tag_446:\n        /* \"#utility.yul\":22625:22628   */\n      0x00\n        /* \"#utility.yul\":22653:22692   */\n      tag_699\n        /* \"#utility.yul\":22686:22691   */\n      dup3\n        /* \"#utility.yul\":22653:22692   */\n      tag_413\n      jump\t// in\n    tag_699:\n        /* \"#utility.yul\":22708:22797   */\n      tag_700\n        /* \"#utility.yul\":22790:22796   */\n      dup2\n        /* \"#utility.yul\":22785:22788   */\n      dup6\n        /* \"#utility.yul\":22708:22797   */\n      tag_445\n      jump\t// in\n    tag_700:\n        /* \"#utility.yul\":22701:22797   */\n      swap4\n      pop\n        /* \"#utility.yul\":22806:22871   */\n      tag_701\n        /* \"#utility.yul\":22864:22870   */\n      dup2\n        /* \"#utility.yul\":22859:22862   */\n      dup6\n        /* \"#utility.yul\":22852:22856   */\n      0x20\n        /* \"#utility.yul\":22845:22850   */\n      dup7\n        /* \"#utility.yul\":22841:22857   */\n      add\n        /* \"#utility.yul\":22806:22871   */\n      tag_415\n      jump\t// in\n    tag_701:\n        /* \"#utility.yul\":22896:22902   */\n      dup1\n        /* \"#utility.yul\":22891:22894   */\n      dup5\n        /* \"#utility.yul\":22887:22903   */\n      add\n        /* \"#utility.yul\":22880:22903   */\n      swap2\n      pop\n        /* \"#utility.yul\":22629:22909   */\n      pop\n        /* \"#utility.yul\":22519:22909   */\n      swap3\n      swap2\n      pop\n      pop\n      jump\t// out\n        /* \"#utility.yul\":22915:23190   */\n    tag_153:\n        /* \"#utility.yul\":23047:23050   */\n      0x00\n        /* \"#utility.yul\":23069:23164   */\n      tag_703\n        /* \"#utility.yul\":23160:23163   */\n      dup3\n        /* \"#utility.yul\":23151:23157   */\n      dup5\n        /* \"#utility.yul\":23069:23164   */\n      tag_446\n      jump\t// in\n    tag_703:\n        /* \"#utility.yul\":23062:23164   */\n      swap2\n      pop\n        /* \"#utility.yul\":23181:23184   */\n      dup2\n        /* \"#utility.yul\":23174:23184   */\n      swap1\n      pop\n        /* \"#utility.yul\":22915:23190   */\n      swap3\n      swap2\n      pop\n      pop\n      jump\t// out\n        /* \"#utility.yul\":23196:23596   */\n    tag_447:\n        /* \"#utility.yul\":23356:23359   */\n      0x00\n        /* \"#utility.yul\":23377:23461   */\n      tag_705\n        /* \"#utility.yul\":23459:23460   */\n      0x08\n        /* \"#utility.yul\":23454:23457   */\n      dup4\n        /* \"#utility.yul\":23377:23461   */\n      tag_445\n      jump\t// in\n    tag_705:\n        /* \"#utility.yul\":23370:23461   */\n      swap2\n      pop\n        /* \"#utility.yul\":23470:23563   */\n      tag_706\n        /* \"#utility.yul\":23559:23562   */\n      dup3\n        /* \"#utility.yul\":23470:23563   */\n      tag_441\n      jump\t// in\n    tag_706:\n        /* \"#utility.yul\":23588:23589   */\n      0x08\n        /* \"#utility.yul\":23583:23586   */\n      dup3\n        /* \"#utility.yul\":23579:23590   */\n      add\n        /* \"#utility.yul\":23572:23590   */\n      swap1\n      pop\n        /* \"#utility.yul\":23196:23596   */\n      swap2\n      swap1\n      pop\n      jump\t// out\n        /* \"#utility.yul\":23602:23983   */\n    tag_155:\n        /* \"#utility.yul\":23787:23790   */\n      0x00\n        /* \"#utility.yul\":23809:23957   */\n      tag_708\n        /* \"#utility.yul\":23953:23956   */\n      dup3\n        /* \"#utility.yul\":23809:23957   */\n      tag_447\n      jump\t// in\n    tag_708:\n        /* \"#utility.yul\":23802:23957   */\n      swap2\n      pop\n        /* \"#utility.yul\":23974:23977   */\n      dup2\n        /* \"#utility.yul\":23967:23977   */\n      swap1\n      pop\n        /* \"#utility.yul\":23602:23983   */\n      swap2\n      swap1\n      pop\n      jump\t// out\n        /* \"#utility.yul\":23989:24153   */\n    tag_448:\n        /* \"#utility.yul\":24129:24145   */\n      0x48616c616c417574686f72697479000000000000000000000000000000000000\n        /* \"#utility.yul\":24125:24126   */\n      0x00\n        /* \"#utility.yul\":24117:24123   */\n      dup3\n        /* \"#utility.yul\":24113:24127   */\n      add\n        /* \"#utility.yul\":24106:24146   */\n      mstore\n        /* \"#utility.yul\":23989:24153   */\n      pop\n      jump\t// out\n        /* \"#utility.yul\":24159:24561   */\n    tag_449:\n        /* \"#utility.yul\":24319:24322   */\n      0x00\n        /* \"#utility.yul\":24340:24425   */\n      tag_711\n        /* \"#utility.yul\":24422:24424   */\n      0x0e\n        /* \"#utility.yul\":24417:24420   */\n      dup4\n        /* \"#utility.yul\":24340:24425   */\n      tag_445\n      jump\t// in\n    tag_711:\n        /* \"#utility.yul\":24333:24425   */\n      swap2\n      pop\n        /* \"#utility.yul\":24434:24527   */\n      tag_712\n        /* \"#utility.yul\":24523:24526   */\n      dup3\n        /* \"#utility.yul\":24434:24527   */\n      tag_448\n      jump\t// in\n    tag_712:\n        /* \"#utility.yul\":24552:24554   */\n      0x0e\n        /* \"#utility.yul\":24547:24550   */\n      dup3\n        /* \"#utility.yul\":24543:24555   */\n      add\n        /* \"#utility.yul\":24536:24555   */\n      swap1\n      pop\n        /* \"#utility.yul\":24159:24561   */\n      swap2\n      swap1\n      pop\n      jump\t// out\n        /* \"#utility.yul\":24567:24948   */\n    tag_159:\n        /* \"#utility.yul\":24752:24755   */\n      0x00\n        /* \"#utility.yul\":24774:24922   */\n      tag_714\n        /* \"#utility.yul\":24918:24921   */\n      dup3\n        /* \"#utility.yul\":24774:24922   */\n      tag_449\n      jump\t// in\n    tag_714:\n        /* \"#utility.yul\":24767:24922   */\n      swap2\n      pop\n        /* \"#utility.yul\":24939:24942   */\n      dup2\n        /* \"#utility.yul\":24932:24942   */\n      swap1\n      pop\n        /* \"#utility.yul\":24567:24948   */\n      swap2\n      swap1\n      pop\n      jump\t// out\n        /* \"#utility.yul\":24954:25356   */\n    tag_450:\n        /* \"#utility.yul\":25114:25117   */\n      0x00\n        /* \"#utility.yul\":25135:25220   */\n      tag_716\n        /* \"#utility.yul\":25217:25219   */\n      0x0b\n        /* \"#utility.yul\":25212:25215   */\n      dup4\n        /* \"#utility.yul\":25135:25220   */\n      tag_445\n      jump\t// in\n    tag_716:\n        /* \"#utility.yul\":25128:25220   */\n      swap2\n      pop\n        /* \"#utility.yul\":25229:25322   */\n      tag_717\n        /* \"#utility.yul\":25318:25321   */\n      dup3\n        /* \"#utility.yul\":25229:25322   */\n      tag_443\n      jump\t// in\n    tag_717:\n        /* \"#utility.yul\":25347:25349   */\n      0x0b\n        /* \"#utility.yul\":25342:25345   */\n      dup3\n        /* \"#utility.yul\":25338:25350   */\n      add\n        /* \"#utility.yul\":25331:25350   */\n      swap1\n      pop\n        /* \"#utility.yul\":24954:25356   */\n      swap2\n      swap1\n      pop\n      jump\t// out\n        /* \"#utility.yul\":25362:25743   */\n    tag_163:\n        /* \"#utility.yul\":25547:25550   */\n      0x00\n        /* \"#utility.yul\":25569:25717   */\n      tag_719\n        /* \"#utility.yul\":25713:25716   */\n      dup3\n        /* \"#utility.yul\":25569:25717   */\n      tag_450\n      jump\t// in\n    tag_719:\n        /* \"#utility.yul\":25562:25717   */\n      swap2\n      pop\n        /* \"#utility.yul\":25734:25737   */\n      dup2\n        /* \"#utility.yul\":25727:25737   */\n      swap1\n      pop\n        /* \"#utility.yul\":25362:25743   */\n      swap2\n      swap1\n      pop\n      jump\t// out\n        /* \"#utility.yul\":25749:25907   */\n    tag_451:\n        /* \"#utility.yul\":25889:25899   */\n      0x52657461696c6572000000000000000000000000000000000000000000000000\n        /* \"#utility.yul\":25885:25886   */\n      0x00\n        /* \"#utility.yul\":25877:25883   */\n      dup3\n        /* \"#utility.yul\":25873:25887   */\n      add\n        /* \"#utility.yul\":25866:25900   */\n      mstore\n        /* \"#utility.yul\":25749:25907   */\n      pop\n      jump\t// out\n        /* \"#utility.yul\":25913:26313   */\n    tag_452:\n        /* \"#utility.yul\":26073:26076   */\n      0x00\n        /* \"#utility.yul\":26094:26178   */\n      tag_722\n        /* \"#utility.yul\":26176:26177   */\n      0x08\n        /* \"#utility.yul\":26171:26174   */\n      dup4\n        /* \"#utility.yul\":26094:26178   */\n      tag_445\n      jump\t// in\n    tag_722:\n        /* \"#utility.yul\":26087:26178   */\n      swap2\n      pop\n        /* \"#utility.yul\":26187:26280   */\n      tag_723\n        /* \"#utility.yul\":26276:26279   */\n      dup3\n        /* \"#utility.yul\":26187:26280   */\n      tag_451\n      jump\t// in\n    tag_723:\n        /* \"#utility.yul\":26305:26306   */\n      0x08\n        /* \"#utility.yul\":26300:26303   */\n      dup3\n        /* \"#utility.yul\":26296:26307   */\n      add\n        /* \"#utility.yul\":26289:26307   */\n      swap1\n      pop\n        /* \"#utility.yul\":25913:26313   */\n      swap2\n      swap1\n      pop\n      jump\t// out\n        /* \"#utility.yul\":26319:26700   */\n    tag_167:\n        /* \"#utility.yul\":26504:26507   */\n      0x00\n        /* \"#utility.yul\":26526:26674   */\n      tag_725\n        /* \"#utility.yul\":26670:26673   */\n      dup3\n        /* \"#utility.yul\":26526:26674   */\n      tag_452\n      jump\t// in\n    tag_725:\n        /* \"#utility.yul\":26519:26674   */\n      swap2\n      pop\n        /* \"#utility.yul\":26691:26694   */\n      dup2\n        /* \"#utility.yul\":26684:26694   */\n      swap1\n      pop\n        /* \"#utility.yul\":26319:26700   */\n      swap2\n      swap1\n      pop\n      jump\t// out\n        /* \"#utility.yul\":26706:26861   */\n    tag_453:\n        /* \"#utility.yul\":26846:26853   */\n      0x41646d696e000000000000000000000000000000000000000000000000000000\n        /* \"#utility.yul\":26842:26843   */\n      0x00\n        /* \"#utility.yul\":26834:26840   */\n      dup3\n        /* \"#utility.yul\":26830:26844   */\n      add\n        /* \"#utility.yul\":26823:26854   */\n      mstore\n        /* \"#utility.yul\":26706:26861   */\n      pop\n      jump\t// out\n        /* \"#utility.yul\":26867:27267   */\n    tag_454:\n        /* \"#utility.yul\":27027:27030   */\n      0x00\n        /* \"#utility.yul\":27048:27132   */\n      tag_728\n        /* \"#utility.yul\":27130:27131   */\n      0x05\n        /* \"#utility.yul\":27125:27128   */\n      dup4\n        /* \"#utility.yul\":27048:27132   */\n      tag_445\n      jump\t// in\n    tag_728:\n        /* \"#utility.yul\":27041:27132   */\n      swap2\n      pop\n        /* \"#utility.yul\":27141:27234   */\n      tag_729\n        /* \"#utility.yul\":27230:27233   */\n      dup3\n        /* \"#utility.yul\":27141:27234   */\n      tag_453\n      jump\t// in\n    tag_729:\n        /* \"#utility.yul\":27259:27260   */\n      0x05\n        /* \"#utility.yul\":27254:27257   */\n      dup3\n        /* \"#utility.yul\":27250:27261   */\n      add\n        /* \"#utility.yul\":27243:27261   */\n      swap1\n      pop\n        /* \"#utility.yul\":26867:27267   */\n      swap2\n      swap1\n      pop\n      jump\t// out\n        /* \"#utility.yul\":27273:27654   */\n    tag_171:\n        /* \"#utility.yul\":27458:27461   */\n      0x00\n        /* \"#utility.yul\":27480:27628   */\n      tag_731\n        /* \"#utility.yul\":27624:27627   */\n      dup3\n        /* \"#utility.yul\":27480:27628   */\n      tag_454\n      jump\t// in\n    tag_731:\n        /* \"#utility.yul\":27473:27628   */\n      swap2\n      pop\n        /* \"#utility.yul\":27645:27648   */\n      dup2\n        /* \"#utility.yul\":27638:27648   */\n      swap1\n      pop\n        /* \"#utility.yul\":27273:27654   */\n      swap2\n      swap1\n      pop\n      jump\t// out\n        /* \"#utility.yul\":27660:28025   */\n    tag_455:\n        /* \"#utility.yul\":27802:27805   */\n      0x00\n        /* \"#utility.yul\":27823:27889   */\n      tag_733\n        /* \"#utility.yul\":27887:27888   */\n      0x08\n        /* \"#utility.yul\":27882:27885   */\n      dup4\n        /* \"#utility.yul\":27823:27889   */\n      tag_414\n      jump\t// in\n    tag_733:\n        /* \"#utility.yul\":27816:27889   */\n      swap2\n      pop\n        /* \"#utility.yul\":27898:27991   */\n      tag_734\n        /* \"#utility.yul\":27987:27990   */\n      dup3\n        /* \"#utility.yul\":27898:27991   */\n      tag_451\n      jump\t// in\n    tag_734:\n        /* \"#utility.yul\":28016:28018   */\n      0x20\n        /* \"#utility.yul\":28011:28014   */\n      dup3\n        /* \"#utility.yul\":28007:28019   */\n      add\n        /* \"#utility.yul\":28000:28019   */\n      swap1\n      pop\n        /* \"#utility.yul\":27660:28025   */\n      swap2\n      swap1\n      pop\n      jump\t// out\n        /* \"#utility.yul\":28031:28450   */\n    tag_178:\n        /* \"#utility.yul\":28197:28201   */\n      0x00\n        /* \"#utility.yul\":28235:28237   */\n      0x20\n        /* \"#utility.yul\":28224:28233   */\n      dup3\n        /* \"#utility.yul\":28220:28238   */\n      add\n        /* \"#utility.yul\":28212:28238   */\n      swap1\n      pop\n        /* \"#utility.yul\":28284:28293   */\n      dup2\n        /* \"#utility.yul\":28278:28282   */\n      dup2\n        /* \"#utility.yul\":28274:28294   */\n      sub\n        /* \"#utility.yul\":28270:28271   */\n      0x00\n        /* \"#utility.yul\":28259:28268   */\n      dup4\n        /* \"#utility.yul\":28255:28272   */\n      add\n        /* \"#utility.yul\":28248:28295   */\n      mstore\n        /* \"#utility.yul\":28312:28443   */\n      tag_736\n        /* \"#utility.yul\":28438:28442   */\n      dup2\n        /* \"#utility.yul\":28312:28443   */\n      tag_455\n      jump\t// in\n    tag_736:\n        /* \"#utility.yul\":28304:28443   */\n      swap1\n      pop\n        /* \"#utility.yul\":28031:28450   */\n      swap2\n      swap1\n      pop\n      jump\t// out\n        /* \"#utility.yul\":28456:28626   */\n    tag_456:\n        /* \"#utility.yul\":28596:28618   */\n      0x426174636820646f6573206e6f74206578697374000000000000000000000000\n        /* \"#utility.yul\":28592:28593   */\n      0x00\n        /* \"#utility.yul\":28584:28590   */\n      dup3\n        /* \"#utility.yul\":28580:28594   */\n      add\n        /* \"#utility.yul\":28573:28619   */\n      mstore\n        /* \"#utility.yul\":28456:28626   */\n      pop\n      jump\t// out\n        /* \"#utility.yul\":28632:28998   */\n    tag_457:\n        /* \"#utility.yul\":28774:28777   */\n      0x00\n        /* \"#utility.yul\":28795:28862   */\n      tag_739\n        /* \"#utility.yul\":28859:28861   */\n      0x14\n        /* \"#utility.yul\":28854:28857   */\n      dup4\n        /* \"#utility.yul\":28795:28862   */\n      tag_414\n      jump\t// in\n    tag_739:\n        /* \"#utility.yul\":28788:28862   */\n      swap2\n      pop\n        /* \"#utility.yul\":28871:28964   */\n      tag_740\n        /* \"#utility.yul\":28960:28963   */\n      dup3\n        /* \"#utility.yul\":28871:28964   */\n      tag_456\n      jump\t// in\n    tag_740:\n        /* \"#utility.yul\":28989:28991   */\n      0x20\n        /* \"#utility.yul\":28984:28987   */\n      dup3\n        /* \"#utility.yul\":28980:28992   */\n      add\n        /* \"#utility.yul\":28973:28992   */\n      swap1\n      pop\n        /* \"#utility.yul\":28632:28998   */\n      swap2\n      swap1\n      pop\n      jump\t// out\n        /* \"#utility.yul\":29004:29423   */\n    tag_183:\n        /* \"#utility.yul\":29170:29174   */\n      0x00\n        /* \"#utility.yul\":29208:29210   */\n      0x20\n        /* \"#utility.yul\":29197:29206   */\n      dup3\n        /* \"#utility.yul\":29193:29211   */\n      add\n        /* \"#utility.yul\":29185:29211   */\n      swap1\n      pop\n        /* \"#utility.yul\":29257:29266   */\n      dup2\n        /* \"#utility.yul\":29251:29255   */\n      dup2\n        /* \"#utility.yul\":29247:29267   */\n      sub\n        /* \"#utility.yul\":29243:29244   */\n      0x00\n        /* \"#utility.yul\":29232:29241   */\n      dup4\n        /* \"#utility.yul\":29228:29245   */\n      add\n        /* \"#utility.yul\":29221:29268   */\n      mstore\n        /* \"#utility.yul\":29285:29416   */\n      tag_742\n        /* \"#utility.yul\":29411:29415   */\n      dup2\n        /* \"#utility.yul\":29285:29416   */\n      tag_457\n      jump\t// in\n    tag_742:\n        /* \"#utility.yul\":29277:29416   */\n      swap1\n      pop\n        /* \"#utility.yul\":29004:29423   */\n      swap2\n      swap1\n      pop\n      jump\t// out\n        /* \"#utility.yul\":29429:29610   */\n    tag_458:\n        /* \"#utility.yul\":29569:29602   */\n      0x4e6f7420617574686f72697a656420746f207570646174652073746174757300\n        /* \"#utility.yul\":29565:29566   */\n      0x00\n        /* \"#utility.yul\":29557:29563   */\n      dup3\n        /* \"#utility.yul\":29553:29567   */\n      add\n        /* \"#utility.yul\":29546:29603   */\n      mstore\n        /* \"#utility.yul\":29429:29610   */\n      pop\n      jump\t// out\n        /* \"#utility.yul\":29616:29982   */\n    tag_459:\n        /* \"#utility.yul\":29758:29761   */\n      0x00\n        /* \"#utility.yul\":29779:29846   */\n      tag_745\n        /* \"#utility.yul\":29843:29845   */\n      0x1f\n        /* \"#utility.yul\":29838:29841   */\n      dup4\n        /* \"#utility.yul\":29779:29846   */\n      tag_414\n      jump\t// in\n    tag_745:\n        /* \"#utility.yul\":29772:29846   */\n      swap2\n      pop\n        /* \"#utility.yul\":29855:29948   */\n      tag_746\n        /* \"#utility.yul\":29944:29947   */\n      dup3\n        /* \"#utility.yul\":29855:29948   */\n      tag_458\n      jump\t// in\n    tag_746:\n        /* \"#utility.yul\":29973:29975   */\n      0x20\n        /* \"#utility.yul\":29968:29971   */\n      dup3\n        /* \"#utility.yul\":29964:29976   */\n      add\n        /* \"#utility.yul\":29957:29976   */\n      swap1\n      pop\n        /* \"#utility.yul\":29616:29982   */\n      swap2\n      swap1\n      pop\n      jump\t// out\n        /* \"#utility.yul\":29988:30407   */\n    tag_189:\n        /* \"#utility.yul\":30154:30158   */\n      0x00\n        /* \"#utility.yul\":30192:30194   */\n      0x20\n        /* \"#utility.yul\":30181:30190   */\n      dup3\n        /* \"#utility.yul\":30177:30195   */\n      add\n        /* \"#utility.yul\":30169:30195   */\n      swap1\n      pop\n        /* \"#utility.yul\":30241:30250   */\n      dup2\n        /* \"#utility.yul\":30235:30239   */\n      dup2\n        /* \"#utility.yul\":30231:30251   */\n      sub\n        /* \"#utility.yul\":30227:30228   */\n      0x00\n        /* \"#utility.yul\":30216:30225   */\n      dup4\n        /* \"#utility.yul\":30212:30229   */\n      add\n        /* \"#utility.yul\":30205:30252   */\n      mstore\n        /* \"#utility.yul\":30269:30400   */\n      tag_748\n        /* \"#utility.yul\":30395:30399   */\n      dup2\n        /* \"#utility.yul\":30269:30400   */\n      tag_459\n      jump\t// in\n    tag_748:\n        /* \"#utility.yul\":30261:30400   */\n      swap1\n      pop\n        /* \"#utility.yul\":29988:30407   */\n      swap2\n      swap1\n      pop\n      jump\t// out\n        /* \"#utility.yul\":30413:30585   */\n    tag_460:\n        /* \"#utility.yul\":30553:30577   */\n      0x5374617475732063616e6e6f7420626520656d70747900000000000000000000\n        /* \"#utility.yul\":30549:30550   */\n      0x00\n        /* \"#utility.yul\":30541:30547   */\n      dup3\n        /* \"#utility.yul\":30537:30551   */\n      add\n        /* \"#utility.yul\":30530:30578   */\n      mstore\n        /* \"#utility.yul\":30413:30585   */\n      pop\n      jump\t// out\n        /* \"#utility.yul\":30591:30957   */\n    tag_461:\n        /* \"#utility.yul\":30733:30736   */\n      0x00\n        /* \"#utility.yul\":30754:30821   */\n      tag_751\n        /* \"#utility.yul\":30818:30820   */\n      0x16\n        /* \"#utility.yul\":30813:30816   */\n      dup4\n        /* \"#utility.yul\":30754:30821   */\n      tag_414\n      jump\t// in\n    tag_751:\n        /* \"#utility.yul\":30747:30821   */\n      swap2\n      pop\n        /* \"#utility.yul\":30830:30923   */\n      tag_752\n        /* \"#utility.yul\":30919:30922   */\n      dup3\n        /* \"#utility.yul\":30830:30923   */\n      tag_460\n      jump\t// in\n    tag_752:\n        /* \"#utility.yul\":30948:30950   */\n      0x20\n        /* \"#utility.yul\":30943:30946   */\n      dup3\n        /* \"#utility.yul\":30939:30951   */\n      add\n        /* \"#utility.yul\":30932:30951   */\n      swap1\n      pop\n        /* \"#utility.yul\":30591:30957   */\n      swap2\n      swap1\n      pop\n      jump\t// out\n        /* \"#utility.yul\":30963:31382   */\n    tag_192:\n        /* \"#utility.yul\":31129:31133   */\n      0x00\n        /* \"#utility.yul\":31167:31169   */\n      0x20\n        /* \"#utility.yul\":31156:31165   */\n      dup3\n        /* \"#utility.yul\":31152:31170   */\n      add\n        /* \"#utility.yul\":31144:31170   */\n      swap1\n      pop\n        /* \"#utility.yul\":31216:31225   */\n      dup2\n        /* \"#utility.yul\":31210:31214   */\n      dup2\n        /* \"#utility.yul\":31206:31226   */\n      sub\n        /* \"#utility.yul\":31202:31203   */\n      0x00\n        /* \"#utility.yul\":31191:31200   */\n      dup4\n        /* \"#utility.yul\":31187:31204   */\n      add\n        /* \"#utility.yul\":31180:31227   */\n      mstore\n        /* \"#utility.yul\":31244:31375   */\n      tag_754\n        /* \"#utility.yul\":31370:31374   */\n      dup2\n        /* \"#utility.yul\":31244:31375   */\n      tag_461\n      jump\t// in\n    tag_754:\n        /* \"#utility.yul\":31236:31375   */\n      swap1\n      pop\n        /* \"#utility.yul\":30963:31382   */\n      swap2\n      swap1\n      pop\n      jump\t// out\n        /* \"#utility.yul\":31388:31568   */\n    tag_462:\n        /* \"#utility.yul\":31436:31513   */\n      0x4e487b7100000000000000000000000000000000000000000000000000000000\n        /* \"#utility.yul\":31433:31434   */\n      0x00\n        /* \"#utility.yul\":31426:31514   */\n      mstore\n        /* \"#utility.yul\":31533:31537   */\n      0x22\n        /* \"#utility.yul\":31530:31531   */\n      0x04\n        /* \"#utility.yul\":31523:31538   */\n      mstore\n        /* \"#utility.yul\":31557:31561   */\n      0x24\n        /* \"#utility.yul\":31554:31555   */\n      0x00\n        /* \"#utility.yul\":31547:31562   */\n      revert\n        /* \"#utility.yul\":31574:31894   */\n    tag_214:\n        /* \"#utility.yul\":31618:31624   */\n      0x00\n        /* \"#utility.yul\":31655:31656   */\n      0x02\n        /* \"#utility.yul\":31649:31653   */\n      dup3\n        /* \"#utility.yul\":31645:31657   */\n      div\n        /* \"#utility.yul\":31635:31657   */\n      swap1\n      pop\n        /* \"#utility.yul\":31702:31703   */\n      0x01\n        /* \"#utility.yul\":31696:31700   */\n      dup3\n        /* \"#utility.yul\":31692:31704   */\n      and\n        /* \"#utility.yul\":31723:31741   */\n      dup1\n        /* \"#utility.yul\":31713:31794   */\n      tag_757\n      jumpi\n        /* \"#utility.yul\":31779:31783   */\n      0x7f\n        /* \"#utility.yul\":31771:31777   */\n      dup3\n        /* \"#utility.yul\":31767:31784   */\n      and\n        /* \"#utility.yul\":31757:31784   */\n      swap2\n      pop\n        /* \"#utility.yul\":31713:31794   */\n    tag_757:\n        /* \"#utility.yul\":31841:31843   */\n      0x20\n        /* \"#utility.yul\":31833:31839   */\n      dup3\n        /* \"#utility.yul\":31830:31844   */\n      lt\n        /* \"#utility.yul\":31810:31828   */\n      dup2\n        /* \"#utility.yul\":31807:31845   */\n      sub\n        /* \"#utility.yul\":31804:31888   */\n      tag_758\n      jumpi\n        /* \"#utility.yul\":31860:31878   */\n      tag_759\n      tag_462\n      jump\t// in\n    tag_759:\n        /* \"#utility.yul\":31804:31888   */\n    tag_758:\n        /* \"#utility.yul\":31625:31894   */\n      pop\n        /* \"#utility.yul\":31574:31894   */\n      swap2\n      swap1\n      pop\n      jump\t// out\n        /* \"#utility.yul\":31900:32041   */\n    tag_463:\n        /* \"#utility.yul\":31949:31953   */\n      0x00\n        /* \"#utility.yul\":31972:31975   */\n      dup2\n        /* \"#utility.yul\":31964:31975   */\n      swap1\n      pop\n        /* \"#utility.yul\":31995:31998   */\n      dup2\n        /* \"#utility.yul\":31992:31993   */\n      0x00\n        /* \"#utility.yul\":31985:31999   */\n      mstore\n        /* \"#utility.yul\":32029:32033   */\n      0x20\n        /* \"#utility.yul\":32026:32027   */\n      0x00\n        /* \"#utility.yul\":32016:32034   */\n      keccak256\n        /* \"#utility.yul\":32008:32034   */\n      swap1\n      pop\n        /* \"#utility.yul\":31900:32041   */\n      swap2\n      swap1\n      pop\n      jump\t// out\n        /* \"#utility.yul\":32047:32140   */\n    tag_464:\n        /* \"#utility.yul\":32084:32090   */\n      0x00\n        /* \"#utility.yul\":32131:32133   */\n      0x20\n        /* \"#utility.yul\":32126:32128   */\n      0x1f\n        /* \"#utility.yul\":32119:32124   */\n      dup4\n        /* \"#utility.yul\":32115:32129   */\n      add\n        /* \"#utility.yul\":32111:32134   */\n      div\n        /* \"#utility.yul\":32101:32134   */\n      swap1\n      pop\n        /* \"#utility.yul\":32047:32140   */\n      swap2\n      swap1\n      pop\n      jump\t// out\n        /* \"#utility.yul\":32146:32253   */\n    tag_465:\n        /* \"#utility.yul\":32190:32198   */\n      0x00\n        /* \"#utility.yul\":32240:32245   */\n      dup3\n        /* \"#utility.yul\":32234:32238   */\n      dup3\n        /* \"#utility.yul\":32230:32246   */\n      shl\n        /* \"#utility.yul\":32209:32246   */\n      swap1\n      pop\n        /* \"#utility.yul\":32146:32253   */\n      swap3\n      swap2\n      pop\n      pop\n      jump\t// out\n        /* \"#utility.yul\":32259:32652   */\n    tag_466:\n        /* \"#utility.yul\":32328:32334   */\n      0x00\n        /* \"#utility.yul\":32378:32379   */\n      0x08\n        /* \"#utility.yul\":32366:32376   */\n      dup4\n        /* \"#utility.yul\":32362:32380   */\n      mul\n        /* \"#utility.yul\":32401:32498   */\n      tag_764\n        /* \"#utility.yul\":32431:32497   */\n      0xffffffffffffffffffffffffffffffffffffffffffffffffffffffffffffffff\n        /* \"#utility.yul\":32420:32429   */\n      dup3\n        /* \"#utility.yul\":32401:32498   */\n      tag_465\n      jump\t// in\n    tag_764:\n        /* \"#utility.yul\":32519:32558   */\n      tag_765\n        /* \"#utility.yul\":32549:32557   */\n      dup7\n        /* \"#utility.yul\":32538:32547   */\n      dup4\n        /* \"#utility.yul\":32519:32558   */\n      tag_465\n      jump\t// in\n    tag_765:\n        /* \"#utility.yul\":32507:32558   */\n      swap6\n      pop\n        /* \"#utility.yul\":32591:32595   */\n      dup1\n        /* \"#utility.yul\":32587:32596   */\n      not\n        /* \"#utility.yul\":32580:32585   */\n      dup5\n        /* \"#utility.yul\":32576:32597   */\n      and\n        /* \"#utility.yul\":32567:32597   */\n      swap4\n      pop\n        /* \"#utility.yul\":32640:32644   */\n      dup1\n        /* \"#utility.yul\":32630:32638   */\n      dup7\n        /* \"#utility.yul\":32626:32645   */\n      and\n        /* \"#utility.yul\":32619:32624   */\n      dup5\n        /* \"#utility.yul\":32616:32646   */\n      or\n        /* \"#utility.yul\":32606:32646   */\n      swap3\n      pop\n        /* \"#utility.yul\":32335:32652   */\n      pop\n      pop\n        /* \"#utility.yul\":32259:32652   */\n      swap4\n      swap3\n      pop\n      pop\n      pop\n      jump\t// out\n        /* \"#utility.yul\":32658:32718   */\n    tag_467:\n        /* \"#utility.yul\":32686:32689   */\n      0x00\n        /* \"#utility.yul\":32707:32712   */\n      dup2\n        /* \"#utility.yul\":32700:32712   */\n      swap1\n      pop\n        /* \"#utility.yul\":32658:32718   */\n      swap2\n      swap1\n      pop\n      jump\t// out\n        /* \"#utility.yul\":32724:32866   */\n    tag_468:\n        /* \"#utility.yul\":32774:32783   */\n      0x00\n        /* \"#utility.yul\":32807:32860   */\n      tag_768\n        /* \"#utility.yul\":32825:32859   */\n      tag_769\n        /* \"#utility.yul\":32834:32858   */\n      tag_770\n        /* \"#utility.yul\":32852:32857   */\n      dup5\n        /* \"#utility.yul\":32834:32858   */\n      tag_418\n      jump\t// in\n    tag_770:\n        /* \"#utility.yul\":32825:32859   */\n      tag_467\n      jump\t// in\n    tag_769:\n        /* \"#utility.yul\":32807:32860   */\n      tag_418\n      jump\t// in\n    tag_768:\n        /* \"#utility.yul\":32794:32860   */\n      swap1\n      pop\n        /* \"#utility.yul\":32724:32866   */\n      swap2\n      swap1\n      pop\n      jump\t// out\n        /* \"#utility.yul\":32872:32947   */\n    tag_469:\n        /* \"#utility.yul\":32915:32918   */\n      0x00\n        /* \"#utility.yul\":32936:32941   */\n      dup2\n        /* \"#utility.yul\":32929:32941   */\n      swap1\n      pop\n        /* \"#utility.yul\":32872:32947   */\n      swap2\n      swap1\n      pop\n      jump\t// out\n        /* \"#utility.yul\":32953:33222   */\n    tag_470:\n        /* \"#utility.yul\":33063:33102   */\n      tag_773\n        /* \"#utility.yul\":33094:33101   */\n      dup4\n        /* \"#utility.yul\":33063:33102   */\n      tag_468\n      jump\t// in\n    tag_773:\n        /* \"#utility.yul\":33124:33215   */\n      tag_774\n        /* \"#utility.yul\":33173:33214   */\n      tag_775\n        /* \"#utility.yul\":33197:33213   */\n      dup3\n        /* \"#utility.yul\":33173:33214   */\n      tag_469\n      jump\t// in\n    tag_775:\n        /* \"#utility.yul\":33165:33171   */\n      dup5\n        /* \"#utility.yul\":33158:33162   */\n      dup5\n        /* \"#utility.yul\":33152:33163   */\n      sload\n        /* \"#utility.yul\":33124:33215   */\n      tag_466\n      jump\t// in\n    tag_774:\n        /* \"#utility.yul\":33118:33122   */\n      dup3\n        /* \"#utility.yul\":33111:33216   */\n      sstore\n        /* \"#utility.yul\":33029:33222   */\n      pop\n        /* \"#utility.yul\":32953:33222   */\n      pop\n      pop\n      pop\n      jump\t// out\n        /* \"#utility.yul\":33228:33301   */\n    tag_471:\n        /* \"#utility.yul\":33273:33276   */\n      0x00\n        /* \"#utility.yul\":33294:33295   */\n      0x00\n        /* \"#utility.yul\":33287:33295   */\n      swap1\n      pop\n        /* \"#utility.yul\":33228:33301   */\n      swap1\n      jump\t// out\n        /* \"#utility.yul\":33307:33496   */\n    tag_472:\n        /* \"#utility.yul\":33384:33416   */\n      tag_778\n      tag_471\n      jump\t// in\n    tag_778:\n        /* \"#utility.yul\":33425:33490   */\n      tag_779\n        /* \"#utility.yul\":33483:33489   */\n      dup2\n        /* \"#utility.yul\":33475:33481   */\n      dup5\n        /* \"#utility.yul\":33469:33473   */\n      dup5\n        /* \"#utility.yul\":33425:33490   */\n      tag_470\n      jump\t// in\n    tag_779:\n        /* \"#utility.yul\":33360:33496   */\n      pop\n        /* \"#utility.yul\":33307:33496   */\n      pop\n      pop\n      jump\t// out\n        /* \"#utility.yul\":33502:33688   */\n    tag_473:\n        /* \"#utility.yul\":33562:33682   */\n    tag_781:\n        /* \"#utility.yul\":33579:33582   */\n      dup2\n        /* \"#utility.yul\":33572:33577   */\n      dup2\n        /* \"#utility.yul\":33569:33583   */\n      lt\n        /* \"#utility.yul\":33562:33682   */\n      iszero\n      tag_783\n      jumpi\n        /* \"#utility.yul\":33633:33672   */\n      tag_784\n        /* \"#utility.yul\":33670:33671   */\n      0x00\n        /* \"#utility.yul\":33663:33668   */\n      dup3\n        /* \"#utility.yul\":33633:33672   */\n      tag_472\n      jump\t// in\n    tag_784:\n        /* \"#utility.yul\":33606:33607   */\n      0x01\n        /* \"#utility.yul\":33599:33604   */\n      dup2\n        /* \"#utility.yul\":33595:33608   */\n      add\n        /* \"#utility.yul\":33586:33608   */\n      swap1\n      pop\n        /* \"#utility.yul\":33562:33682   */\n      jump(tag_781)\n    tag_783:\n        /* \"#utility.yul\":33502:33688   */\n      pop\n      pop\n      jump\t// out\n        /* \"#utility.yul\":33694:34237   */\n    tag_474:\n        /* \"#utility.yul\":33795:33797   */\n      0x1f\n        /* \"#utility.yul\":33790:33793   */\n      dup3\n        /* \"#utility.yul\":33787:33798   */\n      gt\n        /* \"#utility.yul\":33784:34230   */\n      iszero\n      tag_786\n      jumpi\n        /* \"#utility.yul\":33829:33867   */\n      tag_787\n        /* \"#utility.yul\":33861:33866   */\n      dup2\n        /* \"#utility.yul\":33829:33867   */\n      tag_463\n      jump\t// in\n    tag_787:\n        /* \"#utility.yul\":33913:33942   */\n      tag_788\n        /* \"#utility.yul\":33931:33941   */\n      dup5\n        /* \"#utility.yul\":33913:33942   */\n      tag_464\n      jump\t// in\n    tag_788:\n        /* \"#utility.yul\":33903:33911   */\n      dup2\n        /* \"#utility.yul\":33899:33943   */\n      add\n        /* \"#utility.yul\":34096:34098   */\n      0x20\n        /* \"#utility.yul\":34084:34094   */\n      dup6\n        /* \"#utility.yul\":34081:34099   */\n      lt\n        /* \"#utility.yul\":34078:34127   */\n      iszero\n      tag_789\n      jumpi\n        /* \"#utility.yul\":34117:34125   */\n      dup2\n        /* \"#utility.yul\":34102:34125   */\n      swap1\n      pop\n        /* \"#utility.yul\":34078:34127   */\n    tag_789:\n        /* \"#utility.yul\":34140:34220   */\n      tag_790\n        /* \"#utility.yul\":34196:34218   */\n      tag_791\n        /* \"#utility.yul\":34214:34217   */\n      dup6\n        /* \"#utility.yul\":34196:34218   */\n      tag_464\n      jump\t// in\n    tag_791:\n        /* \"#utility.yul\":34186:34194   */\n      dup4\n        /* \"#utility.yul\":34182:34219   */\n      add\n        /* \"#utility.yul\":34169:34180   */\n      dup3\n        /* \"#utility.yul\":34140:34220   */\n      tag_473\n      jump\t// in\n    tag_790:\n        /* \"#utility.yul\":33799:34230   */\n      pop\n      pop\n        /* \"#utility.yul\":33784:34230   */\n    tag_786:\n        /* \"#utility.yul\":33694:34237   */\n      pop\n      pop\n      pop\n      jump\t// out\n        /* \"#utility.yul\":34243:34360   */\n    tag_475:\n        /* \"#utility.yul\":34297:34305   */\n      0x00\n        /* \"#utility.yul\":34347:34352   */\n      dup3\n        /* \"#utility.yul\":34341:34345   */\n      dup3\n        /* \"#utility.yul\":34337:34353   */\n      shr\n        /* \"#utility.yul\":34316:34353   */\n      swap1\n      pop\n        /* \"#utility.yul\":34243:34360   */\n      swap3\n      swap2\n      pop\n      pop\n      jump\t// out\n        /* \"#utility.yul\":34366:34535   */\n    tag_476:\n        /* \"#utility.yul\":34410:34416   */\n      0x00\n        /* \"#utility.yul\":34443:34494   */\n      tag_794\n        /* \"#utility.yul\":34491:34492   */\n      0x00\n        /* \"#utility.yul\":34487:34493   */\n      not\n        /* \"#utility.yul\":34479:34484   */\n      dup5\n        /* \"#utility.yul\":34476:34477   */\n      0x08\n        /* \"#utility.yul\":34472:34485   */\n      mul\n        /* \"#utility.yul\":34443:34494   */\n      tag_475\n      jump\t// in\n    tag_794:\n        /* \"#utility.yul\":34439:34495   */\n      not\n        /* \"#utility.yul\":34524:34528   */\n      dup1\n        /* \"#utility.yul\":34518:34522   */\n      dup4\n        /* \"#utility.yul\":34514:34529   */\n      and\n        /* \"#utility.yul\":34504:34529   */\n      swap2\n      pop\n        /* \"#utility.yul\":34417:34535   */\n      pop\n        /* \"#utility.yul\":34366:34535   */\n      swap3\n      swap2\n      pop\n      pop\n      jump\t// out\n        /* \"#utility.yul\":34540:34835   */\n    tag_477:\n        /* \"#utility.yul\":34616:34620   */\n      0x00\n        /* \"#utility.yul\":34762:34791   */\n      tag_796\n        /* \"#utility.yul\":34787:34790   */\n      dup4\n        /* \"#utility.yul\":34781:34785   */\n      dup4\n        /* \"#utility.yul\":34762:34791   */\n      tag_476\n      jump\t// in\n    tag_796:\n        /* \"#utility.yul\":34754:34791   */\n      swap2\n      pop\n        /* \"#utility.yul\":34824:34827   */\n      dup3\n        /* \"#utility.yul\":34821:34822   */\n      0x02\n        /* \"#utility.yul\":34817:34828   */\n      mul\n        /* \"#utility.yul\":34811:34815   */\n      dup3\n        /* \"#utility.yul\":34808:34829   */\n      or\n        /* \"#utility.yul\":34800:34829   */\n      swap1\n      pop\n        /* \"#utility.yul\":34540:34835   */\n      swap3\n      swap2\n      pop\n      pop\n      jump\t// out\n        /* \"#utility.yul\":34840:36235   */\n    tag_195:\n        /* \"#utility.yul\":34957:34994   */\n      tag_798\n        /* \"#utility.yul\":34990:34993   */\n      dup3\n        /* \"#utility.yul\":34957:34994   */\n      tag_413\n      jump\t// in\n    tag_798:\n        /* \"#utility.yul\":35059:35077   */\n      0xffffffffffffffff\n        /* \"#utility.yul\":35051:35057   */\n      dup2\n        /* \"#utility.yul\":35048:35078   */\n      gt\n        /* \"#utility.yul\":35045:35101   */\n      iszero\n      tag_799\n      jumpi\n        /* \"#utility.yul\":35081:35099   */\n      tag_800\n      tag_404\n      jump\t// in\n    tag_800:\n        /* \"#utility.yul\":35045:35101   */\n    tag_799:\n        /* \"#utility.yul\":35125:35163   */\n      tag_801\n        /* \"#utility.yul\":35157:35161   */\n      dup3\n        /* \"#utility.yul\":35151:35162   */\n      sload\n        /* \"#utility.yul\":35125:35163   */\n      tag_214\n      jump\t// in\n    tag_801:\n        /* \"#utility.yul\":35210:35277   */\n      tag_802\n        /* \"#utility.yul\":35270:35276   */\n      dup3\n        /* \"#utility.yul\":35262:35268   */\n      dup3\n        /* \"#utility.yul\":35256:35260   */\n      dup6\n        /* \"#utility.yul\":35210:35277   */\n      tag_474\n      jump\t// in\n    tag_802:\n        /* \"#utility.yul\":35304:35305   */\n      0x00\n        /* \"#utility.yul\":35328:35332   */\n      0x20\n        /* \"#utility.yul\":35315:35332   */\n      swap1\n      pop\n        /* \"#utility.yul\":35360:35362   */\n      0x1f\n        /* \"#utility.yul\":35352:35358   */\n      dup4\n        /* \"#utility.yul\":35349:35363   */\n      gt\n        /* \"#utility.yul\":35377:35378   */\n      0x01\n        /* \"#utility.yul\":35372:35990   */\n      dup2\n      eq\n      tag_804\n      jumpi\n        /* \"#utility.yul\":36034:36035   */\n      0x00\n        /* \"#utility.yul\":36051:36057   */\n      dup5\n        /* \"#utility.yul\":36048:36125   */\n      iszero\n      tag_805\n      jumpi\n        /* \"#utility.yul\":36100:36109   */\n      dup3\n        /* \"#utility.yul\":36095:36098   */\n      dup8\n        /* \"#utility.yul\":36091:36110   */\n      add\n        /* \"#utility.yul\":36085:36111   */\n      mload\n        /* \"#utility.yul\":36076:36111   */\n      swap1\n      pop\n        /* \"#utility.yul\":36048:36125   */\n    tag_805:\n        /* \"#utility.yul\":36151:36218   */\n      tag_806\n        /* \"#utility.yul\":36211:36217   */\n      dup6\n        /* \"#utility.yul\":36204:36209   */\n      dup3\n        /* \"#utility.yul\":36151:36218   */\n      tag_477\n      jump\t// in\n    tag_806:\n        /* \"#utility.yul\":36145:36149   */\n      dup7\n        /* \"#utility.yul\":36138:36219   */\n      sstore\n        /* \"#utility.yul\":36007:36229   */\n      pop\n        /* \"#utility.yul\":35342:36229   */\n      jump(tag_803)\n        /* \"#utility.yul\":35372:35990   */\n    tag_804:\n        /* \"#utility.yul\":35424:35428   */\n      0x1f\n        /* \"#utility.yul\":35420:35429   */\n      not\n        /* \"#utility.yul\":35412:35418   */\n      dup5\n        /* \"#utility.yul\":35408:35430   */\n      and\n        /* \"#utility.yul\":35458:35495   */\n      tag_807\n        /* \"#utility.yul\":35490:35494   */\n      dup7\n        /* \"#utility.yul\":35458:35495   */\n      tag_463\n      jump\t// in\n    tag_807:\n        /* \"#utility.yul\":35517:35518   */\n      0x00\n        /* \"#utility.yul\":35531:35739   */\n    tag_808:\n        /* \"#utility.yul\":35545:35552   */\n      dup3\n        /* \"#utility.yul\":35542:35543   */\n      dup2\n        /* \"#utility.yul\":35539:35553   */\n      lt\n        /* \"#utility.yul\":35531:35739   */\n      iszero\n      tag_810\n      jumpi\n        /* \"#utility.yul\":35624:35633   */\n      dup5\n        /* \"#utility.yul\":35619:35622   */\n      dup10\n        /* \"#utility.yul\":35615:35634   */\n      add\n        /* \"#utility.yul\":35609:35635   */\n      mload\n        /* \"#utility.yul\":35601:35607   */\n      dup3\n        /* \"#utility.yul\":35594:35636   */\n      sstore\n        /* \"#utility.yul\":35675:35676   */\n      0x01\n        /* \"#utility.yul\":35667:35673   */\n      dup3\n        /* \"#utility.yul\":35663:35677   */\n      add\n        /* \"#utility.yul\":35653:35677   */\n      swap2\n      pop\n        /* \"#utility.yul\":35722:35724   */\n      0x20\n        /* \"#utility.yul\":35711:35720   */\n      dup6\n        /* \"#utility.yul\":35707:35725   */\n      add\n        /* \"#utility.yul\":35694:35725   */\n      swap5\n      pop\n        /* \"#utility.yul\":35568:35572   */\n      0x20\n        /* \"#utility.yul\":35565:35566   */\n      dup2\n        /* \"#utility.yul\":35561:35573   */\n      add\n        /* \"#utility.yul\":35556:35573   */\n      swap1\n      pop\n        /* \"#utility.yul\":35531:35739   */\n      jump(tag_808)\n    tag_810:\n        /* \"#utility.yul\":35767:35773   */\n      dup7\n        /* \"#utility.yul\":35758:35765   */\n      dup4\n        /* \"#utility.yul\":35755:35774   */\n      lt\n        /* \"#utility.yul\":35752:35931   */\n      iszero\n      tag_811\n      jumpi\n        /* \"#utility.yul\":35825:35834   */\n      dup5\n        /* \"#utility.yul\":35820:35823   */\n      dup10\n        /* \"#utility.yul\":35816:35835   */\n      add\n        /* \"#utility.yul\":35810:35836   */\n      mload\n        /* \"#utility.yul\":35868:35916   */\n      tag_812\n        /* \"#utility.yul\":35910:35914   */\n      0x1f\n        /* \"#utility.yul\":35902:35908   */\n      dup10\n        /* \"#utility.yul\":35898:35915   */\n      and\n        /* \"#utility.yul\":35887:35896   */\n      dup3\n        /* \"#utility.yul\":35868:35916   */\n      tag_476\n      jump\t// in\n    tag_812:\n        /* \"#utility.yul\":35860:35866   */\n      dup4\n        /* \"#utility.yul\":35853:35917   */\n      sstore\n        /* \"#utility.yul\":35775:35931   */\n      pop\n        /* \"#utility.yul\":35752:35931   */\n    tag_811:\n        /* \"#utility.yul\":35977:35978   */\n      0x01\n        /* \"#utility.yul\":35973:35974   */\n      0x02\n        /* \"#utility.yul\":35965:35971   */\n      dup9\n        /* \"#utility.yul\":35961:35975   */\n      mul\n        /* \"#utility.yul\":35957:35979   */\n      add\n        /* \"#utility.yul\":35951:35955   */\n      dup9\n        /* \"#utility.yul\":35944:35980   */\n      sstore\n        /* \"#utility.yul\":35379:35990   */\n      pop\n      pop\n      pop\n        /* \"#utility.yul\":35342:36229   */\n    tag_803:\n      pop\n        /* \"#utility.yul\":34932:36235   */\n      pop\n      pop\n      pop\n        /* \"#utility.yul\":34840:36235   */\n      pop\n      pop\n      jump\t// out\n        /* \"#utility.yul\":36241:36664   */\n    tag_201:\n        /* \"#utility.yul\":36382:36386   */\n      0x00\n        /* \"#utility.yul\":36420:36422   */\n      0x40\n        /* \"#utility.yul\":36409:36418   */\n      dup3\n        /* \"#utility.yul\":36405:36423   */\n      add\n        /* \"#utility.yul\":36397:36423   */\n      swap1\n      pop\n        /* \"#utility.yul\":36469:36478   */\n      dup2\n        /* \"#utility.yul\":36463:36467   */\n      dup2\n        /* \"#utility.yul\":36459:36479   */\n      sub\n        /* \"#utility.yul\":36455:36456   */\n      0x00\n        /* \"#utility.yul\":36444:36453   */\n      dup4\n        /* \"#utility.yul\":36440:36457   */\n      add\n        /* \"#utility.yul\":36433:36480   */\n      mstore\n        /* \"#utility.yul\":36497:36575   */\n      tag_814\n        /* \"#utility.yul\":36570:36574   */\n      dup2\n        /* \"#utility.yul\":36561:36567   */\n      dup6\n        /* \"#utility.yul\":36497:36575   */\n      tag_416\n      jump\t// in\n    tag_814:\n        /* \"#utility.yul\":36489:36575   */\n      swap1\n      pop\n        /* \"#utility.yul\":36585:36657   */\n      tag_815\n        /* \"#utility.yul\":36653:36655   */\n      0x20\n        /* \"#utility.yul\":36642:36651   */\n      dup4\n        /* \"#utility.yul\":36638:36656   */\n      add\n        /* \"#utility.yul\":36629:36635   */\n      dup5\n        /* \"#utility.yul\":36585:36657   */\n      tag_419\n      jump\t// in\n    tag_815:\n        /* \"#utility.yul\":36241:36664   */\n      swap4\n      swap3\n      pop\n      pop\n      pop\n      jump\t// out\n        /* \"#utility.yul\":36670:37036   */\n    tag_478:\n        /* \"#utility.yul\":36812:36815   */\n      0x00\n        /* \"#utility.yul\":36833:36900   */\n      tag_817\n        /* \"#utility.yul\":36897:36899   */\n      0x0e\n        /* \"#utility.yul\":36892:36895   */\n      dup4\n        /* \"#utility.yul\":36833:36900   */\n      tag_414\n      jump\t// in\n    tag_817:\n        /* \"#utility.yul\":36826:36900   */\n      swap2\n      pop\n        /* \"#utility.yul\":36909:37002   */\n      tag_818\n        /* \"#utility.yul\":36998:37001   */\n      dup3\n        /* \"#utility.yul\":36909:37002   */\n      tag_448\n      jump\t// in\n    tag_818:\n        /* \"#utility.yul\":37027:37029   */\n      0x20\n        /* \"#utility.yul\":37022:37025   */\n      dup3\n        /* \"#utility.yul\":37018:37030   */\n      add\n        /* \"#utility.yul\":37011:37030   */\n      swap1\n      pop\n        /* \"#utility.yul\":36670:37036   */\n      swap2\n      swap1\n      pop\n      jump\t// out\n        /* \"#utility.yul\":37042:37461   */\n    tag_207:\n        /* \"#utility.yul\":37208:37212   */\n      0x00\n        /* \"#utility.yul\":37246:37248   */\n      0x20\n        /* \"#utility.yul\":37235:37244   */\n      dup3\n        /* \"#utility.yul\":37231:37249   */\n      add\n        /* \"#utility.yul\":37223:37249   */\n      swap1\n      pop\n        /* \"#utility.yul\":37295:37304   */\n      dup2\n        /* \"#utility.yul\":37289:37293   */\n      dup2\n        /* \"#utility.yul\":37285:37305   */\n      sub\n        /* \"#utility.yul\":37281:37282   */\n      0x00\n        /* \"#utility.yul\":37270:37279   */\n      dup4\n        /* \"#utility.yul\":37266:37283   */\n      add\n        /* \"#utility.yul\":37259:37306   */\n      mstore\n        /* \"#utility.yul\":37323:37454   */\n      tag_820\n        /* \"#utility.yul\":37449:37453   */\n      dup2\n        /* \"#utility.yul\":37323:37454   */\n      tag_478\n      jump\t// in\n    tag_820:\n        /* \"#utility.yul\":37315:37454   */\n      swap1\n      pop\n        /* \"#utility.yul\":37042:37461   */\n      swap2\n      swap1\n      pop\n      jump\t// out\n        /* \"#utility.yul\":37467:37691   */\n    tag_479:\n        /* \"#utility.yul\":37607:37641   */\n      0x4f6e6c792070726f64756365722063616e20706572666f726d20746869732061\n        /* \"#utility.yul\":37603:37604   */\n      0x00\n        /* \"#utility.yul\":37595:37601   */\n      dup3\n        /* \"#utility.yul\":37591:37605   */\n      add\n        /* \"#utility.yul\":37584:37642   */\n      mstore\n        /* \"#utility.yul\":37676:37683   */\n      0x6374696f6e000000000000000000000000000000000000000000000000000000\n        /* \"#utility.yul\":37671:37673   */\n      0x20\n        /* \"#utility.yul\":37663:37669   */\n      dup3\n        /* \"#utility.yul\":37659:37674   */\n      add\n        /* \"#utility.yul\":37652:37684   */\n      mstore\n        /* \"#utility.yul\":37467:37691   */\n      pop\n      jump\t// out\n        /* \"#utility.yul\":37697:38063   */\n    tag_480:\n        /* \"#utility.yul\":37839:37842   */\n      0x00\n        /* \"#utility.yul\":37860:37927   */\n      tag_823\n        /* \"#utility.yul\":37924:37926   */\n      0x25\n        /* \"#utility.yul\":37919:37922   */\n      dup4\n        /* \"#utility.yul\":37860:37927   */\n      tag_414\n      jump\t// in\n    tag_823:\n        /* \"#utility.yul\":37853:37927   */\n      swap2\n      pop\n        /* \"#utility.yul\":37936:38029   */\n      tag_824\n        /* \"#utility.yul\":38025:38028   */\n      dup3\n        /* \"#utility.yul\":37936:38029   */\n      tag_479\n      jump\t// in\n    tag_824:\n        /* \"#utility.yul\":38054:38056   */\n      0x40\n        /* \"#utility.yul\":38049:38052   */\n      dup3\n        /* \"#utility.yul\":38045:38057   */\n      add\n        /* \"#utility.yul\":38038:38057   */\n      swap1\n      pop\n        /* \"#utility.yul\":37697:38063   */\n      swap2\n      swap1\n      pop\n      jump\t// out\n        /* \"#utility.yul\":38069:38488   */\n    tag_237:\n        /* \"#utility.yul\":38235:38239   */\n      0x00\n        /* \"#utility.yul\":38273:38275   */\n      0x20\n        /* \"#utility.yul\":38262:38271   */\n      dup3\n        /* \"#utility.yul\":38258:38276   */\n      add\n        /* \"#utility.yul\":38250:38276   */\n      swap1\n      pop\n        /* \"#utility.yul\":38322:38331   */\n      dup2\n        /* \"#utility.yul\":38316:38320   */\n      dup2\n        /* \"#utility.yul\":38312:38332   */\n      sub\n        /* \"#utility.yul\":38308:38309   */\n      0x00\n        /* \"#utility.yul\":38297:38306   */\n      dup4\n        /* \"#utility.yul\":38293:38310   */\n      add\n        /* \"#utility.yul\":38286:38333   */\n      mstore\n        /* \"#utility.yul\":38350:38481   */\n      tag_826\n        /* \"#utility.yul\":38476:38480   */\n      dup2\n        /* \"#utility.yul\":38350:38481   */\n      tag_480\n      jump\t// in\n    tag_826:\n        /* \"#utility.yul\":38342:38481   */\n      swap1\n      pop\n        /* \"#utility.yul\":38069:38488   */\n      swap2\n      swap1\n      pop\n      jump\t// out\n        /* \"#utility.yul\":38494:38667   */\n    tag_481:\n        /* \"#utility.yul\":38634:38659   */\n      0x426174636820494420616c726561647920657869737473000000000000000000\n        /* \"#utility.yul\":38630:38631   */\n      0x00\n        /* \"#utility.yul\":38622:38628   */\n      dup3\n        /* \"#utility.yul\":38618:38632   */\n      add\n        /* \"#utility.yul\":38611:38660   */\n      mstore\n        /* \"#utility.yul\":38494:38667   */\n      pop\n      jump\t// out\n        /* \"#utility.yul\":38673:39039   */\n    tag_482:\n        /* \"#utility.yul\":38815:38818   */\n      0x00\n        /* \"#utility.yul\":38836:38903   */\n      tag_829\n        /* \"#utility.yul\":38900:38902   */\n      0x17\n        /* \"#utility.yul\":38895:38898   */\n      dup4\n        /* \"#utility.yul\":38836:38903   */\n      tag_414\n      jump\t// in\n    tag_829:\n        /* \"#utility.yul\":38829:38903   */\n      swap2\n      pop\n        /* \"#utility.yul\":38912:39005   */\n      tag_830\n        /* \"#utility.yul\":39001:39004   */\n      dup3\n        /* \"#utility.yul\":38912:39005   */\n      tag_481\n      jump\t// in\n    tag_830:\n        /* \"#utility.yul\":39030:39032   */\n      0x20\n        /* \"#utility.yul\":39025:39028   */\n      dup3\n        /* \"#utility.yul\":39021:39033   */\n      add\n        /* \"#utility.yul\":39014:39033   */\n      swap1\n      pop\n        /* \"#utility.yul\":38673:39039   */\n      swap2\n      swap1\n      pop\n      jump\t// out\n        /* \"#utility.yul\":39045:39464   */\n    tag_242:\n        /* \"#utility.yul\":39211:39215   */\n      0x00\n        /* \"#utility.yul\":39249:39251   */\n      0x20\n        /* \"#utility.yul\":39238:39247   */\n      dup3\n        /* \"#utility.yul\":39234:39252   */\n      add\n        /* \"#utility.yul\":39226:39252   */\n      swap1\n      pop\n        /* \"#utility.yul\":39298:39307   */\n      dup2\n        /* \"#utility.yul\":39292:39296   */\n      dup2\n        /* \"#utility.yul\":39288:39308   */\n      sub\n        /* \"#utility.yul\":39284:39285   */\n      0x00\n        /* \"#utility.yul\":39273:39282   */\n      dup4\n        /* \"#utility.yul\":39269:39286   */\n      add\n        /* \"#utility.yul\":39262:39309   */\n      mstore\n        /* \"#utility.yul\":39326:39457   */\n      tag_832\n        /* \"#utility.yul\":39452:39456   */\n      dup2\n        /* \"#utility.yul\":39326:39457   */\n      tag_482\n      jump\t// in\n    tag_832:\n        /* \"#utility.yul\":39318:39457   */\n      swap1\n      pop\n        /* \"#utility.yul\":39045:39464   */\n      swap2\n      swap1\n      pop\n      jump\t// out\n        /* \"#utility.yul\":39470:39644   */\n    tag_483:\n        /* \"#utility.yul\":39610:39636   */\n      0x42617463682049442063616e6e6f7420626520656d7074790000000000000000\n        /* \"#utility.yul\":39606:39607   */\n      0x00\n        /* \"#utility.yul\":39598:39604   */\n      dup3\n        /* \"#utility.yul\":39594:39608   */\n      add\n        /* \"#utility.yul\":39587:39637   */\n      mstore\n        /* \"#utility.yul\":39470:39644   */\n      pop\n      jump\t// out\n        /* \"#utility.yul\":39650:40016   */\n    tag_484:\n        /* \"#utility.yul\":39792:39795   */\n      0x00\n        /* \"#utility.yul\":39813:39880   */\n      tag_835\n        /* \"#utility.yul\":39877:39879   */\n      0x18\n        /* \"#utility.yul\":39872:39875   */\n      dup4\n        /* \"#utility.yul\":39813:39880   */\n      tag_414\n      jump\t// in\n    tag_835:\n        /* \"#utility.yul\":39806:39880   */\n      swap2\n      pop\n        /* \"#utility.yul\":39889:39982   */\n      tag_836\n        /* \"#utility.yul\":39978:39981   */\n      dup3\n        /* \"#utility.yul\":39889:39982   */\n      tag_483\n      jump\t// in\n    tag_836:\n        /* \"#utility.yul\":40007:40009   */\n      0x20\n        /* \"#utility.yul\":40002:40005   */\n      dup3\n        /* \"#utility.yul\":39998:40010   */\n      add\n        /* \"#utility.yul\":39991:40010   */\n      swap1\n      pop\n        /* \"#utility.yul\":39650:40016   */\n      swap2\n      swap1\n      pop\n      jump\t// out\n        /* \"#utility.yul\":40022:40441   */\n    tag_245:\n        /* \"#utility.yul\":40188:40192   */\n      0x00\n        /* \"#utility.yul\":40226:40228   */\n      0x20\n        /* \"#utility.yul\":40215:40224   */\n      dup3\n        /* \"#utility.yul\":40211:40229   */\n      add\n        /* \"#utility.yul\":40203:40229   */\n      swap1\n      pop\n        /* \"#utility.yul\":40275:40284   */\n      dup2\n        /* \"#utility.yul\":40269:40273   */\n      dup2\n        /* \"#utility.yul\":40265:40285   */\n      sub\n        /* \"#utility.yul\":40261:40262   */\n      0x00\n        /* \"#utility.yul\":40250:40259   */\n      dup4\n        /* \"#utility.yul\":40246:40263   */\n      add\n        /* \"#utility.yul\":40239:40286   */\n      mstore\n        /* \"#utility.yul\":40303:40434   */\n      tag_838\n        /* \"#utility.yul\":40429:40433   */\n      dup2\n        /* \"#utility.yul\":40303:40434   */\n      tag_484\n      jump\t// in\n    tag_838:\n        /* \"#utility.yul\":40295:40434   */\n      swap1\n      pop\n        /* \"#utility.yul\":40022:40441   */\n      swap2\n      swap1\n      pop\n      jump\t// out\n        /* \"#utility.yul\":40447:40625   */\n    tag_485:\n        /* \"#utility.yul\":40587:40617   */\n      0x50726f64756374206e616d652063616e6e6f7420626520656d70747900000000\n        /* \"#utility.yul\":40583:40584   */\n      0x00\n        /* \"#utility.yul\":40575:40581   */\n      dup3\n        /* \"#utility.yul\":40571:40585   */\n      add\n        /* \"#utility.yul\":40564:40618   */\n      mstore\n        /* \"#utility.yul\":40447:40625   */\n      pop\n      jump\t// out\n        /* \"#utility.yul\":40631:40997   */\n    tag_486:\n        /* \"#utility.yul\":40773:40776   */\n      0x00\n        /* \"#utility.yul\":40794:40861   */\n      tag_841\n        /* \"#utility.yul\":40858:40860   */\n      0x1c\n        /* \"#utility.yul\":40853:40856   */\n      dup4\n        /* \"#utility.yul\":40794:40861   */\n      tag_414\n      jump\t// in\n    tag_841:\n        /* \"#utility.yul\":40787:40861   */\n      swap2\n      pop\n        /* \"#utility.yul\":40870:40963   */\n      tag_842\n        /* \"#utility.yul\":40959:40962   */\n      dup3\n        /* \"#utility.yul\":40870:40963   */\n      tag_485\n      jump\t// in\n    tag_842:\n        /* \"#utility.yul\":40988:40990   */\n      0x20\n        /* \"#utility.yul\":40983:40986   */\n      dup3\n        /* \"#utility.yul\":40979:40991   */\n      add\n        /* \"#utility.yul\":40972:40991   */\n      swap1\n      pop\n        /* \"#utility.yul\":40631:40997   */\n      swap2\n      swap1\n      pop\n      jump\t// out\n        /* \"#utility.yul\":41003:41422   */\n    tag_248:\n        /* \"#utility.yul\":41169:41173   */\n      0x00\n        /* \"#utility.yul\":41207:41209   */\n      0x20\n        /* \"#utility.yul\":41196:41205   */\n      dup3\n        /* \"#utility.yul\":41192:41210   */\n      add\n        /* \"#utility.yul\":41184:41210   */\n      swap1\n      pop\n        /* \"#utility.yul\":41256:41265   */\n      dup2\n        /* \"#utility.yul\":41250:41254   */\n      dup2\n        /* \"#utility.yul\":41246:41266   */\n      sub\n        /* \"#utility.yul\":41242:41243   */\n      0x00\n        /* \"#utility.yul\":41231:41240   */\n      dup4\n        /* \"#utility.yul\":41227:41244   */\n      add\n        /* \"#utility.yul\":41220:41267   */\n      mstore\n        /* \"#utility.yul\":41284:41415   */\n      tag_844\n        /* \"#utility.yul\":41410:41414   */\n      dup2\n        /* \"#utility.yul\":41284:41415   */\n      tag_486\n      jump\t// in\n    tag_844:\n        /* \"#utility.yul\":41276:41415   */\n      swap1\n      pop\n        /* \"#utility.yul\":41003:41422   */\n      swap2\n      swap1\n      pop\n      jump\t// out\n        /* \"#utility.yul\":41428:41657   */\n    tag_487:\n        /* \"#utility.yul\":41568:41602   */\n      0x4f6e6c792063757272656e74206f776e65722063616e20706572666f726d2074\n        /* \"#utility.yul\":41564:41565   */\n      0x00\n        /* \"#utility.yul\":41556:41562   */\n      dup3\n        /* \"#utility.yul\":41552:41566   */\n      add\n        /* \"#utility.yul\":41545:41603   */\n      mstore\n        /* \"#utility.yul\":41637:41649   */\n      0x68697320616374696f6e00000000000000000000000000000000000000000000\n        /* \"#utility.yul\":41632:41634   */\n      0x20\n        /* \"#utility.yul\":41624:41630   */\n      dup3\n        /* \"#utility.yul\":41620:41635   */\n      add\n        /* \"#utility.yul\":41613:41650   */\n      mstore\n        /* \"#utility.yul\":41428:41657   */\n      pop\n      jump\t// out\n        /* \"#utility.yul\":41663:42029   */\n    tag_488:\n        /* \"#utility.yul\":41805:41808   */\n      0x00\n        /* \"#utility.yul\":41826:41893   */\n      tag_847\n        /* \"#utility.yul\":41890:41892   */\n      0x2a\n        /* \"#utility.yul\":41885:41888   */\n      dup4\n        /* \"#utility.yul\":41826:41893   */\n      tag_414\n      jump\t// in\n    tag_847:\n        /* \"#utility.yul\":41819:41893   */\n      swap2\n      pop\n        /* \"#utility.yul\":41902:41995   */\n      tag_848\n        /* \"#utility.yul\":41991:41994   */\n      dup3\n        /* \"#utility.yul\":41902:41995   */\n      tag_487\n      jump\t// in\n    tag_848:\n        /* \"#utility.yul\":42020:42022   */\n      0x40\n        /* \"#utility.yul\":42015:42018   */\n      dup3\n        /* \"#utility.yul\":42011:42023   */\n      add\n        /* \"#utility.yul\":42004:42023   */\n      swap1\n      pop\n        /* \"#utility.yul\":41663:42029   */\n      swap2\n      swap1\n      pop\n      jump\t// out\n        /* \"#utility.yul\":42035:42454   */\n    tag_297:\n        /* \"#utility.yul\":42201:42205   */\n      0x00\n        /* \"#utility.yul\":42239:42241   */\n      0x20\n        /* \"#utility.yul\":42228:42237   */\n      dup3\n        /* \"#utility.yul\":42224:42242   */\n      add\n        /* \"#utility.yul\":42216:42242   */\n      swap1\n      pop\n        /* \"#utility.yul\":42288:42297   */\n      dup2\n        /* \"#utility.yul\":42282:42286   */\n      dup2\n        /* \"#utility.yul\":42278:42298   */\n      sub\n        /* \"#utility.yul\":42274:42275   */\n      0x00\n        /* \"#utility.yul\":42263:42272   */\n      dup4\n        /* \"#utility.yul\":42259:42276   */\n      add\n        /* \"#utility.yul\":42252:42299   */\n      mstore\n        /* \"#utility.yul\":42316:42447   */\n      tag_850\n        /* \"#utility.yul\":42442:42446   */\n      dup2\n        /* \"#utility.yul\":42316:42447   */\n      tag_488\n      jump\t// in\n    tag_850:\n        /* \"#utility.yul\":42308:42447   */\n      swap1\n      pop\n        /* \"#utility.yul\":42035:42454   */\n      swap2\n      swap1\n      pop\n      jump\t// out\n        /* \"#utility.yul\":42460:42635   */\n    tag_489:\n        /* \"#utility.yul\":42600:42627   */\n      0x496e76616c696420726563697069656e74206164647265737300000000000000\n        /* \"#utility.yul\":42596:42597   */\n      0x00\n        /* \"#utility.yul\":42588:42594   */\n      dup3\n        /* \"#utility.yul\":42584:42598   */\n      add\n        /* \"#utility.yul\":42577:42628   */\n      mstore\n        /* \"#utility.yul\":42460:42635   */\n      pop\n      jump\t// out\n        /* \"#utility.yul\":42641:43007   */\n    tag_490:\n        /* \"#utility.yul\":42783:42786   */\n      0x00\n        /* \"#utility.yul\":42804:42871   */\n      tag_853\n        /* \"#utility.yul\":42868:42870   */\n      0x19\n        /* \"#utility.yul\":42863:42866   */\n      dup4\n        /* \"#utility.yul\":42804:42871   */\n      tag_414\n      jump\t// in\n    tag_853:\n        /* \"#utility.yul\":42797:42871   */\n      swap2\n      pop\n        /* \"#utility.yul\":42880:42973   */\n      tag_854\n        /* \"#utility.yul\":42969:42972   */\n      dup3\n        /* \"#utility.yul\":42880:42973   */\n      tag_489\n      jump\t// in\n    tag_854:\n        /* \"#utility.yul\":42998:43000   */\n      0x20\n        /* \"#utility.yul\":42993:42996   */\n      dup3\n        /* \"#utility.yul\":42989:43001   */\n      add\n        /* \"#utility.yul\":42982:43001   */\n      swap1\n      pop\n        /* \"#utility.yul\":42641:43007   */\n      swap2\n      swap1\n      pop\n      jump\t// out\n        /* \"#utility.yul\":43013:43432   */\n    tag_301:\n        /* \"#utility.yul\":43179:43183   */\n      0x00\n        /* \"#utility.yul\":43217:43219   */\n      0x20\n        /* \"#utility.yul\":43206:43215   */\n      dup3\n        /* \"#utility.yul\":43202:43220   */\n      add\n        /* \"#utility.yul\":43194:43220   */\n      swap1\n      pop\n        /* \"#utility.yul\":43266:43275   */\n      dup2\n        /* \"#utility.yul\":43260:43264   */\n      dup2\n        /* \"#utility.yul\":43256:43276   */\n      sub\n        /* \"#utility.yul\":43252:43253   */\n      0x00\n        /* \"#utility.yul\":43241:43250   */\n      dup4\n        /* \"#utility.yul\":43237:43254   */\n      add\n        /* \"#utility.yul\":43230:43277   */\n      mstore\n        /* \"#utility.yul\":43294:43425   */\n      tag_856\n        /* \"#utility.yul\":43420:43424   */\n      dup2\n        /* \"#utility.yul\":43294:43425   */\n      tag_490\n      jump\t// in\n    tag_856:\n        /* \"#utility.yul\":43286:43425   */\n      swap1\n      pop\n        /* \"#utility.yul\":43013:43432   */\n      swap2\n      swap1\n      pop\n      jump\t// out\n        /* \"#utility.yul\":43438:43615   */\n    tag_491:\n        /* \"#utility.yul\":43578:43607   */\n      0x43616e6e6f74207472616e7366657220746f20796f757273656c660000000000\n        /* \"#utility.yul\":43574:43575   */\n      0x00\n        /* \"#utility.yul\":43566:43572   */\n      dup3\n        /* \"#utility.yul\":43562:43576   */\n      add\n        /* \"#utility.yul\":43555:43608   */\n      mstore\n        /* \"#utility.yul\":43438:43615   */\n      pop\n      jump\t// out\n        /* \"#utility.yul\":43621:43987   */\n    tag_492:\n        /* \"#utility.yul\":43763:43766   */\n      0x00\n        /* \"#utility.yul\":43784:43851   */\n      tag_859\n        /* \"#utility.yul\":43848:43850   */\n      0x1b\n        /* \"#utility.yul\":43843:43846   */\n      dup4\n        /* \"#utility.yul\":43784:43851   */\n      tag_414\n      jump\t// in\n    tag_859:\n        /* \"#utility.yul\":43777:43851   */\n      swap2\n      pop\n        /* \"#utility.yul\":43860:43953   */\n      tag_860\n        /* \"#utility.yul\":43949:43952   */\n      dup3\n        /* \"#utility.yul\":43860:43953   */\n      tag_491\n      jump\t// in\n    tag_860:\n        /* \"#utility.yul\":43978:43980   */\n      0x20\n        /* \"#utility.yul\":43973:43976   */\n      dup3\n        /* \"#utility.yul\":43969:43981   */\n      add\n        /* \"#utility.yul\":43962:43981   */\n      swap1\n      pop\n        /* \"#utility.yul\":43621:43987   */\n      swap2\n      swap1\n      pop\n      jump\t// out\n        /* \"#utility.yul\":43993:44412   */\n    tag_304:\n        /* \"#utility.yul\":44159:44163   */\n      0x00\n        /* \"#utility.yul\":44197:44199   */\n      0x20\n        /* \"#utility.yul\":44186:44195   */\n      dup3\n        /* \"#utility.yul\":44182:44200   */\n      add\n        /* \"#utility.yul\":44174:44200   */\n      swap1\n      pop\n        /* \"#utility.yul\":44246:44255   */\n      dup2\n        /* \"#utility.yul\":44240:44244   */\n      dup2\n        /* \"#utility.yul\":44236:44256   */\n      sub\n        /* \"#utility.yul\":44232:44233   */\n      0x00\n        /* \"#utility.yul\":44221:44230   */\n      dup4\n        /* \"#utility.yul\":44217:44234   */\n      add\n        /* \"#utility.yul\":44210:44257   */\n      mstore\n        /* \"#utility.yul\":44274:44405   */\n      tag_862\n        /* \"#utility.yul\":44400:44404   */\n      dup2\n        /* \"#utility.yul\":44274:44405   */\n      tag_492\n      jump\t// in\n    tag_862:\n        /* \"#utility.yul\":44266:44405   */\n      swap1\n      pop\n        /* \"#utility.yul\":43993:44412   */\n      swap2\n      swap1\n      pop\n      jump\t// out\n        /* \"#utility.yul\":44418:44600   */\n    tag_493:\n        /* \"#utility.yul\":44558:44592   */\n      0x526563697069656e74206d757374206861766520612076616c696420726f6c65\n        /* \"#utility.yul\":44554:44555   */\n      0x00\n        /* \"#utility.yul\":44546:44552   */\n      dup3\n        /* \"#utility.yul\":44542:44556   */\n      add\n        /* \"#utility.yul\":44535:44593   */\n      mstore\n        /* \"#utility.yul\":44418:44600   */\n      pop\n      jump\t// out\n        /* \"#utility.yul\":44606:44972   */\n    tag_494:\n        /* \"#utility.yul\":44748:44751   */\n      0x00\n        /* \"#utility.yul\":44769:44836   */\n      tag_865\n        /* \"#utility.yul\":44833:44835   */\n      0x20\n        /* \"#utility.yul\":44828:44831   */\n      dup4\n        /* \"#utility.yul\":44769:44836   */\n      tag_414\n      jump\t// in\n    tag_865:\n        /* \"#utility.yul\":44762:44836   */\n      swap2\n      pop\n        /* \"#utility.yul\":44845:44938   */\n      tag_866\n        /* \"#utility.yul\":44934:44937   */\n      dup3\n        /* \"#utility.yul\":44845:44938   */\n      tag_493\n      jump\t// in\n    tag_866:\n        /* \"#utility.yul\":44963:44965   */\n      0x20\n        /* \"#utility.yul\":44958:44961   */\n      dup3\n        /* \"#utility.yul\":44954:44966   */\n      add\n        /* \"#utility.yul\":44947:44966   */\n      swap1\n      pop\n        /* \"#utility.yul\":44606:44972   */\n      swap2\n      swap1\n      pop\n      jump\t// out\n        /* \"#utility.yul\":44978:45397   */\n    tag_309:\n        /* \"#utility.yul\":45144:45148   */\n      0x00\n        /* \"#utility.yul\":45182:45184   */\n      0x20\n        /* \"#utility.yul\":45171:45180   */\n      dup3\n        /* \"#utility.yul\":45167:45185   */\n      add\n        /* \"#utility.yul\":45159:45185   */\n      swap1\n      pop\n        /* \"#utility.yul\":45231:45240   */\n      dup2\n        /* \"#utility.yul\":45225:45229   */\n      dup2\n        /* \"#utility.yul\":45221:45241   */\n      sub\n        /* \"#utility.yul\":45217:45218   */\n      0x00\n        /* \"#utility.yul\":45206:45215   */\n      dup4\n        /* \"#utility.yul\":45202:45219   */\n      add\n        /* \"#utility.yul\":45195:45242   */\n      mstore\n        /* \"#utility.yul\":45259:45390   */\n      tag_868\n        /* \"#utility.yul\":45385:45389   */\n      dup2\n        /* \"#utility.yul\":45259:45390   */\n      tag_494\n      jump\t// in\n    tag_868:\n        /* \"#utility.yul\":45251:45390   */\n      swap1\n      pop\n        /* \"#utility.yul\":44978:45397   */\n      swap2\n      swap1\n      pop\n      jump\t// out\n        /* \"#utility.yul\":45403:45634   */\n    tag_495:\n        /* \"#utility.yul\":45543:45577   */\n      0x4f6e6c792068616c616c20617574686f726974792063616e20706572666f726d\n        /* \"#utility.yul\":45539:45540   */\n      0x00\n        /* \"#utility.yul\":45531:45537   */\n      dup3\n        /* \"#utility.yul\":45527:45541   */\n      add\n        /* \"#utility.yul\":45520:45578   */\n      mstore\n        /* \"#utility.yul\":45612:45626   */\n      0x207468697320616374696f6e0000000000000000000000000000000000000000\n        /* \"#utility.yul\":45607:45609   */\n      0x20\n        /* \"#utility.yul\":45599:45605   */\n      dup3\n        /* \"#utility.yul\":45595:45610   */\n      add\n        /* \"#utility.yul\":45588:45627   */\n      mstore\n        /* \"#utility.yul\":45403:45634   */\n      pop\n      jump\t// out\n        /* \"#utility.yul\":45640:46006   */\n    tag_496:\n        /* \"#utility.yul\":45782:45785   */\n      0x00\n        /* \"#utility.yul\":45803:45870   */\n      tag_871\n        /* \"#utility.yul\":45867:45869   */\n      0x2c\n        /* \"#utility.yul\":45862:45865   */\n      dup4\n        /* \"#utility.yul\":45803:45870   */\n      tag_414\n      jump\t// in\n    tag_871:\n        /* \"#utility.yul\":45796:45870   */\n      swap2\n      pop\n        /* \"#utility.yul\":45879:45972   */\n      tag_872\n        /* \"#utility.yul\":45968:45971   */\n      dup3\n        /* \"#utility.yul\":45879:45972   */\n      tag_495\n      jump\t// in\n    tag_872:\n        /* \"#utility.yul\":45997:45999   */\n      0x40\n        /* \"#utility.yul\":45992:45995   */\n      dup3\n        /* \"#utility.yul\":45988:46000   */\n      add\n        /* \"#utility.yul\":45981:46000   */\n      swap1\n      pop\n        /* \"#utility.yul\":45640:46006   */\n      swap2\n      swap1\n      pop\n      jump\t// out\n        /* \"#utility.yul\":46012:46431   */\n    tag_330:\n        /* \"#utility.yul\":46178:46182   */\n      0x00\n        /* \"#utility.yul\":46216:46218   */\n      0x20\n        /* \"#utility.yul\":46205:46214   */\n      dup3\n        /* \"#utility.yul\":46201:46219   */\n      add\n        /* \"#utility.yul\":46193:46219   */\n      swap1\n      pop\n        /* \"#utility.yul\":46265:46274   */\n      dup2\n        /* \"#utility.yul\":46259:46263   */\n      dup2\n        /* \"#utility.yul\":46255:46275   */\n      sub\n        /* \"#utility.yul\":46251:46252   */\n      0x00\n        /* \"#utility.yul\":46240:46249   */\n      dup4\n        /* \"#utility.yul\":46236:46253   */\n      add\n        /* \"#utility.yul\":46229:46276   */\n      mstore\n        /* \"#utility.yul\":46293:46424   */\n      tag_874\n        /* \"#utility.yul\":46419:46423   */\n      dup2\n        /* \"#utility.yul\":46293:46424   */\n      tag_496\n      jump\t// in\n    tag_874:\n        /* \"#utility.yul\":46285:46424   */\n      swap1\n      pop\n        /* \"#utility.yul\":46012:46431   */\n      swap2\n      swap1\n      pop\n      jump\t// out\n        /* \"#utility.yul\":46437:46619   */\n    tag_497:\n        /* \"#utility.yul\":46577:46611   */\n      0x436572746966696361746520686173682063616e6e6f7420626520656d707479\n        /* \"#utility.yul\":46573:46574   */\n      0x00\n        /* \"#utility.yul\":46565:46571   */\n      dup3\n        /* \"#utility.yul\":46561:46575   */\n      add\n        /* \"#utility.yul\":46554:46612   */\n      mstore\n        /* \"#utility.yul\":46437:46619   */\n      pop\n      jump\t// out\n        /* \"#utility.yul\":46625:46991   */\n    tag_498:\n        /* \"#utility.yul\":46767:46770   */\n      0x00\n        /* \"#utility.yul\":46788:46855   */\n      tag_877\n        /* \"#utility.yul\":46852:46854   */\n      0x20\n        /* \"#utility.yul\":46847:46850   */\n      dup4\n        /* \"#utility.yul\":46788:46855   */\n      tag_414\n      jump\t// in\n    tag_877:\n        /* \"#utility.yul\":46781:46855   */\n      swap2\n      pop\n        /* \"#utility.yul\":46864:46957   */\n      tag_878\n        /* \"#utility.yul\":46953:46956   */\n      dup3\n        /* \"#utility.yul\":46864:46957   */\n      tag_497\n      jump\t// in\n    tag_878:\n        /* \"#utility.yul\":46982:46984   */\n      0x20\n        /* \"#utility.yul\":46977:46980   */\n      dup3\n        /* \"#utility.yul\":46973:46985   */\n      add\n        /* \"#utility.yul\":46966:46985   */\n      swap1\n      pop\n        /* \"#utility.yul\":46625:46991   */\n      swap2\n      swap1\n      pop\n      jump\t// out\n        /* \"#utility.yul\":46997:47416   */\n    tag_338:\n        /* \"#utility.yul\":47163:47167   */\n      0x00\n        /* \"#utility.yul\":47201:47203   */\n      0x20\n        /* \"#utility.yul\":47190:47199   */\n      dup3\n        /* \"#utility.yul\":47186:47204   */\n      add\n        /* \"#utility.yul\":47178:47204   */\n      swap1\n      pop\n        /* \"#utility.yul\":47250:47259   */\n      dup2\n        /* \"#utility.yul\":47244:47248   */\n      dup2\n        /* \"#utility.yul\":47240:47260   */\n      sub\n        /* \"#utility.yul\":47236:47237   */\n      0x00\n        /* \"#utility.yul\":47225:47234   */\n      dup4\n        /* \"#utility.yul\":47221:47238   */\n      add\n        /* \"#utility.yul\":47214:47261   */\n      mstore\n        /* \"#utility.yul\":47278:47409   */\n      tag_880\n        /* \"#utility.yul\":47404:47408   */\n      dup2\n        /* \"#utility.yul\":47278:47409   */\n      tag_498\n      jump\t// in\n    tag_880:\n        /* \"#utility.yul\":47270:47409   */\n      swap1\n      pop\n        /* \"#utility.yul\":46997:47416   */\n      swap2\n      swap1\n      pop\n      jump\t// out\n\n    auxdata: 0xa26469706673582212207a4085e1bf9de3e063dbf3fcd799d603f33d4a6b7b8a375f4ab7aa682d41a84764736f6c634300081e0033\n}\n",
				"bytecode": {
					"linkReferences": {},
					"object": "6080604052348015600e575f5ffd5b50335f5f6101000a81548173ffffffffffffffffffffffffffffffffffffffff021916908373ffffffffffffffffffffffffffffffffffffffff16021790555061458d8061005b5f395ff3fe608060405234801561000f575f5ffd5b5060043610610170575f3560e01c80639b4bc927116100dc578063c989ea2511610095578063e561dddc1161006f578063e561dddc1461047f578063f851a4401461049d578063f9ca4274146104bb578063f9f8904a146104f157610170565b8063c989ea2514610403578063cc64278414610433578063dcdcbe4e1461046357610170565b80639b4bc9271461031b578063a252d8a71461034d578063b3d346b91461037d578063b401563b146103ad578063bbb65699146103c9578063bce06947146103e557610170565b8063347047cc1161012e578063347047cc1461024457806365de230514610260578063782eb9341461027c5780637ef1446a1461029857806392b8f021146102cf5780639a268f35146102eb57610170565b806291a91c146101745780630c1b117814610190578063120b93d3146101ac578063217fe6c6146101c85780632561f718146101f857806326324eff14610214575b5f5ffd5b61018e60048036038101906101899190613096565b61050d565b005b6101aa60048036038101906101a59190613096565b61063e565b005b6101c660048036038101906101c19190613096565b610770565b005b6101e260048036038101906101dd91906131fd565b6108a1565b6040516101ef9190613271565b60405180910390f35b610212600480360381019061020d9190613096565b610b4d565b005b61022e60048036038101906102299190613096565b610c7f565b60405161023b9190613271565b60405180910390f35b61025e6004803603810190610259919061328a565b610c9c565b005b61027a60048036038101906102759190613096565b610fc1565b005b61029660048036038101906102919190613096565b6110f3565b005b6102b260048036038101906102ad9190613300565b611224565b6040516102c69897969594939291906133ce565b60405180910390f35b6102e960048036038101906102e4919061328a565b6114e2565b005b61030560048036038101906103009190613096565b6119e8565b6040516103129190613271565b60405180910390f35b61033560048036038101906103309190613490565b611a05565b604051610344939291906134ea565b60405180910390f35b61036760048036038101906103629190613300565b611b02565b6040516103749190613694565b60405180910390f35b610397600480360381019061039291906136b4565b611cd9565b6040516103a491906136df565b60405180910390f35b6103c760048036038101906103c291906136ff565b611d7f565b005b6103e360048036038101906103de919061328a565b612555565b005b6103ed61289d565b6040516103fa9190613814565b60405180910390f35b61041d60048036038101906104189190613096565b612971565b60405161042a9190613271565b60405180910390f35b61044d60048036038101906104489190613096565b61298e565b60405161045a9190613271565b60405180910390f35b61047d60048036038101906104789190613096565b6129ab565b005b610487612adc565b6040516104949190613834565b60405180910390f35b6104a5612ae8565b6040516104b2919061384d565b60405180910390f35b6104d560048036038101906104d09190613300565b612b0c565b6040516104e89796959493929190613866565b60405180910390f35b61050b60048036038101906105069190613096565b612efa565b005b5f5f9054906101000a900473ffffffffffffffffffffffffffffffffffffffff1673ffffffffffffffffffffffffffffffffffffffff163373ffffffffffffffffffffffffffffffffffffffff161461059b576040517f08c379a00000000000000000000000000000000000000000000000000000000081526004016105929061395f565b60405180910390fd5b6001805f8373ffffffffffffffffffffffffffffffffffffffff1673ffffffffffffffffffffffffffffffffffffffff1681526020019081526020015f205f6101000a81548160ff0219169083151502179055508073ffffffffffffffffffffffffffffffffffffffff167f3565795c2fb8842c21347d277937778bbcfe788b5b4f790fc5e408786cbe9c90604051610633906139c7565b60405180910390a250565b5f5f9054906101000a900473ffffffffffffffffffffffffffffffffffffffff1673ffffffffffffffffffffffffffffffffffffffff163373ffffffffffffffffffffffffffffffffffffffff16146106cc576040517f08c379a00000000000000000000000000000000000000000000000000000000081526004016106c39061395f565b60405180910390fd5b600160035f8373ffffffffffffffffffffffffffffffffffffffff1673ffffffffffffffffffffffffffffffffffffffff1681526020019081526020015f205f6101000a81548160ff0219169083151502179055508073ffffffffffffffffffffffffffffffffffffffff167f3565795c2fb8842c21347d277937778bbcfe788b5b4f790fc5e408786cbe9c9060405161076590613a2f565b60405180910390a250565b5f5f9054906101000a900473ffffffffffffffffffffffffffffffffffffffff1673ffffffffffffffffffffffffffffffffffffffff163373ffffffffffffffffffffffffffffffffffffffff16146107fe576040517f08c379a00000000000000000000000000000000000000000000000000000000081526004016107f59061395f565b60405180910390fd5b5f60035f8373ffffffffffffffffffffffffffffffffffffffff1673ffffffffffffffffffffffffffffffffffffffff1681526020019081526020015f205f6101000a81548160ff0219169083151502179055508073ffffffffffffffffffffffffffffffffffffffff167f9f43a01c0d4ff5aff09b3b9b472df707ceefd3f948f8942f10fa1562a892130460405161089690613a2f565b60405180910390a250565b5f5f826040516020016108b49190613a87565b6040516020818303038152906040528051906020012090506040516020016108db90613abf565b6040516020818303038152906040528051906020012081036109495760015f8573ffffffffffffffffffffffffffffffffffffffff1673ffffffffffffffffffffffffffffffffffffffff1681526020019081526020015f205f9054906101000a900460ff16915050610b47565b60405160200161095890613b1d565b6040516020818303038152906040528051906020012081036109c65760025f8573ffffffffffffffffffffffffffffffffffffffff1673ffffffffffffffffffffffffffffffffffffffff1681526020019081526020015f205f9054906101000a900460ff16915050610b47565b6040516020016109d590613b53565b604051602081830303815290604052805190602001208103610a435760035f8573ffffffffffffffffffffffffffffffffffffffff1673ffffffffffffffffffffffffffffffffffffffff1681526020019081526020015f205f9054906101000a900460ff16915050610b47565b604051602001610a5290613bb1565b604051602081830303815290604052805190602001208103610ac05760045f8573ffffffffffffffffffffffffffffffffffffffff1673ffffffffffffffffffffffffffffffffffffffff1681526020019081526020015f205f9054906101000a900460ff16915050610b47565b604051602001610acf90613c0f565b604051602081830303815290604052805190602001208103610b42575f5f9054906101000a900473ffffffffffffffffffffffffffffffffffffffff1673ffffffffffffffffffffffffffffffffffffffff168473ffffffffffffffffffffffffffffffffffffffff1614915050610b47565b5f9150505b92915050565b5f5f9054906101000a900473ffffffffffffffffffffffffffffffffffffffff1673ffffffffffffffffffffffffffffffffffffffff163373ffffffffffffffffffffffffffffffffffffffff1614610bdb576040517f08c379a0000000000000000000000000000000000000000000000000000000008152600401610bd29061395f565b60405180910390fd5b600160045f8373ffffffffffffffffffffffffffffffffffffffff1673ffffffffffffffffffffffffffffffffffffffff1681526020019081526020015f205f6101000a81548160ff0219169083151502179055508073ffffffffffffffffffffffffffffffffffffffff167f3565795c2fb8842c21347d277937778bbcfe788b5b4f790fc5e408786cbe9c90604051610c7490613c45565b60405180910390a250565b6001602052805f5260405f205f915054906101000a900460ff1681565b81600581604051610cad9190613a87565b90815260200160405180910390206007015f9054906101000a900460ff16610d0a576040517f08c379a0000000000000000000000000000000000000000000000000000000008152600401610d0190613cad565b60405180910390fd5b3373ffffffffffffffffffffffffffffffffffffffff16600584604051610d319190613a87565b90815260200160405180910390206003015f9054906101000a900473ffffffffffffffffffffffffffffffffffffffff1673ffffffffffffffffffffffffffffffffffffffff161480610dca575060025f3373ffffffffffffffffffffffffffffffffffffffff1673ffffffffffffffffffffffffffffffffffffffff1681526020019081526020015f205f9054906101000a900460ff165b610e09576040517f08c379a0000000000000000000000000000000000000000000000000000000008152600401610e0090613d15565b60405180910390fd5b5f825111610e4c576040517f08c379a0000000000000000000000000000000000000000000000000000000008152600401610e4390613d7d565b60405180910390fd5b81600584604051610e5d9190613a87565b90815260200160405180910390206004019081610e7a9190613f98565b50600683604051610e8b9190613a87565b908152602001604051809103902060405180606001604052808481526020014281526020013373ffffffffffffffffffffffffffffffffffffffff16815250908060018154018082558091505060019003905f5260205f2090600302015f909190919091505f820151815f019081610f039190613f98565b50602082015181600101556040820151816002015f6101000a81548173ffffffffffffffffffffffffffffffffffffffff021916908373ffffffffffffffffffffffffffffffffffffffff16021790555050503373ffffffffffffffffffffffffffffffffffffffff1683604051610f7b9190613a87565b60405180910390207f169643a8db74f57c6a9dea08efd64e687751e292a4b80bfe9307a8f5474ad9b98442604051610fb4929190614067565b60405180910390a3505050565b5f5f9054906101000a900473ffffffffffffffffffffffffffffffffffffffff1673ffffffffffffffffffffffffffffffffffffffff163373ffffffffffffffffffffffffffffffffffffffff161461104f576040517f08c379a00000000000000000000000000000000000000000000000000000000081526004016110469061395f565b60405180910390fd5b600160025f8373ffffffffffffffffffffffffffffffffffffffff1673ffffffffffffffffffffffffffffffffffffffff1681526020019081526020015f205f6101000a81548160ff0219169083151502179055508073ffffffffffffffffffffffffffffffffffffffff167f3565795c2fb8842c21347d277937778bbcfe788b5b4f790fc5e408786cbe9c906040516110e8906140b7565b60405180910390a250565b5f5f9054906101000a900473ffffffffffffffffffffffffffffffffffffffff1673ffffffffffffffffffffffffffffffffffffffff163373ffffffffffffffffffffffffffffffffffffffff1614611181576040517f08c379a00000000000000000000000000000000000000000000000000000000081526004016111789061395f565b60405180910390fd5b5f60045f8373ffffffffffffffffffffffffffffffffffffffff1673ffffffffffffffffffffffffffffffffffffffff1681526020019081526020015f205f6101000a81548160ff0219169083151502179055508073ffffffffffffffffffffffffffffffffffffffff167f9f43a01c0d4ff5aff09b3b9b472df707ceefd3f948f8942f10fa1562a892130460405161121990613c45565b60405180910390a250565b6005818051602081018201805184825260208301602085012081835280955050505050505f91509050805f01805461125b90613dc8565b80601f016020809104026020016040519081016040528092919081815260200182805461128790613dc8565b80156112d25780601f106112a9576101008083540402835291602001916112d2565b820191905f5260205f20905b8154815290600101906020018083116112b557829003601f168201915b5050505050908060010180546112e790613dc8565b80601f016020809104026020016040519081016040528092919081815260200182805461131390613dc8565b801561135e5780601f106113355761010080835404028352916020019161135e565b820191905f5260205f20905b81548152906001019060200180831161134157829003601f168201915b505050505090806002015f9054906101000a900473ffffffffffffffffffffffffffffffffffffffff1690806003015f9054906101000a900473ffffffffffffffffffffffffffffffffffffffff16908060040180546113bd90613dc8565b80601f01602080910402602001604051908101604052809291908181526020018280546113e990613dc8565b80156114345780601f1061140b57610100808354040283529160200191611434565b820191905f5260205f20905b81548152906001019060200180831161141757829003601f168201915b50505050509080600501805461144990613dc8565b80601f016020809104026020016040519081016040528092919081815260200182805461147590613dc8565b80156114c05780601f10611497576101008083540402835291602001916114c0565b820191905f5260205f20905b8154815290600101906020018083116114a357829003601f168201915b505050505090806006015490806007015f9054906101000a900460ff16905088565b60015f3373ffffffffffffffffffffffffffffffffffffffff1673ffffffffffffffffffffffffffffffffffffffff1681526020019081526020015f205f9054906101000a900460ff1661156b576040517f08c379a000000000000000000000000000000000000000000000000000000000815260040161156290614145565b60405180910390fd5b60058260405161157b9190613a87565b90815260200160405180910390206007015f9054906101000a900460ff16156115d9576040517f08c379a00000000000000000000000000000000000000000000000000000000081526004016115d0906141ad565b60405180910390fd5b5f82511161161c576040517f08c379a000000000000000000000000000000000000000000000000000000000815260040161161390614215565b60405180910390fd5b5f81511161165f576040517f08c379a00000000000000000000000000000000000000000000000000000000081526004016116569061427d565b60405180910390fd5b5f6040518061010001604052808381526020018481526020013373ffffffffffffffffffffffffffffffffffffffff1681526020013373ffffffffffffffffffffffffffffffffffffffff1681526020016040518060400160405280600881526020017f50726f6475636564000000000000000000000000000000000000000000000000815250815260200160405180602001604052805f81525081526020014281526020016001151581525090508060058460405161171f9190613a87565b90815260200160405180910390205f820151815f0190816117409190613f98565b5060208201518160010190816117569190613f98565b506040820151816002015f6101000a81548173ffffffffffffffffffffffffffffffffffffffff021916908373ffffffffffffffffffffffffffffffffffffffff1602179055506060820151816003015f6101000a81548173ffffffffffffffffffffffffffffffffffffffff021916908373ffffffffffffffffffffffffffffffffffffffff16021790555060808201518160040190816117f89190613f98565b5060a082015181600501908161180e9190613f98565b5060c0820151816006015560e0820151816007015f6101000a81548160ff021916908315150217905550905050600783908060018154018082558091505060019003905f5260205f20015f90919091909150908161186c9190613f98565b5060068360405161187d9190613a87565b908152602001604051809103902060405180606001604052806040518060400160405280600881526020017f50726f647563656400000000000000000000000000000000000000000000000081525081526020014281526020013373ffffffffffffffffffffffffffffffffffffffff16815250908060018154018082558091505060019003905f5260205f2090600302015f909190919091505f820151815f01908161192a9190613f98565b50602082015181600101556040820151816002015f6101000a81548173ffffffffffffffffffffffffffffffffffffffff021916908373ffffffffffffffffffffffffffffffffffffffff16021790555050503373ffffffffffffffffffffffffffffffffffffffff16836040516119a29190613a87565b60405180910390207fd8045a119a7c2df6cea5c487e90f857abb1b84a5a356331229d0020ce9debc6284426040516119db929190614067565b60405180910390a3505050565b6004602052805f5260405f205f915054906101000a900460ff1681565b6006828051602081018201805184825260208301602085012081835280955050505050508181548110611a36575f80fd5b905f5260205f2090600302015f9150915050805f018054611a5690613dc8565b80601f0160208091040260200160405190810160405280929190818152602001828054611a8290613dc8565b8015611acd5780601f10611aa457610100808354040283529160200191611acd565b820191905f5260205f20905b815481529060010190602001808311611ab057829003601f168201915b505050505090806001015490806002015f9054906101000a900473ffffffffffffffffffffffffffffffffffffffff16905083565b606081600581604051611b159190613a87565b90815260200160405180910390206007015f9054906101000a900460ff16611b72576040517f08c379a0000000000000000000000000000000000000000000000000000000008152600401611b6990613cad565b60405180910390fd5b600683604051611b829190613a87565b9081526020016040518091039020805480602002602001604051908101604052809291908181526020015f905b82821015611ccd578382905f5260205f2090600302016040518060600160405290815f82018054611bdf90613dc8565b80601f0160208091040260200160405190810160405280929190818152602001828054611c0b90613dc8565b8015611c565780601f10611c2d57610100808354040283529160200191611c56565b820191905f5260205f20905b815481529060010190602001808311611c3957829003601f168201915b5050505050815260200160018201548152602001600282015f9054906101000a900473ffffffffffffffffffffffffffffffffffffffff1673ffffffffffffffffffffffffffffffffffffffff1673ffffffffffffffffffffffffffffffffffffffff168152505081526020019060010190611baf565b50505050915050919050565b60078181548110611ce8575f80fd5b905f5260205f20015f915090508054611d0090613dc8565b80601f0160208091040260200160405190810160405280929190818152602001828054611d2c90613dc8565b8015611d775780601f10611d4e57610100808354040283529160200191611d77565b820191905f5260205f20905b815481529060010190602001808311611d5a57829003601f168201915b505050505081565b81600581604051611d909190613a87565b90815260200160405180910390206007015f9054906101000a900460ff16611ded576040517f08c379a0000000000000000000000000000000000000000000000000000000008152600401611de490613cad565b60405180910390fd5b823373ffffffffffffffffffffffffffffffffffffffff16600582604051611e159190613a87565b90815260200160405180910390206003015f9054906101000a900473ffffffffffffffffffffffffffffffffffffffff1673ffffffffffffffffffffffffffffffffffffffff1614611e9c576040517f08c379a0000000000000000000000000000000000000000000000000000000008152600401611e939061430b565b60405180910390fd5b5f73ffffffffffffffffffffffffffffffffffffffff168373ffffffffffffffffffffffffffffffffffffffff1603611f0a576040517f08c379a0000000000000000000000000000000000000000000000000000000008152600401611f0190614373565b60405180910390fd5b3373ffffffffffffffffffffffffffffffffffffffff168373ffffffffffffffffffffffffffffffffffffffff1603611f78576040517f08c379a0000000000000000000000000000000000000000000000000000000008152600401611f6f906143db565b60405180910390fd5b60015f8473ffffffffffffffffffffffffffffffffffffffff1673ffffffffffffffffffffffffffffffffffffffff1681526020019081526020015f205f9054906101000a900460ff1680612013575060035f8473ffffffffffffffffffffffffffffffffffffffff1673ffffffffffffffffffffffffffffffffffffffff1681526020019081526020015f205f9054906101000a900460ff165b80612064575060045f8473ffffffffffffffffffffffffffffffffffffffff1673ffffffffffffffffffffffffffffffffffffffff1681526020019081526020015f205f9054906101000a900460ff165b6120a3576040517f08c379a000000000000000000000000000000000000000000000000000000000815260040161209a90614443565b60405180910390fd5b5f6005856040516120b49190613a87565b90815260200160405180910390206003015f9054906101000a900473ffffffffffffffffffffffffffffffffffffffff169050836005866040516120f89190613a87565b90815260200160405180910390206003015f6101000a81548173ffffffffffffffffffffffffffffffffffffffff021916908373ffffffffffffffffffffffffffffffffffffffff16021790555060035f8573ffffffffffffffffffffffffffffffffffffffff1673ffffffffffffffffffffffffffffffffffffffff1681526020019081526020015f205f9054906101000a900460ff161561230e576040518060400160405280600a81526020017f496e205472616e736974000000000000000000000000000000000000000000008152506005866040516121db9190613a87565b908152602001604051809103902060040190816121f89190613f98565b506006856040516122099190613a87565b908152602001604051809103902060405180606001604052806040518060400160405280600a81526020017f496e205472616e7369740000000000000000000000000000000000000000000081525081526020014281526020013373ffffffffffffffffffffffffffffffffffffffff16815250908060018154018082558091505060019003905f5260205f2090600302015f909190919091505f820151815f0190816122b69190613f98565b50602082015181600101556040820151816002015f6101000a81548173ffffffffffffffffffffffffffffffffffffffff021916908373ffffffffffffffffffffffffffffffffffffffff16021790555050506124d3565b60045f8573ffffffffffffffffffffffffffffffffffffffff1673ffffffffffffffffffffffffffffffffffffffff1681526020019081526020015f205f9054906101000a900460ff16156124d2576040518060400160405280600b81526020017f41742052657461696c65720000000000000000000000000000000000000000008152506005866040516123a39190613a87565b908152602001604051809103902060040190816123c09190613f98565b506006856040516123d19190613a87565b908152602001604051809103902060405180606001604052806040518060400160405280600b81526020017f41742052657461696c657200000000000000000000000000000000000000000081525081526020014281526020013373ffffffffffffffffffffffffffffffffffffffff16815250908060018154018082558091505060019003905f5260205f2090600302015f909190919091505f820151815f01908161247e9190613f98565b50602082015181600101556040820151816002015f6101000a81548173ffffffffffffffffffffffffffffffffffffffff021916908373ffffffffffffffffffffffffffffffffffffffff16021790555050505b5b8373ffffffffffffffffffffffffffffffffffffffff168173ffffffffffffffffffffffffffffffffffffffff168660405161250f9190613a87565b60405180910390207ff098a9f0ca48e620570b4a4d165d5ae87dd8fd34ca0e9fa8c25480826e72cc94426040516125469190613834565b60405180910390a45050505050565b60025f3373ffffffffffffffffffffffffffffffffffffffff1673ffffffffffffffffffffffffffffffffffffffff1681526020019081526020015f205f9054906101000a900460ff166125de576040517f08c379a00000000000000000000000000000000000000000000000000000000081526004016125d5906144d1565b60405180910390fd5b816005816040516125ef9190613a87565b90815260200160405180910390206007015f9054906101000a900460ff1661264c576040517f08c379a000000000000000000000000000000000000000000000000000000000815260040161264390613cad565b60405180910390fd5b5f82511161268f576040517f08c379a000000000000000000000000000000000000000000000000000000000815260040161268690614539565b60405180910390fd5b816005846040516126a09190613a87565b908152602001604051809103902060050190816126bd9190613f98565b506040518060400160405280600f81526020017f4365727469666965642048616c616c00000000000000000000000000000000008152506005846040516127049190613a87565b908152602001604051809103902060040190816127219190613f98565b506006836040516127329190613a87565b908152602001604051809103902060405180606001604052806040518060400160405280600f81526020017f4365727469666965642048616c616c000000000000000000000000000000000081525081526020014281526020013373ffffffffffffffffffffffffffffffffffffffff16815250908060018154018082558091505060019003905f5260205f2090600302015f909190919091505f820151815f0190816127df9190613f98565b50602082015181600101556040820151816002015f6101000a81548173ffffffffffffffffffffffffffffffffffffffff021916908373ffffffffffffffffffffffffffffffffffffffff16021790555050503373ffffffffffffffffffffffffffffffffffffffff16836040516128579190613a87565b60405180910390207f936484363f87cae1636fef9e0727155e6ebb82d9b8c344c29ceed9b90c30caf98442604051612890929190614067565b60405180910390a3505050565b60606007805480602002602001604051908101604052809291908181526020015f905b82821015612968578382905f5260205f200180546128dd90613dc8565b80601f016020809104026020016040519081016040528092919081815260200182805461290990613dc8565b80156129545780601f1061292b57610100808354040283529160200191612954565b820191905f5260205f20905b81548152906001019060200180831161293757829003601f168201915b5050505050815260200190600101906128c0565b50505050905090565b6002602052805f5260405f205f915054906101000a900460ff1681565b6003602052805f5260405f205f915054906101000a900460ff1681565b5f5f9054906101000a900473ffffffffffffffffffffffffffffffffffffffff1673ffffffffffffffffffffffffffffffffffffffff163373ffffffffffffffffffffffffffffffffffffffff1614612a39576040517f08c379a0000000000000000000000000000000000000000000000000000000008152600401612a309061395f565b60405180910390fd5b5f60025f8373ffffffffffffffffffffffffffffffffffffffff1673ffffffffffffffffffffffffffffffffffffffff1681526020019081526020015f205f6101000a81548160ff0219169083151502179055508073ffffffffffffffffffffffffffffffffffffffff167f9f43a01c0d4ff5aff09b3b9b472df707ceefd3f948f8942f10fa1562a8921304604051612ad1906140b7565b60405180910390a250565b5f600780549050905090565b5f5f9054906101000a900473ffffffffffffffffffffffffffffffffffffffff1681565b6060805f5f6060805f87600581604051612b269190613a87565b90815260200160405180910390206007015f9054906101000a900460ff16612b83576040517f08c379a0000000000000000000000000000000000000000000000000000000008152600401612b7a90613cad565b60405180910390fd5b5f60058a604051612b949190613a87565b9081526020016040518091039020604051806101000160405290815f82018054612bbd90613dc8565b80601f0160208091040260200160405190810160405280929190818152602001828054612be990613dc8565b8015612c345780601f10612c0b57610100808354040283529160200191612c34565b820191905f5260205f20905b815481529060010190602001808311612c1757829003601f168201915b50505050508152602001600182018054612c4d90613dc8565b80601f0160208091040260200160405190810160405280929190818152602001828054612c7990613dc8565b8015612cc45780601f10612c9b57610100808354040283529160200191612cc4565b820191905f5260205f20905b815481529060010190602001808311612ca757829003601f168201915b50505050508152602001600282015f9054906101000a900473ffffffffffffffffffffffffffffffffffffffff1673ffffffffffffffffffffffffffffffffffffffff1673ffffffffffffffffffffffffffffffffffffffff168152602001600382015f9054906101000a900473ffffffffffffffffffffffffffffffffffffffff1673ffffffffffffffffffffffffffffffffffffffff1673ffffffffffffffffffffffffffffffffffffffff168152602001600482018054612d8790613dc8565b80601f0160208091040260200160405190810160405280929190818152602001828054612db390613dc8565b8015612dfe5780601f10612dd557610100808354040283529160200191612dfe565b820191905f5260205f20905b815481529060010190602001808311612de157829003601f168201915b50505050508152602001600582018054612e1790613dc8565b80601f0160208091040260200160405190810160405280929190818152602001828054612e4390613dc8565b8015612e8e5780601f10612e6557610100808354040283529160200191612e8e565b820191905f5260205f20905b815481529060010190602001808311612e7157829003601f168201915b5050505050815260200160068201548152602001600782015f9054906101000a900460ff1615151515815250509050805f015181602001518260400151836060015184608001518560a001518660c0015198509850985098509850985098505050919395979092949650565b5f5f9054906101000a900473ffffffffffffffffffffffffffffffffffffffff1673ffffffffffffffffffffffffffffffffffffffff163373ffffffffffffffffffffffffffffffffffffffff1614612f88576040517f08c379a0000000000000000000000000000000000000000000000000000000008152600401612f7f9061395f565b60405180910390fd5b5f60015f8373ffffffffffffffffffffffffffffffffffffffff1673ffffffffffffffffffffffffffffffffffffffff1681526020019081526020015f205f6101000a81548160ff0219169083151502179055508073ffffffffffffffffffffffffffffffffffffffff167f9f43a01c0d4ff5aff09b3b9b472df707ceefd3f948f8942f10fa1562a8921304604051613020906139c7565b60405180910390a250565b5f604051905090565b5f5ffd5b5f5ffd5b5f73ffffffffffffffffffffffffffffffffffffffff82169050919050565b5f6130658261303c565b9050919050565b6130758161305b565b811461307f575f5ffd5b50565b5f813590506130908161306c565b92915050565b5f602082840312156130ab576130aa613034565b5b5f6130b884828501613082565b91505092915050565b5f5ffd5b5f5ffd5b5f601f19601f8301169050919050565b7f4e487b71000000000000000000000000000000000000000000000000000000005f52604160045260245ffd5b61310f826130c9565b810181811067ffffffffffffffff8211171561312e5761312d6130d9565b5b80604052505050565b5f61314061302b565b905061314c8282613106565b919050565b5f67ffffffffffffffff82111561316b5761316a6130d9565b5b613174826130c9565b9050602081019050919050565b828183375f83830152505050565b5f6131a161319c84613151565b613137565b9050828152602081018484840111156131bd576131bc6130c5565b5b6131c8848285613181565b509392505050565b5f82601f8301126131e4576131e36130c1565b5b81356131f484826020860161318f565b91505092915050565b5f5f6040838503121561321357613212613034565b5b5f61322085828601613082565b925050602083013567ffffffffffffffff81111561324157613240613038565b5b61324d858286016131d0565b9150509250929050565b5f8115159050919050565b61326b81613257565b82525050565b5f6020820190506132845f830184613262565b92915050565b5f5f604083850312156132a05761329f613034565b5b5f83013567ffffffffffffffff8111156132bd576132bc613038565b5b6132c9858286016131d0565b925050602083013567ffffffffffffffff8111156132ea576132e9613038565b5b6132f6858286016131d0565b9150509250929050565b5f6020828403121561331557613314613034565b5b5f82013567ffffffffffffffff81111561333257613331613038565b5b61333e848285016131d0565b91505092915050565b5f81519050919050565b5f82825260208201905092915050565b8281835e5f83830152505050565b5f61337982613347565b6133838185613351565b9350613393818560208601613361565b61339c816130c9565b840191505092915050565b6133b08161305b565b82525050565b5f819050919050565b6133c8816133b6565b82525050565b5f610100820190508181035f8301526133e7818b61336f565b905081810360208301526133fb818a61336f565b905061340a60408301896133a7565b61341760608301886133a7565b8181036080830152613429818761336f565b905081810360a083015261343d818661336f565b905061344c60c08301856133bf565b61345960e0830184613262565b9998505050505050505050565b61346f816133b6565b8114613479575f5ffd5b50565b5f8135905061348a81613466565b92915050565b5f5f604083850312156134a6576134a5613034565b5b5f83013567ffffffffffffffff8111156134c3576134c2613038565b5b6134cf858286016131d0565b92505060206134e08582860161347c565b9150509250929050565b5f6060820190508181035f830152613502818661336f565b905061351160208301856133bf565b61351e60408301846133a7565b949350505050565b5f81519050919050565b5f82825260208201905092915050565b5f819050602082019050919050565b5f82825260208201905092915050565b5f61356982613347565b613573818561354f565b9350613583818560208601613361565b61358c816130c9565b840191505092915050565b6135a0816133b6565b82525050565b6135af8161305b565b82525050565b5f606083015f8301518482035f8601526135cf828261355f565b91505060208301516135e46020860182613597565b5060408301516135f760408601826135a6565b508091505092915050565b5f61360d83836135b5565b905092915050565b5f602082019050919050565b5f61362b82613526565b6136358185613530565b93508360208202850161364785613540565b805f5b8581101561368257848403895281516136638582613602565b945061366e83613615565b925060208a0199505060018101905061364a565b50829750879550505050505092915050565b5f6020820190508181035f8301526136ac8184613621565b905092915050565b5f602082840312156136c9576136c8613034565b5b5f6136d68482850161347c565b91505092915050565b5f6020820190508181035f8301526136f7818461336f565b905092915050565b5f5f6040838503121561371557613714613034565b5b5f83013567ffffffffffffffff81111561373257613731613038565b5b61373e858286016131d0565b925050602061374f85828601613082565b9150509250929050565b5f81519050919050565b5f82825260208201905092915050565b5f819050602082019050919050565b5f61378d838361355f565b905092915050565b5f602082019050919050565b5f6137ab82613759565b6137b58185613763565b9350836020820285016137c785613773565b805f5b8581101561380257848403895281516137e38582613782565b94506137ee83613795565b925060208a019950506001810190506137ca565b50829750879550505050505092915050565b5f6020820190508181035f83015261382c81846137a1565b905092915050565b5f6020820190506138475f8301846133bf565b92915050565b5f6020820190506138605f8301846133a7565b92915050565b5f60e0820190508181035f83015261387e818a61336f565b90508181036020830152613892818961336f565b90506138a160408301886133a7565b6138ae60608301876133a7565b81810360808301526138c0818661336f565b905081810360a08301526138d4818561336f565b90506138e360c08301846133bf565b98975050505050505050565b7f4f6e6c792061646d696e2063616e20706572666f726d207468697320616374695f8201527f6f6e000000000000000000000000000000000000000000000000000000000000602082015250565b5f613949602283613351565b9150613954826138ef565b604082019050919050565b5f6020820190508181035f8301526139768161393d565b9050919050565b7f50726f64756365720000000000000000000000000000000000000000000000005f82015250565b5f6139b1600883613351565b91506139bc8261397d565b602082019050919050565b5f6020820190508181035f8301526139de816139a5565b9050919050565b7f4469737472696275746f720000000000000000000000000000000000000000005f82015250565b5f613a19600b83613351565b9150613a24826139e5565b602082019050919050565b5f6020820190508181035f830152613a4681613a0d565b9050919050565b5f81905092915050565b5f613a6182613347565b613a6b8185613a4d565b9350613a7b818560208601613361565b80840191505092915050565b5f613a928284613a57565b915081905092915050565b5f613aa9600883613a4d565b9150613ab48261397d565b600882019050919050565b5f613ac982613a9d565b9150819050919050565b7f48616c616c417574686f726974790000000000000000000000000000000000005f82015250565b5f613b07600e83613a4d565b9150613b1282613ad3565b600e82019050919050565b5f613b2782613afb565b9150819050919050565b5f613b3d600b83613a4d565b9150613b48826139e5565b600b82019050919050565b5f613b5d82613b31565b9150819050919050565b7f52657461696c65720000000000000000000000000000000000000000000000005f82015250565b5f613b9b600883613a4d565b9150613ba682613b67565b600882019050919050565b5f613bbb82613b8f565b9150819050919050565b7f41646d696e0000000000000000000000000000000000000000000000000000005f82015250565b5f613bf9600583613a4d565b9150613c0482613bc5565b600582019050919050565b5f613c1982613bed565b9150819050919050565b5f613c2f600883613351565b9150613c3a82613b67565b602082019050919050565b5f6020820190508181035f830152613c5c81613c23565b9050919050565b7f426174636820646f6573206e6f742065786973740000000000000000000000005f82015250565b5f613c97601483613351565b9150613ca282613c63565b602082019050919050565b5f6020820190508181035f830152613cc481613c8b565b9050919050565b7f4e6f7420617574686f72697a656420746f2075706461746520737461747573005f82015250565b5f613cff601f83613351565b9150613d0a82613ccb565b602082019050919050565b5f6020820190508181035f830152613d2c81613cf3565b9050919050565b7f5374617475732063616e6e6f7420626520656d707479000000000000000000005f82015250565b5f613d67601683613351565b9150613d7282613d33565b602082019050919050565b5f6020820190508181035f830152613d9481613d5b565b9050919050565b7f4e487b71000000000000000000000000000000000000000000000000000000005f52602260045260245ffd5b5f6002820490506001821680613ddf57607f821691505b602082108103613df257613df1613d9b565b5b50919050565b5f819050815f5260205f209050919050565b5f6020601f8301049050919050565b5f82821b905092915050565b5f60088302613e547fffffffffffffffffffffffffffffffffffffffffffffffffffffffffffffffff82613e19565b613e5e8683613e19565b95508019841693508086168417925050509392505050565b5f819050919050565b5f613e99613e94613e8f846133b6565b613e76565b6133b6565b9050919050565b5f819050919050565b613eb283613e7f565b613ec6613ebe82613ea0565b848454613e25565b825550505050565b5f5f905090565b613edd613ece565b613ee8818484613ea9565b505050565b5b81811015613f0b57613f005f82613ed5565b600181019050613eee565b5050565b601f821115613f5057613f2181613df8565b613f2a84613e0a565b81016020851015613f39578190505b613f4d613f4585613e0a565b830182613eed565b50505b505050565b5f82821c905092915050565b5f613f705f1984600802613f55565b1980831691505092915050565b5f613f888383613f61565b9150826002028217905092915050565b613fa182613347565b67ffffffffffffffff811115613fba57613fb96130d9565b5b613fc48254613dc8565b613fcf828285613f0f565b5f60209050601f831160018114614000575f8415613fee578287015190505b613ff88582613f7d565b86555061405f565b601f19841661400e86613df8565b5f5b8281101561403557848901518255600182019150602085019450602081019050614010565b86831015614052578489015161404e601f891682613f61565b8355505b6001600288020188555050505b505050505050565b5f6040820190508181035f83015261407f818561336f565b905061408e60208301846133bf565b9392505050565b5f6140a1600e83613351565b91506140ac82613ad3565b602082019050919050565b5f6020820190508181035f8301526140ce81614095565b9050919050565b7f4f6e6c792070726f64756365722063616e20706572666f726d207468697320615f8201527f6374696f6e000000000000000000000000000000000000000000000000000000602082015250565b5f61412f602583613351565b915061413a826140d5565b604082019050919050565b5f6020820190508181035f83015261415c81614123565b9050919050565b7f426174636820494420616c7265616479206578697374730000000000000000005f82015250565b5f614197601783613351565b91506141a282614163565b602082019050919050565b5f6020820190508181035f8301526141c48161418b565b9050919050565b7f42617463682049442063616e6e6f7420626520656d70747900000000000000005f82015250565b5f6141ff601883613351565b915061420a826141cb565b602082019050919050565b5f6020820190508181035f83015261422c816141f3565b9050919050565b7f50726f64756374206e616d652063616e6e6f7420626520656d707479000000005f82015250565b5f614267601c83613351565b915061427282614233565b602082019050919050565b5f6020820190508181035f8301526142948161425b565b9050919050565b7f4f6e6c792063757272656e74206f776e65722063616e20706572666f726d20745f8201527f68697320616374696f6e00000000000000000000000000000000000000000000602082015250565b5f6142f5602a83613351565b91506143008261429b565b604082019050919050565b5f6020820190508181035f830152614322816142e9565b9050919050565b7f496e76616c696420726563697069656e742061646472657373000000000000005f82015250565b5f61435d601983613351565b915061436882614329565b602082019050919050565b5f6020820190508181035f83015261438a81614351565b9050919050565b7f43616e6e6f74207472616e7366657220746f20796f757273656c6600000000005f82015250565b5f6143c5601b83613351565b91506143d082614391565b602082019050919050565b5f6020820190508181035f8301526143f2816143b9565b9050919050565b7f526563697069656e74206d757374206861766520612076616c696420726f6c655f82015250565b5f61442d602083613351565b9150614438826143f9565b602082019050919050565b5f6020820190508181035f83015261445a81614421565b9050919050565b7f4f6e6c792068616c616c20617574686f726974792063616e20706572666f726d5f8201527f207468697320616374696f6e0000000000000000000000000000000000000000602082015250565b5f6144bb602c83613351565b91506144c682614461565b604082019050919050565b5f6020820190508181035f8301526144e8816144af565b9050919050565b7f436572746966696361746520686173682063616e6e6f7420626520656d7074795f82015250565b5f614523602083613351565b915061452e826144ef565b602082019050919050565b5f6020820190508181035f83015261455081614517565b905091905056fea26469706673582212207a4085e1bf9de3e063dbf3fcd799d603f33d4a6b7b8a375f4ab7aa682d41a84764736f6c634300081e0033",
					"opcodes": "PUSH1 0x80 PUSH1 0x40 MSTORE CALLVALUE DUP1 ISZERO PUSH1 0xE JUMPI PUSH0 PUSH0 REVERT JUMPDEST POP CALLER PUSH0 PUSH0 PUSH2 0x100 EXP DUP2 SLOAD DUP2 PUSH20 0xFFFFFFFFFFFFFFFFFFFFFFFFFFFFFFFFFFFFFFFF MUL NOT AND SWAP1 DUP4 PUSH20 0xFFFFFFFFFFFFFFFFFFFFFFFFFFFFFFFFFFFFFFFF AND MUL OR SWAP1 SSTORE POP PUSH2 0x458D DUP1 PUSH2 0x5B PUSH0 CODECOPY PUSH0 RETURN INVALID PUSH1 0x80 PUSH1 0x40 MSTORE CALLVALUE DUP1 ISZERO PUSH2 0xF JUMPI PUSH0 PUSH0 REVERT JUMPDEST POP PUSH1 0x4 CALLDATASIZE LT PUSH2 0x170 JUMPI PUSH0 CALLDATALOAD PUSH1 0xE0 SHR DUP1 PUSH4 0x9B4BC927 GT PUSH2 0xDC JUMPI DUP1 PUSH4 0xC989EA25 GT PUSH2 0x95 JUMPI DUP1 PUSH4 0xE561DDDC GT PUSH2 0x6F JUMPI DUP1 PUSH4 0xE561DDDC EQ PUSH2 0x47F JUMPI DUP1 PUSH4 0xF851A440 EQ PUSH2 0x49D JUMPI DUP1 PUSH4 0xF9CA4274 EQ PUSH2 0x4BB JUMPI DUP1 PUSH4 0xF9F8904A EQ PUSH2 0x4F1 JUMPI PUSH2 0x170 JUMP JUMPDEST DUP1 PUSH4 0xC989EA25 EQ PUSH2 0x403 JUMPI DUP1 PUSH4 0xCC642784 EQ PUSH2 0x433 JUMPI DUP1 PUSH4 0xDCDCBE4E EQ PUSH2 0x463 JUMPI PUSH2 0x170 JUMP JUMPDEST DUP1 PUSH4 0x9B4BC927 EQ PUSH2 0x31B JUMPI DUP1 PUSH4 0xA252D8A7 EQ PUSH2 0x34D JUMPI DUP1 PUSH4 0xB3D346B9 EQ PUSH2 0x37D JUMPI DUP1 PUSH4 0xB401563B EQ PUSH2 0x3AD JUMPI DUP1 PUSH4 0xBBB65699 EQ PUSH2 0x3C9 JUMPI DUP1 PUSH4 0xBCE06947 EQ PUSH2 0x3E5 JUMPI PUSH2 0x170 JUMP JUMPDEST DUP1 PUSH4 0x347047CC GT PUSH2 0x12E JUMPI DUP1 PUSH4 0x347047CC EQ PUSH2 0x244 JUMPI DUP1 PUSH4 0x65DE2305 EQ PUSH2 0x260 JUMPI DUP1 PUSH4 0x782EB934 EQ PUSH2 0x27C JUMPI DUP1 PUSH4 0x7EF1446A EQ PUSH2 0x298 JUMPI DUP1 PUSH4 0x92B8F021 EQ PUSH2 0x2CF JUMPI DUP1 PUSH4 0x9A268F35 EQ PUSH2 0x2EB JUMPI PUSH2 0x170 JUMP JUMPDEST DUP1 PUSH3 0x91A91C EQ PUSH2 0x174 JUMPI DUP1 PUSH4 0xC1B1178 EQ PUSH2 0x190 JUMPI DUP1 PUSH4 0x120B93D3 EQ PUSH2 0x1AC JUMPI DUP1 PUSH4 0x217FE6C6 EQ PUSH2 0x1C8 JUMPI DUP1 PUSH4 0x2561F718 EQ PUSH2 0x1F8 JUMPI DUP1 PUSH4 0x26324EFF EQ PUSH2 0x214 JUMPI JUMPDEST PUSH0 PUSH0 REVERT JUMPDEST PUSH2 0x18E PUSH1 0x4 DUP1 CALLDATASIZE SUB DUP2 ADD SWAP1 PUSH2 0x189 SWAP2 SWAP1 PUSH2 0x3096 JUMP JUMPDEST PUSH2 0x50D JUMP JUMPDEST STOP JUMPDEST PUSH2 0x1AA PUSH1 0x4 DUP1 CALLDATASIZE SUB DUP2 ADD SWAP1 PUSH2 0x1A5 SWAP2 SWAP1 PUSH2 0x3096 JUMP JUMPDEST PUSH2 0x63E JUMP JUMPDEST STOP JUMPDEST PUSH2 0x1C6 PUSH1 0x4 DUP1 CALLDATASIZE SUB DUP2 ADD SWAP1 PUSH2 0x1C1 SWAP2 SWAP1 PUSH2 0x3096 JUMP JUMPDEST PUSH2 0x770 JUMP JUMPDEST STOP JUMPDEST PUSH2 0x1E2 PUSH1 0x4 DUP1 CALLDATASIZE SUB DUP2 ADD SWAP1 PUSH2 0x1DD SWAP2 SWAP1 PUSH2 0x31FD JUMP JUMPDEST PUSH2 0x8A1 JUMP JUMPDEST PUSH1 0x40 MLOAD PUSH2 0x1EF SWAP2 SWAP1 PUSH2 0x3271 JUMP JUMPDEST PUSH1 0x40 MLOAD DUP1 SWAP2 SUB SWAP1 RETURN JUMPDEST PUSH2 0x212 PUSH1 0x4 DUP1 CALLDATASIZE SUB DUP2 ADD SWAP1 PUSH2 0x20D SWAP2 SWAP1 PUSH2 0x3096 JUMP JUMPDEST PUSH2 0xB4D JUMP JUMPDEST STOP JUMPDEST PUSH2 0x22E PUSH1 0x4 DUP1 CALLDATASIZE SUB DUP2 ADD SWAP1 PUSH2 0x229 SWAP2 SWAP1 PUSH2 0x3096 JUMP JUMPDEST PUSH2 0xC7F JUMP JUMPDEST PUSH1 0x40 MLOAD PUSH2 0x23B SWAP2 SWAP1 PUSH2 0x3271 JUMP JUMPDEST PUSH1 0x40 MLOAD DUP1 SWAP2 SUB SWAP1 RETURN JUMPDEST PUSH2 0x25E PUSH1 0x4 DUP1 CALLDATASIZE SUB DUP2 ADD SWAP1 PUSH2 0x259 SWAP2 SWAP1 PUSH2 0x328A JUMP JUMPDEST PUSH2 0xC9C JUMP JUMPDEST STOP JUMPDEST PUSH2 0x27A PUSH1 0x4 DUP1 CALLDATASIZE SUB DUP2 ADD SWAP1 PUSH2 0x275 SWAP2 SWAP1 PUSH2 0x3096 JUMP JUMPDEST PUSH2 0xFC1 JUMP JUMPDEST STOP JUMPDEST PUSH2 0x296 PUSH1 0x4 DUP1 CALLDATASIZE SUB DUP2 ADD SWAP1 PUSH2 0x291 SWAP2 SWAP1 PUSH2 0x3096 JUMP JUMPDEST PUSH2 0x10F3 JUMP JUMPDEST STOP JUMPDEST PUSH2 0x2B2 PUSH1 0x4 DUP1 CALLDATASIZE SUB DUP2 ADD SWAP1 PUSH2 0x2AD SWAP2 SWAP1 PUSH2 0x3300 JUMP JUMPDEST PUSH2 0x1224 JUMP JUMPDEST PUSH1 0x40 MLOAD PUSH2 0x2C6 SWAP9 SWAP8 SWAP7 SWAP6 SWAP5 SWAP4 SWAP3 SWAP2 SWAP1 PUSH2 0x33CE JUMP JUMPDEST PUSH1 0x40 MLOAD DUP1 SWAP2 SUB SWAP1 RETURN JUMPDEST PUSH2 0x2E9 PUSH1 0x4 DUP1 CALLDATASIZE SUB DUP2 ADD SWAP1 PUSH2 0x2E4 SWAP2 SWAP1 PUSH2 0x328A JUMP JUMPDEST PUSH2 0x14E2 JUMP JUMPDEST STOP JUMPDEST PUSH2 0x305 PUSH1 0x4 DUP1 CALLDATASIZE SUB DUP2 ADD SWAP1 PUSH2 0x300 SWAP2 SWAP1 PUSH2 0x3096 JUMP JUMPDEST PUSH2 0x19E8 JUMP JUMPDEST PUSH1 0x40 MLOAD PUSH2 0x312 SWAP2 SWAP1 PUSH2 0x3271 JUMP JUMPDEST PUSH1 0x40 MLOAD DUP1 SWAP2 SUB SWAP1 RETURN JUMPDEST PUSH2 0x335 PUSH1 0x4 DUP1 CALLDATASIZE SUB DUP2 ADD SWAP1 PUSH2 0x330 SWAP2 SWAP1 PUSH2 0x3490 JUMP JUMPDEST PUSH2 0x1A05 JUMP JUMPDEST PUSH1 0x40 MLOAD PUSH2 0x344 SWAP4 SWAP3 SWAP2 SWAP1 PUSH2 0x34EA JUMP JUMPDEST PUSH1 0x40 MLOAD DUP1 SWAP2 SUB SWAP1 RETURN JUMPDEST PUSH2 0x367 PUSH1 0x4 DUP1 CALLDATASIZE SUB DUP2 ADD SWAP1 PUSH2 0x362 SWAP2 SWAP1 PUSH2 0x3300 JUMP JUMPDEST PUSH2 0x1B02 JUMP JUMPDEST PUSH1 0x40 MLOAD PUSH2 0x374 SWAP2 SWAP1 PUSH2 0x3694 JUMP JUMPDEST PUSH1 0x40 MLOAD DUP1 SWAP2 SUB SWAP1 RETURN JUMPDEST PUSH2 0x397 PUSH1 0x4 DUP1 CALLDATASIZE SUB DUP2 ADD SWAP1 PUSH2 0x392 SWAP2 SWAP1 PUSH2 0x36B4 JUMP JUMPDEST PUSH2 0x1CD9 JUMP JUMPDEST PUSH1 0x40 MLOAD PUSH2 0x3A4 SWAP2 SWAP1 PUSH2 0x36DF JUMP JUMPDEST PUSH1 0x40 MLOAD DUP1 SWAP2 SUB SWAP1 RETURN JUMPDEST PUSH2 0x3C7 PUSH1 0x4 DUP1 CALLDATASIZE SUB DUP2 ADD SWAP1 PUSH2 0x3C2 SWAP2 SWAP1 PUSH2 0x36FF JUMP JUMPDEST PUSH2 0x1D7F JUMP JUMPDEST STOP JUMPDEST PUSH2 0x3E3 PUSH1 0x4 DUP1 CALLDATASIZE SUB DUP2 ADD SWAP1 PUSH2 0x3DE SWAP2 SWAP1 PUSH2 0x328A JUMP JUMPDEST PUSH2 0x2555 JUMP JUMPDEST STOP JUMPDEST PUSH2 0x3ED PUSH2 0x289D JUMP JUMPDEST PUSH1 0x40 MLOAD PUSH2 0x3FA SWAP2 SWAP1 PUSH2 0x3814 JUMP JUMPDEST PUSH1 0x40 MLOAD DUP1 SWAP2 SUB SWAP1 RETURN JUMPDEST PUSH2 0x41D PUSH1 0x4 DUP1 CALLDATASIZE SUB DUP2 ADD SWAP1 PUSH2 0x418 SWAP2 SWAP1 PUSH2 0x3096 JUMP JUMPDEST PUSH2 0x2971 JUMP JUMPDEST PUSH1 0x40 MLOAD PUSH2 0x42A SWAP2 SWAP1 PUSH2 0x3271 JUMP JUMPDEST PUSH1 0x40 MLOAD DUP1 SWAP2 SUB SWAP1 RETURN JUMPDEST PUSH2 0x44D PUSH1 0x4 DUP1 CALLDATASIZE SUB DUP2 ADD SWAP1 PUSH2 0x448 SWAP2 SWAP1 PUSH2 0x3096 JUMP JUMPDEST PUSH2 0x298E JUMP JUMPDEST PUSH1 0x40 MLOAD PUSH2 0x45A SWAP2 SWAP1 PUSH2 0x3271 JUMP JUMPDEST PUSH1 0x40 MLOAD DUP1 SWAP2 SUB SWAP1 RETURN JUMPDEST PUSH2 0x47D PUSH1 0x4 DUP1 CALLDATASIZE SUB DUP2 ADD SWAP1 PUSH2 0x478 SWAP2 SWAP1 PUSH2 0x3096 JUMP JUMPDEST PUSH2 0x29AB JUMP JUMPDEST STOP JUMPDEST PUSH2 0x487 PUSH2 0x2ADC JUMP JUMPDEST PUSH1 0x40 MLOAD PUSH2 0x494 SWAP2 SWAP1 PUSH2 0x3834 JUMP JUMPDEST PUSH1 0x40 MLOAD DUP1 SWAP2 SUB SWAP1 RETURN JUMPDEST PUSH2 0x4A5 PUSH2 0x2AE8 JUMP JUMPDEST PUSH1 0x40 MLOAD PUSH2 0x4B2 SWAP2 SWAP1 PUSH2 0x384D JUMP JUMPDEST PUSH1 0x40 MLOAD DUP1 SWAP2 SUB SWAP1 RETURN JUMPDEST PUSH2 0x4D5 PUSH1 0x4 DUP1 CALLDATASIZE SUB DUP2 ADD SWAP1 PUSH2 0x4D0 SWAP2 SWAP1 PUSH2 0x3300 JUMP JUMPDEST PUSH2 0x2B0C JUMP JUMPDEST PUSH1 0x40 MLOAD PUSH2 0x4E8 SWAP8 SWAP7 SWAP6 SWAP5 SWAP4 SWAP3 SWAP2 SWAP1 PUSH2 0x3866 JUMP JUMPDEST PUSH1 0x40 MLOAD DUP1 SWAP2 SUB SWAP1 RETURN JUMPDEST PUSH2 0x50B PUSH1 0x4 DUP1 CALLDATASIZE SUB DUP2 ADD SWAP1 PUSH2 0x506 SWAP2 SWAP1 PUSH2 0x3096 JUMP JUMPDEST PUSH2 0x2EFA JUMP JUMPDEST STOP JUMPDEST PUSH0 PUSH0 SWAP1 SLOAD SWAP1 PUSH2 0x100 EXP SWAP1 DIV PUSH20 0xFFFFFFFFFFFFFFFFFFFFFFFFFFFFFFFFFFFFFFFF AND PUSH20 0xFFFFFFFFFFFFFFFFFFFFFFFFFFFFFFFFFFFFFFFF AND CALLER PUSH20 0xFFFFFFFFFFFFFFFFFFFFFFFFFFFFFFFFFFFFFFFF AND EQ PUSH2 0x59B JUMPI PUSH1 0x40 MLOAD PUSH32 0x8C379A000000000000000000000000000000000000000000000000000000000 DUP2 MSTORE PUSH1 0x4 ADD PUSH2 0x592 SWAP1 PUSH2 0x395F JUMP JUMPDEST PUSH1 0x40 MLOAD DUP1 SWAP2 SUB SWAP1 REVERT JUMPDEST PUSH1 0x1 DUP1 PUSH0 DUP4 PUSH20 0xFFFFFFFFFFFFFFFFFFFFFFFFFFFFFFFFFFFFFFFF AND PUSH20 0xFFFFFFFFFFFFFFFFFFFFFFFFFFFFFFFFFFFFFFFF AND DUP2 MSTORE PUSH1 0x20 ADD SWAP1 DUP2 MSTORE PUSH1 0x20 ADD PUSH0 KECCAK256 PUSH0 PUSH2 0x100 EXP DUP2 SLOAD DUP2 PUSH1 0xFF MUL NOT AND SWAP1 DUP4 ISZERO ISZERO MUL OR SWAP1 SSTORE POP DUP1 PUSH20 0xFFFFFFFFFFFFFFFFFFFFFFFFFFFFFFFFFFFFFFFF AND PUSH32 0x3565795C2FB8842C21347D277937778BBCFE788B5B4F790FC5E408786CBE9C90 PUSH1 0x40 MLOAD PUSH2 0x633 SWAP1 PUSH2 0x39C7 JUMP JUMPDEST PUSH1 0x40 MLOAD DUP1 SWAP2 SUB SWAP1 LOG2 POP JUMP JUMPDEST PUSH0 PUSH0 SWAP1 SLOAD SWAP1 PUSH2 0x100 EXP SWAP1 DIV PUSH20 0xFFFFFFFFFFFFFFFFFFFFFFFFFFFFFFFFFFFFFFFF AND PUSH20 0xFFFFFFFFFFFFFFFFFFFFFFFFFFFFFFFFFFFFFFFF AND CALLER PUSH20 0xFFFFFFFFFFFFFFFFFFFFFFFFFFFFFFFFFFFFFFFF AND EQ PUSH2 0x6CC JUMPI PUSH1 0x40 MLOAD PUSH32 0x8C379A000000000000000000000000000000000000000000000000000000000 DUP2 MSTORE PUSH1 0x4 ADD PUSH2 0x6C3 SWAP1 PUSH2 0x395F JUMP JUMPDEST PUSH1 0x40 MLOAD DUP1 SWAP2 SUB SWAP1 REVERT JUMPDEST PUSH1 0x1 PUSH1 0x3 PUSH0 DUP4 PUSH20 0xFFFFFFFFFFFFFFFFFFFFFFFFFFFFFFFFFFFFFFFF AND PUSH20 0xFFFFFFFFFFFFFFFFFFFFFFFFFFFFFFFFFFFFFFFF AND DUP2 MSTORE PUSH1 0x20 ADD SWAP1 DUP2 MSTORE PUSH1 0x20 ADD PUSH0 KECCAK256 PUSH0 PUSH2 0x100 EXP DUP2 SLOAD DUP2 PUSH1 0xFF MUL NOT AND SWAP1 DUP4 ISZERO ISZERO MUL OR SWAP1 SSTORE POP DUP1 PUSH20 0xFFFFFFFFFFFFFFFFFFFFFFFFFFFFFFFFFFFFFFFF AND PUSH32 0x3565795C2FB8842C21347D277937778BBCFE788B5B4F790FC5E408786CBE9C90 PUSH1 0x40 MLOAD PUSH2 0x765 SWAP1 PUSH2 0x3A2F JUMP JUMPDEST PUSH1 0x40 MLOAD DUP1 SWAP2 SUB SWAP1 LOG2 POP JUMP JUMPDEST PUSH0 PUSH0 SWAP1 SLOAD SWAP1 PUSH2 0x100 EXP SWAP1 DIV PUSH20 0xFFFFFFFFFFFFFFFFFFFFFFFFFFFFFFFFFFFFFFFF AND PUSH20 0xFFFFFFFFFFFFFFFFFFFFFFFFFFFFFFFFFFFFFFFF AND CALLER PUSH20 0xFFFFFFFFFFFFFFFFFFFFFFFFFFFFFFFFFFFFFFFF AND EQ PUSH2 0x7FE JUMPI PUSH1 0x40 MLOAD PUSH32 0x8C379A000000000000000000000000000000000000000000000000000000000 DUP2 MSTORE PUSH1 0x4 ADD PUSH2 0x7F5 SWAP1 PUSH2 0x395F JUMP JUMPDEST PUSH1 0x40 MLOAD DUP1 SWAP2 SUB SWAP1 REVERT JUMPDEST PUSH0 PUSH1 0x3 PUSH0 DUP4 PUSH20 0xFFFFFFFFFFFFFFFFFFFFFFFFFFFFFFFFFFFFFFFF AND PUSH20 0xFFFFFFFFFFFFFFFFFFFFFFFFFFFFFFFFFFFFFFFF AND DUP2 MSTORE PUSH1 0x20 ADD SWAP1 DUP2 MSTORE PUSH1 0x20 ADD PUSH0 KECCAK256 PUSH0 PUSH2 0x100 EXP DUP2 SLOAD DUP2 PUSH1 0xFF MUL NOT AND SWAP1 DUP4 ISZERO ISZERO MUL OR SWAP1 SSTORE POP DUP1 PUSH20 0xFFFFFFFFFFFFFFFFFFFFFFFFFFFFFFFFFFFFFFFF AND PUSH32 0x9F43A01C0D4FF5AFF09B3B9B472DF707CEEFD3F948F8942F10FA1562A8921304 PUSH1 0x40 MLOAD PUSH2 0x896 SWAP1 PUSH2 0x3A2F JUMP JUMPDEST PUSH1 0x40 MLOAD DUP1 SWAP2 SUB SWAP1 LOG2 POP JUMP JUMPDEST PUSH0 PUSH0 DUP3 PUSH1 0x40 MLOAD PUSH1 0x20 ADD PUSH2 0x8B4 SWAP2 SWAP1 PUSH2 0x3A87 JUMP JUMPDEST PUSH1 0x40 MLOAD PUSH1 0x20 DUP2 DUP4 SUB SUB DUP2 MSTORE SWAP1 PUSH1 0x40 MSTORE DUP1 MLOAD SWAP1 PUSH1 0x20 ADD KECCAK256 SWAP1 POP PUSH1 0x40 MLOAD PUSH1 0x20 ADD PUSH2 0x8DB SWAP1 PUSH2 0x3ABF JUMP JUMPDEST PUSH1 0x40 MLOAD PUSH1 0x20 DUP2 DUP4 SUB SUB DUP2 MSTORE SWAP1 PUSH1 0x40 MSTORE DUP1 MLOAD SWAP1 PUSH1 0x20 ADD KECCAK256 DUP2 SUB PUSH2 0x949 JUMPI PUSH1 0x1 PUSH0 DUP6 PUSH20 0xFFFFFFFFFFFFFFFFFFFFFFFFFFFFFFFFFFFFFFFF AND PUSH20 0xFFFFFFFFFFFFFFFFFFFFFFFFFFFFFFFFFFFFFFFF AND DUP2 MSTORE PUSH1 0x20 ADD SWAP1 DUP2 MSTORE PUSH1 0x20 ADD PUSH0 KECCAK256 PUSH0 SWAP1 SLOAD SWAP1 PUSH2 0x100 EXP SWAP1 DIV PUSH1 0xFF AND SWAP2 POP POP PUSH2 0xB47 JUMP JUMPDEST PUSH1 0x40 MLOAD PUSH1 0x20 ADD PUSH2 0x958 SWAP1 PUSH2 0x3B1D JUMP JUMPDEST PUSH1 0x40 MLOAD PUSH1 0x20 DUP2 DUP4 SUB SUB DUP2 MSTORE SWAP1 PUSH1 0x40 MSTORE DUP1 MLOAD SWAP1 PUSH1 0x20 ADD KECCAK256 DUP2 SUB PUSH2 0x9C6 JUMPI PUSH1 0x2 PUSH0 DUP6 PUSH20 0xFFFFFFFFFFFFFFFFFFFFFFFFFFFFFFFFFFFFFFFF AND PUSH20 0xFFFFFFFFFFFFFFFFFFFFFFFFFFFFFFFFFFFFFFFF AND DUP2 MSTORE PUSH1 0x20 ADD SWAP1 DUP2 MSTORE PUSH1 0x20 ADD PUSH0 KECCAK256 PUSH0 SWAP1 SLOAD SWAP1 PUSH2 0x100 EXP SWAP1 DIV PUSH1 0xFF AND SWAP2 POP POP PUSH2 0xB47 JUMP JUMPDEST PUSH1 0x40 MLOAD PUSH1 0x20 ADD PUSH2 0x9D5 SWAP1 PUSH2 0x3B53 JUMP JUMPDEST PUSH1 0x40 MLOAD PUSH1 0x20 DUP2 DUP4 SUB SUB DUP2 MSTORE SWAP1 PUSH1 0x40 MSTORE DUP1 MLOAD SWAP1 PUSH1 0x20 ADD KECCAK256 DUP2 SUB PUSH2 0xA43 JUMPI PUSH1 0x3 PUSH0 DUP6 PUSH20 0xFFFFFFFFFFFFFFFFFFFFFFFFFFFFFFFFFFFFFFFF AND PUSH20 0xFFFFFFFFFFFFFFFFFFFFFFFFFFFFFFFFFFFFFFFF AND DUP2 MSTORE PUSH1 0x20 ADD SWAP1 DUP2 MSTORE PUSH1 0x20 ADD PUSH0 KECCAK256 PUSH0 SWAP1 SLOAD SWAP1 PUSH2 0x100 EXP SWAP1 DIV PUSH1 0xFF AND SWAP2 POP POP PUSH2 0xB47 JUMP JUMPDEST PUSH1 0x40 MLOAD PUSH1 0x20 ADD PUSH2 0xA52 SWAP1 PUSH2 0x3BB1 JUMP JUMPDEST PUSH1 0x40 MLOAD PUSH1 0x20 DUP2 DUP4 SUB SUB DUP2 MSTORE SWAP1 PUSH1 0x40 MSTORE DUP1 MLOAD SWAP1 PUSH1 0x20 ADD KECCAK256 DUP2 SUB PUSH2 0xAC0 JUMPI PUSH1 0x4 PUSH0 DUP6 PUSH20 0xFFFFFFFFFFFFFFFFFFFFFFFFFFFFFFFFFFFFFFFF AND PUSH20 0xFFFFFFFFFFFFFFFFFFFFFFFFFFFFFFFFFFFFFFFF AND DUP2 MSTORE PUSH1 0x20 ADD SWAP1 DUP2 MSTORE PUSH1 0x20 ADD PUSH0 KECCAK256 PUSH0 SWAP1 SLOAD SWAP1 PUSH2 0x100 EXP SWAP1 DIV PUSH1 0xFF AND SWAP2 POP POP PUSH2 0xB47 JUMP JUMPDEST PUSH1 0x40 MLOAD PUSH1 0x20 ADD PUSH2 0xACF SWAP1 PUSH2 0x3C0F JUMP JUMPDEST PUSH1 0x40 MLOAD PUSH1 0x20 DUP2 DUP4 SUB SUB DUP2 MSTORE SWAP1 PUSH1 0x40 MSTORE DUP1 MLOAD SWAP1 PUSH1 0x20 ADD KECCAK256 DUP2 SUB PUSH2 0xB42 JUMPI PUSH0 PUSH0 SWAP1 SLOAD SWAP1 PUSH2 0x100 EXP SWAP1 DIV PUSH20 0xFFFFFFFFFFFFFFFFFFFFFFFFFFFFFFFFFFFFFFFF AND PUSH20 0xFFFFFFFFFFFFFFFFFFFFFFFFFFFFFFFFFFFFFFFF AND DUP5 PUSH20 0xFFFFFFFFFFFFFFFFFFFFFFFFFFFFFFFFFFFFFFFF AND EQ SWAP2 POP POP PUSH2 0xB47 JUMP JUMPDEST PUSH0 SWAP2 POP POP JUMPDEST SWAP3 SWAP2 POP POP JUMP JUMPDEST PUSH0 PUSH0 SWAP1 SLOAD SWAP1 PUSH2 0x100 EXP SWAP1 DIV PUSH20 0xFFFFFFFFFFFFFFFFFFFFFFFFFFFFFFFFFFFFFFFF AND PUSH20 0xFFFFFFFFFFFFFFFFFFFFFFFFFFFFFFFFFFFFFFFF AND CALLER PUSH20 0xFFFFFFFFFFFFFFFFFFFFFFFFFFFFFFFFFFFFFFFF AND EQ PUSH2 0xBDB JUMPI PUSH1 0x40 MLOAD PUSH32 0x8C379A000000000000000000000000000000000000000000000000000000000 DUP2 MSTORE PUSH1 0x4 ADD PUSH2 0xBD2 SWAP1 PUSH2 0x395F JUMP JUMPDEST PUSH1 0x40 MLOAD DUP1 SWAP2 SUB SWAP1 REVERT JUMPDEST PUSH1 0x1 PUSH1 0x4 PUSH0 DUP4 PUSH20 0xFFFFFFFFFFFFFFFFFFFFFFFFFFFFFFFFFFFFFFFF AND PUSH20 0xFFFFFFFFFFFFFFFFFFFFFFFFFFFFFFFFFFFFFFFF AND DUP2 MSTORE PUSH1 0x20 ADD SWAP1 DUP2 MSTORE PUSH1 0x20 ADD PUSH0 KECCAK256 PUSH0 PUSH2 0x100 EXP DUP2 SLOAD DUP2 PUSH1 0xFF MUL NOT AND SWAP1 DUP4 ISZERO ISZERO MUL OR SWAP1 SSTORE POP DUP1 PUSH20 0xFFFFFFFFFFFFFFFFFFFFFFFFFFFFFFFFFFFFFFFF AND PUSH32 0x3565795C2FB8842C21347D277937778BBCFE788B5B4F790FC5E408786CBE9C90 PUSH1 0x40 MLOAD PUSH2 0xC74 SWAP1 PUSH2 0x3C45 JUMP JUMPDEST PUSH1 0x40 MLOAD DUP1 SWAP2 SUB SWAP1 LOG2 POP JUMP JUMPDEST PUSH1 0x1 PUSH1 0x20 MSTORE DUP1 PUSH0 MSTORE PUSH1 0x40 PUSH0 KECCAK256 PUSH0 SWAP2 POP SLOAD SWAP1 PUSH2 0x100 EXP SWAP1 DIV PUSH1 0xFF AND DUP2 JUMP JUMPDEST DUP2 PUSH1 0x5 DUP2 PUSH1 0x40 MLOAD PUSH2 0xCAD SWAP2 SWAP1 PUSH2 0x3A87 JUMP JUMPDEST SWAP1 DUP2 MSTORE PUSH1 0x20 ADD PUSH1 0x40 MLOAD DUP1 SWAP2 SUB SWAP1 KECCAK256 PUSH1 0x7 ADD PUSH0 SWAP1 SLOAD SWAP1 PUSH2 0x100 EXP SWAP1 DIV PUSH1 0xFF AND PUSH2 0xD0A JUMPI PUSH1 0x40 MLOAD PUSH32 0x8C379A000000000000000000000000000000000000000000000000000000000 DUP2 MSTORE PUSH1 0x4 ADD PUSH2 0xD01 SWAP1 PUSH2 0x3CAD JUMP JUMPDEST PUSH1 0x40 MLOAD DUP1 SWAP2 SUB SWAP1 REVERT JUMPDEST CALLER PUSH20 0xFFFFFFFFFFFFFFFFFFFFFFFFFFFFFFFFFFFFFFFF AND PUSH1 0x5 DUP5 PUSH1 0x40 MLOAD PUSH2 0xD31 SWAP2 SWAP1 PUSH2 0x3A87 JUMP JUMPDEST SWAP1 DUP2 MSTORE PUSH1 0x20 ADD PUSH1 0x40 MLOAD DUP1 SWAP2 SUB SWAP1 KECCAK256 PUSH1 0x3 ADD PUSH0 SWAP1 SLOAD SWAP1 PUSH2 0x100 EXP SWAP1 DIV PUSH20 0xFFFFFFFFFFFFFFFFFFFFFFFFFFFFFFFFFFFFFFFF AND PUSH20 0xFFFFFFFFFFFFFFFFFFFFFFFFFFFFFFFFFFFFFFFF AND EQ DUP1 PUSH2 0xDCA JUMPI POP PUSH1 0x2 PUSH0 CALLER PUSH20 0xFFFFFFFFFFFFFFFFFFFFFFFFFFFFFFFFFFFFFFFF AND PUSH20 0xFFFFFFFFFFFFFFFFFFFFFFFFFFFFFFFFFFFFFFFF AND DUP2 MSTORE PUSH1 0x20 ADD SWAP1 DUP2 MSTORE PUSH1 0x20 ADD PUSH0 KECCAK256 PUSH0 SWAP1 SLOAD SWAP1 PUSH2 0x100 EXP SWAP1 DIV PUSH1 0xFF AND JUMPDEST PUSH2 0xE09 JUMPI PUSH1 0x40 MLOAD PUSH32 0x8C379A000000000000000000000000000000000000000000000000000000000 DUP2 MSTORE PUSH1 0x4 ADD PUSH2 0xE00 SWAP1 PUSH2 0x3D15 JUMP JUMPDEST PUSH1 0x40 MLOAD DUP1 SWAP2 SUB SWAP1 REVERT JUMPDEST PUSH0 DUP3 MLOAD GT PUSH2 0xE4C JUMPI PUSH1 0x40 MLOAD PUSH32 0x8C379A000000000000000000000000000000000000000000000000000000000 DUP2 MSTORE PUSH1 0x4 ADD PUSH2 0xE43 SWAP1 PUSH2 0x3D7D JUMP JUMPDEST PUSH1 0x40 MLOAD DUP1 SWAP2 SUB SWAP1 REVERT JUMPDEST DUP2 PUSH1 0x5 DUP5 PUSH1 0x40 MLOAD PUSH2 0xE5D SWAP2 SWAP1 PUSH2 0x3A87 JUMP JUMPDEST SWAP1 DUP2 MSTORE PUSH1 0x20 ADD PUSH1 0x40 MLOAD DUP1 SWAP2 SUB SWAP1 KECCAK256 PUSH1 0x4 ADD SWAP1 DUP2 PUSH2 0xE7A SWAP2 SWAP1 PUSH2 0x3F98 JUMP JUMPDEST POP PUSH1 0x6 DUP4 PUSH1 0x40 MLOAD PUSH2 0xE8B SWAP2 SWAP1 PUSH2 0x3A87 JUMP JUMPDEST SWAP1 DUP2 MSTORE PUSH1 0x20 ADD PUSH1 0x40 MLOAD DUP1 SWAP2 SUB SWAP1 KECCAK256 PUSH1 0x40 MLOAD DUP1 PUSH1 0x60 ADD PUSH1 0x40 MSTORE DUP1 DUP5 DUP2 MSTORE PUSH1 0x20 ADD TIMESTAMP DUP2 MSTORE PUSH1 0x20 ADD CALLER PUSH20 0xFFFFFFFFFFFFFFFFFFFFFFFFFFFFFFFFFFFFFFFF AND DUP2 MSTORE POP SWAP1 DUP1 PUSH1 0x1 DUP2 SLOAD ADD DUP1 DUP3 SSTORE DUP1 SWAP2 POP POP PUSH1 0x1 SWAP1 SUB SWAP1 PUSH0 MSTORE PUSH1 0x20 PUSH0 KECCAK256 SWAP1 PUSH1 0x3 MUL ADD PUSH0 SWAP1 SWAP2 SWAP1 SWAP2 SWAP1 SWAP2 POP PUSH0 DUP3 ADD MLOAD DUP2 PUSH0 ADD SWAP1 DUP2 PUSH2 0xF03 SWAP2 SWAP1 PUSH2 0x3F98 JUMP JUMPDEST POP PUSH1 0x20 DUP3 ADD MLOAD DUP2 PUSH1 0x1 ADD SSTORE PUSH1 0x40 DUP3 ADD MLOAD DUP2 PUSH1 0x2 ADD PUSH0 PUSH2 0x100 EXP DUP2 SLOAD DUP2 PUSH20 0xFFFFFFFFFFFFFFFFFFFFFFFFFFFFFFFFFFFFFFFF MUL NOT AND SWAP1 DUP4 PUSH20 0xFFFFFFFFFFFFFFFFFFFFFFFFFFFFFFFFFFFFFFFF AND MUL OR SWAP1 SSTORE POP POP POP CALLER PUSH20 0xFFFFFFFFFFFFFFFFFFFFFFFFFFFFFFFFFFFFFFFF AND DUP4 PUSH1 0x40 MLOAD PUSH2 0xF7B SWAP2 SWAP1 PUSH2 0x3A87 JUMP JUMPDEST PUSH1 0x40 MLOAD DUP1 SWAP2 SUB SWAP1 KECCAK256 PUSH32 0x169643A8DB74F57C6A9DEA08EFD64E687751E292A4B80BFE9307A8F5474AD9B9 DUP5 TIMESTAMP PUSH1 0x40 MLOAD PUSH2 0xFB4 SWAP3 SWAP2 SWAP1 PUSH2 0x4067 JUMP JUMPDEST PUSH1 0x40 MLOAD DUP1 SWAP2 SUB SWAP1 LOG3 POP POP POP JUMP JUMPDEST PUSH0 PUSH0 SWAP1 SLOAD SWAP1 PUSH2 0x100 EXP SWAP1 DIV PUSH20 0xFFFFFFFFFFFFFFFFFFFFFFFFFFFFFFFFFFFFFFFF AND PUSH20 0xFFFFFFFFFFFFFFFFFFFFFFFFFFFFFFFFFFFFFFFF AND CALLER PUSH20 0xFFFFFFFFFFFFFFFFFFFFFFFFFFFFFFFFFFFFFFFF AND EQ PUSH2 0x104F JUMPI PUSH1 0x40 MLOAD PUSH32 0x8C379A000000000000000000000000000000000000000000000000000000000 DUP2 MSTORE PUSH1 0x4 ADD PUSH2 0x1046 SWAP1 PUSH2 0x395F JUMP JUMPDEST PUSH1 0x40 MLOAD DUP1 SWAP2 SUB SWAP1 REVERT JUMPDEST PUSH1 0x1 PUSH1 0x2 PUSH0 DUP4 PUSH20 0xFFFFFFFFFFFFFFFFFFFFFFFFFFFFFFFFFFFFFFFF AND PUSH20 0xFFFFFFFFFFFFFFFFFFFFFFFFFFFFFFFFFFFFFFFF AND DUP2 MSTORE PUSH1 0x20 ADD SWAP1 DUP2 MSTORE PUSH1 0x20 ADD PUSH0 KECCAK256 PUSH0 PUSH2 0x100 EXP DUP2 SLOAD DUP2 PUSH1 0xFF MUL NOT AND SWAP1 DUP4 ISZERO ISZERO MUL OR SWAP1 SSTORE POP DUP1 PUSH20 0xFFFFFFFFFFFFFFFFFFFFFFFFFFFFFFFFFFFFFFFF AND PUSH32 0x3565795C2FB8842C21347D277937778BBCFE788B5B4F790FC5E408786CBE9C90 PUSH1 0x40 MLOAD PUSH2 0x10E8 SWAP1 PUSH2 0x40B7 JUMP JUMPDEST PUSH1 0x40 MLOAD DUP1 SWAP2 SUB SWAP1 LOG2 POP JUMP JUMPDEST PUSH0 PUSH0 SWAP1 SLOAD SWAP1 PUSH2 0x100 EXP SWAP1 DIV PUSH20 0xFFFFFFFFFFFFFFFFFFFFFFFFFFFFFFFFFFFFFFFF AND PUSH20 0xFFFFFFFFFFFFFFFFFFFFFFFFFFFFFFFFFFFFFFFF AND CALLER PUSH20 0xFFFFFFFFFFFFFFFFFFFFFFFFFFFFFFFFFFFFFFFF AND EQ PUSH2 0x1181 JUMPI PUSH1 0x40 MLOAD PUSH32 0x8C379A000000000000000000000000000000000000000000000000000000000 DUP2 MSTORE PUSH1 0x4 ADD PUSH2 0x1178 SWAP1 PUSH2 0x395F JUMP JUMPDEST PUSH1 0x40 MLOAD DUP1 SWAP2 SUB SWAP1 REVERT JUMPDEST PUSH0 PUSH1 0x4 PUSH0 DUP4 PUSH20 0xFFFFFFFFFFFFFFFFFFFFFFFFFFFFFFFFFFFFFFFF AND PUSH20 0xFFFFFFFFFFFFFFFFFFFFFFFFFFFFFFFFFFFFFFFF AND DUP2 MSTORE PUSH1 0x20 ADD SWAP1 DUP2 MSTORE PUSH1 0x20 ADD PUSH0 KECCAK256 PUSH0 PUSH2 0x100 EXP DUP2 SLOAD DUP2 PUSH1 0xFF MUL NOT AND SWAP1 DUP4 ISZERO ISZERO MUL OR SWAP1 SSTORE POP DUP1 PUSH20 0xFFFFFFFFFFFFFFFFFFFFFFFFFFFFFFFFFFFFFFFF AND PUSH32 0x9F43A01C0D4FF5AFF09B3B9B472DF707CEEFD3F948F8942F10FA1562A8921304 PUSH1 0x40 MLOAD PUSH2 0x1219 SWAP1 PUSH2 0x3C45 JUMP JUMPDEST PUSH1 0x40 MLOAD DUP1 SWAP2 SUB SWAP1 LOG2 POP JUMP JUMPDEST PUSH1 0x5 DUP2 DUP1 MLOAD PUSH1 0x20 DUP2 ADD DUP3 ADD DUP1 MLOAD DUP5 DUP3 MSTORE PUSH1 0x20 DUP4 ADD PUSH1 0x20 DUP6 ADD KECCAK256 DUP2 DUP4 MSTORE DUP1 SWAP6 POP POP POP POP POP POP PUSH0 SWAP2 POP SWAP1 POP DUP1 PUSH0 ADD DUP1 SLOAD PUSH2 0x125B SWAP1 PUSH2 0x3DC8 JUMP JUMPDEST DUP1 PUSH1 0x1F ADD PUSH1 0x20 DUP1 SWAP2 DIV MUL PUSH1 0x20 ADD PUSH1 0x40 MLOAD SWAP1 DUP2 ADD PUSH1 0x40 MSTORE DUP1 SWAP3 SWAP2 SWAP1 DUP2 DUP2 MSTORE PUSH1 0x20 ADD DUP3 DUP1 SLOAD PUSH2 0x1287 SWAP1 PUSH2 0x3DC8 JUMP JUMPDEST DUP1 ISZERO PUSH2 0x12D2 JUMPI DUP1 PUSH1 0x1F LT PUSH2 0x12A9 JUMPI PUSH2 0x100 DUP1 DUP4 SLOAD DIV MUL DUP4 MSTORE SWAP2 PUSH1 0x20 ADD SWAP2 PUSH2 0x12D2 JUMP JUMPDEST DUP3 ADD SWAP2 SWAP1 PUSH0 MSTORE PUSH1 0x20 PUSH0 KECCAK256 SWAP1 JUMPDEST DUP2 SLOAD DUP2 MSTORE SWAP1 PUSH1 0x1 ADD SWAP1 PUSH1 0x20 ADD DUP1 DUP4 GT PUSH2 0x12B5 JUMPI DUP3 SWAP1 SUB PUSH1 0x1F AND DUP3 ADD SWAP2 JUMPDEST POP POP POP POP POP SWAP1 DUP1 PUSH1 0x1 ADD DUP1 SLOAD PUSH2 0x12E7 SWAP1 PUSH2 0x3DC8 JUMP JUMPDEST DUP1 PUSH1 0x1F ADD PUSH1 0x20 DUP1 SWAP2 DIV MUL PUSH1 0x20 ADD PUSH1 0x40 MLOAD SWAP1 DUP2 ADD PUSH1 0x40 MSTORE DUP1 SWAP3 SWAP2 SWAP1 DUP2 DUP2 MSTORE PUSH1 0x20 ADD DUP3 DUP1 SLOAD PUSH2 0x1313 SWAP1 PUSH2 0x3DC8 JUMP JUMPDEST DUP1 ISZERO PUSH2 0x135E JUMPI DUP1 PUSH1 0x1F LT PUSH2 0x1335 JUMPI PUSH2 0x100 DUP1 DUP4 SLOAD DIV MUL DUP4 MSTORE SWAP2 PUSH1 0x20 ADD SWAP2 PUSH2 0x135E JUMP JUMPDEST DUP3 ADD SWAP2 SWAP1 PUSH0 MSTORE PUSH1 0x20 PUSH0 KECCAK256 SWAP1 JUMPDEST DUP2 SLOAD DUP2 MSTORE SWAP1 PUSH1 0x1 ADD SWAP1 PUSH1 0x20 ADD DUP1 DUP4 GT PUSH2 0x1341 JUMPI DUP3 SWAP1 SUB PUSH1 0x1F AND DUP3 ADD SWAP2 JUMPDEST POP POP POP POP POP SWAP1 DUP1 PUSH1 0x2 ADD PUSH0 SWAP1 SLOAD SWAP1 PUSH2 0x100 EXP SWAP1 DIV PUSH20 0xFFFFFFFFFFFFFFFFFFFFFFFFFFFFFFFFFFFFFFFF AND SWAP1 DUP1 PUSH1 0x3 ADD PUSH0 SWAP1 SLOAD SWAP1 PUSH2 0x100 EXP SWAP1 DIV PUSH20 0xFFFFFFFFFFFFFFFFFFFFFFFFFFFFFFFFFFFFFFFF AND SWAP1 DUP1 PUSH1 0x4 ADD DUP1 SLOAD PUSH2 0x13BD SWAP1 PUSH2 0x3DC8 JUMP JUMPDEST DUP1 PUSH1 0x1F ADD PUSH1 0x20 DUP1 SWAP2 DIV MUL PUSH1 0x20 ADD PUSH1 0x40 MLOAD SWAP1 DUP2 ADD PUSH1 0x40 MSTORE DUP1 SWAP3 SWAP2 SWAP1 DUP2 DUP2 MSTORE PUSH1 0x20 ADD DUP3 DUP1 SLOAD PUSH2 0x13E9 SWAP1 PUSH2 0x3DC8 JUMP JUMPDEST DUP1 ISZERO PUSH2 0x1434 JUMPI DUP1 PUSH1 0x1F LT PUSH2 0x140B JUMPI PUSH2 0x100 DUP1 DUP4 SLOAD DIV MUL DUP4 MSTORE SWAP2 PUSH1 0x20 ADD SWAP2 PUSH2 0x1434 JUMP JUMPDEST DUP3 ADD SWAP2 SWAP1 PUSH0 MSTORE PUSH1 0x20 PUSH0 KECCAK256 SWAP1 JUMPDEST DUP2 SLOAD DUP2 MSTORE SWAP1 PUSH1 0x1 ADD SWAP1 PUSH1 0x20 ADD DUP1 DUP4 GT PUSH2 0x1417 JUMPI DUP3 SWAP1 SUB PUSH1 0x1F AND DUP3 ADD SWAP2 JUMPDEST POP POP POP POP POP SWAP1 DUP1 PUSH1 0x5 ADD DUP1 SLOAD PUSH2 0x1449 SWAP1 PUSH2 0x3DC8 JUMP JUMPDEST DUP1 PUSH1 0x1F ADD PUSH1 0x20 DUP1 SWAP2 DIV MUL PUSH1 0x20 ADD PUSH1 0x40 MLOAD SWAP1 DUP2 ADD PUSH1 0x40 MSTORE DUP1 SWAP3 SWAP2 SWAP1 DUP2 DUP2 MSTORE PUSH1 0x20 ADD DUP3 DUP1 SLOAD PUSH2 0x1475 SWAP1 PUSH2 0x3DC8 JUMP JUMPDEST DUP1 ISZERO PUSH2 0x14C0 JUMPI DUP1 PUSH1 0x1F LT PUSH2 0x1497 JUMPI PUSH2 0x100 DUP1 DUP4 SLOAD DIV MUL DUP4 MSTORE SWAP2 PUSH1 0x20 ADD SWAP2 PUSH2 0x14C0 JUMP JUMPDEST DUP3 ADD SWAP2 SWAP1 PUSH0 MSTORE PUSH1 0x20 PUSH0 KECCAK256 SWAP1 JUMPDEST DUP2 SLOAD DUP2 MSTORE SWAP1 PUSH1 0x1 ADD SWAP1 PUSH1 0x20 ADD DUP1 DUP4 GT PUSH2 0x14A3 JUMPI DUP3 SWAP1 SUB PUSH1 0x1F AND DUP3 ADD SWAP2 JUMPDEST POP POP POP POP POP SWAP1 DUP1 PUSH1 0x6 ADD SLOAD SWAP1 DUP1 PUSH1 0x7 ADD PUSH0 SWAP1 SLOAD SWAP1 PUSH2 0x100 EXP SWAP1 DIV PUSH1 0xFF AND SWAP1 POP DUP9 JUMP JUMPDEST PUSH1 0x1 PUSH0 CALLER PUSH20 0xFFFFFFFFFFFFFFFFFFFFFFFFFFFFFFFFFFFFFFFF AND PUSH20 0xFFFFFFFFFFFFFFFFFFFFFFFFFFFFFFFFFFFFFFFF AND DUP2 MSTORE PUSH1 0x20 ADD SWAP1 DUP2 MSTORE PUSH1 0x20 ADD PUSH0 KECCAK256 PUSH0 SWAP1 SLOAD SWAP1 PUSH2 0x100 EXP SWAP1 DIV PUSH1 0xFF AND PUSH2 0x156B JUMPI PUSH1 0x40 MLOAD PUSH32 0x8C379A000000000000000000000000000000000000000000000000000000000 DUP2 MSTORE PUSH1 0x4 ADD PUSH2 0x1562 SWAP1 PUSH2 0x4145 JUMP JUMPDEST PUSH1 0x40 MLOAD DUP1 SWAP2 SUB SWAP1 REVERT JUMPDEST PUSH1 0x5 DUP3 PUSH1 0x40 MLOAD PUSH2 0x157B SWAP2 SWAP1 PUSH2 0x3A87 JUMP JUMPDEST SWAP1 DUP2 MSTORE PUSH1 0x20 ADD PUSH1 0x40 MLOAD DUP1 SWAP2 SUB SWAP1 KECCAK256 PUSH1 0x7 ADD PUSH0 SWAP1 SLOAD SWAP1 PUSH2 0x100 EXP SWAP1 DIV PUSH1 0xFF AND ISZERO PUSH2 0x15D9 JUMPI PUSH1 0x40 MLOAD PUSH32 0x8C379A000000000000000000000000000000000000000000000000000000000 DUP2 MSTORE PUSH1 0x4 ADD PUSH2 0x15D0 SWAP1 PUSH2 0x41AD JUMP JUMPDEST PUSH1 0x40 MLOAD DUP1 SWAP2 SUB SWAP1 REVERT JUMPDEST PUSH0 DUP3 MLOAD GT PUSH2 0x161C JUMPI PUSH1 0x40 MLOAD PUSH32 0x8C379A000000000000000000000000000000000000000000000000000000000 DUP2 MSTORE PUSH1 0x4 ADD PUSH2 0x1613 SWAP1 PUSH2 0x4215 JUMP JUMPDEST PUSH1 0x40 MLOAD DUP1 SWAP2 SUB SWAP1 REVERT JUMPDEST PUSH0 DUP2 MLOAD GT PUSH2 0x165F JUMPI PUSH1 0x40 MLOAD PUSH32 0x8C379A000000000000000000000000000000000000000000000000000000000 DUP2 MSTORE PUSH1 0x4 ADD PUSH2 0x1656 SWAP1 PUSH2 0x427D JUMP JUMPDEST PUSH1 0x40 MLOAD DUP1 SWAP2 SUB SWAP1 REVERT JUMPDEST PUSH0 PUSH1 0x40 MLOAD DUP1 PUSH2 0x100 ADD PUSH1 0x40 MSTORE DUP1 DUP4 DUP2 MSTORE PUSH1 0x20 ADD DUP5 DUP2 MSTORE PUSH1 0x20 ADD CALLER PUSH20 0xFFFFFFFFFFFFFFFFFFFFFFFFFFFFFFFFFFFFFFFF AND DUP2 MSTORE PUSH1 0x20 ADD CALLER PUSH20 0xFFFFFFFFFFFFFFFFFFFFFFFFFFFFFFFFFFFFFFFF AND DUP2 MSTORE PUSH1 0x20 ADD PUSH1 0x40 MLOAD DUP1 PUSH1 0x40 ADD PUSH1 0x40 MSTORE DUP1 PUSH1 0x8 DUP2 MSTORE PUSH1 0x20 ADD PUSH32 0x50726F6475636564000000000000000000000000000000000000000000000000 DUP2 MSTORE POP DUP2 MSTORE PUSH1 0x20 ADD PUSH1 0x40 MLOAD DUP1 PUSH1 0x20 ADD PUSH1 0x40 MSTORE DUP1 PUSH0 DUP2 MSTORE POP DUP2 MSTORE PUSH1 0x20 ADD TIMESTAMP DUP2 MSTORE PUSH1 0x20 ADD PUSH1 0x1 ISZERO ISZERO DUP2 MSTORE POP SWAP1 POP DUP1 PUSH1 0x5 DUP5 PUSH1 0x40 MLOAD PUSH2 0x171F SWAP2 SWAP1 PUSH2 0x3A87 JUMP JUMPDEST SWAP1 DUP2 MSTORE PUSH1 0x20 ADD PUSH1 0x40 MLOAD DUP1 SWAP2 SUB SWAP1 KECCAK256 PUSH0 DUP3 ADD MLOAD DUP2 PUSH0 ADD SWAP1 DUP2 PUSH2 0x1740 SWAP2 SWAP1 PUSH2 0x3F98 JUMP JUMPDEST POP PUSH1 0x20 DUP3 ADD MLOAD DUP2 PUSH1 0x1 ADD SWAP1 DUP2 PUSH2 0x1756 SWAP2 SWAP1 PUSH2 0x3F98 JUMP JUMPDEST POP PUSH1 0x40 DUP3 ADD MLOAD DUP2 PUSH1 0x2 ADD PUSH0 PUSH2 0x100 EXP DUP2 SLOAD DUP2 PUSH20 0xFFFFFFFFFFFFFFFFFFFFFFFFFFFFFFFFFFFFFFFF MUL NOT AND SWAP1 DUP4 PUSH20 0xFFFFFFFFFFFFFFFFFFFFFFFFFFFFFFFFFFFFFFFF AND MUL OR SWAP1 SSTORE POP PUSH1 0x60 DUP3 ADD MLOAD DUP2 PUSH1 0x3 ADD PUSH0 PUSH2 0x100 EXP DUP2 SLOAD DUP2 PUSH20 0xFFFFFFFFFFFFFFFFFFFFFFFFFFFFFFFFFFFFFFFF MUL NOT AND SWAP1 DUP4 PUSH20 0xFFFFFFFFFFFFFFFFFFFFFFFFFFFFFFFFFFFFFFFF AND MUL OR SWAP1 SSTORE POP PUSH1 0x80 DUP3 ADD MLOAD DUP2 PUSH1 0x4 ADD SWAP1 DUP2 PUSH2 0x17F8 SWAP2 SWAP1 PUSH2 0x3F98 JUMP JUMPDEST POP PUSH1 0xA0 DUP3 ADD MLOAD DUP2 PUSH1 0x5 ADD SWAP1 DUP2 PUSH2 0x180E SWAP2 SWAP1 PUSH2 0x3F98 JUMP JUMPDEST POP PUSH1 0xC0 DUP3 ADD MLOAD DUP2 PUSH1 0x6 ADD SSTORE PUSH1 0xE0 DUP3 ADD MLOAD DUP2 PUSH1 0x7 ADD PUSH0 PUSH2 0x100 EXP DUP2 SLOAD DUP2 PUSH1 0xFF MUL NOT AND SWAP1 DUP4 ISZERO ISZERO MUL OR SWAP1 SSTORE POP SWAP1 POP POP PUSH1 0x7 DUP4 SWAP1 DUP1 PUSH1 0x1 DUP2 SLOAD ADD DUP1 DUP3 SSTORE DUP1 SWAP2 POP POP PUSH1 0x1 SWAP1 SUB SWAP1 PUSH0 MSTORE PUSH1 0x20 PUSH0 KECCAK256 ADD PUSH0 SWAP1 SWAP2 SWAP1 SWAP2 SWAP1 SWAP2 POP SWAP1 DUP2 PUSH2 0x186C SWAP2 SWAP1 PUSH2 0x3F98 JUMP JUMPDEST POP PUSH1 0x6 DUP4 PUSH1 0x40 MLOAD PUSH2 0x187D SWAP2 SWAP1 PUSH2 0x3A87 JUMP JUMPDEST SWAP1 DUP2 MSTORE PUSH1 0x20 ADD PUSH1 0x40 MLOAD DUP1 SWAP2 SUB SWAP1 KECCAK256 PUSH1 0x40 MLOAD DUP1 PUSH1 0x60 ADD PUSH1 0x40 MSTORE DUP1 PUSH1 0x40 MLOAD DUP1 PUSH1 0x40 ADD PUSH1 0x40 MSTORE DUP1 PUSH1 0x8 DUP2 MSTORE PUSH1 0x20 ADD PUSH32 0x50726F6475636564000000000000000000000000000000000000000000000000 DUP2 MSTORE POP DUP2 MSTORE PUSH1 0x20 ADD TIMESTAMP DUP2 MSTORE PUSH1 0x20 ADD CALLER PUSH20 0xFFFFFFFFFFFFFFFFFFFFFFFFFFFFFFFFFFFFFFFF AND DUP2 MSTORE POP SWAP1 DUP1 PUSH1 0x1 DUP2 SLOAD ADD DUP1 DUP3 SSTORE DUP1 SWAP2 POP POP PUSH1 0x1 SWAP1 SUB SWAP1 PUSH0 MSTORE PUSH1 0x20 PUSH0 KECCAK256 SWAP1 PUSH1 0x3 MUL ADD PUSH0 SWAP1 SWAP2 SWAP1 SWAP2 SWAP1 SWAP2 POP PUSH0 DUP3 ADD MLOAD DUP2 PUSH0 ADD SWAP1 DUP2 PUSH2 0x192A SWAP2 SWAP1 PUSH2 0x3F98 JUMP JUMPDEST POP PUSH1 0x20 DUP3 ADD MLOAD DUP2 PUSH1 0x1 ADD SSTORE PUSH1 0x40 DUP3 ADD MLOAD DUP2 PUSH1 0x2 ADD PUSH0 PUSH2 0x100 EXP DUP2 SLOAD DUP2 PUSH20 0xFFFFFFFFFFFFFFFFFFFFFFFFFFFFFFFFFFFFFFFF MUL NOT AND SWAP1 DUP4 PUSH20 0xFFFFFFFFFFFFFFFFFFFFFFFFFFFFFFFFFFFFFFFF AND MUL OR SWAP1 SSTORE POP POP POP CALLER PUSH20 0xFFFFFFFFFFFFFFFFFFFFFFFFFFFFFFFFFFFFFFFF AND DUP4 PUSH1 0x40 MLOAD PUSH2 0x19A2 SWAP2 SWAP1 PUSH2 0x3A87 JUMP JUMPDEST PUSH1 0x40 MLOAD DUP1 SWAP2 SUB SWAP1 KECCAK256 PUSH32 0xD8045A119A7C2DF6CEA5C487E90F857ABB1B84A5A356331229D0020CE9DEBC62 DUP5 TIMESTAMP PUSH1 0x40 MLOAD PUSH2 0x19DB SWAP3 SWAP2 SWAP1 PUSH2 0x4067 JUMP JUMPDEST PUSH1 0x40 MLOAD DUP1 SWAP2 SUB SWAP1 LOG3 POP POP POP JUMP JUMPDEST PUSH1 0x4 PUSH1 0x20 MSTORE DUP1 PUSH0 MSTORE PUSH1 0x40 PUSH0 KECCAK256 PUSH0 SWAP2 POP SLOAD SWAP1 PUSH2 0x100 EXP SWAP1 DIV PUSH1 0xFF AND DUP2 JUMP JUMPDEST PUSH1 0x6 DUP3 DUP1 MLOAD PUSH1 0x20 DUP2 ADD DUP3 ADD DUP1 MLOAD DUP5 DUP3 MSTORE PUSH1 0x20 DUP4 ADD PUSH1 0x20 DUP6 ADD KECCAK256 DUP2 DUP4 MSTORE DUP1 SWAP6 POP POP POP POP POP POP DUP2 DUP2 SLOAD DUP2 LT PUSH2 0x1A36 JUMPI PUSH0 DUP1 REVERT JUMPDEST SWAP1 PUSH0 MSTORE PUSH1 0x20 PUSH0 KECCAK256 SWAP1 PUSH1 0x3 MUL ADD PUSH0 SWAP2 POP SWAP2 POP POP DUP1 PUSH0 ADD DUP1 SLOAD PUSH2 0x1A56 SWAP1 PUSH2 0x3DC8 JUMP JUMPDEST DUP1 PUSH1 0x1F ADD PUSH1 0x20 DUP1 SWAP2 DIV MUL PUSH1 0x20 ADD PUSH1 0x40 MLOAD SWAP1 DUP2 ADD PUSH1 0x40 MSTORE DUP1 SWAP3 SWAP2 SWAP1 DUP2 DUP2 MSTORE PUSH1 0x20 ADD DUP3 DUP1 SLOAD PUSH2 0x1A82 SWAP1 PUSH2 0x3DC8 JUMP JUMPDEST DUP1 ISZERO PUSH2 0x1ACD JUMPI DUP1 PUSH1 0x1F LT PUSH2 0x1AA4 JUMPI PUSH2 0x100 DUP1 DUP4 SLOAD DIV MUL DUP4 MSTORE SWAP2 PUSH1 0x20 ADD SWAP2 PUSH2 0x1ACD JUMP JUMPDEST DUP3 ADD SWAP2 SWAP1 PUSH0 MSTORE PUSH1 0x20 PUSH0 KECCAK256 SWAP1 JUMPDEST DUP2 SLOAD DUP2 MSTORE SWAP1 PUSH1 0x1 ADD SWAP1 PUSH1 0x20 ADD DUP1 DUP4 GT PUSH2 0x1AB0 JUMPI DUP3 SWAP1 SUB PUSH1 0x1F AND DUP3 ADD SWAP2 JUMPDEST POP POP POP POP POP SWAP1 DUP1 PUSH1 0x1 ADD SLOAD SWAP1 DUP1 PUSH1 0x2 ADD PUSH0 SWAP1 SLOAD SWAP1 PUSH2 0x100 EXP SWAP1 DIV PUSH20 0xFFFFFFFFFFFFFFFFFFFFFFFFFFFFFFFFFFFFFFFF AND SWAP1 POP DUP4 JUMP JUMPDEST PUSH1 0x60 DUP2 PUSH1 0x5 DUP2 PUSH1 0x40 MLOAD PUSH2 0x1B15 SWAP2 SWAP1 PUSH2 0x3A87 JUMP JUMPDEST SWAP1 DUP2 MSTORE PUSH1 0x20 ADD PUSH1 0x40 MLOAD DUP1 SWAP2 SUB SWAP1 KECCAK256 PUSH1 0x7 ADD PUSH0 SWAP1 SLOAD SWAP1 PUSH2 0x100 EXP SWAP1 DIV PUSH1 0xFF AND PUSH2 0x1B72 JUMPI PUSH1 0x40 MLOAD PUSH32 0x8C379A000000000000000000000000000000000000000000000000000000000 DUP2 MSTORE PUSH1 0x4 ADD PUSH2 0x1B69 SWAP1 PUSH2 0x3CAD JUMP JUMPDEST PUSH1 0x40 MLOAD DUP1 SWAP2 SUB SWAP1 REVERT JUMPDEST PUSH1 0x6 DUP4 PUSH1 0x40 MLOAD PUSH2 0x1B82 SWAP2 SWAP1 PUSH2 0x3A87 JUMP JUMPDEST SWAP1 DUP2 MSTORE PUSH1 0x20 ADD PUSH1 0x40 MLOAD DUP1 SWAP2 SUB SWAP1 KECCAK256 DUP1 SLOAD DUP1 PUSH1 0x20 MUL PUSH1 0x20 ADD PUSH1 0x40 MLOAD SWAP1 DUP2 ADD PUSH1 0x40 MSTORE DUP1 SWAP3 SWAP2 SWAP1 DUP2 DUP2 MSTORE PUSH1 0x20 ADD PUSH0 SWAP1 JUMPDEST DUP3 DUP3 LT ISZERO PUSH2 0x1CCD JUMPI DUP4 DUP3 SWAP1 PUSH0 MSTORE PUSH1 0x20 PUSH0 KECCAK256 SWAP1 PUSH1 0x3 MUL ADD PUSH1 0x40 MLOAD DUP1 PUSH1 0x60 ADD PUSH1 0x40 MSTORE SWAP1 DUP2 PUSH0 DUP3 ADD DUP1 SLOAD PUSH2 0x1BDF SWAP1 PUSH2 0x3DC8 JUMP JUMPDEST DUP1 PUSH1 0x1F ADD PUSH1 0x20 DUP1 SWAP2 DIV MUL PUSH1 0x20 ADD PUSH1 0x40 MLOAD SWAP1 DUP2 ADD PUSH1 0x40 MSTORE DUP1 SWAP3 SWAP2 SWAP1 DUP2 DUP2 MSTORE PUSH1 0x20 ADD DUP3 DUP1 SLOAD PUSH2 0x1C0B SWAP1 PUSH2 0x3DC8 JUMP JUMPDEST DUP1 ISZERO PUSH2 0x1C56 JUMPI DUP1 PUSH1 0x1F LT PUSH2 0x1C2D JUMPI PUSH2 0x100 DUP1 DUP4 SLOAD DIV MUL DUP4 MSTORE SWAP2 PUSH1 0x20 ADD SWAP2 PUSH2 0x1C56 JUMP JUMPDEST DUP3 ADD SWAP2 SWAP1 PUSH0 MSTORE PUSH1 0x20 PUSH0 KECCAK256 SWAP1 JUMPDEST DUP2 SLOAD DUP2 MSTORE SWAP1 PUSH1 0x1 ADD SWAP1 PUSH1 0x20 ADD DUP1 DUP4 GT PUSH2 0x1C39 JUMPI DUP3 SWAP1 SUB PUSH1 0x1F AND DUP3 ADD SWAP2 JUMPDEST POP POP POP POP POP DUP2 MSTORE PUSH1 0x20 ADD PUSH1 0x1 DUP3 ADD SLOAD DUP2 MSTORE PUSH1 0x20 ADD PUSH1 0x2 DUP3 ADD PUSH0 SWAP1 SLOAD SWAP1 PUSH2 0x100 EXP SWAP1 DIV PUSH20 0xFFFFFFFFFFFFFFFFFFFFFFFFFFFFFFFFFFFFFFFF AND PUSH20 0xFFFFFFFFFFFFFFFFFFFFFFFFFFFFFFFFFFFFFFFF AND PUSH20 0xFFFFFFFFFFFFFFFFFFFFFFFFFFFFFFFFFFFFFFFF AND DUP2 MSTORE POP POP DUP2 MSTORE PUSH1 0x20 ADD SWAP1 PUSH1 0x1 ADD SWAP1 PUSH2 0x1BAF JUMP JUMPDEST POP POP POP POP SWAP2 POP POP SWAP2 SWAP1 POP JUMP JUMPDEST PUSH1 0x7 DUP2 DUP2 SLOAD DUP2 LT PUSH2 0x1CE8 JUMPI PUSH0 DUP1 REVERT JUMPDEST SWAP1 PUSH0 MSTORE PUSH1 0x20 PUSH0 KECCAK256 ADD PUSH0 SWAP2 POP SWAP1 POP DUP1 SLOAD PUSH2 0x1D00 SWAP1 PUSH2 0x3DC8 JUMP JUMPDEST DUP1 PUSH1 0x1F ADD PUSH1 0x20 DUP1 SWAP2 DIV MUL PUSH1 0x20 ADD PUSH1 0x40 MLOAD SWAP1 DUP2 ADD PUSH1 0x40 MSTORE DUP1 SWAP3 SWAP2 SWAP1 DUP2 DUP2 MSTORE PUSH1 0x20 ADD DUP3 DUP1 SLOAD PUSH2 0x1D2C SWAP1 PUSH2 0x3DC8 JUMP JUMPDEST DUP1 ISZERO PUSH2 0x1D77 JUMPI DUP1 PUSH1 0x1F LT PUSH2 0x1D4E JUMPI PUSH2 0x100 DUP1 DUP4 SLOAD DIV MUL DUP4 MSTORE SWAP2 PUSH1 0x20 ADD SWAP2 PUSH2 0x1D77 JUMP JUMPDEST DUP3 ADD SWAP2 SWAP1 PUSH0 MSTORE PUSH1 0x20 PUSH0 KECCAK256 SWAP1 JUMPDEST DUP2 SLOAD DUP2 MSTORE SWAP1 PUSH1 0x1 ADD SWAP1 PUSH1 0x20 ADD DUP1 DUP4 GT PUSH2 0x1D5A JUMPI DUP3 SWAP1 SUB PUSH1 0x1F AND DUP3 ADD SWAP2 JUMPDEST POP POP POP POP POP DUP2 JUMP JUMPDEST DUP2 PUSH1 0x5 DUP2 PUSH1 0x40 MLOAD PUSH2 0x1D90 SWAP2 SWAP1 PUSH2 0x3A87 JUMP JUMPDEST SWAP1 DUP2 MSTORE PUSH1 0x20 ADD PUSH1 0x40 MLOAD DUP1 SWAP2 SUB SWAP1 KECCAK256 PUSH1 0x7 ADD PUSH0 SWAP1 SLOAD SWAP1 PUSH2 0x100 EXP SWAP1 DIV PUSH1 0xFF AND PUSH2 0x1DED JUMPI PUSH1 0x40 MLOAD PUSH32 0x8C379A000000000000000000000000000000000000000000000000000000000 DUP2 MSTORE PUSH1 0x4 ADD PUSH2 0x1DE4 SWAP1 PUSH2 0x3CAD JUMP JUMPDEST PUSH1 0x40 MLOAD DUP1 SWAP2 SUB SWAP1 REVERT JUMPDEST DUP3 CALLER PUSH20 0xFFFFFFFFFFFFFFFFFFFFFFFFFFFFFFFFFFFFFFFF AND PUSH1 0x5 DUP3 PUSH1 0x40 MLOAD PUSH2 0x1E15 SWAP2 SWAP1 PUSH2 0x3A87 JUMP JUMPDEST SWAP1 DUP2 MSTORE PUSH1 0x20 ADD PUSH1 0x40 MLOAD DUP1 SWAP2 SUB SWAP1 KECCAK256 PUSH1 0x3 ADD PUSH0 SWAP1 SLOAD SWAP1 PUSH2 0x100 EXP SWAP1 DIV PUSH20 0xFFFFFFFFFFFFFFFFFFFFFFFFFFFFFFFFFFFFFFFF AND PUSH20 0xFFFFFFFFFFFFFFFFFFFFFFFFFFFFFFFFFFFFFFFF AND EQ PUSH2 0x1E9C JUMPI PUSH1 0x40 MLOAD PUSH32 0x8C379A000000000000000000000000000000000000000000000000000000000 DUP2 MSTORE PUSH1 0x4 ADD PUSH2 0x1E93 SWAP1 PUSH2 0x430B JUMP JUMPDEST PUSH1 0x40 MLOAD DUP1 SWAP2 SUB SWAP1 REVERT JUMPDEST PUSH0 PUSH20 0xFFFFFFFFFFFFFFFFFFFFFFFFFFFFFFFFFFFFFFFF AND DUP4 PUSH20 0xFFFFFFFFFFFFFFFFFFFFFFFFFFFFFFFFFFFFFFFF AND SUB PUSH2 0x1F0A JUMPI PUSH1 0x40 MLOAD PUSH32 0x8C379A000000000000000000000000000000000000000000000000000000000 DUP2 MSTORE PUSH1 0x4 ADD PUSH2 0x1F01 SWAP1 PUSH2 0x4373 JUMP JUMPDEST PUSH1 0x40 MLOAD DUP1 SWAP2 SUB SWAP1 REVERT JUMPDEST CALLER PUSH20 0xFFFFFFFFFFFFFFFFFFFFFFFFFFFFFFFFFFFFFFFF AND DUP4 PUSH20 0xFFFFFFFFFFFFFFFFFFFFFFFFFFFFFFFFFFFFFFFF AND SUB PUSH2 0x1F78 JUMPI PUSH1 0x40 MLOAD PUSH32 0x8C379A000000000000000000000000000000000000000000000000000000000 DUP2 MSTORE PUSH1 0x4 ADD PUSH2 0x1F6F SWAP1 PUSH2 0x43DB JUMP JUMPDEST PUSH1 0x40 MLOAD DUP1 SWAP2 SUB SWAP1 REVERT JUMPDEST PUSH1 0x1 PUSH0 DUP5 PUSH20 0xFFFFFFFFFFFFFFFFFFFFFFFFFFFFFFFFFFFFFFFF AND PUSH20 0xFFFFFFFFFFFFFFFFFFFFFFFFFFFFFFFFFFFFFFFF AND DUP2 MSTORE PUSH1 0x20 ADD SWAP1 DUP2 MSTORE PUSH1 0x20 ADD PUSH0 KECCAK256 PUSH0 SWAP1 SLOAD SWAP1 PUSH2 0x100 EXP SWAP1 DIV PUSH1 0xFF AND DUP1 PUSH2 0x2013 JUMPI POP PUSH1 0x3 PUSH0 DUP5 PUSH20 0xFFFFFFFFFFFFFFFFFFFFFFFFFFFFFFFFFFFFFFFF AND PUSH20 0xFFFFFFFFFFFFFFFFFFFFFFFFFFFFFFFFFFFFFFFF AND DUP2 MSTORE PUSH1 0x20 ADD SWAP1 DUP2 MSTORE PUSH1 0x20 ADD PUSH0 KECCAK256 PUSH0 SWAP1 SLOAD SWAP1 PUSH2 0x100 EXP SWAP1 DIV PUSH1 0xFF AND JUMPDEST DUP1 PUSH2 0x2064 JUMPI POP PUSH1 0x4 PUSH0 DUP5 PUSH20 0xFFFFFFFFFFFFFFFFFFFFFFFFFFFFFFFFFFFFFFFF AND PUSH20 0xFFFFFFFFFFFFFFFFFFFFFFFFFFFFFFFFFFFFFFFF AND DUP2 MSTORE PUSH1 0x20 ADD SWAP1 DUP2 MSTORE PUSH1 0x20 ADD PUSH0 KECCAK256 PUSH0 SWAP1 SLOAD SWAP1 PUSH2 0x100 EXP SWAP1 DIV PUSH1 0xFF AND JUMPDEST PUSH2 0x20A3 JUMPI PUSH1 0x40 MLOAD PUSH32 0x8C379A000000000000000000000000000000000000000000000000000000000 DUP2 MSTORE PUSH1 0x4 ADD PUSH2 0x209A SWAP1 PUSH2 0x4443 JUMP JUMPDEST PUSH1 0x40 MLOAD DUP1 SWAP2 SUB SWAP1 REVERT JUMPDEST PUSH0 PUSH1 0x5 DUP6 PUSH1 0x40 MLOAD PUSH2 0x20B4 SWAP2 SWAP1 PUSH2 0x3A87 JUMP JUMPDEST SWAP1 DUP2 MSTORE PUSH1 0x20 ADD PUSH1 0x40 MLOAD DUP1 SWAP2 SUB SWAP1 KECCAK256 PUSH1 0x3 ADD PUSH0 SWAP1 SLOAD SWAP1 PUSH2 0x100 EXP SWAP1 DIV PUSH20 0xFFFFFFFFFFFFFFFFFFFFFFFFFFFFFFFFFFFFFFFF AND SWAP1 POP DUP4 PUSH1 0x5 DUP7 PUSH1 0x40 MLOAD PUSH2 0x20F8 SWAP2 SWAP1 PUSH2 0x3A87 JUMP JUMPDEST SWAP1 DUP2 MSTORE PUSH1 0x20 ADD PUSH1 0x40 MLOAD DUP1 SWAP2 SUB SWAP1 KECCAK256 PUSH1 0x3 ADD PUSH0 PUSH2 0x100 EXP DUP2 SLOAD DUP2 PUSH20 0xFFFFFFFFFFFFFFFFFFFFFFFFFFFFFFFFFFFFFFFF MUL NOT AND SWAP1 DUP4 PUSH20 0xFFFFFFFFFFFFFFFFFFFFFFFFFFFFFFFFFFFFFFFF AND MUL OR SWAP1 SSTORE POP PUSH1 0x3 PUSH0 DUP6 PUSH20 0xFFFFFFFFFFFFFFFFFFFFFFFFFFFFFFFFFFFFFFFF AND PUSH20 0xFFFFFFFFFFFFFFFFFFFFFFFFFFFFFFFFFFFFFFFF AND DUP2 MSTORE PUSH1 0x20 ADD SWAP1 DUP2 MSTORE PUSH1 0x20 ADD PUSH0 KECCAK256 PUSH0 SWAP1 SLOAD SWAP1 PUSH2 0x100 EXP SWAP1 DIV PUSH1 0xFF AND ISZERO PUSH2 0x230E JUMPI PUSH1 0x40 MLOAD DUP1 PUSH1 0x40 ADD PUSH1 0x40 MSTORE DUP1 PUSH1 0xA DUP2 MSTORE PUSH1 0x20 ADD PUSH32 0x496E205472616E73697400000000000000000000000000000000000000000000 DUP2 MSTORE POP PUSH1 0x5 DUP7 PUSH1 0x40 MLOAD PUSH2 0x21DB SWAP2 SWAP1 PUSH2 0x3A87 JUMP JUMPDEST SWAP1 DUP2 MSTORE PUSH1 0x20 ADD PUSH1 0x40 MLOAD DUP1 SWAP2 SUB SWAP1 KECCAK256 PUSH1 0x4 ADD SWAP1 DUP2 PUSH2 0x21F8 SWAP2 SWAP1 PUSH2 0x3F98 JUMP JUMPDEST POP PUSH1 0x6 DUP6 PUSH1 0x40 MLOAD PUSH2 0x2209 SWAP2 SWAP1 PUSH2 0x3A87 JUMP JUMPDEST SWAP1 DUP2 MSTORE PUSH1 0x20 ADD PUSH1 0x40 MLOAD DUP1 SWAP2 SUB SWAP1 KECCAK256 PUSH1 0x40 MLOAD DUP1 PUSH1 0x60 ADD PUSH1 0x40 MSTORE DUP1 PUSH1 0x40 MLOAD DUP1 PUSH1 0x40 ADD PUSH1 0x40 MSTORE DUP1 PUSH1 0xA DUP2 MSTORE PUSH1 0x20 ADD PUSH32 0x496E205472616E73697400000000000000000000000000000000000000000000 DUP2 MSTORE POP DUP2 MSTORE PUSH1 0x20 ADD TIMESTAMP DUP2 MSTORE PUSH1 0x20 ADD CALLER PUSH20 0xFFFFFFFFFFFFFFFFFFFFFFFFFFFFFFFFFFFFFFFF AND DUP2 MSTORE POP SWAP1 DUP1 PUSH1 0x1 DUP2 SLOAD ADD DUP1 DUP3 SSTORE DUP1 SWAP2 POP POP PUSH1 0x1 SWAP1 SUB SWAP1 PUSH0 MSTORE PUSH1 0x20 PUSH0 KECCAK256 SWAP1 PUSH1 0x3 MUL ADD PUSH0 SWAP1 SWAP2 SWAP1 SWAP2 SWAP1 SWAP2 POP PUSH0 DUP3 ADD MLOAD DUP2 PUSH0 ADD SWAP1 DUP2 PUSH2 0x22B6 SWAP2 SWAP1 PUSH2 0x3F98 JUMP JUMPDEST POP PUSH1 0x20 DUP3 ADD MLOAD DUP2 PUSH1 0x1 ADD SSTORE PUSH1 0x40 DUP3 ADD MLOAD DUP2 PUSH1 0x2 ADD PUSH0 PUSH2 0x100 EXP DUP2 SLOAD DUP2 PUSH20 0xFFFFFFFFFFFFFFFFFFFFFFFFFFFFFFFFFFFFFFFF MUL NOT AND SWAP1 DUP4 PUSH20 0xFFFFFFFFFFFFFFFFFFFFFFFFFFFFFFFFFFFFFFFF AND MUL OR SWAP1 SSTORE POP POP POP PUSH2 0x24D3 JUMP JUMPDEST PUSH1 0x4 PUSH0 DUP6 PUSH20 0xFFFFFFFFFFFFFFFFFFFFFFFFFFFFFFFFFFFFFFFF AND PUSH20 0xFFFFFFFFFFFFFFFFFFFFFFFFFFFFFFFFFFFFFFFF AND DUP2 MSTORE PUSH1 0x20 ADD SWAP1 DUP2 MSTORE PUSH1 0x20 ADD PUSH0 KECCAK256 PUSH0 SWAP1 SLOAD SWAP1 PUSH2 0x100 EXP SWAP1 DIV PUSH1 0xFF AND ISZERO PUSH2 0x24D2 JUMPI PUSH1 0x40 MLOAD DUP1 PUSH1 0x40 ADD PUSH1 0x40 MSTORE DUP1 PUSH1 0xB DUP2 MSTORE PUSH1 0x20 ADD PUSH32 0x41742052657461696C6572000000000000000000000000000000000000000000 DUP2 MSTORE POP PUSH1 0x5 DUP7 PUSH1 0x40 MLOAD PUSH2 0x23A3 SWAP2 SWAP1 PUSH2 0x3A87 JUMP JUMPDEST SWAP1 DUP2 MSTORE PUSH1 0x20 ADD PUSH1 0x40 MLOAD DUP1 SWAP2 SUB SWAP1 KECCAK256 PUSH1 0x4 ADD SWAP1 DUP2 PUSH2 0x23C0 SWAP2 SWAP1 PUSH2 0x3F98 JUMP JUMPDEST POP PUSH1 0x6 DUP6 PUSH1 0x40 MLOAD PUSH2 0x23D1 SWAP2 SWAP1 PUSH2 0x3A87 JUMP JUMPDEST SWAP1 DUP2 MSTORE PUSH1 0x20 ADD PUSH1 0x40 MLOAD DUP1 SWAP2 SUB SWAP1 KECCAK256 PUSH1 0x40 MLOAD DUP1 PUSH1 0x60 ADD PUSH1 0x40 MSTORE DUP1 PUSH1 0x40 MLOAD DUP1 PUSH1 0x40 ADD PUSH1 0x40 MSTORE DUP1 PUSH1 0xB DUP2 MSTORE PUSH1 0x20 ADD PUSH32 0x41742052657461696C6572000000000000000000000000000000000000000000 DUP2 MSTORE POP DUP2 MSTORE PUSH1 0x20 ADD TIMESTAMP DUP2 MSTORE PUSH1 0x20 ADD CALLER PUSH20 0xFFFFFFFFFFFFFFFFFFFFFFFFFFFFFFFFFFFFFFFF AND DUP2 MSTORE POP SWAP1 DUP1 PUSH1 0x1 DUP2 SLOAD ADD DUP1 DUP3 SSTORE DUP1 SWAP2 POP POP PUSH1 0x1 SWAP1 SUB SWAP1 PUSH0 MSTORE PUSH1 0x20 PUSH0 KECCAK256 SWAP1 PUSH1 0x3 MUL ADD PUSH0 SWAP1 SWAP2 SWAP1 SWAP2 SWAP1 SWAP2 POP PUSH0 DUP3 ADD MLOAD DUP2 PUSH0 ADD SWAP1 DUP2 PUSH2 0x247E SWAP2 SWAP1 PUSH2 0x3F98 JUMP JUMPDEST POP PUSH1 0x20 DUP3 ADD MLOAD DUP2 PUSH1 0x1 ADD SSTORE PUSH1 0x40 DUP3 ADD MLOAD DUP2 PUSH1 0x2 ADD PUSH0 PUSH2 0x100 EXP DUP2 SLOAD DUP2 PUSH20 0xFFFFFFFFFFFFFFFFFFFFFFFFFFFFFFFFFFFFFFFF MUL NOT AND SWAP1 DUP4 PUSH20 0xFFFFFFFFFFFFFFFFFFFFFFFFFFFFFFFFFFFFFFFF AND MUL OR SWAP1 SSTORE POP POP POP JUMPDEST JUMPDEST DUP4 PUSH20 0xFFFFFFFFFFFFFFFFFFFFFFFFFFFFFFFFFFFFFFFF AND DUP2 PUSH20 0xFFFFFFFFFFFFFFFFFFFFFFFFFFFFFFFFFFFFFFFF AND DUP7 PUSH1 0x40 MLOAD PUSH2 0x250F SWAP2 SWAP1 PUSH2 0x3A87 JUMP JUMPDEST PUSH1 0x40 MLOAD DUP1 SWAP2 SUB SWAP1 KECCAK256 PUSH32 0xF098A9F0CA48E620570B4A4D165D5AE87DD8FD34CA0E9FA8C25480826E72CC94 TIMESTAMP PUSH1 0x40 MLOAD PUSH2 0x2546 SWAP2 SWAP1 PUSH2 0x3834 JUMP JUMPDEST PUSH1 0x40 MLOAD DUP1 SWAP2 SUB SWAP1 LOG4 POP POP POP POP POP JUMP JUMPDEST PUSH1 0x2 PUSH0 CALLER PUSH20 0xFFFFFFFFFFFFFFFFFFFFFFFFFFFFFFFFFFFFFFFF AND PUSH20 0xFFFFFFFFFFFFFFFFFFFFFFFFFFFFFFFFFFFFFFFF AND DUP2 MSTORE PUSH1 0x20 ADD SWAP1 DUP2 MSTORE PUSH1 0x20 ADD PUSH0 KECCAK256 PUSH0 SWAP1 SLOAD SWAP1 PUSH2 0x100 EXP SWAP1 DIV PUSH1 0xFF AND PUSH2 0x25DE JUMPI PUSH1 0x40 MLOAD PUSH32 0x8C379A000000000000000000000000000000000000000000000000000000000 DUP2 MSTORE PUSH1 0x4 ADD PUSH2 0x25D5 SWAP1 PUSH2 0x44D1 JUMP JUMPDEST PUSH1 0x40 MLOAD DUP1 SWAP2 SUB SWAP1 REVERT JUMPDEST DUP2 PUSH1 0x5 DUP2 PUSH1 0x40 MLOAD PUSH2 0x25EF SWAP2 SWAP1 PUSH2 0x3A87 JUMP JUMPDEST SWAP1 DUP2 MSTORE PUSH1 0x20 ADD PUSH1 0x40 MLOAD DUP1 SWAP2 SUB SWAP1 KECCAK256 PUSH1 0x7 ADD PUSH0 SWAP1 SLOAD SWAP1 PUSH2 0x100 EXP SWAP1 DIV PUSH1 0xFF AND PUSH2 0x264C JUMPI PUSH1 0x40 MLOAD PUSH32 0x8C379A000000000000000000000000000000000000000000000000000000000 DUP2 MSTORE PUSH1 0x4 ADD PUSH2 0x2643 SWAP1 PUSH2 0x3CAD JUMP JUMPDEST PUSH1 0x40 MLOAD DUP1 SWAP2 SUB SWAP1 REVERT JUMPDEST PUSH0 DUP3 MLOAD GT PUSH2 0x268F JUMPI PUSH1 0x40 MLOAD PUSH32 0x8C379A000000000000000000000000000000000000000000000000000000000 DUP2 MSTORE PUSH1 0x4 ADD PUSH2 0x2686 SWAP1 PUSH2 0x4539 JUMP JUMPDEST PUSH1 0x40 MLOAD DUP1 SWAP2 SUB SWAP1 REVERT JUMPDEST DUP2 PUSH1 0x5 DUP5 PUSH1 0x40 MLOAD PUSH2 0x26A0 SWAP2 SWAP1 PUSH2 0x3A87 JUMP JUMPDEST SWAP1 DUP2 MSTORE PUSH1 0x20 ADD PUSH1 0x40 MLOAD DUP1 SWAP2 SUB SWAP1 KECCAK256 PUSH1 0x5 ADD SWAP1 DUP2 PUSH2 0x26BD SWAP2 SWAP1 PUSH2 0x3F98 JUMP JUMPDEST POP PUSH1 0x40 MLOAD DUP1 PUSH1 0x40 ADD PUSH1 0x40 MSTORE DUP1 PUSH1 0xF DUP2 MSTORE PUSH1 0x20 ADD PUSH32 0x4365727469666965642048616C616C0000000000000000000000000000000000 DUP2 MSTORE POP PUSH1 0x5 DUP5 PUSH1 0x40 MLOAD PUSH2 0x2704 SWAP2 SWAP1 PUSH2 0x3A87 JUMP JUMPDEST SWAP1 DUP2 MSTORE PUSH1 0x20 ADD PUSH1 0x40 MLOAD DUP1 SWAP2 SUB SWAP1 KECCAK256 PUSH1 0x4 ADD SWAP1 DUP2 PUSH2 0x2721 SWAP2 SWAP1 PUSH2 0x3F98 JUMP JUMPDEST POP PUSH1 0x6 DUP4 PUSH1 0x40 MLOAD PUSH2 0x2732 SWAP2 SWAP1 PUSH2 0x3A87 JUMP JUMPDEST SWAP1 DUP2 MSTORE PUSH1 0x20 ADD PUSH1 0x40 MLOAD DUP1 SWAP2 SUB SWAP1 KECCAK256 PUSH1 0x40 MLOAD DUP1 PUSH1 0x60 ADD PUSH1 0x40 MSTORE DUP1 PUSH1 0x40 MLOAD DUP1 PUSH1 0x40 ADD PUSH1 0x40 MSTORE DUP1 PUSH1 0xF DUP2 MSTORE PUSH1 0x20 ADD PUSH32 0x4365727469666965642048616C616C0000000000000000000000000000000000 DUP2 MSTORE POP DUP2 MSTORE PUSH1 0x20 ADD TIMESTAMP DUP2 MSTORE PUSH1 0x20 ADD CALLER PUSH20 0xFFFFFFFFFFFFFFFFFFFFFFFFFFFFFFFFFFFFFFFF AND DUP2 MSTORE POP SWAP1 DUP1 PUSH1 0x1 DUP2 SLOAD ADD DUP1 DUP3 SSTORE DUP1 SWAP2 POP POP PUSH1 0x1 SWAP1 SUB SWAP1 PUSH0 MSTORE PUSH1 0x20 PUSH0 KECCAK256 SWAP1 PUSH1 0x3 MUL ADD PUSH0 SWAP1 SWAP2 SWAP1 SWAP2 SWAP1 SWAP2 POP PUSH0 DUP3 ADD MLOAD DUP2 PUSH0 ADD SWAP1 DUP2 PUSH2 0x27DF SWAP2 SWAP1 PUSH2 0x3F98 JUMP JUMPDEST POP PUSH1 0x20 DUP3 ADD MLOAD DUP2 PUSH1 0x1 ADD SSTORE PUSH1 0x40 DUP3 ADD MLOAD DUP2 PUSH1 0x2 ADD PUSH0 PUSH2 0x100 EXP DUP2 SLOAD DUP2 PUSH20 0xFFFFFFFFFFFFFFFFFFFFFFFFFFFFFFFFFFFFFFFF MUL NOT AND SWAP1 DUP4 PUSH20 0xFFFFFFFFFFFFFFFFFFFFFFFFFFFFFFFFFFFFFFFF AND MUL OR SWAP1 SSTORE POP POP POP CALLER PUSH20 0xFFFFFFFFFFFFFFFFFFFFFFFFFFFFFFFFFFFFFFFF AND DUP4 PUSH1 0x40 MLOAD PUSH2 0x2857 SWAP2 SWAP1 PUSH2 0x3A87 JUMP JUMPDEST PUSH1 0x40 MLOAD DUP1 SWAP2 SUB SWAP1 KECCAK256 PUSH32 0x936484363F87CAE1636FEF9E0727155E6EBB82D9B8C344C29CEED9B90C30CAF9 DUP5 TIMESTAMP PUSH1 0x40 MLOAD PUSH2 0x2890 SWAP3 SWAP2 SWAP1 PUSH2 0x4067 JUMP JUMPDEST PUSH1 0x40 MLOAD DUP1 SWAP2 SUB SWAP1 LOG3 POP POP POP JUMP JUMPDEST PUSH1 0x60 PUSH1 0x7 DUP1 SLOAD DUP1 PUSH1 0x20 MUL PUSH1 0x20 ADD PUSH1 0x40 MLOAD SWAP1 DUP2 ADD PUSH1 0x40 MSTORE DUP1 SWAP3 SWAP2 SWAP1 DUP2 DUP2 MSTORE PUSH1 0x20 ADD PUSH0 SWAP1 JUMPDEST DUP3 DUP3 LT ISZERO PUSH2 0x2968 JUMPI DUP4 DUP3 SWAP1 PUSH0 MSTORE PUSH1 0x20 PUSH0 KECCAK256 ADD DUP1 SLOAD PUSH2 0x28DD SWAP1 PUSH2 0x3DC8 JUMP JUMPDEST DUP1 PUSH1 0x1F ADD PUSH1 0x20 DUP1 SWAP2 DIV MUL PUSH1 0x20 ADD PUSH1 0x40 MLOAD SWAP1 DUP2 ADD PUSH1 0x40 MSTORE DUP1 SWAP3 SWAP2 SWAP1 DUP2 DUP2 MSTORE PUSH1 0x20 ADD DUP3 DUP1 SLOAD PUSH2 0x2909 SWAP1 PUSH2 0x3DC8 JUMP JUMPDEST DUP1 ISZERO PUSH2 0x2954 JUMPI DUP1 PUSH1 0x1F LT PUSH2 0x292B JUMPI PUSH2 0x100 DUP1 DUP4 SLOAD DIV MUL DUP4 MSTORE SWAP2 PUSH1 0x20 ADD SWAP2 PUSH2 0x2954 JUMP JUMPDEST DUP3 ADD SWAP2 SWAP1 PUSH0 MSTORE PUSH1 0x20 PUSH0 KECCAK256 SWAP1 JUMPDEST DUP2 SLOAD DUP2 MSTORE SWAP1 PUSH1 0x1 ADD SWAP1 PUSH1 0x20 ADD DUP1 DUP4 GT PUSH2 0x2937 JUMPI DUP3 SWAP1 SUB PUSH1 0x1F AND DUP3 ADD SWAP2 JUMPDEST POP POP POP POP POP DUP2 MSTORE PUSH1 0x20 ADD SWAP1 PUSH1 0x1 ADD SWAP1 PUSH2 0x28C0 JUMP JUMPDEST POP POP POP POP SWAP1 POP SWAP1 JUMP JUMPDEST PUSH1 0x2 PUSH1 0x20 MSTORE DUP1 PUSH0 MSTORE PUSH1 0x40 PUSH0 KECCAK256 PUSH0 SWAP2 POP SLOAD SWAP1 PUSH2 0x100 EXP SWAP1 DIV PUSH1 0xFF AND DUP2 JUMP JUMPDEST PUSH1 0x3 PUSH1 0x20 MSTORE DUP1 PUSH0 MSTORE PUSH1 0x40 PUSH0 KECCAK256 PUSH0 SWAP2 POP SLOAD SWAP1 PUSH2 0x100 EXP SWAP1 DIV PUSH1 0xFF AND DUP2 JUMP JUMPDEST PUSH0 PUSH0 SWAP1 SLOAD SWAP1 PUSH2 0x100 EXP SWAP1 DIV PUSH20 0xFFFFFFFFFFFFFFFFFFFFFFFFFFFFFFFFFFFFFFFF AND PUSH20 0xFFFFFFFFFFFFFFFFFFFFFFFFFFFFFFFFFFFFFFFF AND CALLER PUSH20 0xFFFFFFFFFFFFFFFFFFFFFFFFFFFFFFFFFFFFFFFF AND EQ PUSH2 0x2A39 JUMPI PUSH1 0x40 MLOAD PUSH32 0x8C379A000000000000000000000000000000000000000000000000000000000 DUP2 MSTORE PUSH1 0x4 ADD PUSH2 0x2A30 SWAP1 PUSH2 0x395F JUMP JUMPDEST PUSH1 0x40 MLOAD DUP1 SWAP2 SUB SWAP1 REVERT JUMPDEST PUSH0 PUSH1 0x2 PUSH0 DUP4 PUSH20 0xFFFFFFFFFFFFFFFFFFFFFFFFFFFFFFFFFFFFFFFF AND PUSH20 0xFFFFFFFFFFFFFFFFFFFFFFFFFFFFFFFFFFFFFFFF AND DUP2 MSTORE PUSH1 0x20 ADD SWAP1 DUP2 MSTORE PUSH1 0x20 ADD PUSH0 KECCAK256 PUSH0 PUSH2 0x100 EXP DUP2 SLOAD DUP2 PUSH1 0xFF MUL NOT AND SWAP1 DUP4 ISZERO ISZERO MUL OR SWAP1 SSTORE POP DUP1 PUSH20 0xFFFFFFFFFFFFFFFFFFFFFFFFFFFFFFFFFFFFFFFF AND PUSH32 0x9F43A01C0D4FF5AFF09B3B9B472DF707CEEFD3F948F8942F10FA1562A8921304 PUSH1 0x40 MLOAD PUSH2 0x2AD1 SWAP1 PUSH2 0x40B7 JUMP JUMPDEST PUSH1 0x40 MLOAD DUP1 SWAP2 SUB SWAP1 LOG2 POP JUMP JUMPDEST PUSH0 PUSH1 0x7 DUP1 SLOAD SWAP1 POP SWAP1 POP SWAP1 JUMP JUMPDEST PUSH0 PUSH0 SWAP1 SLOAD SWAP1 PUSH2 0x100 EXP SWAP1 DIV PUSH20 0xFFFFFFFFFFFFFFFFFFFFFFFFFFFFFFFFFFFFFFFF AND DUP2 JUMP JUMPDEST PUSH1 0x60 DUP1 PUSH0 PUSH0 PUSH1 0x60 DUP1 PUSH0 DUP8 PUSH1 0x5 DUP2 PUSH1 0x40 MLOAD PUSH2 0x2B26 SWAP2 SWAP1 PUSH2 0x3A87 JUMP JUMPDEST SWAP1 DUP2 MSTORE PUSH1 0x20 ADD PUSH1 0x40 MLOAD DUP1 SWAP2 SUB SWAP1 KECCAK256 PUSH1 0x7 ADD PUSH0 SWAP1 SLOAD SWAP1 PUSH2 0x100 EXP SWAP1 DIV PUSH1 0xFF AND PUSH2 0x2B83 JUMPI PUSH1 0x40 MLOAD PUSH32 0x8C379A000000000000000000000000000000000000000000000000000000000 DUP2 MSTORE PUSH1 0x4 ADD PUSH2 0x2B7A SWAP1 PUSH2 0x3CAD JUMP JUMPDEST PUSH1 0x40 MLOAD DUP1 SWAP2 SUB SWAP1 REVERT JUMPDEST PUSH0 PUSH1 0x5 DUP11 PUSH1 0x40 MLOAD PUSH2 0x2B94 SWAP2 SWAP1 PUSH2 0x3A87 JUMP JUMPDEST SWAP1 DUP2 MSTORE PUSH1 0x20 ADD PUSH1 0x40 MLOAD DUP1 SWAP2 SUB SWAP1 KECCAK256 PUSH1 0x40 MLOAD DUP1 PUSH2 0x100 ADD PUSH1 0x40 MSTORE SWAP1 DUP2 PUSH0 DUP3 ADD DUP1 SLOAD PUSH2 0x2BBD SWAP1 PUSH2 0x3DC8 JUMP JUMPDEST DUP1 PUSH1 0x1F ADD PUSH1 0x20 DUP1 SWAP2 DIV MUL PUSH1 0x20 ADD PUSH1 0x40 MLOAD SWAP1 DUP2 ADD PUSH1 0x40 MSTORE DUP1 SWAP3 SWAP2 SWAP1 DUP2 DUP2 MSTORE PUSH1 0x20 ADD DUP3 DUP1 SLOAD PUSH2 0x2BE9 SWAP1 PUSH2 0x3DC8 JUMP JUMPDEST DUP1 ISZERO PUSH2 0x2C34 JUMPI DUP1 PUSH1 0x1F LT PUSH2 0x2C0B JUMPI PUSH2 0x100 DUP1 DUP4 SLOAD DIV MUL DUP4 MSTORE SWAP2 PUSH1 0x20 ADD SWAP2 PUSH2 0x2C34 JUMP JUMPDEST DUP3 ADD SWAP2 SWAP1 PUSH0 MSTORE PUSH1 0x20 PUSH0 KECCAK256 SWAP1 JUMPDEST DUP2 SLOAD DUP2 MSTORE SWAP1 PUSH1 0x1 ADD SWAP1 PUSH1 0x20 ADD DUP1 DUP4 GT PUSH2 0x2C17 JUMPI DUP3 SWAP1 SUB PUSH1 0x1F AND DUP3 ADD SWAP2 JUMPDEST POP POP POP POP POP DUP2 MSTORE PUSH1 0x20 ADD PUSH1 0x1 DUP3 ADD DUP1 SLOAD PUSH2 0x2C4D SWAP1 PUSH2 0x3DC8 JUMP JUMPDEST DUP1 PUSH1 0x1F ADD PUSH1 0x20 DUP1 SWAP2 DIV MUL PUSH1 0x20 ADD PUSH1 0x40 MLOAD SWAP1 DUP2 ADD PUSH1 0x40 MSTORE DUP1 SWAP3 SWAP2 SWAP1 DUP2 DUP2 MSTORE PUSH1 0x20 ADD DUP3 DUP1 SLOAD PUSH2 0x2C79 SWAP1 PUSH2 0x3DC8 JUMP JUMPDEST DUP1 ISZERO PUSH2 0x2CC4 JUMPI DUP1 PUSH1 0x1F LT PUSH2 0x2C9B JUMPI PUSH2 0x100 DUP1 DUP4 SLOAD DIV MUL DUP4 MSTORE SWAP2 PUSH1 0x20 ADD SWAP2 PUSH2 0x2CC4 JUMP JUMPDEST DUP3 ADD SWAP2 SWAP1 PUSH0 MSTORE PUSH1 0x20 PUSH0 KECCAK256 SWAP1 JUMPDEST DUP2 SLOAD DUP2 MSTORE SWAP1 PUSH1 0x1 ADD SWAP1 PUSH1 0x20 ADD DUP1 DUP4 GT PUSH2 0x2CA7 JUMPI DUP3 SWAP1 SUB PUSH1 0x1F AND DUP3 ADD SWAP2 JUMPDEST POP POP POP POP POP DUP2 MSTORE PUSH1 0x20 ADD PUSH1 0x2 DUP3 ADD PUSH0 SWAP1 SLOAD SWAP1 PUSH2 0x100 EXP SWAP1 DIV PUSH20 0xFFFFFFFFFFFFFFFFFFFFFFFFFFFFFFFFFFFFFFFF AND PUSH20 0xFFFFFFFFFFFFFFFFFFFFFFFFFFFFFFFFFFFFFFFF AND PUSH20 0xFFFFFFFFFFFFFFFFFFFFFFFFFFFFFFFFFFFFFFFF AND DUP2 MSTORE PUSH1 0x20 ADD PUSH1 0x3 DUP3 ADD PUSH0 SWAP1 SLOAD SWAP1 PUSH2 0x100 EXP SWAP1 DIV PUSH20 0xFFFFFFFFFFFFFFFFFFFFFFFFFFFFFFFFFFFFFFFF AND PUSH20 0xFFFFFFFFFFFFFFFFFFFFFFFFFFFFFFFFFFFFFFFF AND PUSH20 0xFFFFFFFFFFFFFFFFFFFFFFFFFFFFFFFFFFFFFFFF AND DUP2 MSTORE PUSH1 0x20 ADD PUSH1 0x4 DUP3 ADD DUP1 SLOAD PUSH2 0x2D87 SWAP1 PUSH2 0x3DC8 JUMP JUMPDEST DUP1 PUSH1 0x1F ADD PUSH1 0x20 DUP1 SWAP2 DIV MUL PUSH1 0x20 ADD PUSH1 0x40 MLOAD SWAP1 DUP2 ADD PUSH1 0x40 MSTORE DUP1 SWAP3 SWAP2 SWAP1 DUP2 DUP2 MSTORE PUSH1 0x20 ADD DUP3 DUP1 SLOAD PUSH2 0x2DB3 SWAP1 PUSH2 0x3DC8 JUMP JUMPDEST DUP1 ISZERO PUSH2 0x2DFE JUMPI DUP1 PUSH1 0x1F LT PUSH2 0x2DD5 JUMPI PUSH2 0x100 DUP1 DUP4 SLOAD DIV MUL DUP4 MSTORE SWAP2 PUSH1 0x20 ADD SWAP2 PUSH2 0x2DFE JUMP JUMPDEST DUP3 ADD SWAP2 SWAP1 PUSH0 MSTORE PUSH1 0x20 PUSH0 KECCAK256 SWAP1 JUMPDEST DUP2 SLOAD DUP2 MSTORE SWAP1 PUSH1 0x1 ADD SWAP1 PUSH1 0x20 ADD DUP1 DUP4 GT PUSH2 0x2DE1 JUMPI DUP3 SWAP1 SUB PUSH1 0x1F AND DUP3 ADD SWAP2 JUMPDEST POP POP POP POP POP DUP2 MSTORE PUSH1 0x20 ADD PUSH1 0x5 DUP3 ADD DUP1 SLOAD PUSH2 0x2E17 SWAP1 PUSH2 0x3DC8 JUMP JUMPDEST DUP1 PUSH1 0x1F ADD PUSH1 0x20 DUP1 SWAP2 DIV MUL PUSH1 0x20 ADD PUSH1 0x40 MLOAD SWAP1 DUP2 ADD PUSH1 0x40 MSTORE DUP1 SWAP3 SWAP2 SWAP1 DUP2 DUP2 MSTORE PUSH1 0x20 ADD DUP3 DUP1 SLOAD PUSH2 0x2E43 SWAP1 PUSH2 0x3DC8 JUMP JUMPDEST DUP1 ISZERO PUSH2 0x2E8E JUMPI DUP1 PUSH1 0x1F LT PUSH2 0x2E65 JUMPI PUSH2 0x100 DUP1 DUP4 SLOAD DIV MUL DUP4 MSTORE SWAP2 PUSH1 0x20 ADD SWAP2 PUSH2 0x2E8E JUMP JUMPDEST DUP3 ADD SWAP2 SWAP1 PUSH0 MSTORE PUSH1 0x20 PUSH0 KECCAK256 SWAP1 JUMPDEST DUP2 SLOAD DUP2 MSTORE SWAP1 PUSH1 0x1 ADD SWAP1 PUSH1 0x20 ADD DUP1 DUP4 GT PUSH2 0x2E71 JUMPI DUP3 SWAP1 SUB PUSH1 0x1F AND DUP3 ADD SWAP2 JUMPDEST POP POP POP POP POP DUP2 MSTORE PUSH1 0x20 ADD PUSH1 0x6 DUP3 ADD SLOAD DUP2 MSTORE PUSH1 0x20 ADD PUSH1 0x7 DUP3 ADD PUSH0 SWAP1 SLOAD SWAP1 PUSH2 0x100 EXP SWAP1 DIV PUSH1 0xFF AND ISZERO ISZERO ISZERO ISZERO DUP2 MSTORE POP POP SWAP1 POP DUP1 PUSH0 ADD MLOAD DUP2 PUSH1 0x20 ADD MLOAD DUP3 PUSH1 0x40 ADD MLOAD DUP4 PUSH1 0x60 ADD MLOAD DUP5 PUSH1 0x80 ADD MLOAD DUP6 PUSH1 0xA0 ADD MLOAD DUP7 PUSH1 0xC0 ADD MLOAD SWAP9 POP SWAP9 POP SWAP9 POP SWAP9 POP SWAP9 POP SWAP9 POP SWAP9 POP POP POP SWAP2 SWAP4 SWAP6 SWAP8 SWAP1 SWAP3 SWAP5 SWAP7 POP JUMP JUMPDEST PUSH0 PUSH0 SWAP1 SLOAD SWAP1 PUSH2 0x100 EXP SWAP1 DIV PUSH20 0xFFFFFFFFFFFFFFFFFFFFFFFFFFFFFFFFFFFFFFFF AND PUSH20 0xFFFFFFFFFFFFFFFFFFFFFFFFFFFFFFFFFFFFFFFF AND CALLER PUSH20 0xFFFFFFFFFFFFFFFFFFFFFFFFFFFFFFFFFFFFFFFF AND EQ PUSH2 0x2F88 JUMPI PUSH1 0x40 MLOAD PUSH32 0x8C379A000000000000000000000000000000000000000000000000000000000 DUP2 MSTORE PUSH1 0x4 ADD PUSH2 0x2F7F SWAP1 PUSH2 0x395F JUMP JUMPDEST PUSH1 0x40 MLOAD DUP1 SWAP2 SUB SWAP1 REVERT JUMPDEST PUSH0 PUSH1 0x1 PUSH0 DUP4 PUSH20 0xFFFFFFFFFFFFFFFFFFFFFFFFFFFFFFFFFFFFFFFF AND PUSH20 0xFFFFFFFFFFFFFFFFFFFFFFFFFFFFFFFFFFFFFFFF AND DUP2 MSTORE PUSH1 0x20 ADD SWAP1 DUP2 MSTORE PUSH1 0x20 ADD PUSH0 KECCAK256 PUSH0 PUSH2 0x100 EXP DUP2 SLOAD DUP2 PUSH1 0xFF MUL NOT AND SWAP1 DUP4 ISZERO ISZERO MUL OR SWAP1 SSTORE POP DUP1 PUSH20 0xFFFFFFFFFFFFFFFFFFFFFFFFFFFFFFFFFFFFFFFF AND PUSH32 0x9F43A01C0D4FF5AFF09B3B9B472DF707CEEFD3F948F8942F10FA1562A8921304 PUSH1 0x40 MLOAD PUSH2 0x3020 SWAP1 PUSH2 0x39C7 JUMP JUMPDEST PUSH1 0x40 MLOAD DUP1 SWAP2 SUB SWAP1 LOG2 POP JUMP JUMPDEST PUSH0 PUSH1 0x40 MLOAD SWAP1 POP SWAP1 JUMP JUMPDEST PUSH0 PUSH0 REVERT JUMPDEST PUSH0 PUSH0 REVERT JUMPDEST PUSH0 PUSH20 0xFFFFFFFFFFFFFFFFFFFFFFFFFFFFFFFFFFFFFFFF DUP3 AND SWAP1 POP SWAP2 SWAP1 POP JUMP JUMPDEST PUSH0 PUSH2 0x3065 DUP3 PUSH2 0x303C JUMP JUMPDEST SWAP1 POP SWAP2 SWAP1 POP JUMP JUMPDEST PUSH2 0x3075 DUP2 PUSH2 0x305B JUMP JUMPDEST DUP2 EQ PUSH2 0x307F JUMPI PUSH0 PUSH0 REVERT JUMPDEST POP JUMP JUMPDEST PUSH0 DUP2 CALLDATALOAD SWAP1 POP PUSH2 0x3090 DUP2 PUSH2 0x306C JUMP JUMPDEST SWAP3 SWAP2 POP POP JUMP JUMPDEST PUSH0 PUSH1 0x20 DUP3 DUP5 SUB SLT ISZERO PUSH2 0x30AB JUMPI PUSH2 0x30AA PUSH2 0x3034 JUMP JUMPDEST JUMPDEST PUSH0 PUSH2 0x30B8 DUP5 DUP3 DUP6 ADD PUSH2 0x3082 JUMP JUMPDEST SWAP2 POP POP SWAP3 SWAP2 POP POP JUMP JUMPDEST PUSH0 PUSH0 REVERT JUMPDEST PUSH0 PUSH0 REVERT JUMPDEST PUSH0 PUSH1 0x1F NOT PUSH1 0x1F DUP4 ADD AND SWAP1 POP SWAP2 SWAP1 POP JUMP JUMPDEST PUSH32 0x4E487B7100000000000000000000000000000000000000000000000000000000 PUSH0 MSTORE PUSH1 0x41 PUSH1 0x4 MSTORE PUSH1 0x24 PUSH0 REVERT JUMPDEST PUSH2 0x310F DUP3 PUSH2 0x30C9 JUMP JUMPDEST DUP2 ADD DUP2 DUP2 LT PUSH8 0xFFFFFFFFFFFFFFFF DUP3 GT OR ISZERO PUSH2 0x312E JUMPI PUSH2 0x312D PUSH2 0x30D9 JUMP JUMPDEST JUMPDEST DUP1 PUSH1 0x40 MSTORE POP POP POP JUMP JUMPDEST PUSH0 PUSH2 0x3140 PUSH2 0x302B JUMP JUMPDEST SWAP1 POP PUSH2 0x314C DUP3 DUP3 PUSH2 0x3106 JUMP JUMPDEST SWAP2 SWAP1 POP JUMP JUMPDEST PUSH0 PUSH8 0xFFFFFFFFFFFFFFFF DUP3 GT ISZERO PUSH2 0x316B JUMPI PUSH2 0x316A PUSH2 0x30D9 JUMP JUMPDEST JUMPDEST PUSH2 0x3174 DUP3 PUSH2 0x30C9 JUMP JUMPDEST SWAP1 POP PUSH1 0x20 DUP2 ADD SWAP1 POP SWAP2 SWAP1 POP JUMP JUMPDEST DUP3 DUP2 DUP4 CALLDATACOPY PUSH0 DUP4 DUP4 ADD MSTORE POP POP POP JUMP JUMPDEST PUSH0 PUSH2 0x31A1 PUSH2 0x319C DUP5 PUSH2 0x3151 JUMP JUMPDEST PUSH2 0x3137 JUMP JUMPDEST SWAP1 POP DUP3 DUP2 MSTORE PUSH1 0x20 DUP2 ADD DUP5 DUP5 DUP5 ADD GT ISZERO PUSH2 0x31BD JUMPI PUSH2 0x31BC PUSH2 0x30C5 JUMP JUMPDEST JUMPDEST PUSH2 0x31C8 DUP5 DUP3 DUP6 PUSH2 0x3181 JUMP JUMPDEST POP SWAP4 SWAP3 POP POP POP JUMP JUMPDEST PUSH0 DUP3 PUSH1 0x1F DUP4 ADD SLT PUSH2 0x31E4 JUMPI PUSH2 0x31E3 PUSH2 0x30C1 JUMP JUMPDEST JUMPDEST DUP2 CALLDATALOAD PUSH2 0x31F4 DUP5 DUP3 PUSH1 0x20 DUP7 ADD PUSH2 0x318F JUMP JUMPDEST SWAP2 POP POP SWAP3 SWAP2 POP POP JUMP JUMPDEST PUSH0 PUSH0 PUSH1 0x40 DUP4 DUP6 SUB SLT ISZERO PUSH2 0x3213 JUMPI PUSH2 0x3212 PUSH2 0x3034 JUMP JUMPDEST JUMPDEST PUSH0 PUSH2 0x3220 DUP6 DUP3 DUP7 ADD PUSH2 0x3082 JUMP JUMPDEST SWAP3 POP POP PUSH1 0x20 DUP4 ADD CALLDATALOAD PUSH8 0xFFFFFFFFFFFFFFFF DUP2 GT ISZERO PUSH2 0x3241 JUMPI PUSH2 0x3240 PUSH2 0x3038 JUMP JUMPDEST JUMPDEST PUSH2 0x324D DUP6 DUP3 DUP7 ADD PUSH2 0x31D0 JUMP JUMPDEST SWAP2 POP POP SWAP3 POP SWAP3 SWAP1 POP JUMP JUMPDEST PUSH0 DUP2 ISZERO ISZERO SWAP1 POP SWAP2 SWAP1 POP JUMP JUMPDEST PUSH2 0x326B DUP2 PUSH2 0x3257 JUMP JUMPDEST DUP3 MSTORE POP POP JUMP JUMPDEST PUSH0 PUSH1 0x20 DUP3 ADD SWAP1 POP PUSH2 0x3284 PUSH0 DUP4 ADD DUP5 PUSH2 0x3262 JUMP JUMPDEST SWAP3 SWAP2 POP POP JUMP JUMPDEST PUSH0 PUSH0 PUSH1 0x40 DUP4 DUP6 SUB SLT ISZERO PUSH2 0x32A0 JUMPI PUSH2 0x329F PUSH2 0x3034 JUMP JUMPDEST JUMPDEST PUSH0 DUP4 ADD CALLDATALOAD PUSH8 0xFFFFFFFFFFFFFFFF DUP2 GT ISZERO PUSH2 0x32BD JUMPI PUSH2 0x32BC PUSH2 0x3038 JUMP JUMPDEST JUMPDEST PUSH2 0x32C9 DUP6 DUP3 DUP7 ADD PUSH2 0x31D0 JUMP JUMPDEST SWAP3 POP POP PUSH1 0x20 DUP4 ADD CALLDATALOAD PUSH8 0xFFFFFFFFFFFFFFFF DUP2 GT ISZERO PUSH2 0x32EA JUMPI PUSH2 0x32E9 PUSH2 0x3038 JUMP JUMPDEST JUMPDEST PUSH2 0x32F6 DUP6 DUP3 DUP7 ADD PUSH2 0x31D0 JUMP JUMPDEST SWAP2 POP POP SWAP3 POP SWAP3 SWAP1 POP JUMP JUMPDEST PUSH0 PUSH1 0x20 DUP3 DUP5 SUB SLT ISZERO PUSH2 0x3315 JUMPI PUSH2 0x3314 PUSH2 0x3034 JUMP JUMPDEST JUMPDEST PUSH0 DUP3 ADD CALLDATALOAD PUSH8 0xFFFFFFFFFFFFFFFF DUP2 GT ISZERO PUSH2 0x3332 JUMPI PUSH2 0x3331 PUSH2 0x3038 JUMP JUMPDEST JUMPDEST PUSH2 0x333E DUP5 DUP3 DUP6 ADD PUSH2 0x31D0 JUMP JUMPDEST SWAP2 POP POP SWAP3 SWAP2 POP POP JUMP JUMPDEST PUSH0 DUP2 MLOAD SWAP1 POP SWAP2 SWAP1 POP JUMP JUMPDEST PUSH0 DUP3 DUP3 MSTORE PUSH1 0x20 DUP3 ADD SWAP1 POP SWAP3 SWAP2 POP POP JUMP JUMPDEST DUP3 DUP2 DUP4 MCOPY PUSH0 DUP4 DUP4 ADD MSTORE POP POP POP JUMP JUMPDEST PUSH0 PUSH2 0x3379 DUP3 PUSH2 0x3347 JUMP JUMPDEST PUSH2 0x3383 DUP2 DUP6 PUSH2 0x3351 JUMP JUMPDEST SWAP4 POP PUSH2 0x3393 DUP2 DUP6 PUSH1 0x20 DUP7 ADD PUSH2 0x3361 JUMP JUMPDEST PUSH2 0x339C DUP2 PUSH2 0x30C9 JUMP JUMPDEST DUP5 ADD SWAP2 POP POP SWAP3 SWAP2 POP POP JUMP JUMPDEST PUSH2 0x33B0 DUP2 PUSH2 0x305B JUMP JUMPDEST DUP3 MSTORE POP POP JUMP JUMPDEST PUSH0 DUP2 SWAP1 POP SWAP2 SWAP1 POP JUMP JUMPDEST PUSH2 0x33C8 DUP2 PUSH2 0x33B6 JUMP JUMPDEST DUP3 MSTORE POP POP JUMP JUMPDEST PUSH0 PUSH2 0x100 DUP3 ADD SWAP1 POP DUP2 DUP2 SUB PUSH0 DUP4 ADD MSTORE PUSH2 0x33E7 DUP2 DUP12 PUSH2 0x336F JUMP JUMPDEST SWAP1 POP DUP2 DUP2 SUB PUSH1 0x20 DUP4 ADD MSTORE PUSH2 0x33FB DUP2 DUP11 PUSH2 0x336F JUMP JUMPDEST SWAP1 POP PUSH2 0x340A PUSH1 0x40 DUP4 ADD DUP10 PUSH2 0x33A7 JUMP JUMPDEST PUSH2 0x3417 PUSH1 0x60 DUP4 ADD DUP9 PUSH2 0x33A7 JUMP JUMPDEST DUP2 DUP2 SUB PUSH1 0x80 DUP4 ADD MSTORE PUSH2 0x3429 DUP2 DUP8 PUSH2 0x336F JUMP JUMPDEST SWAP1 POP DUP2 DUP2 SUB PUSH1 0xA0 DUP4 ADD MSTORE PUSH2 0x343D DUP2 DUP7 PUSH2 0x336F JUMP JUMPDEST SWAP1 POP PUSH2 0x344C PUSH1 0xC0 DUP4 ADD DUP6 PUSH2 0x33BF JUMP JUMPDEST PUSH2 0x3459 PUSH1 0xE0 DUP4 ADD DUP5 PUSH2 0x3262 JUMP JUMPDEST SWAP10 SWAP9 POP POP POP POP POP POP POP POP POP JUMP JUMPDEST PUSH2 0x346F DUP2 PUSH2 0x33B6 JUMP JUMPDEST DUP2 EQ PUSH2 0x3479 JUMPI PUSH0 PUSH0 REVERT JUMPDEST POP JUMP JUMPDEST PUSH0 DUP2 CALLDATALOAD SWAP1 POP PUSH2 0x348A DUP2 PUSH2 0x3466 JUMP JUMPDEST SWAP3 SWAP2 POP POP JUMP JUMPDEST PUSH0 PUSH0 PUSH1 0x40 DUP4 DUP6 SUB SLT ISZERO PUSH2 0x34A6 JUMPI PUSH2 0x34A5 PUSH2 0x3034 JUMP JUMPDEST JUMPDEST PUSH0 DUP4 ADD CALLDATALOAD PUSH8 0xFFFFFFFFFFFFFFFF DUP2 GT ISZERO PUSH2 0x34C3 JUMPI PUSH2 0x34C2 PUSH2 0x3038 JUMP JUMPDEST JUMPDEST PUSH2 0x34CF DUP6 DUP3 DUP7 ADD PUSH2 0x31D0 JUMP JUMPDEST SWAP3 POP POP PUSH1 0x20 PUSH2 0x34E0 DUP6 DUP3 DUP7 ADD PUSH2 0x347C JUMP JUMPDEST SWAP2 POP POP SWAP3 POP SWAP3 SWAP1 POP JUMP JUMPDEST PUSH0 PUSH1 0x60 DUP3 ADD SWAP1 POP DUP2 DUP2 SUB PUSH0 DUP4 ADD MSTORE PUSH2 0x3502 DUP2 DUP7 PUSH2 0x336F JUMP JUMPDEST SWAP1 POP PUSH2 0x3511 PUSH1 0x20 DUP4 ADD DUP6 PUSH2 0x33BF JUMP JUMPDEST PUSH2 0x351E PUSH1 0x40 DUP4 ADD DUP5 PUSH2 0x33A7 JUMP JUMPDEST SWAP5 SWAP4 POP POP POP POP JUMP JUMPDEST PUSH0 DUP2 MLOAD SWAP1 POP SWAP2 SWAP1 POP JUMP JUMPDEST PUSH0 DUP3 DUP3 MSTORE PUSH1 0x20 DUP3 ADD SWAP1 POP SWAP3 SWAP2 POP POP JUMP JUMPDEST PUSH0 DUP2 SWAP1 POP PUSH1 0x20 DUP3 ADD SWAP1 POP SWAP2 SWAP1 POP JUMP JUMPDEST PUSH0 DUP3 DUP3 MSTORE PUSH1 0x20 DUP3 ADD SWAP1 POP SWAP3 SWAP2 POP POP JUMP JUMPDEST PUSH0 PUSH2 0x3569 DUP3 PUSH2 0x3347 JUMP JUMPDEST PUSH2 0x3573 DUP2 DUP6 PUSH2 0x354F JUMP JUMPDEST SWAP4 POP PUSH2 0x3583 DUP2 DUP6 PUSH1 0x20 DUP7 ADD PUSH2 0x3361 JUMP JUMPDEST PUSH2 0x358C DUP2 PUSH2 0x30C9 JUMP JUMPDEST DUP5 ADD SWAP2 POP POP SWAP3 SWAP2 POP POP JUMP JUMPDEST PUSH2 0x35A0 DUP2 PUSH2 0x33B6 JUMP JUMPDEST DUP3 MSTORE POP POP JUMP JUMPDEST PUSH2 0x35AF DUP2 PUSH2 0x305B JUMP JUMPDEST DUP3 MSTORE POP POP JUMP JUMPDEST PUSH0 PUSH1 0x60 DUP4 ADD PUSH0 DUP4 ADD MLOAD DUP5 DUP3 SUB PUSH0 DUP7 ADD MSTORE PUSH2 0x35CF DUP3 DUP3 PUSH2 0x355F JUMP JUMPDEST SWAP2 POP POP PUSH1 0x20 DUP4 ADD MLOAD PUSH2 0x35E4 PUSH1 0x20 DUP7 ADD DUP3 PUSH2 0x3597 JUMP JUMPDEST POP PUSH1 0x40 DUP4 ADD MLOAD PUSH2 0x35F7 PUSH1 0x40 DUP7 ADD DUP3 PUSH2 0x35A6 JUMP JUMPDEST POP DUP1 SWAP2 POP POP SWAP3 SWAP2 POP POP JUMP JUMPDEST PUSH0 PUSH2 0x360D DUP4 DUP4 PUSH2 0x35B5 JUMP JUMPDEST SWAP1 POP SWAP3 SWAP2 POP POP JUMP JUMPDEST PUSH0 PUSH1 0x20 DUP3 ADD SWAP1 POP SWAP2 SWAP1 POP JUMP JUMPDEST PUSH0 PUSH2 0x362B DUP3 PUSH2 0x3526 JUMP JUMPDEST PUSH2 0x3635 DUP2 DUP6 PUSH2 0x3530 JUMP JUMPDEST SWAP4 POP DUP4 PUSH1 0x20 DUP3 MUL DUP6 ADD PUSH2 0x3647 DUP6 PUSH2 0x3540 JUMP JUMPDEST DUP1 PUSH0 JUMPDEST DUP6 DUP2 LT ISZERO PUSH2 0x3682 JUMPI DUP5 DUP5 SUB DUP10 MSTORE DUP2 MLOAD PUSH2 0x3663 DUP6 DUP3 PUSH2 0x3602 JUMP JUMPDEST SWAP5 POP PUSH2 0x366E DUP4 PUSH2 0x3615 JUMP JUMPDEST SWAP3 POP PUSH1 0x20 DUP11 ADD SWAP10 POP POP PUSH1 0x1 DUP2 ADD SWAP1 POP PUSH2 0x364A JUMP JUMPDEST POP DUP3 SWAP8 POP DUP8 SWAP6 POP POP POP POP POP POP SWAP3 SWAP2 POP POP JUMP JUMPDEST PUSH0 PUSH1 0x20 DUP3 ADD SWAP1 POP DUP2 DUP2 SUB PUSH0 DUP4 ADD MSTORE PUSH2 0x36AC DUP2 DUP5 PUSH2 0x3621 JUMP JUMPDEST SWAP1 POP SWAP3 SWAP2 POP POP JUMP JUMPDEST PUSH0 PUSH1 0x20 DUP3 DUP5 SUB SLT ISZERO PUSH2 0x36C9 JUMPI PUSH2 0x36C8 PUSH2 0x3034 JUMP JUMPDEST JUMPDEST PUSH0 PUSH2 0x36D6 DUP5 DUP3 DUP6 ADD PUSH2 0x347C JUMP JUMPDEST SWAP2 POP POP SWAP3 SWAP2 POP POP JUMP JUMPDEST PUSH0 PUSH1 0x20 DUP3 ADD SWAP1 POP DUP2 DUP2 SUB PUSH0 DUP4 ADD MSTORE PUSH2 0x36F7 DUP2 DUP5 PUSH2 0x336F JUMP JUMPDEST SWAP1 POP SWAP3 SWAP2 POP POP JUMP JUMPDEST PUSH0 PUSH0 PUSH1 0x40 DUP4 DUP6 SUB SLT ISZERO PUSH2 0x3715 JUMPI PUSH2 0x3714 PUSH2 0x3034 JUMP JUMPDEST JUMPDEST PUSH0 DUP4 ADD CALLDATALOAD PUSH8 0xFFFFFFFFFFFFFFFF DUP2 GT ISZERO PUSH2 0x3732 JUMPI PUSH2 0x3731 PUSH2 0x3038 JUMP JUMPDEST JUMPDEST PUSH2 0x373E DUP6 DUP3 DUP7 ADD PUSH2 0x31D0 JUMP JUMPDEST SWAP3 POP POP PUSH1 0x20 PUSH2 0x374F DUP6 DUP3 DUP7 ADD PUSH2 0x3082 JUMP JUMPDEST SWAP2 POP POP SWAP3 POP SWAP3 SWAP1 POP JUMP JUMPDEST PUSH0 DUP2 MLOAD SWAP1 POP SWAP2 SWAP1 POP JUMP JUMPDEST PUSH0 DUP3 DUP3 MSTORE PUSH1 0x20 DUP3 ADD SWAP1 POP SWAP3 SWAP2 POP POP JUMP JUMPDEST PUSH0 DUP2 SWAP1 POP PUSH1 0x20 DUP3 ADD SWAP1 POP SWAP2 SWAP1 POP JUMP JUMPDEST PUSH0 PUSH2 0x378D DUP4 DUP4 PUSH2 0x355F JUMP JUMPDEST SWAP1 POP SWAP3 SWAP2 POP POP JUMP JUMPDEST PUSH0 PUSH1 0x20 DUP3 ADD SWAP1 POP SWAP2 SWAP1 POP JUMP JUMPDEST PUSH0 PUSH2 0x37AB DUP3 PUSH2 0x3759 JUMP JUMPDEST PUSH2 0x37B5 DUP2 DUP6 PUSH2 0x3763 JUMP JUMPDEST SWAP4 POP DUP4 PUSH1 0x20 DUP3 MUL DUP6 ADD PUSH2 0x37C7 DUP6 PUSH2 0x3773 JUMP JUMPDEST DUP1 PUSH0 JUMPDEST DUP6 DUP2 LT ISZERO PUSH2 0x3802 JUMPI DUP5 DUP5 SUB DUP10 MSTORE DUP2 MLOAD PUSH2 0x37E3 DUP6 DUP3 PUSH2 0x3782 JUMP JUMPDEST SWAP5 POP PUSH2 0x37EE DUP4 PUSH2 0x3795 JUMP JUMPDEST SWAP3 POP PUSH1 0x20 DUP11 ADD SWAP10 POP POP PUSH1 0x1 DUP2 ADD SWAP1 POP PUSH2 0x37CA JUMP JUMPDEST POP DUP3 SWAP8 POP DUP8 SWAP6 POP POP POP POP POP POP SWAP3 SWAP2 POP POP JUMP JUMPDEST PUSH0 PUSH1 0x20 DUP3 ADD SWAP1 POP DUP2 DUP2 SUB PUSH0 DUP4 ADD MSTORE PUSH2 0x382C DUP2 DUP5 PUSH2 0x37A1 JUMP JUMPDEST SWAP1 POP SWAP3 SWAP2 POP POP JUMP JUMPDEST PUSH0 PUSH1 0x20 DUP3 ADD SWAP1 POP PUSH2 0x3847 PUSH0 DUP4 ADD DUP5 PUSH2 0x33BF JUMP JUMPDEST SWAP3 SWAP2 POP POP JUMP JUMPDEST PUSH0 PUSH1 0x20 DUP3 ADD SWAP1 POP PUSH2 0x3860 PUSH0 DUP4 ADD DUP5 PUSH2 0x33A7 JUMP JUMPDEST SWAP3 SWAP2 POP POP JUMP JUMPDEST PUSH0 PUSH1 0xE0 DUP3 ADD SWAP1 POP DUP2 DUP2 SUB PUSH0 DUP4 ADD MSTORE PUSH2 0x387E DUP2 DUP11 PUSH2 0x336F JUMP JUMPDEST SWAP1 POP DUP2 DUP2 SUB PUSH1 0x20 DUP4 ADD MSTORE PUSH2 0x3892 DUP2 DUP10 PUSH2 0x336F JUMP JUMPDEST SWAP1 POP PUSH2 0x38A1 PUSH1 0x40 DUP4 ADD DUP9 PUSH2 0x33A7 JUMP JUMPDEST PUSH2 0x38AE PUSH1 0x60 DUP4 ADD DUP8 PUSH2 0x33A7 JUMP JUMPDEST DUP2 DUP2 SUB PUSH1 0x80 DUP4 ADD MSTORE PUSH2 0x38C0 DUP2 DUP7 PUSH2 0x336F JUMP JUMPDEST SWAP1 POP DUP2 DUP2 SUB PUSH1 0xA0 DUP4 ADD MSTORE PUSH2 0x38D4 DUP2 DUP6 PUSH2 0x336F JUMP JUMPDEST SWAP1 POP PUSH2 0x38E3 PUSH1 0xC0 DUP4 ADD DUP5 PUSH2 0x33BF JUMP JUMPDEST SWAP9 SWAP8 POP POP POP POP POP POP POP POP JUMP JUMPDEST PUSH32 0x4F6E6C792061646D696E2063616E20706572666F726D20746869732061637469 PUSH0 DUP3 ADD MSTORE PUSH32 0x6F6E000000000000000000000000000000000000000000000000000000000000 PUSH1 0x20 DUP3 ADD MSTORE POP JUMP JUMPDEST PUSH0 PUSH2 0x3949 PUSH1 0x22 DUP4 PUSH2 0x3351 JUMP JUMPDEST SWAP2 POP PUSH2 0x3954 DUP3 PUSH2 0x38EF JUMP JUMPDEST PUSH1 0x40 DUP3 ADD SWAP1 POP SWAP2 SWAP1 POP JUMP JUMPDEST PUSH0 PUSH1 0x20 DUP3 ADD SWAP1 POP DUP2 DUP2 SUB PUSH0 DUP4 ADD MSTORE PUSH2 0x3976 DUP2 PUSH2 0x393D JUMP JUMPDEST SWAP1 POP SWAP2 SWAP1 POP JUMP JUMPDEST PUSH32 0x50726F6475636572000000000000000000000000000000000000000000000000 PUSH0 DUP3 ADD MSTORE POP JUMP JUMPDEST PUSH0 PUSH2 0x39B1 PUSH1 0x8 DUP4 PUSH2 0x3351 JUMP JUMPDEST SWAP2 POP PUSH2 0x39BC DUP3 PUSH2 0x397D JUMP JUMPDEST PUSH1 0x20 DUP3 ADD SWAP1 POP SWAP2 SWAP1 POP JUMP JUMPDEST PUSH0 PUSH1 0x20 DUP3 ADD SWAP1 POP DUP2 DUP2 SUB PUSH0 DUP4 ADD MSTORE PUSH2 0x39DE DUP2 PUSH2 0x39A5 JUMP JUMPDEST SWAP1 POP SWAP2 SWAP1 POP JUMP JUMPDEST PUSH32 0x4469737472696275746F72000000000000000000000000000000000000000000 PUSH0 DUP3 ADD MSTORE POP JUMP JUMPDEST PUSH0 PUSH2 0x3A19 PUSH1 0xB DUP4 PUSH2 0x3351 JUMP JUMPDEST SWAP2 POP PUSH2 0x3A24 DUP3 PUSH2 0x39E5 JUMP JUMPDEST PUSH1 0x20 DUP3 ADD SWAP1 POP SWAP2 SWAP1 POP JUMP JUMPDEST PUSH0 PUSH1 0x20 DUP3 ADD SWAP1 POP DUP2 DUP2 SUB PUSH0 DUP4 ADD MSTORE PUSH2 0x3A46 DUP2 PUSH2 0x3A0D JUMP JUMPDEST SWAP1 POP SWAP2 SWAP1 POP JUMP JUMPDEST PUSH0 DUP2 SWAP1 POP SWAP3 SWAP2 POP POP JUMP JUMPDEST PUSH0 PUSH2 0x3A61 DUP3 PUSH2 0x3347 JUMP JUMPDEST PUSH2 0x3A6B DUP2 DUP6 PUSH2 0x3A4D JUMP JUMPDEST SWAP4 POP PUSH2 0x3A7B DUP2 DUP6 PUSH1 0x20 DUP7 ADD PUSH2 0x3361 JUMP JUMPDEST DUP1 DUP5 ADD SWAP2 POP POP SWAP3 SWAP2 POP POP JUMP JUMPDEST PUSH0 PUSH2 0x3A92 DUP3 DUP5 PUSH2 0x3A57 JUMP JUMPDEST SWAP2 POP DUP2 SWAP1 POP SWAP3 SWAP2 POP POP JUMP JUMPDEST PUSH0 PUSH2 0x3AA9 PUSH1 0x8 DUP4 PUSH2 0x3A4D JUMP JUMPDEST SWAP2 POP PUSH2 0x3AB4 DUP3 PUSH2 0x397D JUMP JUMPDEST PUSH1 0x8 DUP3 ADD SWAP1 POP SWAP2 SWAP1 POP JUMP JUMPDEST PUSH0 PUSH2 0x3AC9 DUP3 PUSH2 0x3A9D JUMP JUMPDEST SWAP2 POP DUP2 SWAP1 POP SWAP2 SWAP1 POP JUMP JUMPDEST PUSH32 0x48616C616C417574686F72697479000000000000000000000000000000000000 PUSH0 DUP3 ADD MSTORE POP JUMP JUMPDEST PUSH0 PUSH2 0x3B07 PUSH1 0xE DUP4 PUSH2 0x3A4D JUMP JUMPDEST SWAP2 POP PUSH2 0x3B12 DUP3 PUSH2 0x3AD3 JUMP JUMPDEST PUSH1 0xE DUP3 ADD SWAP1 POP SWAP2 SWAP1 POP JUMP JUMPDEST PUSH0 PUSH2 0x3B27 DUP3 PUSH2 0x3AFB JUMP JUMPDEST SWAP2 POP DUP2 SWAP1 POP SWAP2 SWAP1 POP JUMP JUMPDEST PUSH0 PUSH2 0x3B3D PUSH1 0xB DUP4 PUSH2 0x3A4D JUMP JUMPDEST SWAP2 POP PUSH2 0x3B48 DUP3 PUSH2 0x39E5 JUMP JUMPDEST PUSH1 0xB DUP3 ADD SWAP1 POP SWAP2 SWAP1 POP JUMP JUMPDEST PUSH0 PUSH2 0x3B5D DUP3 PUSH2 0x3B31 JUMP JUMPDEST SWAP2 POP DUP2 SWAP1 POP SWAP2 SWAP1 POP JUMP JUMPDEST PUSH32 0x52657461696C6572000000000000000000000000000000000000000000000000 PUSH0 DUP3 ADD MSTORE POP JUMP JUMPDEST PUSH0 PUSH2 0x3B9B PUSH1 0x8 DUP4 PUSH2 0x3A4D JUMP JUMPDEST SWAP2 POP PUSH2 0x3BA6 DUP3 PUSH2 0x3B67 JUMP JUMPDEST PUSH1 0x8 DUP3 ADD SWAP1 POP SWAP2 SWAP1 POP JUMP JUMPDEST PUSH0 PUSH2 0x3BBB DUP3 PUSH2 0x3B8F JUMP JUMPDEST SWAP2 POP DUP2 SWAP1 POP SWAP2 SWAP1 POP JUMP JUMPDEST PUSH32 0x41646D696E000000000000000000000000000000000000000000000000000000 PUSH0 DUP3 ADD MSTORE POP JUMP JUMPDEST PUSH0 PUSH2 0x3BF9 PUSH1 0x5 DUP4 PUSH2 0x3A4D JUMP JUMPDEST SWAP2 POP PUSH2 0x3C04 DUP3 PUSH2 0x3BC5 JUMP JUMPDEST PUSH1 0x5 DUP3 ADD SWAP1 POP SWAP2 SWAP1 POP JUMP JUMPDEST PUSH0 PUSH2 0x3C19 DUP3 PUSH2 0x3BED JUMP JUMPDEST SWAP2 POP DUP2 SWAP1 POP SWAP2 SWAP1 POP JUMP JUMPDEST PUSH0 PUSH2 0x3C2F PUSH1 0x8 DUP4 PUSH2 0x3351 JUMP JUMPDEST SWAP2 POP PUSH2 0x3C3A DUP3 PUSH2 0x3B67 JUMP JUMPDEST PUSH1 0x20 DUP3 ADD SWAP1 POP SWAP2 SWAP1 POP JUMP JUMPDEST PUSH0 PUSH1 0x20 DUP3 ADD SWAP1 POP DUP2 DUP2 SUB PUSH0 DUP4 ADD MSTORE PUSH2 0x3C5C DUP2 PUSH2 0x3C23 JUMP JUMPDEST SWAP1 POP SWAP2 SWAP1 POP JUMP JUMPDEST PUSH32 0x426174636820646F6573206E6F74206578697374000000000000000000000000 PUSH0 DUP3 ADD MSTORE POP JUMP JUMPDEST PUSH0 PUSH2 0x3C97 PUSH1 0x14 DUP4 PUSH2 0x3351 JUMP JUMPDEST SWAP2 POP PUSH2 0x3CA2 DUP3 PUSH2 0x3C63 JUMP JUMPDEST PUSH1 0x20 DUP3 ADD SWAP1 POP SWAP2 SWAP1 POP JUMP JUMPDEST PUSH0 PUSH1 0x20 DUP3 ADD SWAP1 POP DUP2 DUP2 SUB PUSH0 DUP4 ADD MSTORE PUSH2 0x3CC4 DUP2 PUSH2 0x3C8B JUMP JUMPDEST SWAP1 POP SWAP2 SWAP1 POP JUMP JUMPDEST PUSH32 0x4E6F7420617574686F72697A656420746F207570646174652073746174757300 PUSH0 DUP3 ADD MSTORE POP JUMP JUMPDEST PUSH0 PUSH2 0x3CFF PUSH1 0x1F DUP4 PUSH2 0x3351 JUMP JUMPDEST SWAP2 POP PUSH2 0x3D0A DUP3 PUSH2 0x3CCB JUMP JUMPDEST PUSH1 0x20 DUP3 ADD SWAP1 POP SWAP2 SWAP1 POP JUMP JUMPDEST PUSH0 PUSH1 0x20 DUP3 ADD SWAP1 POP DUP2 DUP2 SUB PUSH0 DUP4 ADD MSTORE PUSH2 0x3D2C DUP2 PUSH2 0x3CF3 JUMP JUMPDEST SWAP1 POP SWAP2 SWAP1 POP JUMP JUMPDEST PUSH32 0x5374617475732063616E6E6F7420626520656D70747900000000000000000000 PUSH0 DUP3 ADD MSTORE POP JUMP JUMPDEST PUSH0 PUSH2 0x3D67 PUSH1 0x16 DUP4 PUSH2 0x3351 JUMP JUMPDEST SWAP2 POP PUSH2 0x3D72 DUP3 PUSH2 0x3D33 JUMP JUMPDEST PUSH1 0x20 DUP3 ADD SWAP1 POP SWAP2 SWAP1 POP JUMP JUMPDEST PUSH0 PUSH1 0x20 DUP3 ADD SWAP1 POP DUP2 DUP2 SUB PUSH0 DUP4 ADD MSTORE PUSH2 0x3D94 DUP2 PUSH2 0x3D5B JUMP JUMPDEST SWAP1 POP SWAP2 SWAP1 POP JUMP JUMPDEST PUSH32 0x4E487B7100000000000000000000000000000000000000000000000000000000 PUSH0 MSTORE PUSH1 0x22 PUSH1 0x4 MSTORE PUSH1 0x24 PUSH0 REVERT JUMPDEST PUSH0 PUSH1 0x2 DUP3 DIV SWAP1 POP PUSH1 0x1 DUP3 AND DUP1 PUSH2 0x3DDF JUMPI PUSH1 0x7F DUP3 AND SWAP2 POP JUMPDEST PUSH1 0x20 DUP3 LT DUP2 SUB PUSH2 0x3DF2 JUMPI PUSH2 0x3DF1 PUSH2 0x3D9B JUMP JUMPDEST JUMPDEST POP SWAP2 SWAP1 POP JUMP JUMPDEST PUSH0 DUP2 SWAP1 POP DUP2 PUSH0 MSTORE PUSH1 0x20 PUSH0 KECCAK256 SWAP1 POP SWAP2 SWAP1 POP JUMP JUMPDEST PUSH0 PUSH1 0x20 PUSH1 0x1F DUP4 ADD DIV SWAP1 POP SWAP2 SWAP1 POP JUMP JUMPDEST PUSH0 DUP3 DUP3 SHL SWAP1 POP SWAP3 SWAP2 POP POP JUMP JUMPDEST PUSH0 PUSH1 0x8 DUP4 MUL PUSH2 0x3E54 PUSH32 0xFFFFFFFFFFFFFFFFFFFFFFFFFFFFFFFFFFFFFFFFFFFFFFFFFFFFFFFFFFFFFFFF DUP3 PUSH2 0x3E19 JUMP JUMPDEST PUSH2 0x3E5E DUP7 DUP4 PUSH2 0x3E19 JUMP JUMPDEST SWAP6 POP DUP1 NOT DUP5 AND SWAP4 POP DUP1 DUP7 AND DUP5 OR SWAP3 POP POP POP SWAP4 SWAP3 POP POP POP JUMP JUMPDEST PUSH0 DUP2 SWAP1 POP SWAP2 SWAP1 POP JUMP JUMPDEST PUSH0 PUSH2 0x3E99 PUSH2 0x3E94 PUSH2 0x3E8F DUP5 PUSH2 0x33B6 JUMP JUMPDEST PUSH2 0x3E76 JUMP JUMPDEST PUSH2 0x33B6 JUMP JUMPDEST SWAP1 POP SWAP2 SWAP1 POP JUMP JUMPDEST PUSH0 DUP2 SWAP1 POP SWAP2 SWAP1 POP JUMP JUMPDEST PUSH2 0x3EB2 DUP4 PUSH2 0x3E7F JUMP JUMPDEST PUSH2 0x3EC6 PUSH2 0x3EBE DUP3 PUSH2 0x3EA0 JUMP JUMPDEST DUP5 DUP5 SLOAD PUSH2 0x3E25 JUMP JUMPDEST DUP3 SSTORE POP POP POP POP JUMP JUMPDEST PUSH0 PUSH0 SWAP1 POP SWAP1 JUMP JUMPDEST PUSH2 0x3EDD PUSH2 0x3ECE JUMP JUMPDEST PUSH2 0x3EE8 DUP2 DUP5 DUP5 PUSH2 0x3EA9 JUMP JUMPDEST POP POP POP JUMP JUMPDEST JUMPDEST DUP2 DUP2 LT ISZERO PUSH2 0x3F0B JUMPI PUSH2 0x3F00 PUSH0 DUP3 PUSH2 0x3ED5 JUMP JUMPDEST PUSH1 0x1 DUP2 ADD SWAP1 POP PUSH2 0x3EEE JUMP JUMPDEST POP POP JUMP JUMPDEST PUSH1 0x1F DUP3 GT ISZERO PUSH2 0x3F50 JUMPI PUSH2 0x3F21 DUP2 PUSH2 0x3DF8 JUMP JUMPDEST PUSH2 0x3F2A DUP5 PUSH2 0x3E0A JUMP JUMPDEST DUP2 ADD PUSH1 0x20 DUP6 LT ISZERO PUSH2 0x3F39 JUMPI DUP2 SWAP1 POP JUMPDEST PUSH2 0x3F4D PUSH2 0x3F45 DUP6 PUSH2 0x3E0A JUMP JUMPDEST DUP4 ADD DUP3 PUSH2 0x3EED JUMP JUMPDEST POP POP JUMPDEST POP POP POP JUMP JUMPDEST PUSH0 DUP3 DUP3 SHR SWAP1 POP SWAP3 SWAP2 POP POP JUMP JUMPDEST PUSH0 PUSH2 0x3F70 PUSH0 NOT DUP5 PUSH1 0x8 MUL PUSH2 0x3F55 JUMP JUMPDEST NOT DUP1 DUP4 AND SWAP2 POP POP SWAP3 SWAP2 POP POP JUMP JUMPDEST PUSH0 PUSH2 0x3F88 DUP4 DUP4 PUSH2 0x3F61 JUMP JUMPDEST SWAP2 POP DUP3 PUSH1 0x2 MUL DUP3 OR SWAP1 POP SWAP3 SWAP2 POP POP JUMP JUMPDEST PUSH2 0x3FA1 DUP3 PUSH2 0x3347 JUMP JUMPDEST PUSH8 0xFFFFFFFFFFFFFFFF DUP2 GT ISZERO PUSH2 0x3FBA JUMPI PUSH2 0x3FB9 PUSH2 0x30D9 JUMP JUMPDEST JUMPDEST PUSH2 0x3FC4 DUP3 SLOAD PUSH2 0x3DC8 JUMP JUMPDEST PUSH2 0x3FCF DUP3 DUP3 DUP6 PUSH2 0x3F0F JUMP JUMPDEST PUSH0 PUSH1 0x20 SWAP1 POP PUSH1 0x1F DUP4 GT PUSH1 0x1 DUP2 EQ PUSH2 0x4000 JUMPI PUSH0 DUP5 ISZERO PUSH2 0x3FEE JUMPI DUP3 DUP8 ADD MLOAD SWAP1 POP JUMPDEST PUSH2 0x3FF8 DUP6 DUP3 PUSH2 0x3F7D JUMP JUMPDEST DUP7 SSTORE POP PUSH2 0x405F JUMP JUMPDEST PUSH1 0x1F NOT DUP5 AND PUSH2 0x400E DUP7 PUSH2 0x3DF8 JUMP JUMPDEST PUSH0 JUMPDEST DUP3 DUP2 LT ISZERO PUSH2 0x4035 JUMPI DUP5 DUP10 ADD MLOAD DUP3 SSTORE PUSH1 0x1 DUP3 ADD SWAP2 POP PUSH1 0x20 DUP6 ADD SWAP5 POP PUSH1 0x20 DUP2 ADD SWAP1 POP PUSH2 0x4010 JUMP JUMPDEST DUP7 DUP4 LT ISZERO PUSH2 0x4052 JUMPI DUP5 DUP10 ADD MLOAD PUSH2 0x404E PUSH1 0x1F DUP10 AND DUP3 PUSH2 0x3F61 JUMP JUMPDEST DUP4 SSTORE POP JUMPDEST PUSH1 0x1 PUSH1 0x2 DUP9 MUL ADD DUP9 SSTORE POP POP POP JUMPDEST POP POP POP POP POP POP JUMP JUMPDEST PUSH0 PUSH1 0x40 DUP3 ADD SWAP1 POP DUP2 DUP2 SUB PUSH0 DUP4 ADD MSTORE PUSH2 0x407F DUP2 DUP6 PUSH2 0x336F JUMP JUMPDEST SWAP1 POP PUSH2 0x408E PUSH1 0x20 DUP4 ADD DUP5 PUSH2 0x33BF JUMP JUMPDEST SWAP4 SWAP3 POP POP POP JUMP JUMPDEST PUSH0 PUSH2 0x40A1 PUSH1 0xE DUP4 PUSH2 0x3351 JUMP JUMPDEST SWAP2 POP PUSH2 0x40AC DUP3 PUSH2 0x3AD3 JUMP JUMPDEST PUSH1 0x20 DUP3 ADD SWAP1 POP SWAP2 SWAP1 POP JUMP JUMPDEST PUSH0 PUSH1 0x20 DUP3 ADD SWAP1 POP DUP2 DUP2 SUB PUSH0 DUP4 ADD MSTORE PUSH2 0x40CE DUP2 PUSH2 0x4095 JUMP JUMPDEST SWAP1 POP SWAP2 SWAP1 POP JUMP JUMPDEST PUSH32 0x4F6E6C792070726F64756365722063616E20706572666F726D20746869732061 PUSH0 DUP3 ADD MSTORE PUSH32 0x6374696F6E000000000000000000000000000000000000000000000000000000 PUSH1 0x20 DUP3 ADD MSTORE POP JUMP JUMPDEST PUSH0 PUSH2 0x412F PUSH1 0x25 DUP4 PUSH2 0x3351 JUMP JUMPDEST SWAP2 POP PUSH2 0x413A DUP3 PUSH2 0x40D5 JUMP JUMPDEST PUSH1 0x40 DUP3 ADD SWAP1 POP SWAP2 SWAP1 POP JUMP JUMPDEST PUSH0 PUSH1 0x20 DUP3 ADD SWAP1 POP DUP2 DUP2 SUB PUSH0 DUP4 ADD MSTORE PUSH2 0x415C DUP2 PUSH2 0x4123 JUMP JUMPDEST SWAP1 POP SWAP2 SWAP1 POP JUMP JUMPDEST PUSH32 0x426174636820494420616C726561647920657869737473000000000000000000 PUSH0 DUP3 ADD MSTORE POP JUMP JUMPDEST PUSH0 PUSH2 0x4197 PUSH1 0x17 DUP4 PUSH2 0x3351 JUMP JUMPDEST SWAP2 POP PUSH2 0x41A2 DUP3 PUSH2 0x4163 JUMP JUMPDEST PUSH1 0x20 DUP3 ADD SWAP1 POP SWAP2 SWAP1 POP JUMP JUMPDEST PUSH0 PUSH1 0x20 DUP3 ADD SWAP1 POP DUP2 DUP2 SUB PUSH0 DUP4 ADD MSTORE PUSH2 0x41C4 DUP2 PUSH2 0x418B JUMP JUMPDEST SWAP1 POP SWAP2 SWAP1 POP JUMP JUMPDEST PUSH32 0x42617463682049442063616E6E6F7420626520656D7074790000000000000000 PUSH0 DUP3 ADD MSTORE POP JUMP JUMPDEST PUSH0 PUSH2 0x41FF PUSH1 0x18 DUP4 PUSH2 0x3351 JUMP JUMPDEST SWAP2 POP PUSH2 0x420A DUP3 PUSH2 0x41CB JUMP JUMPDEST PUSH1 0x20 DUP3 ADD SWAP1 POP SWAP2 SWAP1 POP JUMP JUMPDEST PUSH0 PUSH1 0x20 DUP3 ADD SWAP1 POP DUP2 DUP2 SUB PUSH0 DUP4 ADD MSTORE PUSH2 0x422C DUP2 PUSH2 0x41F3 JUMP JUMPDEST SWAP1 POP SWAP2 SWAP1 POP JUMP JUMPDEST PUSH32 0x50726F64756374206E616D652063616E6E6F7420626520656D70747900000000 PUSH0 DUP3 ADD MSTORE POP JUMP JUMPDEST PUSH0 PUSH2 0x4267 PUSH1 0x1C DUP4 PUSH2 0x3351 JUMP JUMPDEST SWAP2 POP PUSH2 0x4272 DUP3 PUSH2 0x4233 JUMP JUMPDEST PUSH1 0x20 DUP3 ADD SWAP1 POP SWAP2 SWAP1 POP JUMP JUMPDEST PUSH0 PUSH1 0x20 DUP3 ADD SWAP1 POP DUP2 DUP2 SUB PUSH0 DUP4 ADD MSTORE PUSH2 0x4294 DUP2 PUSH2 0x425B JUMP JUMPDEST SWAP1 POP SWAP2 SWAP1 POP JUMP JUMPDEST PUSH32 0x4F6E6C792063757272656E74206F776E65722063616E20706572666F726D2074 PUSH0 DUP3 ADD MSTORE PUSH32 0x68697320616374696F6E00000000000000000000000000000000000000000000 PUSH1 0x20 DUP3 ADD MSTORE POP JUMP JUMPDEST PUSH0 PUSH2 0x42F5 PUSH1 0x2A DUP4 PUSH2 0x3351 JUMP JUMPDEST SWAP2 POP PUSH2 0x4300 DUP3 PUSH2 0x429B JUMP JUMPDEST PUSH1 0x40 DUP3 ADD SWAP1 POP SWAP2 SWAP1 POP JUMP JUMPDEST PUSH0 PUSH1 0x20 DUP3 ADD SWAP1 POP DUP2 DUP2 SUB PUSH0 DUP4 ADD MSTORE PUSH2 0x4322 DUP2 PUSH2 0x42E9 JUMP JUMPDEST SWAP1 POP SWAP2 SWAP1 POP JUMP JUMPDEST PUSH32 0x496E76616C696420726563697069656E74206164647265737300000000000000 PUSH0 DUP3 ADD MSTORE POP JUMP JUMPDEST PUSH0 PUSH2 0x435D PUSH1 0x19 DUP4 PUSH2 0x3351 JUMP JUMPDEST SWAP2 POP PUSH2 0x4368 DUP3 PUSH2 0x4329 JUMP JUMPDEST PUSH1 0x20 DUP3 ADD SWAP1 POP SWAP2 SWAP1 POP JUMP JUMPDEST PUSH0 PUSH1 0x20 DUP3 ADD SWAP1 POP DUP2 DUP2 SUB PUSH0 DUP4 ADD MSTORE PUSH2 0x438A DUP2 PUSH2 0x4351 JUMP JUMPDEST SWAP1 POP SWAP2 SWAP1 POP JUMP JUMPDEST PUSH32 0x43616E6E6F74207472616E7366657220746F20796F757273656C660000000000 PUSH0 DUP3 ADD MSTORE POP JUMP JUMPDEST PUSH0 PUSH2 0x43C5 PUSH1 0x1B DUP4 PUSH2 0x3351 JUMP JUMPDEST SWAP2 POP PUSH2 0x43D0 DUP3 PUSH2 0x4391 JUMP JUMPDEST PUSH1 0x20 DUP3 ADD SWAP1 POP SWAP2 SWAP1 POP JUMP JUMPDEST PUSH0 PUSH1 0x20 DUP3 ADD SWAP1 POP DUP2 DUP2 SUB PUSH0 DUP4 ADD MSTORE PUSH2 0x43F2 DUP2 PUSH2 0x43B9 JUMP JUMPDEST SWAP1 POP SWAP2 SWAP1 POP JUMP JUMPDEST PUSH32 0x526563697069656E74206D757374206861766520612076616C696420726F6C65 PUSH0 DUP3 ADD MSTORE POP JUMP JUMPDEST PUSH0 PUSH2 0x442D PUSH1 0x20 DUP4 PUSH2 0x3351 JUMP JUMPDEST SWAP2 POP PUSH2 0x4438 DUP3 PUSH2 0x43F9 JUMP JUMPDEST PUSH1 0x20 DUP3 ADD SWAP1 POP SWAP2 SWAP1 POP JUMP JUMPDEST PUSH0 PUSH1 0x20 DUP3 ADD SWAP1 POP DUP2 DUP2 SUB PUSH0 DUP4 ADD MSTORE PUSH2 0x445A DUP2 PUSH2 0x4421 JUMP JUMPDEST SWAP1 POP SWAP2 SWAP1 POP JUMP JUMPDEST PUSH32 0x4F6E6C792068616C616C20617574686F726974792063616E20706572666F726D PUSH0 DUP3 ADD MSTORE PUSH32 0x207468697320616374696F6E0000000000000000000000000000000000000000 PUSH1 0x20 DUP3 ADD MSTORE POP JUMP JUMPDEST PUSH0 PUSH2 0x44BB PUSH1 0x2C DUP4 PUSH2 0x3351 JUMP JUMPDEST SWAP2 POP PUSH2 0x44C6 DUP3 PUSH2 0x4461 JUMP JUMPDEST PUSH1 0x40 DUP3 ADD SWAP1 POP SWAP2 SWAP1 POP JUMP JUMPDEST PUSH0 PUSH1 0x20 DUP3 ADD SWAP1 POP DUP2 DUP2 SUB PUSH0 DUP4 ADD MSTORE PUSH2 0x44E8 DUP2 PUSH2 0x44AF JUMP JUMPDEST SWAP1 POP SWAP2 SWAP1 POP JUMP JUMPDEST PUSH32 0x436572746966696361746520686173682063616E6E6F7420626520656D707479 PUSH0 DUP3 ADD MSTORE POP JUMP JUMPDEST PUSH0 PUSH2 0x4523 PUSH1 0x20 DUP4 PUSH2 0x3351 JUMP JUMPDEST SWAP2 POP PUSH2 0x452E DUP3 PUSH2 0x44EF JUMP JUMPDEST PUSH1 0x20 DUP3 ADD SWAP1 POP SWAP2 SWAP1 POP JUMP JUMPDEST PUSH0 PUSH1 0x20 DUP3 ADD SWAP1 POP DUP2 DUP2 SUB PUSH0 DUP4 ADD MSTORE PUSH2 0x4550 DUP2 PUSH2 0x4517 JUMP JUMPDEST SWAP1 POP SWAP2 SWAP1 POP JUMP INVALID LOG2 PUSH5 0x6970667358 0x22 SLT KECCAK256 PUSH27 0x4085E1BF9DE3E063DBF3FCD799D603F33D4A6B7B8A375F4AB7AA68 0x2D COINBASE 0xA8 SELFBALANCE PUSH5 0x736F6C6343 STOP ADDMOD 0x1E STOP CALLER "
				},
				"gasEstimates": {
					"creation": {
						"codeDepositCost": "3561000",
						"executionCost": "28260",
						"totalCost": "3589260"
					},
					"external": {
						"admin()": "2573",
						"assignDistributor(address)": "29198",
						"assignHalalAuthority(address)": "29197",
						"assignProducer(address)": "29176",
						"assignRetailer(address)": "29264",
						"batchHistory(string,uint256)": "infinite",
						"batchIds(uint256)": "infinite",
						"batches(string)": "infinite",
						"createBatch(string,string)": "infinite",
						"distributors(address)": "2900",
						"getAllBatchIds()": "infinite",
						"getBatch(string)": "infinite",
						"getBatchHistory(string)": "infinite",
						"getTotalBatches()": "2484",
						"halalAuthorities(address)": "2878",
						"hasRole(address,string)": "infinite",
						"producers(address)": "2967",
						"retailers(address)": "2966",
						"revokeDistributor(address)": "29219",
						"revokeHalalAuthority(address)": "29240",
						"revokeProducer(address)": "29261",
						"revokeRetailer(address)": "29218",
						"setHalalCertificate(string,string)": "infinite",
						"transferBatch(string,address)": "infinite",
						"updateStatus(string,string)": "infinite"
					}
				},
				"methodIdentifiers": {
					"admin()": "f851a440",
					"assignDistributor(address)": "0c1b1178",
					"assignHalalAuthority(address)": "65de2305",
					"assignProducer(address)": "0091a91c",
					"assignRetailer(address)": "2561f718",
					"batchHistory(string,uint256)": "9b4bc927",
					"batchIds(uint256)": "b3d346b9",
					"batches(string)": "7ef1446a",
					"createBatch(string,string)": "92b8f021",
					"distributors(address)": "cc642784",
					"getAllBatchIds()": "bce06947",
					"getBatch(string)": "f9ca4274",
					"getBatchHistory(string)": "a252d8a7",
					"getTotalBatches()": "e561dddc",
					"halalAuthorities(address)": "c989ea25",
					"hasRole(address,string)": "217fe6c6",
					"producers(address)": "26324eff",
					"retailers(address)": "9a268f35",
					"revokeDistributor(address)": "120b93d3",
					"revokeHalalAuthority(address)": "dcdcbe4e",
					"revokeProducer(address)": "f9f8904a",
					"revokeRetailer(address)": "782eb934",
					"setHalalCertificate(string,string)": "bbb65699",
					"transferBatch(string,address)": "b401563b",
					"updateStatus(string,string)": "347047cc"
				}
			},
			"storageLayout": {
				"storage": [
					{
						"astId": 4,
						"contract": "Halal.sol:HalalSupplyChain",
						"label": "admin",
						"offset": 0,
						"slot": "0",
						"type": "t_address"
					},
					{
						"astId": 8,
						"contract": "Halal.sol:HalalSupplyChain",
						"label": "producers",
						"offset": 0,
						"slot": "1",
						"type": "t_mapping(t_address,t_bool)"
					},
					{
						"astId": 12,
						"contract": "Halal.sol:HalalSupplyChain",
						"label": "halalAuthorities",
						"offset": 0,
						"slot": "2",
						"type": "t_mapping(t_address,t_bool)"
					},
					{
						"astId": 16,
						"contract": "Halal.sol:HalalSupplyChain",
						"label": "distributors",
						"offset": 0,
						"slot": "3",
						"type": "t_mapping(t_address,t_bool)"
					},
					{
						"astId": 20,
						"contract": "Halal.sol:HalalSupplyChain",
						"label": "retailers",
						"offset": 0,
						"slot": "4",
						"type": "t_mapping(t_address,t_bool)"
					},
					{
						"astId": 49,
						"contract": "Halal.sol:HalalSupplyChain",
						"label": "batches",
						"offset": 0,
						"slot": "5",
						"type": "t_mapping(t_string_memory_ptr,t_struct(Batch)37_storage)"
					},
					{
						"astId": 55,
						"contract": "Halal.sol:HalalSupplyChain",
						"label": "batchHistory",
						"offset": 0,
						"slot": "6",
						"type": "t_mapping(t_string_memory_ptr,t_array(t_struct(StatusHistory)44_storage)dyn_storage)"
					},
					{
						"astId": 58,
						"contract": "Halal.sol:HalalSupplyChain",
						"label": "batchIds",
						"offset": 0,
						"slot": "7",
						"type": "t_array(t_string_storage)dyn_storage"
					}
				],
				"types": {
					"t_address": {
						"encoding": "inplace",
						"label": "address",
						"numberOfBytes": "20"
					},
					"t_array(t_string_storage)dyn_storage": {
						"base": "t_string_storage",
						"encoding": "dynamic_array",
						"label": "string[]",
						"numberOfBytes": "32"
					},
					"t_array(t_struct(StatusHistory)44_storage)dyn_storage": {
						"base": "t_struct(StatusHistory)44_storage",
						"encoding": "dynamic_array",
						"label": "struct HalalSupplyChain.StatusHistory[]",
						"numberOfBytes": "32"
					},
					"t_bool": {
						"encoding": "inplace",
						"label": "bool",
						"numberOfBytes": "1"
					},
					"t_mapping(t_address,t_bool)": {
						"encoding": "mapping",
						"key": "t_address",
						"label": "mapping(address => bool)",
						"numberOfBytes": "32",
						"value": "t_bool"
					},
					"t_mapping(t_string_memory_ptr,t_array(t_struct(StatusHistory)44_storage)dyn_storage)": {
						"encoding": "mapping",
						"key": "t_string_memory_ptr",
						"label": "mapping(string => struct HalalSupplyChain.StatusHistory[])",
						"numberOfBytes": "32",
						"value": "t_array(t_struct(StatusHistory)44_storage)dyn_storage"
					},
					"t_mapping(t_string_memory_ptr,t_struct(Batch)37_storage)": {
						"encoding": "mapping",
						"key": "t_string_memory_ptr",
						"label": "mapping(string => struct HalalSupplyChain.Batch)",
						"numberOfBytes": "32",
						"value": "t_struct(Batch)37_storage"
					},
					"t_string_memory_ptr": {
						"encoding": "bytes",
						"label": "string",
						"numberOfBytes": "32"
					},
					"t_string_storage": {
						"encoding": "bytes",
						"label": "string",
						"numberOfBytes": "32"
					},
					"t_struct(Batch)37_storage": {
						"encoding": "inplace",
						"label": "struct HalalSupplyChain.Batch",
						"members": [
							{
								"astId": 22,
								"contract": "Halal.sol:HalalSupplyChain",
								"label": "productName",
								"offset": 0,
								"slot": "0",
								"type": "t_string_storage"
							},
							{
								"astId": 24,
								"contract": "Halal.sol:HalalSupplyChain",
								"label": "batchId",
								"offset": 0,
								"slot": "1",
								"type": "t_string_storage"
							},
							{
								"astId": 26,
								"contract": "Halal.sol:HalalSupplyChain",
								"label": "producer",
								"offset": 0,
								"slot": "2",
								"type": "t_address"
							},
							{
								"astId": 28,
								"contract": "Halal.sol:HalalSupplyChain",
								"label": "currentOwner",
								"offset": 0,
								"slot": "3",
								"type": "t_address"
							},
							{
								"astId": 30,
								"contract": "Halal.sol:HalalSupplyChain",
								"label": "status",
								"offset": 0,
								"slot": "4",
								"type": "t_string_storage"
							},
							{
								"astId": 32,
								"contract": "Halal.sol:HalalSupplyChain",
								"label": "halalCertHash",
								"offset": 0,
								"slot": "5",
								"type": "t_string_storage"
							},
							{
								"astId": 34,
								"contract": "Halal.sol:HalalSupplyChain",
								"label": "createdAt",
								"offset": 0,
								"slot": "6",
								"type": "t_uint256"
							},
							{
								"astId": 36,
								"contract": "Halal.sol:HalalSupplyChain",
								"label": "exists",
								"offset": 0,
								"slot": "7",
								"type": "t_bool"
							}
						],
						"numberOfBytes": "256"
					},
					"t_struct(StatusHistory)44_storage": {
						"encoding": "inplace",
						"label": "struct HalalSupplyChain.StatusHistory",
						"members": [
							{
								"astId": 39,
								"contract": "Halal.sol:HalalSupplyChain",
								"label": "status",
								"offset": 0,
								"slot": "0",
								"type": "t_string_storage"
							},
							{
								"astId": 41,
								"contract": "Halal.sol:HalalSupplyChain",
								"label": "timestamp",
								"offset": 0,
								"slot": "1",
								"type": "t_uint256"
							},
							{
								"astId": 43,
								"contract": "Halal.sol:HalalSupplyChain",
								"label": "updatedBy",
								"offset": 0,
								"slot": "2",
								"type": "t_address"
							}
						],
						"numberOfBytes": "96"
					},
					"t_uint256": {
						"encoding": "inplace",
						"label": "uint256",
						"numberOfBytes": "32"
					}
				}
			},
			"userdoc": {
				"kind": "user",
				"methods": {},
				"version": 1
			}
		}
	}
}